{
	"miscellaneous/SimpleERC223Token.sol": {
		"TokenBankChallenge": {
			"abi": [
				{
					"inputs": [
						{
							"internalType": "address",
							"name": "player",
							"type": "address"
						}
					],
					"stateMutability": "nonpayable",
					"type": "constructor"
				},
				{
					"inputs": [
						{
							"internalType": "address",
							"name": "",
							"type": "address"
						}
					],
					"name": "balanceOf",
					"outputs": [
						{
							"internalType": "uint256",
							"name": "",
							"type": "uint256"
						}
					],
					"stateMutability": "view",
					"type": "function"
				},
				{
					"inputs": [],
					"name": "isComplete",
					"outputs": [
						{
							"internalType": "bool",
							"name": "",
							"type": "bool"
						}
					],
					"stateMutability": "view",
					"type": "function"
				},
				{
					"inputs": [],
					"name": "token",
					"outputs": [
						{
							"internalType": "contract SimpleERC223Token",
							"name": "",
							"type": "address"
						}
					],
					"stateMutability": "view",
					"type": "function"
				},
				{
					"inputs": [
						{
							"internalType": "address",
							"name": "from",
							"type": "address"
						},
						{
							"internalType": "uint256",
							"name": "value",
							"type": "uint256"
						},
						{
							"internalType": "bytes",
							"name": "",
							"type": "bytes"
						}
					],
					"name": "tokenFallback",
					"outputs": [],
					"stateMutability": "nonpayable",
					"type": "function"
				},
				{
					"inputs": [
						{
							"internalType": "uint256",
							"name": "amount",
							"type": "uint256"
						}
					],
					"name": "withdraw",
					"outputs": [],
					"stateMutability": "nonpayable",
					"type": "function"
				}
			],
			"devdoc": {
				"kind": "dev",
				"methods": {},
				"version": 1
			},
			"evm": {
				"assembly": "    /* \"miscellaneous/SimpleERC223Token.sol\":2419:3463  contract TokenBankChallenge {... */\n  mstore(0x40, 0x80)\n    /* \"miscellaneous/SimpleERC223Token.sol\":2548:2900  constructor(address player)  {... */\n  callvalue\n  dup1\n  iszero\n  tag_1\n  jumpi\n  0x00\n  dup1\n  revert\ntag_1:\n  pop\n  mload(0x40)\n  sub(codesize, bytecodeSize)\n  dup1\n  bytecodeSize\n  dup4\n  codecopy\n  dup2\n  dup2\n  add\n  0x40\n  mstore\n  dup2\n  add\n  swap1\n  tag_2\n  swap2\n  swap1\n  tag_3\n  jump\t// in\ntag_2:\n    /* \"miscellaneous/SimpleERC223Token.sol\":2596:2619  new SimpleERC223Token() */\n  mload(0x40)\n  tag_6\n  swap1\n  tag_7\n  jump\t// in\ntag_6:\n  mload(0x40)\n  dup1\n  swap2\n  sub\n  swap1\n  0x00\n  create\n  dup1\n  iszero\n  dup1\n  iszero\n  tag_8\n  jumpi\n  returndatasize\n  0x00\n  dup1\n  returndatacopy\n  revert(0x00, returndatasize)\ntag_8:\n  pop\n    /* \"miscellaneous/SimpleERC223Token.sol\":2588:2593  token */\n  0x00\n  dup1\n    /* \"miscellaneous/SimpleERC223Token.sol\":2588:2619  token = new SimpleERC223Token() */\n  0x0100\n  exp\n  dup2\n  sload\n  dup2\n  0xffffffffffffffffffffffffffffffffffffffff\n  mul\n  not\n  and\n  swap1\n  dup4\n  0xffffffffffffffffffffffffffffffffffffffff\n  and\n  mul\n  or\n  swap1\n  sstore\n  pop\n    /* \"miscellaneous/SimpleERC223Token.sol\":2794:2809  500000 * 10**18 */\n  0x69e10de76676d0800000\n    /* \"miscellaneous/SimpleERC223Token.sol\":2770:2779  balanceOf */\n  0x01\n    /* \"miscellaneous/SimpleERC223Token.sol\":2770:2791  balanceOf[msg.sender] */\n  0x00\n    /* \"miscellaneous/SimpleERC223Token.sol\":2780:2790  msg.sender */\n  caller\n    /* \"miscellaneous/SimpleERC223Token.sol\":2770:2791  balanceOf[msg.sender] */\n  0xffffffffffffffffffffffffffffffffffffffff\n  and\n  0xffffffffffffffffffffffffffffffffffffffff\n  and\n  dup2\n  mstore\n  0x20\n  add\n  swap1\n  dup2\n  mstore\n  0x20\n  add\n  0x00\n  keccak256\n    /* \"miscellaneous/SimpleERC223Token.sol\":2770:2809  balanceOf[msg.sender] = 500000 * 10**18 */\n  dup2\n  swap1\n  sstore\n  pop\n    /* \"miscellaneous/SimpleERC223Token.sol\":2856:2871  500000 * 10**18 */\n  0x69e10de76676d0800000\n    /* \"miscellaneous/SimpleERC223Token.sol\":2836:2845  balanceOf */\n  0x01\n    /* \"miscellaneous/SimpleERC223Token.sol\":2836:2853  balanceOf[player] */\n  0x00\n    /* \"miscellaneous/SimpleERC223Token.sol\":2846:2852  player */\n  dup4\n    /* \"miscellaneous/SimpleERC223Token.sol\":2836:2853  balanceOf[player] */\n  0xffffffffffffffffffffffffffffffffffffffff\n  and\n  0xffffffffffffffffffffffffffffffffffffffff\n  and\n  dup2\n  mstore\n  0x20\n  add\n  swap1\n  dup2\n  mstore\n  0x20\n  add\n  0x00\n  keccak256\n    /* \"miscellaneous/SimpleERC223Token.sol\":2836:2871  balanceOf[player] = 500000 * 10**18 */\n  dup2\n  swap1\n  sstore\n  pop\n    /* \"miscellaneous/SimpleERC223Token.sol\":2548:2900  constructor(address player)  {... */\n  pop\n    /* \"miscellaneous/SimpleERC223Token.sol\":2419:3463  contract TokenBankChallenge {... */\n  jump(tag_9)\ntag_7:\n  dataSize(sub_1)\n  dup1\n  dataOffset(sub_1)\n  dup4\n  codecopy\n  add\n  swap1\n  jump\t// out\n    /* \"#utility.yul\":88:205   */\ntag_11:\n    /* \"#utility.yul\":197:198   */\n  0x00\n    /* \"#utility.yul\":194:195   */\n  dup1\n    /* \"#utility.yul\":187:199   */\n  revert\n    /* \"#utility.yul\":334:460   */\ntag_13:\n    /* \"#utility.yul\":371:378   */\n  0x00\n    /* \"#utility.yul\":411:453   */\n  0xffffffffffffffffffffffffffffffffffffffff\n    /* \"#utility.yul\":404:409   */\n  dup3\n    /* \"#utility.yul\":400:454   */\n  and\n    /* \"#utility.yul\":389:454   */\n  swap1\n  pop\n    /* \"#utility.yul\":334:460   */\n  swap2\n  swap1\n  pop\n  jump\t// out\n    /* \"#utility.yul\":466:562   */\ntag_14:\n    /* \"#utility.yul\":503:510   */\n  0x00\n    /* \"#utility.yul\":532:556   */\n  tag_23\n    /* \"#utility.yul\":550:555   */\n  dup3\n    /* \"#utility.yul\":532:556   */\n  tag_13\n  jump\t// in\ntag_23:\n    /* \"#utility.yul\":521:556   */\n  swap1\n  pop\n    /* \"#utility.yul\":466:562   */\n  swap2\n  swap1\n  pop\n  jump\t// out\n    /* \"#utility.yul\":568:690   */\ntag_15:\n    /* \"#utility.yul\":641:665   */\n  tag_25\n    /* \"#utility.yul\":659:664   */\n  dup2\n    /* \"#utility.yul\":641:665   */\n  tag_14\n  jump\t// in\ntag_25:\n    /* \"#utility.yul\":634:639   */\n  dup2\n    /* \"#utility.yul\":631:666   */\n  eq\n    /* \"#utility.yul\":621:684   */\n  tag_26\n  jumpi\n    /* \"#utility.yul\":680:681   */\n  0x00\n    /* \"#utility.yul\":677:678   */\n  dup1\n    /* \"#utility.yul\":670:682   */\n  revert\n    /* \"#utility.yul\":621:684   */\ntag_26:\n    /* \"#utility.yul\":568:690   */\n  pop\n  jump\t// out\n    /* \"#utility.yul\":696:839   */\ntag_16:\n    /* \"#utility.yul\":753:758   */\n  0x00\n    /* \"#utility.yul\":784:790   */\n  dup2\n    /* \"#utility.yul\":778:791   */\n  mload\n    /* \"#utility.yul\":769:791   */\n  swap1\n  pop\n    /* \"#utility.yul\":800:833   */\n  tag_28\n    /* \"#utility.yul\":827:832   */\n  dup2\n    /* \"#utility.yul\":800:833   */\n  tag_15\n  jump\t// in\ntag_28:\n    /* \"#utility.yul\":696:839   */\n  swap3\n  swap2\n  pop\n  pop\n  jump\t// out\n    /* \"#utility.yul\":845:1196   */\ntag_3:\n    /* \"#utility.yul\":915:921   */\n  0x00\n    /* \"#utility.yul\":964:966   */\n  0x20\n    /* \"#utility.yul\":952:961   */\n  dup3\n    /* \"#utility.yul\":943:950   */\n  dup5\n    /* \"#utility.yul\":939:962   */\n  sub\n    /* \"#utility.yul\":935:967   */\n  slt\n    /* \"#utility.yul\":932:1051   */\n  iszero\n  tag_30\n  jumpi\n    /* \"#utility.yul\":970:1049   */\n  tag_31\n  tag_11\n  jump\t// in\ntag_31:\n    /* \"#utility.yul\":932:1051   */\ntag_30:\n    /* \"#utility.yul\":1090:1091   */\n  0x00\n    /* \"#utility.yul\":1115:1179   */\n  tag_32\n    /* \"#utility.yul\":1171:1178   */\n  dup5\n    /* \"#utility.yul\":1162:1168   */\n  dup3\n    /* \"#utility.yul\":1151:1160   */\n  dup6\n    /* \"#utility.yul\":1147:1169   */\n  add\n    /* \"#utility.yul\":1115:1179   */\n  tag_16\n  jump\t// in\ntag_32:\n    /* \"#utility.yul\":1105:1179   */\n  swap2\n  pop\n    /* \"#utility.yul\":1061:1189   */\n  pop\n    /* \"#utility.yul\":845:1196   */\n  swap3\n  swap2\n  pop\n  pop\n  jump\t// out\n    /* \"miscellaneous/SimpleERC223Token.sol\":2419:3463  contract TokenBankChallenge {... */\ntag_9:\n  dataSize(sub_0)\n  dup1\n  dataOffset(sub_0)\n  0x00\n  codecopy\n  0x00\n  return\nstop\n\nsub_0: assembly {\n        /* \"miscellaneous/SimpleERC223Token.sol\":2419:3463  contract TokenBankChallenge {... */\n      mstore(0x40, 0x80)\n      callvalue\n      dup1\n      iszero\n      tag_1\n      jumpi\n      0x00\n      dup1\n      revert\n    tag_1:\n      pop\n      jumpi(tag_2, lt(calldatasize, 0x04))\n      shr(0xe0, calldataload(0x00))\n      dup1\n      0x2e1a7d4d\n      eq\n      tag_3\n      jumpi\n      dup1\n      0x70a08231\n      eq\n      tag_4\n      jumpi\n      dup1\n      0xb2fa1c9e\n      eq\n      tag_5\n      jumpi\n      dup1\n      0xc0ee0b8a\n      eq\n      tag_6\n      jumpi\n      dup1\n      0xfc0c546a\n      eq\n      tag_7\n      jumpi\n    tag_2:\n      0x00\n      dup1\n      revert\n        /* \"miscellaneous/SimpleERC223Token.sol\":3262:3460  function withdraw(uint256 amount) public {... */\n    tag_3:\n      tag_8\n      0x04\n      dup1\n      calldatasize\n      sub\n      dup2\n      add\n      swap1\n      tag_9\n      swap2\n      swap1\n      tag_10\n      jump\t// in\n    tag_9:\n      tag_11\n      jump\t// in\n    tag_8:\n      stop\n        /* \"miscellaneous/SimpleERC223Token.sol\":2491:2535  mapping(address => uint256) public balanceOf */\n    tag_4:\n      tag_12\n      0x04\n      dup1\n      calldatasize\n      sub\n      dup2\n      add\n      swap1\n      tag_13\n      swap2\n      swap1\n      tag_14\n      jump\t// in\n    tag_13:\n      tag_15\n      jump\t// in\n    tag_12:\n      mload(0x40)\n      tag_16\n      swap2\n      swap1\n      tag_17\n      jump\t// in\n    tag_16:\n      mload(0x40)\n      dup1\n      swap2\n      sub\n      swap1\n      return\n        /* \"miscellaneous/SimpleERC223Token.sol\":2908:3018  function isComplete() public view returns (bool) {... */\n    tag_5:\n      tag_18\n      tag_19\n      jump\t// in\n    tag_18:\n      mload(0x40)\n      tag_20\n      swap2\n      swap1\n      tag_21\n      jump\t// in\n    tag_20:\n      mload(0x40)\n      dup1\n      swap2\n      sub\n      swap1\n      return\n        /* \"miscellaneous/SimpleERC223Token.sol\":3026:3254  function tokenFallback(address from, uint256 value, bytes memory) public {... */\n    tag_6:\n      tag_22\n      0x04\n      dup1\n      calldatasize\n      sub\n      dup2\n      add\n      swap1\n      tag_23\n      swap2\n      swap1\n      tag_24\n      jump\t// in\n    tag_23:\n      tag_25\n      jump\t// in\n    tag_22:\n      stop\n        /* \"miscellaneous/SimpleERC223Token.sol\":2454:2484  SimpleERC223Token public token */\n    tag_7:\n      tag_26\n      tag_27\n      jump\t// in\n    tag_26:\n      mload(0x40)\n      tag_28\n      swap2\n      swap1\n      tag_29\n      jump\t// in\n    tag_28:\n      mload(0x40)\n      dup1\n      swap2\n      sub\n      swap1\n      return\n        /* \"miscellaneous/SimpleERC223Token.sol\":3262:3460  function withdraw(uint256 amount) public {... */\n    tag_11:\n        /* \"miscellaneous/SimpleERC223Token.sol\":3347:3353  amount */\n      dup1\n        /* \"miscellaneous/SimpleERC223Token.sol\":3322:3331  balanceOf */\n      0x01\n        /* \"miscellaneous/SimpleERC223Token.sol\":3322:3343  balanceOf[msg.sender] */\n      0x00\n        /* \"miscellaneous/SimpleERC223Token.sol\":3332:3342  msg.sender */\n      caller\n        /* \"miscellaneous/SimpleERC223Token.sol\":3322:3343  balanceOf[msg.sender] */\n      0xffffffffffffffffffffffffffffffffffffffff\n      and\n      0xffffffffffffffffffffffffffffffffffffffff\n      and\n      dup2\n      mstore\n      0x20\n      add\n      swap1\n      dup2\n      mstore\n      0x20\n      add\n      0x00\n      keccak256\n      sload\n        /* \"miscellaneous/SimpleERC223Token.sol\":3322:3353  balanceOf[msg.sender] >= amount */\n      lt\n      iszero\n        /* \"miscellaneous/SimpleERC223Token.sol\":3314:3354  require(balanceOf[msg.sender] >= amount) */\n      tag_31\n      jumpi\n      0x00\n      dup1\n      revert\n    tag_31:\n        /* \"miscellaneous/SimpleERC223Token.sol\":3375:3380  token */\n      0x00\n      dup1\n      sload\n      swap1\n      0x0100\n      exp\n      swap1\n      div\n      0xffffffffffffffffffffffffffffffffffffffff\n      and\n        /* \"miscellaneous/SimpleERC223Token.sol\":3375:3389  token.transfer */\n      0xffffffffffffffffffffffffffffffffffffffff\n      and\n      0xa9059cbb\n        /* \"miscellaneous/SimpleERC223Token.sol\":3390:3400  msg.sender */\n      caller\n        /* \"miscellaneous/SimpleERC223Token.sol\":3402:3408  amount */\n      dup4\n        /* \"miscellaneous/SimpleERC223Token.sol\":3375:3409  token.transfer(msg.sender, amount) */\n      mload(0x40)\n      dup4\n      0xffffffff\n      and\n      0xe0\n      shl\n      dup2\n      mstore\n      0x04\n      add\n      tag_32\n      swap3\n      swap2\n      swap1\n      tag_33\n      jump\t// in\n    tag_32:\n      0x20\n      mload(0x40)\n      dup1\n      dup4\n      sub\n      dup2\n      0x00\n      dup8\n      gas\n      call\n      iszero\n      dup1\n      iszero\n      tag_35\n      jumpi\n      returndatasize\n      0x00\n      dup1\n      returndatacopy\n      revert(0x00, returndatasize)\n    tag_35:\n      pop\n      pop\n      pop\n      pop\n      mload(0x40)\n      returndatasize\n      not(0x1f)\n      0x1f\n      dup3\n      add\n      and\n      dup3\n      add\n      dup1\n      0x40\n      mstore\n      pop\n      dup2\n      add\n      swap1\n      tag_36\n      swap2\n      swap1\n      tag_37\n      jump\t// in\n    tag_36:\n        /* \"miscellaneous/SimpleERC223Token.sol\":3367:3410  require(token.transfer(msg.sender, amount)) */\n      tag_38\n      jumpi\n      0x00\n      dup1\n      revert\n    tag_38:\n        /* \"miscellaneous/SimpleERC223Token.sol\":3446:3452  amount */\n      dup1\n        /* \"miscellaneous/SimpleERC223Token.sol\":3421:3430  balanceOf */\n      0x01\n        /* \"miscellaneous/SimpleERC223Token.sol\":3421:3442  balanceOf[msg.sender] */\n      0x00\n        /* \"miscellaneous/SimpleERC223Token.sol\":3431:3441  msg.sender */\n      caller\n        /* \"miscellaneous/SimpleERC223Token.sol\":3421:3442  balanceOf[msg.sender] */\n      0xffffffffffffffffffffffffffffffffffffffff\n      and\n      0xffffffffffffffffffffffffffffffffffffffff\n      and\n      dup2\n      mstore\n      0x20\n      add\n      swap1\n      dup2\n      mstore\n      0x20\n      add\n      0x00\n      keccak256\n      0x00\n        /* \"miscellaneous/SimpleERC223Token.sol\":3421:3452  balanceOf[msg.sender] -= amount */\n      dup3\n      dup3\n      sload\n      tag_39\n      swap2\n      swap1\n      tag_40\n      jump\t// in\n    tag_39:\n      swap3\n      pop\n      pop\n      dup2\n      swap1\n      sstore\n      pop\n        /* \"miscellaneous/SimpleERC223Token.sol\":3262:3460  function withdraw(uint256 amount) public {... */\n      pop\n      jump\t// out\n        /* \"miscellaneous/SimpleERC223Token.sol\":2491:2535  mapping(address => uint256) public balanceOf */\n    tag_15:\n      mstore(0x20, 0x01)\n      dup1\n      0x00\n      mstore\n      keccak256(0x00, 0x40)\n      0x00\n      swap2\n      pop\n      swap1\n      pop\n      sload\n      dup2\n      jump\t// out\n        /* \"miscellaneous/SimpleERC223Token.sol\":2908:3018  function isComplete() public view returns (bool) {... */\n    tag_19:\n        /* \"miscellaneous/SimpleERC223Token.sol\":2951:2955  bool */\n      0x00\n        /* \"miscellaneous/SimpleERC223Token.sol\":3009:3010  0 */\n      dup1\n        /* \"miscellaneous/SimpleERC223Token.sol\":2975:2980  token */\n      0x00\n      dup1\n      sload\n      swap1\n      0x0100\n      exp\n      swap1\n      div\n      0xffffffffffffffffffffffffffffffffffffffff\n      and\n        /* \"miscellaneous/SimpleERC223Token.sol\":2975:2990  token.balanceOf */\n      0xffffffffffffffffffffffffffffffffffffffff\n      and\n      0x70a08231\n        /* \"miscellaneous/SimpleERC223Token.sol\":2999:3003  this */\n      address\n        /* \"miscellaneous/SimpleERC223Token.sol\":2975:3005  token.balanceOf(address(this)) */\n      mload(0x40)\n      dup3\n      0xffffffff\n      and\n      0xe0\n      shl\n      dup2\n      mstore\n      0x04\n      add\n      tag_42\n      swap2\n      swap1\n      tag_43\n      jump\t// in\n    tag_42:\n      0x20\n      mload(0x40)\n      dup1\n      dup4\n      sub\n      dup2\n      dup7\n      gas\n      staticcall\n      iszero\n      dup1\n      iszero\n      tag_45\n      jumpi\n      returndatasize\n      0x00\n      dup1\n      returndatacopy\n      revert(0x00, returndatasize)\n    tag_45:\n      pop\n      pop\n      pop\n      pop\n      mload(0x40)\n      returndatasize\n      not(0x1f)\n      0x1f\n      dup3\n      add\n      and\n      dup3\n      add\n      dup1\n      0x40\n      mstore\n      pop\n      dup2\n      add\n      swap1\n      tag_46\n      swap2\n      swap1\n      tag_47\n      jump\t// in\n    tag_46:\n        /* \"miscellaneous/SimpleERC223Token.sol\":2975:3010  token.balanceOf(address(this)) == 0 */\n      eq\n        /* \"miscellaneous/SimpleERC223Token.sol\":2968:3010  return token.balanceOf(address(this)) == 0 */\n      swap1\n      pop\n        /* \"miscellaneous/SimpleERC223Token.sol\":2908:3018  function isComplete() public view returns (bool) {... */\n      swap1\n      jump\t// out\n        /* \"miscellaneous/SimpleERC223Token.sol\":3026:3254  function tokenFallback(address from, uint256 value, bytes memory) public {... */\n    tag_25:\n        /* \"miscellaneous/SimpleERC223Token.sol\":3140:3145  token */\n      0x00\n      dup1\n      sload\n      swap1\n      0x0100\n      exp\n      swap1\n      div\n      0xffffffffffffffffffffffffffffffffffffffff\n      and\n        /* \"miscellaneous/SimpleERC223Token.sol\":3118:3146  msg.sender == address(token) */\n      0xffffffffffffffffffffffffffffffffffffffff\n      and\n        /* \"miscellaneous/SimpleERC223Token.sol\":3118:3128  msg.sender */\n      caller\n        /* \"miscellaneous/SimpleERC223Token.sol\":3118:3146  msg.sender == address(token) */\n      0xffffffffffffffffffffffffffffffffffffffff\n      and\n      eq\n        /* \"miscellaneous/SimpleERC223Token.sol\":3110:3147  require(msg.sender == address(token)) */\n      tag_49\n      jumpi\n      0x00\n      dup1\n      revert\n    tag_49:\n        /* \"miscellaneous/SimpleERC223Token.sol\":3193:3202  balanceOf */\n      0x01\n        /* \"miscellaneous/SimpleERC223Token.sol\":3193:3208  balanceOf[from] */\n      0x00\n        /* \"miscellaneous/SimpleERC223Token.sol\":3203:3207  from */\n      dup5\n        /* \"miscellaneous/SimpleERC223Token.sol\":3193:3208  balanceOf[from] */\n      0xffffffffffffffffffffffffffffffffffffffff\n      and\n      0xffffffffffffffffffffffffffffffffffffffff\n      and\n      dup2\n      mstore\n      0x20\n      add\n      swap1\n      dup2\n      mstore\n      0x20\n      add\n      0x00\n      keccak256\n      sload\n        /* \"miscellaneous/SimpleERC223Token.sol\":3184:3189  value */\n      dup3\n        /* \"miscellaneous/SimpleERC223Token.sol\":3166:3175  balanceOf */\n      0x01\n        /* \"miscellaneous/SimpleERC223Token.sol\":3166:3181  balanceOf[from] */\n      0x00\n        /* \"miscellaneous/SimpleERC223Token.sol\":3176:3180  from */\n      dup7\n        /* \"miscellaneous/SimpleERC223Token.sol\":3166:3181  balanceOf[from] */\n      0xffffffffffffffffffffffffffffffffffffffff\n      and\n      0xffffffffffffffffffffffffffffffffffffffff\n      and\n      dup2\n      mstore\n      0x20\n      add\n      swap1\n      dup2\n      mstore\n      0x20\n      add\n      0x00\n      keccak256\n      sload\n        /* \"miscellaneous/SimpleERC223Token.sol\":3166:3189  balanceOf[from] + value */\n      tag_50\n      swap2\n      swap1\n      tag_51\n      jump\t// in\n    tag_50:\n        /* \"miscellaneous/SimpleERC223Token.sol\":3166:3208  balanceOf[from] + value >= balanceOf[from] */\n      lt\n      iszero\n        /* \"miscellaneous/SimpleERC223Token.sol\":3158:3209  require(balanceOf[from] + value >= balanceOf[from]) */\n      tag_52\n      jumpi\n      0x00\n      dup1\n      revert\n    tag_52:\n        /* \"miscellaneous/SimpleERC223Token.sol\":3241:3246  value */\n      dup2\n        /* \"miscellaneous/SimpleERC223Token.sol\":3222:3231  balanceOf */\n      0x01\n        /* \"miscellaneous/SimpleERC223Token.sol\":3222:3237  balanceOf[from] */\n      0x00\n        /* \"miscellaneous/SimpleERC223Token.sol\":3232:3236  from */\n      dup6\n        /* \"miscellaneous/SimpleERC223Token.sol\":3222:3237  balanceOf[from] */\n      0xffffffffffffffffffffffffffffffffffffffff\n      and\n      0xffffffffffffffffffffffffffffffffffffffff\n      and\n      dup2\n      mstore\n      0x20\n      add\n      swap1\n      dup2\n      mstore\n      0x20\n      add\n      0x00\n      keccak256\n      0x00\n        /* \"miscellaneous/SimpleERC223Token.sol\":3222:3246  balanceOf[from] += value */\n      dup3\n      dup3\n      sload\n      tag_53\n      swap2\n      swap1\n      tag_51\n      jump\t// in\n    tag_53:\n      swap3\n      pop\n      pop\n      dup2\n      swap1\n      sstore\n      pop\n        /* \"miscellaneous/SimpleERC223Token.sol\":3026:3254  function tokenFallback(address from, uint256 value, bytes memory) public {... */\n      pop\n      pop\n      pop\n      jump\t// out\n        /* \"miscellaneous/SimpleERC223Token.sol\":2454:2484  SimpleERC223Token public token */\n    tag_27:\n      0x00\n      dup1\n      sload\n      swap1\n      0x0100\n      exp\n      swap1\n      div\n      0xffffffffffffffffffffffffffffffffffffffff\n      and\n      dup2\n      jump\t// out\n        /* \"#utility.yul\":7:82   */\n    tag_54:\n        /* \"#utility.yul\":40:46   */\n      0x00\n        /* \"#utility.yul\":73:75   */\n      0x40\n        /* \"#utility.yul\":67:76   */\n      mload\n        /* \"#utility.yul\":57:76   */\n      swap1\n      pop\n        /* \"#utility.yul\":7:82   */\n      swap1\n      jump\t// out\n        /* \"#utility.yul\":88:205   */\n    tag_55:\n        /* \"#utility.yul\":197:198   */\n      0x00\n        /* \"#utility.yul\":194:195   */\n      dup1\n        /* \"#utility.yul\":187:199   */\n      revert\n        /* \"#utility.yul\":211:328   */\n    tag_56:\n        /* \"#utility.yul\":320:321   */\n      0x00\n        /* \"#utility.yul\":317:318   */\n      dup1\n        /* \"#utility.yul\":310:322   */\n      revert\n        /* \"#utility.yul\":334:411   */\n    tag_57:\n        /* \"#utility.yul\":371:378   */\n      0x00\n        /* \"#utility.yul\":400:405   */\n      dup2\n        /* \"#utility.yul\":389:405   */\n      swap1\n      pop\n        /* \"#utility.yul\":334:411   */\n      swap2\n      swap1\n      pop\n      jump\t// out\n        /* \"#utility.yul\":417:539   */\n    tag_58:\n        /* \"#utility.yul\":490:514   */\n      tag_93\n        /* \"#utility.yul\":508:513   */\n      dup2\n        /* \"#utility.yul\":490:514   */\n      tag_57\n      jump\t// in\n    tag_93:\n        /* \"#utility.yul\":483:488   */\n      dup2\n        /* \"#utility.yul\":480:515   */\n      eq\n        /* \"#utility.yul\":470:533   */\n      tag_94\n      jumpi\n        /* \"#utility.yul\":529:530   */\n      0x00\n        /* \"#utility.yul\":526:527   */\n      dup1\n        /* \"#utility.yul\":519:531   */\n      revert\n        /* \"#utility.yul\":470:533   */\n    tag_94:\n        /* \"#utility.yul\":417:539   */\n      pop\n      jump\t// out\n        /* \"#utility.yul\":545:684   */\n    tag_59:\n        /* \"#utility.yul\":591:596   */\n      0x00\n        /* \"#utility.yul\":629:635   */\n      dup2\n        /* \"#utility.yul\":616:636   */\n      calldataload\n        /* \"#utility.yul\":607:636   */\n      swap1\n      pop\n        /* \"#utility.yul\":645:678   */\n      tag_96\n        /* \"#utility.yul\":672:677   */\n      dup2\n        /* \"#utility.yul\":645:678   */\n      tag_58\n      jump\t// in\n    tag_96:\n        /* \"#utility.yul\":545:684   */\n      swap3\n      swap2\n      pop\n      pop\n      jump\t// out\n        /* \"#utility.yul\":690:1019   */\n    tag_10:\n        /* \"#utility.yul\":749:755   */\n      0x00\n        /* \"#utility.yul\":798:800   */\n      0x20\n        /* \"#utility.yul\":786:795   */\n      dup3\n        /* \"#utility.yul\":777:784   */\n      dup5\n        /* \"#utility.yul\":773:796   */\n      sub\n        /* \"#utility.yul\":769:801   */\n      slt\n        /* \"#utility.yul\":766:885   */\n      iszero\n      tag_98\n      jumpi\n        /* \"#utility.yul\":804:883   */\n      tag_99\n      tag_55\n      jump\t// in\n    tag_99:\n        /* \"#utility.yul\":766:885   */\n    tag_98:\n        /* \"#utility.yul\":924:925   */\n      0x00\n        /* \"#utility.yul\":949:1002   */\n      tag_100\n        /* \"#utility.yul\":994:1001   */\n      dup5\n        /* \"#utility.yul\":985:991   */\n      dup3\n        /* \"#utility.yul\":974:983   */\n      dup6\n        /* \"#utility.yul\":970:992   */\n      add\n        /* \"#utility.yul\":949:1002   */\n      tag_59\n      jump\t// in\n    tag_100:\n        /* \"#utility.yul\":939:1002   */\n      swap2\n      pop\n        /* \"#utility.yul\":895:1012   */\n      pop\n        /* \"#utility.yul\":690:1019   */\n      swap3\n      swap2\n      pop\n      pop\n      jump\t// out\n        /* \"#utility.yul\":1025:1151   */\n    tag_60:\n        /* \"#utility.yul\":1062:1069   */\n      0x00\n        /* \"#utility.yul\":1102:1144   */\n      0xffffffffffffffffffffffffffffffffffffffff\n        /* \"#utility.yul\":1095:1100   */\n      dup3\n        /* \"#utility.yul\":1091:1145   */\n      and\n        /* \"#utility.yul\":1080:1145   */\n      swap1\n      pop\n        /* \"#utility.yul\":1025:1151   */\n      swap2\n      swap1\n      pop\n      jump\t// out\n        /* \"#utility.yul\":1157:1253   */\n    tag_61:\n        /* \"#utility.yul\":1194:1201   */\n      0x00\n        /* \"#utility.yul\":1223:1247   */\n      tag_103\n        /* \"#utility.yul\":1241:1246   */\n      dup3\n        /* \"#utility.yul\":1223:1247   */\n      tag_60\n      jump\t// in\n    tag_103:\n        /* \"#utility.yul\":1212:1247   */\n      swap1\n      pop\n        /* \"#utility.yul\":1157:1253   */\n      swap2\n      swap1\n      pop\n      jump\t// out\n        /* \"#utility.yul\":1259:1381   */\n    tag_62:\n        /* \"#utility.yul\":1332:1356   */\n      tag_105\n        /* \"#utility.yul\":1350:1355   */\n      dup2\n        /* \"#utility.yul\":1332:1356   */\n      tag_61\n      jump\t// in\n    tag_105:\n        /* \"#utility.yul\":1325:1330   */\n      dup2\n        /* \"#utility.yul\":1322:1357   */\n      eq\n        /* \"#utility.yul\":1312:1375   */\n      tag_106\n      jumpi\n        /* \"#utility.yul\":1371:1372   */\n      0x00\n        /* \"#utility.yul\":1368:1369   */\n      dup1\n        /* \"#utility.yul\":1361:1373   */\n      revert\n        /* \"#utility.yul\":1312:1375   */\n    tag_106:\n        /* \"#utility.yul\":1259:1381   */\n      pop\n      jump\t// out\n        /* \"#utility.yul\":1387:1526   */\n    tag_63:\n        /* \"#utility.yul\":1433:1438   */\n      0x00\n        /* \"#utility.yul\":1471:1477   */\n      dup2\n        /* \"#utility.yul\":1458:1478   */\n      calldataload\n        /* \"#utility.yul\":1449:1478   */\n      swap1\n      pop\n        /* \"#utility.yul\":1487:1520   */\n      tag_108\n        /* \"#utility.yul\":1514:1519   */\n      dup2\n        /* \"#utility.yul\":1487:1520   */\n      tag_62\n      jump\t// in\n    tag_108:\n        /* \"#utility.yul\":1387:1526   */\n      swap3\n      swap2\n      pop\n      pop\n      jump\t// out\n        /* \"#utility.yul\":1532:1861   */\n    tag_14:\n        /* \"#utility.yul\":1591:1597   */\n      0x00\n        /* \"#utility.yul\":1640:1642   */\n      0x20\n        /* \"#utility.yul\":1628:1637   */\n      dup3\n        /* \"#utility.yul\":1619:1626   */\n      dup5\n        /* \"#utility.yul\":1615:1638   */\n      sub\n        /* \"#utility.yul\":1611:1643   */\n      slt\n        /* \"#utility.yul\":1608:1727   */\n      iszero\n      tag_110\n      jumpi\n        /* \"#utility.yul\":1646:1725   */\n      tag_111\n      tag_55\n      jump\t// in\n    tag_111:\n        /* \"#utility.yul\":1608:1727   */\n    tag_110:\n        /* \"#utility.yul\":1766:1767   */\n      0x00\n        /* \"#utility.yul\":1791:1844   */\n      tag_112\n        /* \"#utility.yul\":1836:1843   */\n      dup5\n        /* \"#utility.yul\":1827:1833   */\n      dup3\n        /* \"#utility.yul\":1816:1825   */\n      dup6\n        /* \"#utility.yul\":1812:1834   */\n      add\n        /* \"#utility.yul\":1791:1844   */\n      tag_63\n      jump\t// in\n    tag_112:\n        /* \"#utility.yul\":1781:1844   */\n      swap2\n      pop\n        /* \"#utility.yul\":1737:1854   */\n      pop\n        /* \"#utility.yul\":1532:1861   */\n      swap3\n      swap2\n      pop\n      pop\n      jump\t// out\n        /* \"#utility.yul\":1867:1985   */\n    tag_64:\n        /* \"#utility.yul\":1954:1978   */\n      tag_114\n        /* \"#utility.yul\":1972:1977   */\n      dup2\n        /* \"#utility.yul\":1954:1978   */\n      tag_57\n      jump\t// in\n    tag_114:\n        /* \"#utility.yul\":1949:1952   */\n      dup3\n        /* \"#utility.yul\":1942:1979   */\n      mstore\n        /* \"#utility.yul\":1867:1985   */\n      pop\n      pop\n      jump\t// out\n        /* \"#utility.yul\":1991:2213   */\n    tag_17:\n        /* \"#utility.yul\":2084:2088   */\n      0x00\n        /* \"#utility.yul\":2122:2124   */\n      0x20\n        /* \"#utility.yul\":2111:2120   */\n      dup3\n        /* \"#utility.yul\":2107:2125   */\n      add\n        /* \"#utility.yul\":2099:2125   */\n      swap1\n      pop\n        /* \"#utility.yul\":2135:2206   */\n      tag_116\n        /* \"#utility.yul\":2203:2204   */\n      0x00\n        /* \"#utility.yul\":2192:2201   */\n      dup4\n        /* \"#utility.yul\":2188:2205   */\n      add\n        /* \"#utility.yul\":2179:2185   */\n      dup5\n        /* \"#utility.yul\":2135:2206   */\n      tag_64\n      jump\t// in\n    tag_116:\n        /* \"#utility.yul\":1991:2213   */\n      swap3\n      swap2\n      pop\n      pop\n      jump\t// out\n        /* \"#utility.yul\":2219:2309   */\n    tag_65:\n        /* \"#utility.yul\":2253:2260   */\n      0x00\n        /* \"#utility.yul\":2296:2301   */\n      dup2\n        /* \"#utility.yul\":2289:2302   */\n      iszero\n        /* \"#utility.yul\":2282:2303   */\n      iszero\n        /* \"#utility.yul\":2271:2303   */\n      swap1\n      pop\n        /* \"#utility.yul\":2219:2309   */\n      swap2\n      swap1\n      pop\n      jump\t// out\n        /* \"#utility.yul\":2315:2424   */\n    tag_66:\n        /* \"#utility.yul\":2396:2417   */\n      tag_119\n        /* \"#utility.yul\":2411:2416   */\n      dup2\n        /* \"#utility.yul\":2396:2417   */\n      tag_65\n      jump\t// in\n    tag_119:\n        /* \"#utility.yul\":2391:2394   */\n      dup3\n        /* \"#utility.yul\":2384:2418   */\n      mstore\n        /* \"#utility.yul\":2315:2424   */\n      pop\n      pop\n      jump\t// out\n        /* \"#utility.yul\":2430:2640   */\n    tag_21:\n        /* \"#utility.yul\":2517:2521   */\n      0x00\n        /* \"#utility.yul\":2555:2557   */\n      0x20\n        /* \"#utility.yul\":2544:2553   */\n      dup3\n        /* \"#utility.yul\":2540:2558   */\n      add\n        /* \"#utility.yul\":2532:2558   */\n      swap1\n      pop\n        /* \"#utility.yul\":2568:2633   */\n      tag_121\n        /* \"#utility.yul\":2630:2631   */\n      0x00\n        /* \"#utility.yul\":2619:2628   */\n      dup4\n        /* \"#utility.yul\":2615:2632   */\n      add\n        /* \"#utility.yul\":2606:2612   */\n      dup5\n        /* \"#utility.yul\":2568:2633   */\n      tag_66\n      jump\t// in\n    tag_121:\n        /* \"#utility.yul\":2430:2640   */\n      swap3\n      swap2\n      pop\n      pop\n      jump\t// out\n        /* \"#utility.yul\":2646:2763   */\n    tag_67:\n        /* \"#utility.yul\":2755:2756   */\n      0x00\n        /* \"#utility.yul\":2752:2753   */\n      dup1\n        /* \"#utility.yul\":2745:2757   */\n      revert\n        /* \"#utility.yul\":2769:2886   */\n    tag_68:\n        /* \"#utility.yul\":2878:2879   */\n      0x00\n        /* \"#utility.yul\":2875:2876   */\n      dup1\n        /* \"#utility.yul\":2868:2880   */\n      revert\n        /* \"#utility.yul\":2892:2994   */\n    tag_69:\n        /* \"#utility.yul\":2933:2939   */\n      0x00\n        /* \"#utility.yul\":2984:2986   */\n      0x1f\n        /* \"#utility.yul\":2980:2987   */\n      not\n        /* \"#utility.yul\":2975:2977   */\n      0x1f\n        /* \"#utility.yul\":2968:2973   */\n      dup4\n        /* \"#utility.yul\":2964:2978   */\n      add\n        /* \"#utility.yul\":2960:2988   */\n      and\n        /* \"#utility.yul\":2950:2988   */\n      swap1\n      pop\n        /* \"#utility.yul\":2892:2994   */\n      swap2\n      swap1\n      pop\n      jump\t// out\n        /* \"#utility.yul\":3000:3180   */\n    tag_70:\n        /* \"#utility.yul\":3048:3125   */\n      0x4e487b7100000000000000000000000000000000000000000000000000000000\n        /* \"#utility.yul\":3045:3046   */\n      0x00\n        /* \"#utility.yul\":3038:3126   */\n      mstore\n        /* \"#utility.yul\":3145:3149   */\n      0x41\n        /* \"#utility.yul\":3142:3143   */\n      0x04\n        /* \"#utility.yul\":3135:3150   */\n      mstore\n        /* \"#utility.yul\":3169:3173   */\n      0x24\n        /* \"#utility.yul\":3166:3167   */\n      0x00\n        /* \"#utility.yul\":3159:3174   */\n      revert\n        /* \"#utility.yul\":3186:3467   */\n    tag_71:\n        /* \"#utility.yul\":3269:3296   */\n      tag_127\n        /* \"#utility.yul\":3291:3295   */\n      dup3\n        /* \"#utility.yul\":3269:3296   */\n      tag_69\n      jump\t// in\n    tag_127:\n        /* \"#utility.yul\":3261:3267   */\n      dup2\n        /* \"#utility.yul\":3257:3297   */\n      add\n        /* \"#utility.yul\":3399:3405   */\n      dup2\n        /* \"#utility.yul\":3387:3397   */\n      dup2\n        /* \"#utility.yul\":3384:3406   */\n      lt\n        /* \"#utility.yul\":3363:3381   */\n      0xffffffffffffffff\n        /* \"#utility.yul\":3351:3361   */\n      dup3\n        /* \"#utility.yul\":3348:3382   */\n      gt\n        /* \"#utility.yul\":3345:3407   */\n      or\n        /* \"#utility.yul\":3342:3430   */\n      iszero\n      tag_128\n      jumpi\n        /* \"#utility.yul\":3410:3428   */\n      tag_129\n      tag_70\n      jump\t// in\n    tag_129:\n        /* \"#utility.yul\":3342:3430   */\n    tag_128:\n        /* \"#utility.yul\":3450:3460   */\n      dup1\n        /* \"#utility.yul\":3446:3448   */\n      0x40\n        /* \"#utility.yul\":3439:3461   */\n      mstore\n        /* \"#utility.yul\":3229:3467   */\n      pop\n        /* \"#utility.yul\":3186:3467   */\n      pop\n      pop\n      jump\t// out\n        /* \"#utility.yul\":3473:3602   */\n    tag_72:\n        /* \"#utility.yul\":3507:3513   */\n      0x00\n        /* \"#utility.yul\":3534:3554   */\n      tag_131\n      tag_54\n      jump\t// in\n    tag_131:\n        /* \"#utility.yul\":3524:3554   */\n      swap1\n      pop\n        /* \"#utility.yul\":3563:3596   */\n      tag_132\n        /* \"#utility.yul\":3591:3595   */\n      dup3\n        /* \"#utility.yul\":3583:3589   */\n      dup3\n        /* \"#utility.yul\":3563:3596   */\n      tag_71\n      jump\t// in\n    tag_132:\n        /* \"#utility.yul\":3473:3602   */\n      swap2\n      swap1\n      pop\n      jump\t// out\n        /* \"#utility.yul\":3608:3915   */\n    tag_73:\n        /* \"#utility.yul\":3669:3673   */\n      0x00\n        /* \"#utility.yul\":3759:3777   */\n      0xffffffffffffffff\n        /* \"#utility.yul\":3751:3757   */\n      dup3\n        /* \"#utility.yul\":3748:3778   */\n      gt\n        /* \"#utility.yul\":3745:3801   */\n      iszero\n      tag_134\n      jumpi\n        /* \"#utility.yul\":3781:3799   */\n      tag_135\n      tag_70\n      jump\t// in\n    tag_135:\n        /* \"#utility.yul\":3745:3801   */\n    tag_134:\n        /* \"#utility.yul\":3819:3848   */\n      tag_136\n        /* \"#utility.yul\":3841:3847   */\n      dup3\n        /* \"#utility.yul\":3819:3848   */\n      tag_69\n      jump\t// in\n    tag_136:\n        /* \"#utility.yul\":3811:3848   */\n      swap1\n      pop\n        /* \"#utility.yul\":3903:3907   */\n      0x20\n        /* \"#utility.yul\":3897:3901   */\n      dup2\n        /* \"#utility.yul\":3893:3908   */\n      add\n        /* \"#utility.yul\":3885:3908   */\n      swap1\n      pop\n        /* \"#utility.yul\":3608:3915   */\n      swap2\n      swap1\n      pop\n      jump\t// out\n        /* \"#utility.yul\":3921:4075   */\n    tag_74:\n        /* \"#utility.yul\":4005:4011   */\n      dup3\n        /* \"#utility.yul\":4000:4003   */\n      dup2\n        /* \"#utility.yul\":3995:3998   */\n      dup4\n        /* \"#utility.yul\":3982:4012   */\n      calldatacopy\n        /* \"#utility.yul\":4067:4068   */\n      0x00\n        /* \"#utility.yul\":4058:4064   */\n      dup4\n        /* \"#utility.yul\":4053:4056   */\n      dup4\n        /* \"#utility.yul\":4049:4065   */\n      add\n        /* \"#utility.yul\":4042:4069   */\n      mstore\n        /* \"#utility.yul\":3921:4075   */\n      pop\n      pop\n      pop\n      jump\t// out\n        /* \"#utility.yul\":4081:4491   */\n    tag_75:\n        /* \"#utility.yul\":4158:4163   */\n      0x00\n        /* \"#utility.yul\":4183:4248   */\n      tag_139\n        /* \"#utility.yul\":4199:4247   */\n      tag_140\n        /* \"#utility.yul\":4240:4246   */\n      dup5\n        /* \"#utility.yul\":4199:4247   */\n      tag_73\n      jump\t// in\n    tag_140:\n        /* \"#utility.yul\":4183:4248   */\n      tag_72\n      jump\t// in\n    tag_139:\n        /* \"#utility.yul\":4174:4248   */\n      swap1\n      pop\n        /* \"#utility.yul\":4271:4277   */\n      dup3\n        /* \"#utility.yul\":4264:4269   */\n      dup2\n        /* \"#utility.yul\":4257:4278   */\n      mstore\n        /* \"#utility.yul\":4309:4313   */\n      0x20\n        /* \"#utility.yul\":4302:4307   */\n      dup2\n        /* \"#utility.yul\":4298:4314   */\n      add\n        /* \"#utility.yul\":4347:4350   */\n      dup5\n        /* \"#utility.yul\":4338:4344   */\n      dup5\n        /* \"#utility.yul\":4333:4336   */\n      dup5\n        /* \"#utility.yul\":4329:4345   */\n      add\n        /* \"#utility.yul\":4326:4351   */\n      gt\n        /* \"#utility.yul\":4323:4435   */\n      iszero\n      tag_141\n      jumpi\n        /* \"#utility.yul\":4354:4433   */\n      tag_142\n      tag_68\n      jump\t// in\n    tag_142:\n        /* \"#utility.yul\":4323:4435   */\n    tag_141:\n        /* \"#utility.yul\":4444:4485   */\n      tag_143\n        /* \"#utility.yul\":4478:4484   */\n      dup5\n        /* \"#utility.yul\":4473:4476   */\n      dup3\n        /* \"#utility.yul\":4468:4471   */\n      dup6\n        /* \"#utility.yul\":4444:4485   */\n      tag_74\n      jump\t// in\n    tag_143:\n        /* \"#utility.yul\":4164:4491   */\n      pop\n        /* \"#utility.yul\":4081:4491   */\n      swap4\n      swap3\n      pop\n      pop\n      pop\n      jump\t// out\n        /* \"#utility.yul\":4510:4848   */\n    tag_76:\n        /* \"#utility.yul\":4565:4570   */\n      0x00\n        /* \"#utility.yul\":4614:4617   */\n      dup3\n        /* \"#utility.yul\":4607:4611   */\n      0x1f\n        /* \"#utility.yul\":4599:4605   */\n      dup4\n        /* \"#utility.yul\":4595:4612   */\n      add\n        /* \"#utility.yul\":4591:4618   */\n      slt\n        /* \"#utility.yul\":4581:4703   */\n      tag_145\n      jumpi\n        /* \"#utility.yul\":4622:4701   */\n      tag_146\n      tag_67\n      jump\t// in\n    tag_146:\n        /* \"#utility.yul\":4581:4703   */\n    tag_145:\n        /* \"#utility.yul\":4739:4745   */\n      dup2\n        /* \"#utility.yul\":4726:4746   */\n      calldataload\n        /* \"#utility.yul\":4764:4842   */\n      tag_147\n        /* \"#utility.yul\":4838:4841   */\n      dup5\n        /* \"#utility.yul\":4830:4836   */\n      dup3\n        /* \"#utility.yul\":4823:4827   */\n      0x20\n        /* \"#utility.yul\":4815:4821   */\n      dup7\n        /* \"#utility.yul\":4811:4828   */\n      add\n        /* \"#utility.yul\":4764:4842   */\n      tag_75\n      jump\t// in\n    tag_147:\n        /* \"#utility.yul\":4755:4842   */\n      swap2\n      pop\n        /* \"#utility.yul\":4571:4848   */\n      pop\n        /* \"#utility.yul\":4510:4848   */\n      swap3\n      swap2\n      pop\n      pop\n      jump\t// out\n        /* \"#utility.yul\":4854:5651   */\n    tag_24:\n        /* \"#utility.yul\":4940:4946   */\n      0x00\n        /* \"#utility.yul\":4948:4954   */\n      dup1\n        /* \"#utility.yul\":4956:4962   */\n      0x00\n        /* \"#utility.yul\":5005:5007   */\n      0x60\n        /* \"#utility.yul\":4993:5002   */\n      dup5\n        /* \"#utility.yul\":4984:4991   */\n      dup7\n        /* \"#utility.yul\":4980:5003   */\n      sub\n        /* \"#utility.yul\":4976:5008   */\n      slt\n        /* \"#utility.yul\":4973:5092   */\n      iszero\n      tag_149\n      jumpi\n        /* \"#utility.yul\":5011:5090   */\n      tag_150\n      tag_55\n      jump\t// in\n    tag_150:\n        /* \"#utility.yul\":4973:5092   */\n    tag_149:\n        /* \"#utility.yul\":5131:5132   */\n      0x00\n        /* \"#utility.yul\":5156:5209   */\n      tag_151\n        /* \"#utility.yul\":5201:5208   */\n      dup7\n        /* \"#utility.yul\":5192:5198   */\n      dup3\n        /* \"#utility.yul\":5181:5190   */\n      dup8\n        /* \"#utility.yul\":5177:5199   */\n      add\n        /* \"#utility.yul\":5156:5209   */\n      tag_63\n      jump\t// in\n    tag_151:\n        /* \"#utility.yul\":5146:5209   */\n      swap4\n      pop\n        /* \"#utility.yul\":5102:5219   */\n      pop\n        /* \"#utility.yul\":5258:5260   */\n      0x20\n        /* \"#utility.yul\":5284:5337   */\n      tag_152\n        /* \"#utility.yul\":5329:5336   */\n      dup7\n        /* \"#utility.yul\":5320:5326   */\n      dup3\n        /* \"#utility.yul\":5309:5318   */\n      dup8\n        /* \"#utility.yul\":5305:5327   */\n      add\n        /* \"#utility.yul\":5284:5337   */\n      tag_59\n      jump\t// in\n    tag_152:\n        /* \"#utility.yul\":5274:5337   */\n      swap3\n      pop\n        /* \"#utility.yul\":5229:5347   */\n      pop\n        /* \"#utility.yul\":5414:5416   */\n      0x40\n        /* \"#utility.yul\":5403:5412   */\n      dup5\n        /* \"#utility.yul\":5399:5417   */\n      add\n        /* \"#utility.yul\":5386:5418   */\n      calldataload\n        /* \"#utility.yul\":5445:5463   */\n      0xffffffffffffffff\n        /* \"#utility.yul\":5437:5443   */\n      dup2\n        /* \"#utility.yul\":5434:5464   */\n      gt\n        /* \"#utility.yul\":5431:5548   */\n      iszero\n      tag_153\n      jumpi\n        /* \"#utility.yul\":5467:5546   */\n      tag_154\n      tag_56\n      jump\t// in\n    tag_154:\n        /* \"#utility.yul\":5431:5548   */\n    tag_153:\n        /* \"#utility.yul\":5572:5634   */\n      tag_155\n        /* \"#utility.yul\":5626:5633   */\n      dup7\n        /* \"#utility.yul\":5617:5623   */\n      dup3\n        /* \"#utility.yul\":5606:5615   */\n      dup8\n        /* \"#utility.yul\":5602:5624   */\n      add\n        /* \"#utility.yul\":5572:5634   */\n      tag_76\n      jump\t// in\n    tag_155:\n        /* \"#utility.yul\":5562:5634   */\n      swap2\n      pop\n        /* \"#utility.yul\":5357:5644   */\n      pop\n        /* \"#utility.yul\":4854:5651   */\n      swap3\n      pop\n      swap3\n      pop\n      swap3\n      jump\t// out\n        /* \"#utility.yul\":5657:5717   */\n    tag_77:\n        /* \"#utility.yul\":5685:5688   */\n      0x00\n        /* \"#utility.yul\":5706:5711   */\n      dup2\n        /* \"#utility.yul\":5699:5711   */\n      swap1\n      pop\n        /* \"#utility.yul\":5657:5717   */\n      swap2\n      swap1\n      pop\n      jump\t// out\n        /* \"#utility.yul\":5723:5865   */\n    tag_78:\n        /* \"#utility.yul\":5773:5782   */\n      0x00\n        /* \"#utility.yul\":5806:5859   */\n      tag_158\n        /* \"#utility.yul\":5824:5858   */\n      tag_159\n        /* \"#utility.yul\":5833:5857   */\n      tag_160\n        /* \"#utility.yul\":5851:5856   */\n      dup5\n        /* \"#utility.yul\":5833:5857   */\n      tag_60\n      jump\t// in\n    tag_160:\n        /* \"#utility.yul\":5824:5858   */\n      tag_77\n      jump\t// in\n    tag_159:\n        /* \"#utility.yul\":5806:5859   */\n      tag_60\n      jump\t// in\n    tag_158:\n        /* \"#utility.yul\":5793:5859   */\n      swap1\n      pop\n        /* \"#utility.yul\":5723:5865   */\n      swap2\n      swap1\n      pop\n      jump\t// out\n        /* \"#utility.yul\":5871:5997   */\n    tag_79:\n        /* \"#utility.yul\":5921:5930   */\n      0x00\n        /* \"#utility.yul\":5954:5991   */\n      tag_162\n        /* \"#utility.yul\":5985:5990   */\n      dup3\n        /* \"#utility.yul\":5954:5991   */\n      tag_78\n      jump\t// in\n    tag_162:\n        /* \"#utility.yul\":5941:5991   */\n      swap1\n      pop\n        /* \"#utility.yul\":5871:5997   */\n      swap2\n      swap1\n      pop\n      jump\t// out\n        /* \"#utility.yul\":6003:6154   */\n    tag_80:\n        /* \"#utility.yul\":6078:6087   */\n      0x00\n        /* \"#utility.yul\":6111:6148   */\n      tag_164\n        /* \"#utility.yul\":6142:6147   */\n      dup3\n        /* \"#utility.yul\":6111:6148   */\n      tag_79\n      jump\t// in\n    tag_164:\n        /* \"#utility.yul\":6098:6148   */\n      swap1\n      pop\n        /* \"#utility.yul\":6003:6154   */\n      swap2\n      swap1\n      pop\n      jump\t// out\n        /* \"#utility.yul\":6160:6341   */\n    tag_81:\n        /* \"#utility.yul\":6272:6334   */\n      tag_166\n        /* \"#utility.yul\":6328:6333   */\n      dup2\n        /* \"#utility.yul\":6272:6334   */\n      tag_80\n      jump\t// in\n    tag_166:\n        /* \"#utility.yul\":6267:6270   */\n      dup3\n        /* \"#utility.yul\":6260:6335   */\n      mstore\n        /* \"#utility.yul\":6160:6341   */\n      pop\n      pop\n      jump\t// out\n        /* \"#utility.yul\":6347:6619   */\n    tag_29:\n        /* \"#utility.yul\":6465:6469   */\n      0x00\n        /* \"#utility.yul\":6503:6505   */\n      0x20\n        /* \"#utility.yul\":6492:6501   */\n      dup3\n        /* \"#utility.yul\":6488:6506   */\n      add\n        /* \"#utility.yul\":6480:6506   */\n      swap1\n      pop\n        /* \"#utility.yul\":6516:6612   */\n      tag_168\n        /* \"#utility.yul\":6609:6610   */\n      0x00\n        /* \"#utility.yul\":6598:6607   */\n      dup4\n        /* \"#utility.yul\":6594:6611   */\n      add\n        /* \"#utility.yul\":6585:6591   */\n      dup5\n        /* \"#utility.yul\":6516:6612   */\n      tag_81\n      jump\t// in\n    tag_168:\n        /* \"#utility.yul\":6347:6619   */\n      swap3\n      swap2\n      pop\n      pop\n      jump\t// out\n        /* \"#utility.yul\":6625:6743   */\n    tag_82:\n        /* \"#utility.yul\":6712:6736   */\n      tag_170\n        /* \"#utility.yul\":6730:6735   */\n      dup2\n        /* \"#utility.yul\":6712:6736   */\n      tag_61\n      jump\t// in\n    tag_170:\n        /* \"#utility.yul\":6707:6710   */\n      dup3\n        /* \"#utility.yul\":6700:6737   */\n      mstore\n        /* \"#utility.yul\":6625:6743   */\n      pop\n      pop\n      jump\t// out\n        /* \"#utility.yul\":6749:7081   */\n    tag_33:\n        /* \"#utility.yul\":6870:6874   */\n      0x00\n        /* \"#utility.yul\":6908:6910   */\n      0x40\n        /* \"#utility.yul\":6897:6906   */\n      dup3\n        /* \"#utility.yul\":6893:6911   */\n      add\n        /* \"#utility.yul\":6885:6911   */\n      swap1\n      pop\n        /* \"#utility.yul\":6921:6992   */\n      tag_172\n        /* \"#utility.yul\":6989:6990   */\n      0x00\n        /* \"#utility.yul\":6978:6987   */\n      dup4\n        /* \"#utility.yul\":6974:6991   */\n      add\n        /* \"#utility.yul\":6965:6971   */\n      dup6\n        /* \"#utility.yul\":6921:6992   */\n      tag_82\n      jump\t// in\n    tag_172:\n        /* \"#utility.yul\":7002:7074   */\n      tag_173\n        /* \"#utility.yul\":7070:7072   */\n      0x20\n        /* \"#utility.yul\":7059:7068   */\n      dup4\n        /* \"#utility.yul\":7055:7073   */\n      add\n        /* \"#utility.yul\":7046:7052   */\n      dup5\n        /* \"#utility.yul\":7002:7074   */\n      tag_64\n      jump\t// in\n    tag_173:\n        /* \"#utility.yul\":6749:7081   */\n      swap4\n      swap3\n      pop\n      pop\n      pop\n      jump\t// out\n        /* \"#utility.yul\":7087:7203   */\n    tag_83:\n        /* \"#utility.yul\":7157:7178   */\n      tag_175\n        /* \"#utility.yul\":7172:7177   */\n      dup2\n        /* \"#utility.yul\":7157:7178   */\n      tag_65\n      jump\t// in\n    tag_175:\n        /* \"#utility.yul\":7150:7155   */\n      dup2\n        /* \"#utility.yul\":7147:7179   */\n      eq\n        /* \"#utility.yul\":7137:7197   */\n      tag_176\n      jumpi\n        /* \"#utility.yul\":7193:7194   */\n      0x00\n        /* \"#utility.yul\":7190:7191   */\n      dup1\n        /* \"#utility.yul\":7183:7195   */\n      revert\n        /* \"#utility.yul\":7137:7197   */\n    tag_176:\n        /* \"#utility.yul\":7087:7203   */\n      pop\n      jump\t// out\n        /* \"#utility.yul\":7209:7346   */\n    tag_84:\n        /* \"#utility.yul\":7263:7268   */\n      0x00\n        /* \"#utility.yul\":7294:7300   */\n      dup2\n        /* \"#utility.yul\":7288:7301   */\n      mload\n        /* \"#utility.yul\":7279:7301   */\n      swap1\n      pop\n        /* \"#utility.yul\":7310:7340   */\n      tag_178\n        /* \"#utility.yul\":7334:7339   */\n      dup2\n        /* \"#utility.yul\":7310:7340   */\n      tag_83\n      jump\t// in\n    tag_178:\n        /* \"#utility.yul\":7209:7346   */\n      swap3\n      swap2\n      pop\n      pop\n      jump\t// out\n        /* \"#utility.yul\":7352:7697   */\n    tag_37:\n        /* \"#utility.yul\":7419:7425   */\n      0x00\n        /* \"#utility.yul\":7468:7470   */\n      0x20\n        /* \"#utility.yul\":7456:7465   */\n      dup3\n        /* \"#utility.yul\":7447:7454   */\n      dup5\n        /* \"#utility.yul\":7443:7466   */\n      sub\n        /* \"#utility.yul\":7439:7471   */\n      slt\n        /* \"#utility.yul\":7436:7555   */\n      iszero\n      tag_180\n      jumpi\n        /* \"#utility.yul\":7474:7553   */\n      tag_181\n      tag_55\n      jump\t// in\n    tag_181:\n        /* \"#utility.yul\":7436:7555   */\n    tag_180:\n        /* \"#utility.yul\":7594:7595   */\n      0x00\n        /* \"#utility.yul\":7619:7680   */\n      tag_182\n        /* \"#utility.yul\":7672:7679   */\n      dup5\n        /* \"#utility.yul\":7663:7669   */\n      dup3\n        /* \"#utility.yul\":7652:7661   */\n      dup6\n        /* \"#utility.yul\":7648:7670   */\n      add\n        /* \"#utility.yul\":7619:7680   */\n      tag_84\n      jump\t// in\n    tag_182:\n        /* \"#utility.yul\":7609:7680   */\n      swap2\n      pop\n        /* \"#utility.yul\":7565:7690   */\n      pop\n        /* \"#utility.yul\":7352:7697   */\n      swap3\n      swap2\n      pop\n      pop\n      jump\t// out\n        /* \"#utility.yul\":7703:7883   */\n    tag_85:\n        /* \"#utility.yul\":7751:7828   */\n      0x4e487b7100000000000000000000000000000000000000000000000000000000\n        /* \"#utility.yul\":7748:7749   */\n      0x00\n        /* \"#utility.yul\":7741:7829   */\n      mstore\n        /* \"#utility.yul\":7848:7852   */\n      0x11\n        /* \"#utility.yul\":7845:7846   */\n      0x04\n        /* \"#utility.yul\":7838:7853   */\n      mstore\n        /* \"#utility.yul\":7872:7876   */\n      0x24\n        /* \"#utility.yul\":7869:7870   */\n      0x00\n        /* \"#utility.yul\":7862:7877   */\n      revert\n        /* \"#utility.yul\":7889:8080   */\n    tag_40:\n        /* \"#utility.yul\":7929:7933   */\n      0x00\n        /* \"#utility.yul\":7949:7969   */\n      tag_185\n        /* \"#utility.yul\":7967:7968   */\n      dup3\n        /* \"#utility.yul\":7949:7969   */\n      tag_57\n      jump\t// in\n    tag_185:\n        /* \"#utility.yul\":7944:7969   */\n      swap2\n      pop\n        /* \"#utility.yul\":7983:8003   */\n      tag_186\n        /* \"#utility.yul\":8001:8002   */\n      dup4\n        /* \"#utility.yul\":7983:8003   */\n      tag_57\n      jump\t// in\n    tag_186:\n        /* \"#utility.yul\":7978:8003   */\n      swap3\n      pop\n        /* \"#utility.yul\":8022:8023   */\n      dup3\n        /* \"#utility.yul\":8019:8020   */\n      dup3\n        /* \"#utility.yul\":8016:8024   */\n      lt\n        /* \"#utility.yul\":8013:8047   */\n      iszero\n      tag_187\n      jumpi\n        /* \"#utility.yul\":8027:8045   */\n      tag_188\n      tag_85\n      jump\t// in\n    tag_188:\n        /* \"#utility.yul\":8013:8047   */\n    tag_187:\n        /* \"#utility.yul\":8072:8073   */\n      dup3\n        /* \"#utility.yul\":8069:8070   */\n      dup3\n        /* \"#utility.yul\":8065:8074   */\n      sub\n        /* \"#utility.yul\":8057:8074   */\n      swap1\n      pop\n        /* \"#utility.yul\":7889:8080   */\n      swap3\n      swap2\n      pop\n      pop\n      jump\t// out\n        /* \"#utility.yul\":8086:8308   */\n    tag_43:\n        /* \"#utility.yul\":8179:8183   */\n      0x00\n        /* \"#utility.yul\":8217:8219   */\n      0x20\n        /* \"#utility.yul\":8206:8215   */\n      dup3\n        /* \"#utility.yul\":8202:8220   */\n      add\n        /* \"#utility.yul\":8194:8220   */\n      swap1\n      pop\n        /* \"#utility.yul\":8230:8301   */\n      tag_190\n        /* \"#utility.yul\":8298:8299   */\n      0x00\n        /* \"#utility.yul\":8287:8296   */\n      dup4\n        /* \"#utility.yul\":8283:8300   */\n      add\n        /* \"#utility.yul\":8274:8280   */\n      dup5\n        /* \"#utility.yul\":8230:8301   */\n      tag_82\n      jump\t// in\n    tag_190:\n        /* \"#utility.yul\":8086:8308   */\n      swap3\n      swap2\n      pop\n      pop\n      jump\t// out\n        /* \"#utility.yul\":8314:8457   */\n    tag_86:\n        /* \"#utility.yul\":8371:8376   */\n      0x00\n        /* \"#utility.yul\":8402:8408   */\n      dup2\n        /* \"#utility.yul\":8396:8409   */\n      mload\n        /* \"#utility.yul\":8387:8409   */\n      swap1\n      pop\n        /* \"#utility.yul\":8418:8451   */\n      tag_192\n        /* \"#utility.yul\":8445:8450   */\n      dup2\n        /* \"#utility.yul\":8418:8451   */\n      tag_58\n      jump\t// in\n    tag_192:\n        /* \"#utility.yul\":8314:8457   */\n      swap3\n      swap2\n      pop\n      pop\n      jump\t// out\n        /* \"#utility.yul\":8463:8814   */\n    tag_47:\n        /* \"#utility.yul\":8533:8539   */\n      0x00\n        /* \"#utility.yul\":8582:8584   */\n      0x20\n        /* \"#utility.yul\":8570:8579   */\n      dup3\n        /* \"#utility.yul\":8561:8568   */\n      dup5\n        /* \"#utility.yul\":8557:8580   */\n      sub\n        /* \"#utility.yul\":8553:8585   */\n      slt\n        /* \"#utility.yul\":8550:8669   */\n      iszero\n      tag_194\n      jumpi\n        /* \"#utility.yul\":8588:8667   */\n      tag_195\n      tag_55\n      jump\t// in\n    tag_195:\n        /* \"#utility.yul\":8550:8669   */\n    tag_194:\n        /* \"#utility.yul\":8708:8709   */\n      0x00\n        /* \"#utility.yul\":8733:8797   */\n      tag_196\n        /* \"#utility.yul\":8789:8796   */\n      dup5\n        /* \"#utility.yul\":8780:8786   */\n      dup3\n        /* \"#utility.yul\":8769:8778   */\n      dup6\n        /* \"#utility.yul\":8765:8787   */\n      add\n        /* \"#utility.yul\":8733:8797   */\n      tag_86\n      jump\t// in\n    tag_196:\n        /* \"#utility.yul\":8723:8797   */\n      swap2\n      pop\n        /* \"#utility.yul\":8679:8807   */\n      pop\n        /* \"#utility.yul\":8463:8814   */\n      swap3\n      swap2\n      pop\n      pop\n      jump\t// out\n        /* \"#utility.yul\":8820:9125   */\n    tag_51:\n        /* \"#utility.yul\":8860:8863   */\n      0x00\n        /* \"#utility.yul\":8879:8899   */\n      tag_198\n        /* \"#utility.yul\":8897:8898   */\n      dup3\n        /* \"#utility.yul\":8879:8899   */\n      tag_57\n      jump\t// in\n    tag_198:\n        /* \"#utility.yul\":8874:8899   */\n      swap2\n      pop\n        /* \"#utility.yul\":8913:8933   */\n      tag_199\n        /* \"#utility.yul\":8931:8932   */\n      dup4\n        /* \"#utility.yul\":8913:8933   */\n      tag_57\n      jump\t// in\n    tag_199:\n        /* \"#utility.yul\":8908:8933   */\n      swap3\n      pop\n        /* \"#utility.yul\":9067:9068   */\n      dup3\n        /* \"#utility.yul\":8999:9065   */\n      0xffffffffffffffffffffffffffffffffffffffffffffffffffffffffffffffff\n        /* \"#utility.yul\":8995:9069   */\n      sub\n        /* \"#utility.yul\":8992:8993   */\n      dup3\n        /* \"#utility.yul\":8989:9070   */\n      gt\n        /* \"#utility.yul\":8986:9093   */\n      iszero\n      tag_200\n      jumpi\n        /* \"#utility.yul\":9073:9091   */\n      tag_201\n      tag_85\n      jump\t// in\n    tag_201:\n        /* \"#utility.yul\":8986:9093   */\n    tag_200:\n        /* \"#utility.yul\":9117:9118   */\n      dup3\n        /* \"#utility.yul\":9114:9115   */\n      dup3\n        /* \"#utility.yul\":9110:9119   */\n      add\n        /* \"#utility.yul\":9103:9119   */\n      swap1\n      pop\n        /* \"#utility.yul\":8820:9125   */\n      swap3\n      swap2\n      pop\n      pop\n      jump\t// out\n\n    auxdata: 0xa2646970667358221220bda0bbf132043934451518321bf134bb47bb813f342eaaf83590bdbd49bffb1664736f6c634300080f0033\n}\n\nsub_1: assembly {\n        /* \"miscellaneous/SimpleERC223Token.sol\":180:2415  contract SimpleERC223Token {... */\n      mstore(0x40, 0x80)\n        /* \"miscellaneous/SimpleERC223Token.sol\":325:367  string public name = \"Simple ERC223 Token\" */\n      mload(0x40)\n      dup1\n      0x40\n      add\n      0x40\n      mstore\n      dup1\n      0x13\n      dup2\n      mstore\n      0x20\n      add\n      0x53696d706c652045524332323320546f6b656e00000000000000000000000000\n      dup2\n      mstore\n      pop\n      0x01\n      swap1\n      dup2\n      tag_1\n      swap2\n      swap1\n      tag_2\n      jump\t// in\n    tag_1:\n      pop\n        /* \"miscellaneous/SimpleERC223Token.sol\":374:402  string public symbol = \"SET\" */\n      mload(0x40)\n      dup1\n      0x40\n      add\n      0x40\n      mstore\n      dup1\n      0x03\n      dup2\n      mstore\n      0x20\n      add\n      0x5345540000000000000000000000000000000000000000000000000000000000\n      dup2\n      mstore\n      pop\n      0x02\n      swap1\n      dup2\n      tag_3\n      swap2\n      swap1\n      tag_2\n      jump\t// in\n    tag_3:\n      pop\n        /* \"miscellaneous/SimpleERC223Token.sol\":433:435  18 */\n      0x12\n        /* \"miscellaneous/SimpleERC223Token.sol\":409:435  uint8 public decimals = 18 */\n      0x03\n      exp(0x0100, 0x00)\n      dup2\n      sload\n      dup2\n      0xff\n      mul\n      not\n      and\n      swap1\n      dup4\n      0xff\n      and\n      mul\n      or\n      swap1\n      sstore\n      pop\n        /* \"miscellaneous/SimpleERC223Token.sol\":499:507  decimals */\n      0x03\n      0x00\n      swap1\n      sload\n      swap1\n      0x0100\n      exp\n      swap1\n      div\n      0xff\n      and\n        /* \"miscellaneous/SimpleERC223Token.sol\":492:494  10 */\n      0x0a\n        /* \"miscellaneous/SimpleERC223Token.sol\":484:507  uint256(10) ** decimals */\n      tag_4\n      swap2\n      swap1\n      tag_5\n      jump\t// in\n    tag_4:\n        /* \"miscellaneous/SimpleERC223Token.sol\":473:480  1000000 */\n      0x0f4240\n        /* \"miscellaneous/SimpleERC223Token.sol\":473:508  1000000 * (uint256(10) ** decimals) */\n      tag_6\n      swap2\n      swap1\n      tag_7\n      jump\t// in\n    tag_6:\n        /* \"miscellaneous/SimpleERC223Token.sol\":444:508  uint256 public totalSupply = 1000000 * (uint256(10) ** decimals) */\n      0x04\n      sstore\n        /* \"miscellaneous/SimpleERC223Token.sol\":597:725  constructor(){... */\n      callvalue\n      dup1\n      iszero\n      tag_8\n      jumpi\n      0x00\n      dup1\n      revert\n    tag_8:\n      pop\n        /* \"miscellaneous/SimpleERC223Token.sol\":645:656  totalSupply */\n      sload(0x04)\n        /* \"miscellaneous/SimpleERC223Token.sol\":621:630  balanceOf */\n      0x00\n        /* \"miscellaneous/SimpleERC223Token.sol\":621:642  balanceOf[msg.sender] */\n      dup1\n        /* \"miscellaneous/SimpleERC223Token.sol\":631:641  msg.sender */\n      caller\n        /* \"miscellaneous/SimpleERC223Token.sol\":621:642  balanceOf[msg.sender] */\n      0xffffffffffffffffffffffffffffffffffffffff\n      and\n      0xffffffffffffffffffffffffffffffffffffffff\n      and\n      dup2\n      mstore\n      0x20\n      add\n      swap1\n      dup2\n      mstore\n      0x20\n      add\n      0x00\n      keccak256\n        /* \"miscellaneous/SimpleERC223Token.sol\":621:656  balanceOf[msg.sender] = totalSupply */\n      dup2\n      swap1\n      sstore\n      pop\n        /* \"miscellaneous/SimpleERC223Token.sol\":693:703  msg.sender */\n      caller\n        /* \"miscellaneous/SimpleERC223Token.sol\":672:717  Transfer(address(0), msg.sender, totalSupply) */\n      0xffffffffffffffffffffffffffffffffffffffff\n      and\n        /* \"miscellaneous/SimpleERC223Token.sol\":689:690  0 */\n      0x00\n        /* \"miscellaneous/SimpleERC223Token.sol\":672:717  Transfer(address(0), msg.sender, totalSupply) */\n      0xffffffffffffffffffffffffffffffffffffffff\n      and\n      0xddf252ad1be2c89b69c2b068fc378daa952ba7f163c4a11628f55a4df523b3ef\n        /* \"miscellaneous/SimpleERC223Token.sol\":705:716  totalSupply */\n      sload(0x04)\n        /* \"miscellaneous/SimpleERC223Token.sol\":672:717  Transfer(address(0), msg.sender, totalSupply) */\n      mload(0x40)\n      tag_11\n      swap2\n      swap1\n      tag_12\n      jump\t// in\n    tag_11:\n      mload(0x40)\n      dup1\n      swap2\n      sub\n      swap1\n      log3\n        /* \"miscellaneous/SimpleERC223Token.sol\":180:2415  contract SimpleERC223Token {... */\n      jump(tag_13)\n        /* \"#utility.yul\":7:106   */\n    tag_14:\n        /* \"#utility.yul\":59:65   */\n      0x00\n        /* \"#utility.yul\":93:98   */\n      dup2\n        /* \"#utility.yul\":87:99   */\n      mload\n        /* \"#utility.yul\":77:99   */\n      swap1\n      pop\n        /* \"#utility.yul\":7:106   */\n      swap2\n      swap1\n      pop\n      jump\t// out\n        /* \"#utility.yul\":112:292   */\n    tag_15:\n        /* \"#utility.yul\":160:237   */\n      0x4e487b7100000000000000000000000000000000000000000000000000000000\n        /* \"#utility.yul\":157:158   */\n      0x00\n        /* \"#utility.yul\":150:238   */\n      mstore\n        /* \"#utility.yul\":257:261   */\n      0x41\n        /* \"#utility.yul\":254:255   */\n      0x04\n        /* \"#utility.yul\":247:262   */\n      mstore\n        /* \"#utility.yul\":281:285   */\n      0x24\n        /* \"#utility.yul\":278:279   */\n      0x00\n        /* \"#utility.yul\":271:286   */\n      revert\n        /* \"#utility.yul\":298:478   */\n    tag_16:\n        /* \"#utility.yul\":346:423   */\n      0x4e487b7100000000000000000000000000000000000000000000000000000000\n        /* \"#utility.yul\":343:344   */\n      0x00\n        /* \"#utility.yul\":336:424   */\n      mstore\n        /* \"#utility.yul\":443:447   */\n      0x22\n        /* \"#utility.yul\":440:441   */\n      0x04\n        /* \"#utility.yul\":433:448   */\n      mstore\n        /* \"#utility.yul\":467:471   */\n      0x24\n        /* \"#utility.yul\":464:465   */\n      0x00\n        /* \"#utility.yul\":457:472   */\n      revert\n        /* \"#utility.yul\":484:804   */\n    tag_17:\n        /* \"#utility.yul\":528:534   */\n      0x00\n        /* \"#utility.yul\":565:566   */\n      0x02\n        /* \"#utility.yul\":559:563   */\n      dup3\n        /* \"#utility.yul\":555:567   */\n      div\n        /* \"#utility.yul\":545:567   */\n      swap1\n      pop\n        /* \"#utility.yul\":612:613   */\n      0x01\n        /* \"#utility.yul\":606:610   */\n      dup3\n        /* \"#utility.yul\":602:614   */\n      and\n        /* \"#utility.yul\":633:651   */\n      dup1\n        /* \"#utility.yul\":623:704   */\n      tag_45\n      jumpi\n        /* \"#utility.yul\":689:693   */\n      0x7f\n        /* \"#utility.yul\":681:687   */\n      dup3\n        /* \"#utility.yul\":677:694   */\n      and\n        /* \"#utility.yul\":667:694   */\n      swap2\n      pop\n        /* \"#utility.yul\":623:704   */\n    tag_45:\n        /* \"#utility.yul\":751:753   */\n      0x20\n        /* \"#utility.yul\":743:749   */\n      dup3\n        /* \"#utility.yul\":740:754   */\n      lt\n        /* \"#utility.yul\":720:738   */\n      dup2\n        /* \"#utility.yul\":717:755   */\n      sub\n        /* \"#utility.yul\":714:798   */\n      tag_46\n      jumpi\n        /* \"#utility.yul\":770:788   */\n      tag_47\n      tag_16\n      jump\t// in\n    tag_47:\n        /* \"#utility.yul\":714:798   */\n    tag_46:\n        /* \"#utility.yul\":535:804   */\n      pop\n        /* \"#utility.yul\":484:804   */\n      swap2\n      swap1\n      pop\n      jump\t// out\n        /* \"#utility.yul\":810:951   */\n    tag_18:\n        /* \"#utility.yul\":859:863   */\n      0x00\n        /* \"#utility.yul\":882:885   */\n      dup2\n        /* \"#utility.yul\":874:885   */\n      swap1\n      pop\n        /* \"#utility.yul\":905:908   */\n      dup2\n        /* \"#utility.yul\":902:903   */\n      0x00\n        /* \"#utility.yul\":895:909   */\n      mstore\n        /* \"#utility.yul\":939:943   */\n      0x20\n        /* \"#utility.yul\":936:937   */\n      0x00\n        /* \"#utility.yul\":926:944   */\n      keccak256\n        /* \"#utility.yul\":918:944   */\n      swap1\n      pop\n        /* \"#utility.yul\":810:951   */\n      swap2\n      swap1\n      pop\n      jump\t// out\n        /* \"#utility.yul\":957:1050   */\n    tag_19:\n        /* \"#utility.yul\":994:1000   */\n      0x00\n        /* \"#utility.yul\":1041:1043   */\n      0x20\n        /* \"#utility.yul\":1036:1038   */\n      0x1f\n        /* \"#utility.yul\":1029:1034   */\n      dup4\n        /* \"#utility.yul\":1025:1039   */\n      add\n        /* \"#utility.yul\":1021:1044   */\n      div\n        /* \"#utility.yul\":1011:1044   */\n      swap1\n      pop\n        /* \"#utility.yul\":957:1050   */\n      swap2\n      swap1\n      pop\n      jump\t// out\n        /* \"#utility.yul\":1056:1163   */\n    tag_20:\n        /* \"#utility.yul\":1100:1108   */\n      0x00\n        /* \"#utility.yul\":1150:1155   */\n      dup3\n        /* \"#utility.yul\":1144:1148   */\n      dup3\n        /* \"#utility.yul\":1140:1156   */\n      shl\n        /* \"#utility.yul\":1119:1156   */\n      swap1\n      pop\n        /* \"#utility.yul\":1056:1163   */\n      swap3\n      swap2\n      pop\n      pop\n      jump\t// out\n        /* \"#utility.yul\":1169:1562   */\n    tag_21:\n        /* \"#utility.yul\":1238:1244   */\n      0x00\n        /* \"#utility.yul\":1288:1289   */\n      0x08\n        /* \"#utility.yul\":1276:1286   */\n      dup4\n        /* \"#utility.yul\":1272:1290   */\n      mul\n        /* \"#utility.yul\":1311:1408   */\n      tag_52\n        /* \"#utility.yul\":1341:1407   */\n      0xffffffffffffffffffffffffffffffffffffffffffffffffffffffffffffffff\n        /* \"#utility.yul\":1330:1339   */\n      dup3\n        /* \"#utility.yul\":1311:1408   */\n      tag_20\n      jump\t// in\n    tag_52:\n        /* \"#utility.yul\":1429:1468   */\n      tag_53\n        /* \"#utility.yul\":1459:1467   */\n      dup7\n        /* \"#utility.yul\":1448:1457   */\n      dup4\n        /* \"#utility.yul\":1429:1468   */\n      tag_20\n      jump\t// in\n    tag_53:\n        /* \"#utility.yul\":1417:1468   */\n      swap6\n      pop\n        /* \"#utility.yul\":1501:1505   */\n      dup1\n        /* \"#utility.yul\":1497:1506   */\n      not\n        /* \"#utility.yul\":1490:1495   */\n      dup5\n        /* \"#utility.yul\":1486:1507   */\n      and\n        /* \"#utility.yul\":1477:1507   */\n      swap4\n      pop\n        /* \"#utility.yul\":1550:1554   */\n      dup1\n        /* \"#utility.yul\":1540:1548   */\n      dup7\n        /* \"#utility.yul\":1536:1555   */\n      and\n        /* \"#utility.yul\":1529:1534   */\n      dup5\n        /* \"#utility.yul\":1526:1556   */\n      or\n        /* \"#utility.yul\":1516:1556   */\n      swap3\n      pop\n        /* \"#utility.yul\":1245:1562   */\n      pop\n      pop\n        /* \"#utility.yul\":1169:1562   */\n      swap4\n      swap3\n      pop\n      pop\n      pop\n      jump\t// out\n        /* \"#utility.yul\":1568:1645   */\n    tag_22:\n        /* \"#utility.yul\":1605:1612   */\n      0x00\n        /* \"#utility.yul\":1634:1639   */\n      dup2\n        /* \"#utility.yul\":1623:1639   */\n      swap1\n      pop\n        /* \"#utility.yul\":1568:1645   */\n      swap2\n      swap1\n      pop\n      jump\t// out\n        /* \"#utility.yul\":1651:1711   */\n    tag_23:\n        /* \"#utility.yul\":1679:1682   */\n      0x00\n        /* \"#utility.yul\":1700:1705   */\n      dup2\n        /* \"#utility.yul\":1693:1705   */\n      swap1\n      pop\n        /* \"#utility.yul\":1651:1711   */\n      swap2\n      swap1\n      pop\n      jump\t// out\n        /* \"#utility.yul\":1717:1859   */\n    tag_24:\n        /* \"#utility.yul\":1767:1776   */\n      0x00\n        /* \"#utility.yul\":1800:1853   */\n      tag_57\n        /* \"#utility.yul\":1818:1852   */\n      tag_58\n        /* \"#utility.yul\":1827:1851   */\n      tag_59\n        /* \"#utility.yul\":1845:1850   */\n      dup5\n        /* \"#utility.yul\":1827:1851   */\n      tag_22\n      jump\t// in\n    tag_59:\n        /* \"#utility.yul\":1818:1852   */\n      tag_23\n      jump\t// in\n    tag_58:\n        /* \"#utility.yul\":1800:1853   */\n      tag_22\n      jump\t// in\n    tag_57:\n        /* \"#utility.yul\":1787:1853   */\n      swap1\n      pop\n        /* \"#utility.yul\":1717:1859   */\n      swap2\n      swap1\n      pop\n      jump\t// out\n        /* \"#utility.yul\":1865:1940   */\n    tag_25:\n        /* \"#utility.yul\":1908:1911   */\n      0x00\n        /* \"#utility.yul\":1929:1934   */\n      dup2\n        /* \"#utility.yul\":1922:1934   */\n      swap1\n      pop\n        /* \"#utility.yul\":1865:1940   */\n      swap2\n      swap1\n      pop\n      jump\t// out\n        /* \"#utility.yul\":1946:2215   */\n    tag_26:\n        /* \"#utility.yul\":2056:2095   */\n      tag_62\n        /* \"#utility.yul\":2087:2094   */\n      dup4\n        /* \"#utility.yul\":2056:2095   */\n      tag_24\n      jump\t// in\n    tag_62:\n        /* \"#utility.yul\":2117:2208   */\n      tag_63\n        /* \"#utility.yul\":2166:2207   */\n      tag_64\n        /* \"#utility.yul\":2190:2206   */\n      dup3\n        /* \"#utility.yul\":2166:2207   */\n      tag_25\n      jump\t// in\n    tag_64:\n        /* \"#utility.yul\":2158:2164   */\n      dup5\n        /* \"#utility.yul\":2151:2155   */\n      dup5\n        /* \"#utility.yul\":2145:2156   */\n      sload\n        /* \"#utility.yul\":2117:2208   */\n      tag_21\n      jump\t// in\n    tag_63:\n        /* \"#utility.yul\":2111:2115   */\n      dup3\n        /* \"#utility.yul\":2104:2209   */\n      sstore\n        /* \"#utility.yul\":2022:2215   */\n      pop\n        /* \"#utility.yul\":1946:2215   */\n      pop\n      pop\n      pop\n      jump\t// out\n        /* \"#utility.yul\":2221:2294   */\n    tag_27:\n        /* \"#utility.yul\":2266:2269   */\n      0x00\n        /* \"#utility.yul\":2221:2294   */\n      swap1\n      jump\t// out\n        /* \"#utility.yul\":2300:2489   */\n    tag_28:\n        /* \"#utility.yul\":2377:2409   */\n      tag_67\n      tag_27\n      jump\t// in\n    tag_67:\n        /* \"#utility.yul\":2418:2483   */\n      tag_68\n        /* \"#utility.yul\":2476:2482   */\n      dup2\n        /* \"#utility.yul\":2468:2474   */\n      dup5\n        /* \"#utility.yul\":2462:2466   */\n      dup5\n        /* \"#utility.yul\":2418:2483   */\n      tag_26\n      jump\t// in\n    tag_68:\n        /* \"#utility.yul\":2353:2489   */\n      pop\n        /* \"#utility.yul\":2300:2489   */\n      pop\n      pop\n      jump\t// out\n        /* \"#utility.yul\":2495:2681   */\n    tag_29:\n        /* \"#utility.yul\":2555:2675   */\n    tag_70:\n        /* \"#utility.yul\":2572:2575   */\n      dup2\n        /* \"#utility.yul\":2565:2570   */\n      dup2\n        /* \"#utility.yul\":2562:2576   */\n      lt\n        /* \"#utility.yul\":2555:2675   */\n      iszero\n      tag_72\n      jumpi\n        /* \"#utility.yul\":2626:2665   */\n      tag_73\n        /* \"#utility.yul\":2663:2664   */\n      0x00\n        /* \"#utility.yul\":2656:2661   */\n      dup3\n        /* \"#utility.yul\":2626:2665   */\n      tag_28\n      jump\t// in\n    tag_73:\n        /* \"#utility.yul\":2599:2600   */\n      0x01\n        /* \"#utility.yul\":2592:2597   */\n      dup2\n        /* \"#utility.yul\":2588:2601   */\n      add\n        /* \"#utility.yul\":2579:2601   */\n      swap1\n      pop\n        /* \"#utility.yul\":2555:2675   */\n      jump(tag_70)\n    tag_72:\n        /* \"#utility.yul\":2495:2681   */\n      pop\n      pop\n      jump\t// out\n        /* \"#utility.yul\":2687:3230   */\n    tag_30:\n        /* \"#utility.yul\":2788:2790   */\n      0x1f\n        /* \"#utility.yul\":2783:2786   */\n      dup3\n        /* \"#utility.yul\":2780:2791   */\n      gt\n        /* \"#utility.yul\":2777:3223   */\n      iszero\n      tag_75\n      jumpi\n        /* \"#utility.yul\":2822:2860   */\n      tag_76\n        /* \"#utility.yul\":2854:2859   */\n      dup2\n        /* \"#utility.yul\":2822:2860   */\n      tag_18\n      jump\t// in\n    tag_76:\n        /* \"#utility.yul\":2906:2935   */\n      tag_77\n        /* \"#utility.yul\":2924:2934   */\n      dup5\n        /* \"#utility.yul\":2906:2935   */\n      tag_19\n      jump\t// in\n    tag_77:\n        /* \"#utility.yul\":2896:2904   */\n      dup2\n        /* \"#utility.yul\":2892:2936   */\n      add\n        /* \"#utility.yul\":3089:3091   */\n      0x20\n        /* \"#utility.yul\":3077:3087   */\n      dup6\n        /* \"#utility.yul\":3074:3092   */\n      lt\n        /* \"#utility.yul\":3071:3120   */\n      iszero\n      tag_78\n      jumpi\n        /* \"#utility.yul\":3110:3118   */\n      dup2\n        /* \"#utility.yul\":3095:3118   */\n      swap1\n      pop\n        /* \"#utility.yul\":3071:3120   */\n    tag_78:\n        /* \"#utility.yul\":3133:3213   */\n      tag_79\n        /* \"#utility.yul\":3189:3211   */\n      tag_80\n        /* \"#utility.yul\":3207:3210   */\n      dup6\n        /* \"#utility.yul\":3189:3211   */\n      tag_19\n      jump\t// in\n    tag_80:\n        /* \"#utility.yul\":3179:3187   */\n      dup4\n        /* \"#utility.yul\":3175:3212   */\n      add\n        /* \"#utility.yul\":3162:3173   */\n      dup3\n        /* \"#utility.yul\":3133:3213   */\n      tag_29\n      jump\t// in\n    tag_79:\n        /* \"#utility.yul\":2792:3223   */\n      pop\n      pop\n        /* \"#utility.yul\":2777:3223   */\n    tag_75:\n        /* \"#utility.yul\":2687:3230   */\n      pop\n      pop\n      pop\n      jump\t// out\n        /* \"#utility.yul\":3236:3353   */\n    tag_31:\n        /* \"#utility.yul\":3290:3298   */\n      0x00\n        /* \"#utility.yul\":3340:3345   */\n      dup3\n        /* \"#utility.yul\":3334:3338   */\n      dup3\n        /* \"#utility.yul\":3330:3346   */\n      shr\n        /* \"#utility.yul\":3309:3346   */\n      swap1\n      pop\n        /* \"#utility.yul\":3236:3353   */\n      swap3\n      swap2\n      pop\n      pop\n      jump\t// out\n        /* \"#utility.yul\":3359:3528   */\n    tag_32:\n        /* \"#utility.yul\":3403:3409   */\n      0x00\n        /* \"#utility.yul\":3436:3487   */\n      tag_83\n        /* \"#utility.yul\":3484:3485   */\n      0x00\n        /* \"#utility.yul\":3480:3486   */\n      not\n        /* \"#utility.yul\":3472:3477   */\n      dup5\n        /* \"#utility.yul\":3469:3470   */\n      0x08\n        /* \"#utility.yul\":3465:3478   */\n      mul\n        /* \"#utility.yul\":3436:3487   */\n      tag_31\n      jump\t// in\n    tag_83:\n        /* \"#utility.yul\":3432:3488   */\n      not\n        /* \"#utility.yul\":3517:3521   */\n      dup1\n        /* \"#utility.yul\":3511:3515   */\n      dup4\n        /* \"#utility.yul\":3507:3522   */\n      and\n        /* \"#utility.yul\":3497:3522   */\n      swap2\n      pop\n        /* \"#utility.yul\":3410:3528   */\n      pop\n        /* \"#utility.yul\":3359:3528   */\n      swap3\n      swap2\n      pop\n      pop\n      jump\t// out\n        /* \"#utility.yul\":3533:3828   */\n    tag_33:\n        /* \"#utility.yul\":3609:3613   */\n      0x00\n        /* \"#utility.yul\":3755:3784   */\n      tag_85\n        /* \"#utility.yul\":3780:3783   */\n      dup4\n        /* \"#utility.yul\":3774:3778   */\n      dup4\n        /* \"#utility.yul\":3755:3784   */\n      tag_32\n      jump\t// in\n    tag_85:\n        /* \"#utility.yul\":3747:3784   */\n      swap2\n      pop\n        /* \"#utility.yul\":3817:3820   */\n      dup3\n        /* \"#utility.yul\":3814:3815   */\n      0x02\n        /* \"#utility.yul\":3810:3821   */\n      mul\n        /* \"#utility.yul\":3804:3808   */\n      dup3\n        /* \"#utility.yul\":3801:3822   */\n      or\n        /* \"#utility.yul\":3793:3822   */\n      swap1\n      pop\n        /* \"#utility.yul\":3533:3828   */\n      swap3\n      swap2\n      pop\n      pop\n      jump\t// out\n        /* \"#utility.yul\":3833:5228   */\n    tag_2:\n        /* \"#utility.yul\":3950:3987   */\n      tag_87\n        /* \"#utility.yul\":3983:3986   */\n      dup3\n        /* \"#utility.yul\":3950:3987   */\n      tag_14\n      jump\t// in\n    tag_87:\n        /* \"#utility.yul\":4052:4070   */\n      0xffffffffffffffff\n        /* \"#utility.yul\":4044:4050   */\n      dup2\n        /* \"#utility.yul\":4041:4071   */\n      gt\n        /* \"#utility.yul\":4038:4094   */\n      iszero\n      tag_88\n      jumpi\n        /* \"#utility.yul\":4074:4092   */\n      tag_89\n      tag_15\n      jump\t// in\n    tag_89:\n        /* \"#utility.yul\":4038:4094   */\n    tag_88:\n        /* \"#utility.yul\":4118:4156   */\n      tag_90\n        /* \"#utility.yul\":4150:4154   */\n      dup3\n        /* \"#utility.yul\":4144:4155   */\n      sload\n        /* \"#utility.yul\":4118:4156   */\n      tag_17\n      jump\t// in\n    tag_90:\n        /* \"#utility.yul\":4203:4270   */\n      tag_91\n        /* \"#utility.yul\":4263:4269   */\n      dup3\n        /* \"#utility.yul\":4255:4261   */\n      dup3\n        /* \"#utility.yul\":4249:4253   */\n      dup6\n        /* \"#utility.yul\":4203:4270   */\n      tag_30\n      jump\t// in\n    tag_91:\n        /* \"#utility.yul\":4297:4298   */\n      0x00\n        /* \"#utility.yul\":4321:4325   */\n      0x20\n        /* \"#utility.yul\":4308:4325   */\n      swap1\n      pop\n        /* \"#utility.yul\":4353:4355   */\n      0x1f\n        /* \"#utility.yul\":4345:4351   */\n      dup4\n        /* \"#utility.yul\":4342:4356   */\n      gt\n        /* \"#utility.yul\":4370:4371   */\n      0x01\n        /* \"#utility.yul\":4365:4983   */\n      dup2\n      eq\n      tag_93\n      jumpi\n        /* \"#utility.yul\":5027:5028   */\n      0x00\n        /* \"#utility.yul\":5044:5050   */\n      dup5\n        /* \"#utility.yul\":5041:5118   */\n      iszero\n      tag_94\n      jumpi\n        /* \"#utility.yul\":5093:5102   */\n      dup3\n        /* \"#utility.yul\":5088:5091   */\n      dup8\n        /* \"#utility.yul\":5084:5103   */\n      add\n        /* \"#utility.yul\":5078:5104   */\n      mload\n        /* \"#utility.yul\":5069:5104   */\n      swap1\n      pop\n        /* \"#utility.yul\":5041:5118   */\n    tag_94:\n        /* \"#utility.yul\":5144:5211   */\n      tag_95\n        /* \"#utility.yul\":5204:5210   */\n      dup6\n        /* \"#utility.yul\":5197:5202   */\n      dup3\n        /* \"#utility.yul\":5144:5211   */\n      tag_33\n      jump\t// in\n    tag_95:\n        /* \"#utility.yul\":5138:5142   */\n      dup7\n        /* \"#utility.yul\":5131:5212   */\n      sstore\n        /* \"#utility.yul\":5000:5222   */\n      pop\n        /* \"#utility.yul\":4335:5222   */\n      jump(tag_92)\n        /* \"#utility.yul\":4365:4983   */\n    tag_93:\n        /* \"#utility.yul\":4417:4421   */\n      0x1f\n        /* \"#utility.yul\":4413:4422   */\n      not\n        /* \"#utility.yul\":4405:4411   */\n      dup5\n        /* \"#utility.yul\":4401:4423   */\n      and\n        /* \"#utility.yul\":4451:4488   */\n      tag_96\n        /* \"#utility.yul\":4483:4487   */\n      dup7\n        /* \"#utility.yul\":4451:4488   */\n      tag_18\n      jump\t// in\n    tag_96:\n        /* \"#utility.yul\":4510:4511   */\n      0x00\n        /* \"#utility.yul\":4524:4732   */\n    tag_97:\n        /* \"#utility.yul\":4538:4545   */\n      dup3\n        /* \"#utility.yul\":4535:4536   */\n      dup2\n        /* \"#utility.yul\":4532:4546   */\n      lt\n        /* \"#utility.yul\":4524:4732   */\n      iszero\n      tag_99\n      jumpi\n        /* \"#utility.yul\":4617:4626   */\n      dup5\n        /* \"#utility.yul\":4612:4615   */\n      dup10\n        /* \"#utility.yul\":4608:4627   */\n      add\n        /* \"#utility.yul\":4602:4628   */\n      mload\n        /* \"#utility.yul\":4594:4600   */\n      dup3\n        /* \"#utility.yul\":4587:4629   */\n      sstore\n        /* \"#utility.yul\":4668:4669   */\n      0x01\n        /* \"#utility.yul\":4660:4666   */\n      dup3\n        /* \"#utility.yul\":4656:4670   */\n      add\n        /* \"#utility.yul\":4646:4670   */\n      swap2\n      pop\n        /* \"#utility.yul\":4715:4717   */\n      0x20\n        /* \"#utility.yul\":4704:4713   */\n      dup6\n        /* \"#utility.yul\":4700:4718   */\n      add\n        /* \"#utility.yul\":4687:4718   */\n      swap5\n      pop\n        /* \"#utility.yul\":4561:4565   */\n      0x20\n        /* \"#utility.yul\":4558:4559   */\n      dup2\n        /* \"#utility.yul\":4554:4566   */\n      add\n        /* \"#utility.yul\":4549:4566   */\n      swap1\n      pop\n        /* \"#utility.yul\":4524:4732   */\n      jump(tag_97)\n    tag_99:\n        /* \"#utility.yul\":4760:4766   */\n      dup7\n        /* \"#utility.yul\":4751:4758   */\n      dup4\n        /* \"#utility.yul\":4748:4767   */\n      lt\n        /* \"#utility.yul\":4745:4924   */\n      iszero\n      tag_100\n      jumpi\n        /* \"#utility.yul\":4818:4827   */\n      dup5\n        /* \"#utility.yul\":4813:4816   */\n      dup10\n        /* \"#utility.yul\":4809:4828   */\n      add\n        /* \"#utility.yul\":4803:4829   */\n      mload\n        /* \"#utility.yul\":4861:4909   */\n      tag_101\n        /* \"#utility.yul\":4903:4907   */\n      0x1f\n        /* \"#utility.yul\":4895:4901   */\n      dup10\n        /* \"#utility.yul\":4891:4908   */\n      and\n        /* \"#utility.yul\":4880:4889   */\n      dup3\n        /* \"#utility.yul\":4861:4909   */\n      tag_32\n      jump\t// in\n    tag_101:\n        /* \"#utility.yul\":4853:4859   */\n      dup4\n        /* \"#utility.yul\":4846:4910   */\n      sstore\n        /* \"#utility.yul\":4768:4924   */\n      pop\n        /* \"#utility.yul\":4745:4924   */\n    tag_100:\n        /* \"#utility.yul\":4970:4971   */\n      0x01\n        /* \"#utility.yul\":4966:4967   */\n      0x02\n        /* \"#utility.yul\":4958:4964   */\n      dup9\n        /* \"#utility.yul\":4954:4968   */\n      mul\n        /* \"#utility.yul\":4950:4972   */\n      add\n        /* \"#utility.yul\":4944:4948   */\n      dup9\n        /* \"#utility.yul\":4937:4973   */\n      sstore\n        /* \"#utility.yul\":4372:4983   */\n      pop\n      pop\n      pop\n        /* \"#utility.yul\":4335:5222   */\n    tag_92:\n      pop\n        /* \"#utility.yul\":3925:5228   */\n      pop\n      pop\n      pop\n        /* \"#utility.yul\":3833:5228   */\n      pop\n      pop\n      jump\t// out\n        /* \"#utility.yul\":5234:5414   */\n    tag_34:\n        /* \"#utility.yul\":5282:5359   */\n      0x4e487b7100000000000000000000000000000000000000000000000000000000\n        /* \"#utility.yul\":5279:5280   */\n      0x00\n        /* \"#utility.yul\":5272:5360   */\n      mstore\n        /* \"#utility.yul\":5379:5383   */\n      0x11\n        /* \"#utility.yul\":5376:5377   */\n      0x04\n        /* \"#utility.yul\":5369:5384   */\n      mstore\n        /* \"#utility.yul\":5403:5407   */\n      0x24\n        /* \"#utility.yul\":5400:5401   */\n      0x00\n        /* \"#utility.yul\":5393:5408   */\n      revert\n        /* \"#utility.yul\":5420:5522   */\n    tag_35:\n        /* \"#utility.yul\":5462:5470   */\n      0x00\n        /* \"#utility.yul\":5509:5514   */\n      dup2\n        /* \"#utility.yul\":5506:5507   */\n      0x01\n        /* \"#utility.yul\":5502:5515   */\n      shr\n        /* \"#utility.yul\":5481:5515   */\n      swap1\n      pop\n        /* \"#utility.yul\":5420:5522   */\n      swap2\n      swap1\n      pop\n      jump\t// out\n        /* \"#utility.yul\":5528:6376   */\n    tag_36:\n        /* \"#utility.yul\":5589:5594   */\n      0x00\n        /* \"#utility.yul\":5596:5600   */\n      dup1\n        /* \"#utility.yul\":5620:5626   */\n      dup3\n        /* \"#utility.yul\":5611:5626   */\n      swap2\n      pop\n        /* \"#utility.yul\":5644:5649   */\n      dup4\n        /* \"#utility.yul\":5635:5649   */\n      swap1\n      pop\n        /* \"#utility.yul\":5658:6370   */\n    tag_105:\n        /* \"#utility.yul\":5679:5680   */\n      0x01\n        /* \"#utility.yul\":5669:5677   */\n      dup6\n        /* \"#utility.yul\":5666:5681   */\n      gt\n        /* \"#utility.yul\":5658:6370   */\n      iszero\n      tag_107\n      jumpi\n        /* \"#utility.yul\":5774:5778   */\n      dup1\n        /* \"#utility.yul\":5769:5772   */\n      dup7\n        /* \"#utility.yul\":5765:5779   */\n      div\n        /* \"#utility.yul\":5759:5763   */\n      dup2\n        /* \"#utility.yul\":5756:5780   */\n      gt\n        /* \"#utility.yul\":5753:5803   */\n      iszero\n      tag_108\n      jumpi\n        /* \"#utility.yul\":5783:5801   */\n      tag_109\n      tag_34\n      jump\t// in\n    tag_109:\n        /* \"#utility.yul\":5753:5803   */\n    tag_108:\n        /* \"#utility.yul\":5833:5834   */\n      0x01\n        /* \"#utility.yul\":5823:5831   */\n      dup6\n        /* \"#utility.yul\":5819:5835   */\n      and\n        /* \"#utility.yul\":5816:6267   */\n      iszero\n      tag_110\n      jumpi\n        /* \"#utility.yul\":6248:6252   */\n      dup1\n        /* \"#utility.yul\":6241:6246   */\n      dup3\n        /* \"#utility.yul\":6237:6253   */\n      mul\n        /* \"#utility.yul\":6228:6253   */\n      swap2\n      pop\n        /* \"#utility.yul\":5816:6267   */\n    tag_110:\n        /* \"#utility.yul\":6298:6302   */\n      dup1\n        /* \"#utility.yul\":6292:6296   */\n      dup2\n        /* \"#utility.yul\":6288:6303   */\n      mul\n        /* \"#utility.yul\":6280:6303   */\n      swap1\n      pop\n        /* \"#utility.yul\":6328:6360   */\n      tag_111\n        /* \"#utility.yul\":6351:6359   */\n      dup6\n        /* \"#utility.yul\":6328:6360   */\n      tag_35\n      jump\t// in\n    tag_111:\n        /* \"#utility.yul\":6316:6360   */\n      swap5\n      pop\n        /* \"#utility.yul\":5658:6370   */\n      jump(tag_105)\n    tag_107:\n        /* \"#utility.yul\":5528:6376   */\n      swap5\n      pop\n      swap5\n      swap3\n      pop\n      pop\n      pop\n      jump\t// out\n        /* \"#utility.yul\":6382:7455   */\n    tag_37:\n        /* \"#utility.yul\":6436:6441   */\n      0x00\n        /* \"#utility.yul\":6627:6635   */\n      dup3\n        /* \"#utility.yul\":6617:6657   */\n      tag_113\n      jumpi\n        /* \"#utility.yul\":6648:6649   */\n      0x01\n        /* \"#utility.yul\":6639:6649   */\n      swap1\n      pop\n        /* \"#utility.yul\":6650:6655   */\n      jump(tag_112)\n        /* \"#utility.yul\":6617:6657   */\n    tag_113:\n        /* \"#utility.yul\":6676:6680   */\n      dup2\n        /* \"#utility.yul\":6666:6702   */\n      tag_114\n      jumpi\n        /* \"#utility.yul\":6693:6694   */\n      0x00\n        /* \"#utility.yul\":6684:6694   */\n      swap1\n      pop\n        /* \"#utility.yul\":6695:6700   */\n      jump(tag_112)\n        /* \"#utility.yul\":6666:6702   */\n    tag_114:\n        /* \"#utility.yul\":6762:6766   */\n      dup2\n        /* \"#utility.yul\":6810:6811   */\n      0x01\n        /* \"#utility.yul\":6805:6832   */\n      dup2\n      eq\n      tag_116\n      jumpi\n        /* \"#utility.yul\":6846:6847   */\n      0x02\n        /* \"#utility.yul\":6841:7032   */\n      dup2\n      eq\n      tag_117\n      jumpi\n        /* \"#utility.yul\":6755:7032   */\n      jump(tag_115)\n        /* \"#utility.yul\":6805:6832   */\n    tag_116:\n        /* \"#utility.yul\":6823:6824   */\n      0x01\n        /* \"#utility.yul\":6814:6824   */\n      swap2\n      pop\n        /* \"#utility.yul\":6825:6830   */\n      pop\n      jump(tag_112)\n        /* \"#utility.yul\":6841:7032   */\n    tag_117:\n        /* \"#utility.yul\":6886:6889   */\n      0xff\n        /* \"#utility.yul\":6876:6884   */\n      dup5\n        /* \"#utility.yul\":6873:6890   */\n      gt\n        /* \"#utility.yul\":6870:6913   */\n      iszero\n      tag_118\n      jumpi\n        /* \"#utility.yul\":6893:6911   */\n      tag_119\n      tag_34\n      jump\t// in\n    tag_119:\n        /* \"#utility.yul\":6870:6913   */\n    tag_118:\n        /* \"#utility.yul\":6942:6950   */\n      dup4\n        /* \"#utility.yul\":6939:6940   */\n      0x02\n        /* \"#utility.yul\":6935:6951   */\n      exp\n        /* \"#utility.yul\":6926:6951   */\n      swap2\n      pop\n        /* \"#utility.yul\":6977:6980   */\n      dup5\n        /* \"#utility.yul\":6970:6975   */\n      dup3\n        /* \"#utility.yul\":6967:6981   */\n      gt\n        /* \"#utility.yul\":6964:7004   */\n      iszero\n      tag_120\n      jumpi\n        /* \"#utility.yul\":6984:7002   */\n      tag_121\n      tag_34\n      jump\t// in\n    tag_121:\n        /* \"#utility.yul\":6964:7004   */\n    tag_120:\n        /* \"#utility.yul\":7017:7022   */\n      pop\n      jump(tag_112)\n        /* \"#utility.yul\":6755:7032   */\n    tag_115:\n      pop\n        /* \"#utility.yul\":7141:7143   */\n      0x20\n        /* \"#utility.yul\":7131:7139   */\n      dup4\n        /* \"#utility.yul\":7128:7144   */\n      lt\n        /* \"#utility.yul\":7122:7125   */\n      0x0133\n        /* \"#utility.yul\":7116:7120   */\n      dup4\n        /* \"#utility.yul\":7113:7126   */\n      lt\n        /* \"#utility.yul\":7109:7145   */\n      and\n        /* \"#utility.yul\":7091:7093   */\n      0x4e\n        /* \"#utility.yul\":7081:7089   */\n      dup5\n        /* \"#utility.yul\":7078:7094   */\n      lt\n        /* \"#utility.yul\":7073:7075   */\n      0x0b\n        /* \"#utility.yul\":7067:7071   */\n      dup5\n        /* \"#utility.yul\":7064:7076   */\n      lt\n        /* \"#utility.yul\":7060:7095   */\n      and\n        /* \"#utility.yul\":7044:7155   */\n      or\n        /* \"#utility.yul\":7041:7287   */\n      iszero\n      tag_122\n      jumpi\n        /* \"#utility.yul\":7197:7205   */\n      dup3\n        /* \"#utility.yul\":7191:7195   */\n      dup3\n        /* \"#utility.yul\":7187:7206   */\n      exp\n        /* \"#utility.yul\":7178:7206   */\n      swap1\n      pop\n        /* \"#utility.yul\":7232:7235   */\n      dup4\n        /* \"#utility.yul\":7225:7230   */\n      dup2\n        /* \"#utility.yul\":7222:7236   */\n      gt\n        /* \"#utility.yul\":7219:7259   */\n      iszero\n      tag_123\n      jumpi\n        /* \"#utility.yul\":7239:7257   */\n      tag_124\n      tag_34\n      jump\t// in\n    tag_124:\n        /* \"#utility.yul\":7219:7259   */\n    tag_123:\n        /* \"#utility.yul\":7272:7277   */\n      jump(tag_112)\n        /* \"#utility.yul\":7041:7287   */\n    tag_122:\n        /* \"#utility.yul\":7312:7354   */\n      tag_125\n        /* \"#utility.yul\":7350:7353   */\n      dup5\n        /* \"#utility.yul\":7340:7348   */\n      dup5\n        /* \"#utility.yul\":7334:7338   */\n      dup5\n        /* \"#utility.yul\":7331:7332   */\n      0x01\n        /* \"#utility.yul\":7312:7354   */\n      tag_36\n      jump\t// in\n    tag_125:\n        /* \"#utility.yul\":7297:7354   */\n      swap3\n      pop\n      swap1\n      pop\n        /* \"#utility.yul\":7386:7390   */\n      dup2\n        /* \"#utility.yul\":7381:7384   */\n      dup5\n        /* \"#utility.yul\":7377:7391   */\n      div\n        /* \"#utility.yul\":7370:7375   */\n      dup2\n        /* \"#utility.yul\":7367:7392   */\n      gt\n        /* \"#utility.yul\":7364:7415   */\n      iszero\n      tag_126\n      jumpi\n        /* \"#utility.yul\":7395:7413   */\n      tag_127\n      tag_34\n      jump\t// in\n    tag_127:\n        /* \"#utility.yul\":7364:7415   */\n    tag_126:\n        /* \"#utility.yul\":7444:7448   */\n      dup2\n        /* \"#utility.yul\":7437:7442   */\n      dup2\n        /* \"#utility.yul\":7433:7449   */\n      mul\n        /* \"#utility.yul\":7424:7449   */\n      swap1\n      pop\n        /* \"#utility.yul\":6382:7455   */\n    tag_112:\n      swap4\n      swap3\n      pop\n      pop\n      pop\n      jump\t// out\n        /* \"#utility.yul\":7461:7547   */\n    tag_38:\n        /* \"#utility.yul\":7496:7503   */\n      0x00\n        /* \"#utility.yul\":7536:7540   */\n      0xff\n        /* \"#utility.yul\":7529:7534   */\n      dup3\n        /* \"#utility.yul\":7525:7541   */\n      and\n        /* \"#utility.yul\":7514:7541   */\n      swap1\n      pop\n        /* \"#utility.yul\":7461:7547   */\n      swap2\n      swap1\n      pop\n      jump\t// out\n        /* \"#utility.yul\":7553:7834   */\n    tag_5:\n        /* \"#utility.yul\":7611:7616   */\n      0x00\n        /* \"#utility.yul\":7635:7658   */\n      tag_130\n        /* \"#utility.yul\":7653:7657   */\n      dup3\n        /* \"#utility.yul\":7635:7658   */\n      tag_22\n      jump\t// in\n    tag_130:\n        /* \"#utility.yul\":7627:7658   */\n      swap2\n      pop\n        /* \"#utility.yul\":7679:7704   */\n      tag_131\n        /* \"#utility.yul\":7695:7703   */\n      dup4\n        /* \"#utility.yul\":7679:7704   */\n      tag_38\n      jump\t// in\n    tag_131:\n        /* \"#utility.yul\":7667:7704   */\n      swap3\n      pop\n        /* \"#utility.yul\":7723:7827   */\n      tag_132\n        /* \"#utility.yul\":7760:7826   */\n      0xffffffffffffffffffffffffffffffffffffffffffffffffffffffffffffffff\n        /* \"#utility.yul\":7750:7758   */\n      dup5\n        /* \"#utility.yul\":7744:7748   */\n      dup5\n        /* \"#utility.yul\":7723:7827   */\n      tag_37\n      jump\t// in\n    tag_132:\n        /* \"#utility.yul\":7714:7827   */\n      swap1\n      pop\n        /* \"#utility.yul\":7553:7834   */\n      swap3\n      swap2\n      pop\n      pop\n      jump\t// out\n        /* \"#utility.yul\":7840:8188   */\n    tag_7:\n        /* \"#utility.yul\":7880:7887   */\n      0x00\n        /* \"#utility.yul\":7903:7923   */\n      tag_134\n        /* \"#utility.yul\":7921:7922   */\n      dup3\n        /* \"#utility.yul\":7903:7923   */\n      tag_22\n      jump\t// in\n    tag_134:\n        /* \"#utility.yul\":7898:7923   */\n      swap2\n      pop\n        /* \"#utility.yul\":7937:7957   */\n      tag_135\n        /* \"#utility.yul\":7955:7956   */\n      dup4\n        /* \"#utility.yul\":7937:7957   */\n      tag_22\n      jump\t// in\n    tag_135:\n        /* \"#utility.yul\":7932:7957   */\n      swap3\n      pop\n        /* \"#utility.yul\":8125:8126   */\n      dup2\n        /* \"#utility.yul\":8057:8123   */\n      0xffffffffffffffffffffffffffffffffffffffffffffffffffffffffffffffff\n        /* \"#utility.yul\":8053:8127   */\n      div\n        /* \"#utility.yul\":8050:8051   */\n      dup4\n        /* \"#utility.yul\":8047:8128   */\n      gt\n        /* \"#utility.yul\":8042:8043   */\n      dup3\n        /* \"#utility.yul\":8035:8044   */\n      iszero\n        /* \"#utility.yul\":8028:8045   */\n      iszero\n        /* \"#utility.yul\":8024:8129   */\n      and\n        /* \"#utility.yul\":8021:8152   */\n      iszero\n      tag_136\n      jumpi\n        /* \"#utility.yul\":8132:8150   */\n      tag_137\n      tag_34\n      jump\t// in\n    tag_137:\n        /* \"#utility.yul\":8021:8152   */\n    tag_136:\n        /* \"#utility.yul\":8180:8181   */\n      dup3\n        /* \"#utility.yul\":8177:8178   */\n      dup3\n        /* \"#utility.yul\":8173:8182   */\n      mul\n        /* \"#utility.yul\":8162:8182   */\n      swap1\n      pop\n        /* \"#utility.yul\":7840:8188   */\n      swap3\n      swap2\n      pop\n      pop\n      jump\t// out\n        /* \"#utility.yul\":8194:8312   */\n    tag_39:\n        /* \"#utility.yul\":8281:8305   */\n      tag_139\n        /* \"#utility.yul\":8299:8304   */\n      dup2\n        /* \"#utility.yul\":8281:8305   */\n      tag_22\n      jump\t// in\n    tag_139:\n        /* \"#utility.yul\":8276:8279   */\n      dup3\n        /* \"#utility.yul\":8269:8306   */\n      mstore\n        /* \"#utility.yul\":8194:8312   */\n      pop\n      pop\n      jump\t// out\n        /* \"#utility.yul\":8318:8540   */\n    tag_12:\n        /* \"#utility.yul\":8411:8415   */\n      0x00\n        /* \"#utility.yul\":8449:8451   */\n      0x20\n        /* \"#utility.yul\":8438:8447   */\n      dup3\n        /* \"#utility.yul\":8434:8452   */\n      add\n        /* \"#utility.yul\":8426:8452   */\n      swap1\n      pop\n        /* \"#utility.yul\":8462:8533   */\n      tag_141\n        /* \"#utility.yul\":8530:8531   */\n      0x00\n        /* \"#utility.yul\":8519:8528   */\n      dup4\n        /* \"#utility.yul\":8515:8532   */\n      add\n        /* \"#utility.yul\":8506:8512   */\n      dup5\n        /* \"#utility.yul\":8462:8533   */\n      tag_39\n      jump\t// in\n    tag_141:\n        /* \"#utility.yul\":8318:8540   */\n      swap3\n      swap2\n      pop\n      pop\n      jump\t// out\n        /* \"miscellaneous/SimpleERC223Token.sol\":180:2415  contract SimpleERC223Token {... */\n    tag_13:\n      dataSize(sub_0)\n      dup1\n      dataOffset(sub_0)\n      0x00\n      codecopy\n      0x00\n      return\n    stop\n\n    sub_0: assembly {\n            /* \"miscellaneous/SimpleERC223Token.sol\":180:2415  contract SimpleERC223Token {... */\n          mstore(0x40, 0x80)\n          callvalue\n          dup1\n          iszero\n          tag_1\n          jumpi\n          0x00\n          dup1\n          revert\n        tag_1:\n          pop\n          jumpi(tag_2, lt(calldatasize, 0x04))\n          shr(0xe0, calldataload(0x00))\n          dup1\n          0x70a08231\n          gt\n          tag_13\n          jumpi\n          dup1\n          0x70a08231\n          eq\n          tag_8\n          jumpi\n          dup1\n          0x95d89b41\n          eq\n          tag_9\n          jumpi\n          dup1\n          0xa9059cbb\n          eq\n          tag_10\n          jumpi\n          dup1\n          0xbe45fd62\n          eq\n          tag_11\n          jumpi\n          dup1\n          0xdd62ed3e\n          eq\n          tag_12\n          jumpi\n          jump(tag_2)\n        tag_13:\n          dup1\n          0x06fdde03\n          eq\n          tag_3\n          jumpi\n          dup1\n          0x095ea7b3\n          eq\n          tag_4\n          jumpi\n          dup1\n          0x18160ddd\n          eq\n          tag_5\n          jumpi\n          dup1\n          0x23b872dd\n          eq\n          tag_6\n          jumpi\n          dup1\n          0x313ce567\n          eq\n          tag_7\n          jumpi\n        tag_2:\n          0x00\n          dup1\n          revert\n            /* \"miscellaneous/SimpleERC223Token.sol\":325:367  string public name = \"Simple ERC223 Token\" */\n        tag_3:\n          tag_14\n          tag_15\n          jump\t// in\n        tag_14:\n          mload(0x40)\n          tag_16\n          swap2\n          swap1\n          tag_17\n          jump\t// in\n        tag_16:\n          mload(0x40)\n          dup1\n          swap2\n          sub\n          swap1\n          return\n            /* \"miscellaneous/SimpleERC223Token.sol\":1767:2000  function approve(address spender, uint256 value)... */\n        tag_4:\n          tag_18\n          0x04\n          dup1\n          calldatasize\n          sub\n          dup2\n          add\n          swap1\n          tag_19\n          swap2\n          swap1\n          tag_20\n          jump\t// in\n        tag_19:\n          tag_21\n          jump\t// in\n        tag_18:\n          mload(0x40)\n          tag_22\n          swap2\n          swap1\n          tag_23\n          jump\t// in\n        tag_22:\n          mload(0x40)\n          dup1\n          swap2\n          sub\n          swap1\n          return\n            /* \"miscellaneous/SimpleERC223Token.sol\":444:508  uint256 public totalSupply = 1000000 * (uint256(10) ** decimals) */\n        tag_5:\n          tag_24\n          tag_25\n          jump\t// in\n        tag_24:\n          mload(0x40)\n          tag_26\n          swap2\n          swap1\n          tag_27\n          jump\t// in\n        tag_26:\n          mload(0x40)\n          dup1\n          swap2\n          sub\n          swap1\n          return\n            /* \"miscellaneous/SimpleERC223Token.sol\":2008:2412  function transferFrom(address from, address to, uint256 value)... */\n        tag_6:\n          tag_28\n          0x04\n          dup1\n          calldatasize\n          sub\n          dup2\n          add\n          swap1\n          tag_29\n          swap2\n          swap1\n          tag_30\n          jump\t// in\n        tag_29:\n          tag_31\n          jump\t// in\n        tag_28:\n          mload(0x40)\n          tag_32\n          swap2\n          swap1\n          tag_23\n          jump\t// in\n        tag_32:\n          mload(0x40)\n          dup1\n          swap2\n          sub\n          swap1\n          return\n            /* \"miscellaneous/SimpleERC223Token.sol\":409:435  uint8 public decimals = 18 */\n        tag_7:\n          tag_33\n          tag_34\n          jump\t// in\n        tag_33:\n          mload(0x40)\n          tag_35\n          swap2\n          swap1\n          tag_36\n          jump\t// in\n        tag_35:\n          mload(0x40)\n          dup1\n          swap2\n          sub\n          swap1\n          return\n            /* \"miscellaneous/SimpleERC223Token.sol\":271:316  mapping (address => uint256) public balanceOf */\n        tag_8:\n          tag_37\n          0x04\n          dup1\n          calldatasize\n          sub\n          dup2\n          add\n          swap1\n          tag_38\n          swap2\n          swap1\n          tag_39\n          jump\t// in\n        tag_38:\n          tag_40\n          jump\t// in\n        tag_37:\n          mload(0x40)\n          tag_41\n          swap2\n          swap1\n          tag_27\n          jump\t// in\n        tag_41:\n          mload(0x40)\n          dup1\n          swap2\n          sub\n          swap1\n          return\n            /* \"miscellaneous/SimpleERC223Token.sol\":374:402  string public symbol = \"SET\" */\n        tag_9:\n          tag_42\n          tag_43\n          jump\t// in\n        tag_42:\n          mload(0x40)\n          tag_44\n          swap2\n          swap1\n          tag_17\n          jump\t// in\n        tag_44:\n          mload(0x40)\n          dup1\n          swap2\n          sub\n          swap1\n          return\n            /* \"miscellaneous/SimpleERC223Token.sol\":1031:1187  function transfer(address to, uint256 value) public returns (bool success) {... */\n        tag_10:\n          tag_45\n          0x04\n          dup1\n          calldatasize\n          sub\n          dup2\n          add\n          swap1\n          tag_46\n          swap2\n          swap1\n          tag_20\n          jump\t// in\n        tag_46:\n          tag_47\n          jump\t// in\n        tag_45:\n          mload(0x40)\n          tag_48\n          swap2\n          swap1\n          tag_23\n          jump\t// in\n        tag_48:\n          mload(0x40)\n          dup1\n          swap2\n          sub\n          swap1\n          return\n            /* \"miscellaneous/SimpleERC223Token.sol\":1195:1600  function transfer(address to, uint256 value, bytes memory data) public returns (bool) {... */\n        tag_11:\n          tag_49\n          0x04\n          dup1\n          calldatasize\n          sub\n          dup2\n          add\n          swap1\n          tag_50\n          swap2\n          swap1\n          tag_51\n          jump\t// in\n        tag_50:\n          tag_52\n          jump\t// in\n        tag_49:\n          mload(0x40)\n          tag_53\n          swap2\n          swap1\n          tag_23\n          jump\t// in\n        tag_53:\n          mload(0x40)\n          dup1\n          swap2\n          sub\n          swap1\n          return\n            /* \"miscellaneous/SimpleERC223Token.sol\":1694:1758  mapping(address => mapping(address => uint256)) public allowance */\n        tag_12:\n          tag_54\n          0x04\n          dup1\n          calldatasize\n          sub\n          dup2\n          add\n          swap1\n          tag_55\n          swap2\n          swap1\n          tag_56\n          jump\t// in\n        tag_55:\n          tag_57\n          jump\t// in\n        tag_54:\n          mload(0x40)\n          tag_58\n          swap2\n          swap1\n          tag_27\n          jump\t// in\n        tag_58:\n          mload(0x40)\n          dup1\n          swap2\n          sub\n          swap1\n          return\n            /* \"miscellaneous/SimpleERC223Token.sol\":325:367  string public name = \"Simple ERC223 Token\" */\n        tag_15:\n          0x01\n          dup1\n          sload\n          tag_59\n          swap1\n          tag_60\n          jump\t// in\n        tag_59:\n          dup1\n          0x1f\n          add\n          0x20\n          dup1\n          swap2\n          div\n          mul\n          0x20\n          add\n          mload(0x40)\n          swap1\n          dup2\n          add\n          0x40\n          mstore\n          dup1\n          swap3\n          swap2\n          swap1\n          dup2\n          dup2\n          mstore\n          0x20\n          add\n          dup3\n          dup1\n          sload\n          tag_61\n          swap1\n          tag_60\n          jump\t// in\n        tag_61:\n          dup1\n          iszero\n          tag_62\n          jumpi\n          dup1\n          0x1f\n          lt\n          tag_63\n          jumpi\n          0x0100\n          dup1\n          dup4\n          sload\n          div\n          mul\n          dup4\n          mstore\n          swap2\n          0x20\n          add\n          swap2\n          jump(tag_62)\n        tag_63:\n          dup3\n          add\n          swap2\n          swap1\n          0x00\n          mstore\n          keccak256(0x00, 0x20)\n          swap1\n        tag_64:\n          dup2\n          sload\n          dup2\n          mstore\n          swap1\n          0x01\n          add\n          swap1\n          0x20\n          add\n          dup1\n          dup4\n          gt\n          tag_64\n          jumpi\n          dup3\n          swap1\n          sub\n          0x1f\n          and\n          dup3\n          add\n          swap2\n        tag_62:\n          pop\n          pop\n          pop\n          pop\n          pop\n          dup2\n          jump\t// out\n            /* \"miscellaneous/SimpleERC223Token.sol\":1767:2000  function approve(address spender, uint256 value)... */\n        tag_21:\n            /* \"miscellaneous/SimpleERC223Token.sol\":1850:1862  bool success */\n          0x00\n            /* \"miscellaneous/SimpleERC223Token.sol\":1913:1918  value */\n          dup2\n            /* \"miscellaneous/SimpleERC223Token.sol\":1880:1889  allowance */\n          0x05\n            /* \"miscellaneous/SimpleERC223Token.sol\":1880:1901  allowance[msg.sender] */\n          0x00\n            /* \"miscellaneous/SimpleERC223Token.sol\":1890:1900  msg.sender */\n          caller\n            /* \"miscellaneous/SimpleERC223Token.sol\":1880:1901  allowance[msg.sender] */\n          0xffffffffffffffffffffffffffffffffffffffff\n          and\n          0xffffffffffffffffffffffffffffffffffffffff\n          and\n          dup2\n          mstore\n          0x20\n          add\n          swap1\n          dup2\n          mstore\n          0x20\n          add\n          0x00\n          keccak256\n            /* \"miscellaneous/SimpleERC223Token.sol\":1880:1910  allowance[msg.sender][spender] */\n          0x00\n            /* \"miscellaneous/SimpleERC223Token.sol\":1902:1909  spender */\n          dup6\n            /* \"miscellaneous/SimpleERC223Token.sol\":1880:1910  allowance[msg.sender][spender] */\n          0xffffffffffffffffffffffffffffffffffffffff\n          and\n          0xffffffffffffffffffffffffffffffffffffffff\n          and\n          dup2\n          mstore\n          0x20\n          add\n          swap1\n          dup2\n          mstore\n          0x20\n          add\n          0x00\n          keccak256\n            /* \"miscellaneous/SimpleERC223Token.sol\":1880:1918  allowance[msg.sender][spender] = value */\n          dup2\n          swap1\n          sstore\n          pop\n            /* \"miscellaneous/SimpleERC223Token.sol\":1955:1962  spender */\n          dup3\n            /* \"miscellaneous/SimpleERC223Token.sol\":1934:1970  Approval(msg.sender, spender, value) */\n          0xffffffffffffffffffffffffffffffffffffffff\n          and\n            /* \"miscellaneous/SimpleERC223Token.sol\":1943:1953  msg.sender */\n          caller\n            /* \"miscellaneous/SimpleERC223Token.sol\":1934:1970  Approval(msg.sender, spender, value) */\n          0xffffffffffffffffffffffffffffffffffffffff\n          and\n          0x8c5be1e5ebec7d5bd14f71427d1e84f3dd0314c0f7b2291e5b200ac8c7c3b925\n            /* \"miscellaneous/SimpleERC223Token.sol\":1964:1969  value */\n          dup5\n            /* \"miscellaneous/SimpleERC223Token.sol\":1934:1970  Approval(msg.sender, spender, value) */\n          mload(0x40)\n          tag_66\n          swap2\n          swap1\n          tag_27\n          jump\t// in\n        tag_66:\n          mload(0x40)\n          dup1\n          swap2\n          sub\n          swap1\n          log3\n            /* \"miscellaneous/SimpleERC223Token.sol\":1988:1992  true */\n          0x01\n            /* \"miscellaneous/SimpleERC223Token.sol\":1981:1992  return true */\n          swap1\n          pop\n            /* \"miscellaneous/SimpleERC223Token.sol\":1767:2000  function approve(address spender, uint256 value)... */\n          swap3\n          swap2\n          pop\n          pop\n          jump\t// out\n            /* \"miscellaneous/SimpleERC223Token.sol\":444:508  uint256 public totalSupply = 1000000 * (uint256(10) ** decimals) */\n        tag_25:\n          sload(0x04)\n          dup2\n          jump\t// out\n            /* \"miscellaneous/SimpleERC223Token.sol\":2008:2412  function transferFrom(address from, address to, uint256 value)... */\n        tag_31:\n            /* \"miscellaneous/SimpleERC223Token.sol\":2105:2117  bool success */\n          0x00\n            /* \"miscellaneous/SimpleERC223Token.sol\":2152:2161  balanceOf */\n          dup1\n            /* \"miscellaneous/SimpleERC223Token.sol\":2152:2167  balanceOf[from] */\n          0x00\n            /* \"miscellaneous/SimpleERC223Token.sol\":2162:2166  from */\n          dup6\n            /* \"miscellaneous/SimpleERC223Token.sol\":2152:2167  balanceOf[from] */\n          0xffffffffffffffffffffffffffffffffffffffff\n          and\n          0xffffffffffffffffffffffffffffffffffffffff\n          and\n          dup2\n          mstore\n          0x20\n          add\n          swap1\n          dup2\n          mstore\n          0x20\n          add\n          0x00\n          keccak256\n          sload\n            /* \"miscellaneous/SimpleERC223Token.sol\":2143:2148  value */\n          dup3\n            /* \"miscellaneous/SimpleERC223Token.sol\":2143:2167  value <= balanceOf[from] */\n          gt\n          iszero\n            /* \"miscellaneous/SimpleERC223Token.sol\":2135:2168  require(value <= balanceOf[from]) */\n          tag_68\n          jumpi\n          0x00\n          dup1\n          revert\n        tag_68:\n            /* \"miscellaneous/SimpleERC223Token.sol\":2196:2205  allowance */\n          0x05\n            /* \"miscellaneous/SimpleERC223Token.sol\":2196:2211  allowance[from] */\n          0x00\n            /* \"miscellaneous/SimpleERC223Token.sol\":2206:2210  from */\n          dup6\n            /* \"miscellaneous/SimpleERC223Token.sol\":2196:2211  allowance[from] */\n          0xffffffffffffffffffffffffffffffffffffffff\n          and\n          0xffffffffffffffffffffffffffffffffffffffff\n          and\n          dup2\n          mstore\n          0x20\n          add\n          swap1\n          dup2\n          mstore\n          0x20\n          add\n          0x00\n          keccak256\n            /* \"miscellaneous/SimpleERC223Token.sol\":2196:2223  allowance[from][msg.sender] */\n          0x00\n            /* \"miscellaneous/SimpleERC223Token.sol\":2212:2222  msg.sender */\n          caller\n            /* \"miscellaneous/SimpleERC223Token.sol\":2196:2223  allowance[from][msg.sender] */\n          0xffffffffffffffffffffffffffffffffffffffff\n          and\n          0xffffffffffffffffffffffffffffffffffffffff\n          and\n          dup2\n          mstore\n          0x20\n          add\n          swap1\n          dup2\n          mstore\n          0x20\n          add\n          0x00\n          keccak256\n          sload\n            /* \"miscellaneous/SimpleERC223Token.sol\":2187:2192  value */\n          dup3\n            /* \"miscellaneous/SimpleERC223Token.sol\":2187:2223  value <= allowance[from][msg.sender] */\n          gt\n          iszero\n            /* \"miscellaneous/SimpleERC223Token.sol\":2179:2224  require(value <= allowance[from][msg.sender]) */\n          tag_69\n          jumpi\n          0x00\n          dup1\n          revert\n        tag_69:\n            /* \"miscellaneous/SimpleERC223Token.sol\":2256:2261  value */\n          dup2\n            /* \"miscellaneous/SimpleERC223Token.sol\":2237:2246  balanceOf */\n          0x00\n            /* \"miscellaneous/SimpleERC223Token.sol\":2237:2252  balanceOf[from] */\n          dup1\n            /* \"miscellaneous/SimpleERC223Token.sol\":2247:2251  from */\n          dup7\n            /* \"miscellaneous/SimpleERC223Token.sol\":2237:2252  balanceOf[from] */\n          0xffffffffffffffffffffffffffffffffffffffff\n          and\n          0xffffffffffffffffffffffffffffffffffffffff\n          and\n          dup2\n          mstore\n          0x20\n          add\n          swap1\n          dup2\n          mstore\n          0x20\n          add\n          0x00\n          keccak256\n          0x00\n            /* \"miscellaneous/SimpleERC223Token.sol\":2237:2261  balanceOf[from] -= value */\n          dup3\n          dup3\n          sload\n          tag_70\n          swap2\n          swap1\n          tag_71\n          jump\t// in\n        tag_70:\n          swap3\n          pop\n          pop\n          dup2\n          swap1\n          sstore\n          pop\n            /* \"miscellaneous/SimpleERC223Token.sol\":2289:2294  value */\n          dup2\n            /* \"miscellaneous/SimpleERC223Token.sol\":2272:2281  balanceOf */\n          0x00\n            /* \"miscellaneous/SimpleERC223Token.sol\":2272:2285  balanceOf[to] */\n          dup1\n            /* \"miscellaneous/SimpleERC223Token.sol\":2282:2284  to */\n          dup6\n            /* \"miscellaneous/SimpleERC223Token.sol\":2272:2285  balanceOf[to] */\n          0xffffffffffffffffffffffffffffffffffffffff\n          and\n          0xffffffffffffffffffffffffffffffffffffffff\n          and\n          dup2\n          mstore\n          0x20\n          add\n          swap1\n          dup2\n          mstore\n          0x20\n          add\n          0x00\n          keccak256\n          0x00\n            /* \"miscellaneous/SimpleERC223Token.sol\":2272:2294  balanceOf[to] += value */\n          dup3\n          dup3\n          sload\n          tag_72\n          swap2\n          swap1\n          tag_73\n          jump\t// in\n        tag_72:\n          swap3\n          pop\n          pop\n          dup2\n          swap1\n          sstore\n          pop\n            /* \"miscellaneous/SimpleERC223Token.sol\":2336:2341  value */\n          dup2\n            /* \"miscellaneous/SimpleERC223Token.sol\":2305:2314  allowance */\n          0x05\n            /* \"miscellaneous/SimpleERC223Token.sol\":2305:2320  allowance[from] */\n          0x00\n            /* \"miscellaneous/SimpleERC223Token.sol\":2315:2319  from */\n          dup7\n            /* \"miscellaneous/SimpleERC223Token.sol\":2305:2320  allowance[from] */\n          0xffffffffffffffffffffffffffffffffffffffff\n          and\n          0xffffffffffffffffffffffffffffffffffffffff\n          and\n          dup2\n          mstore\n          0x20\n          add\n          swap1\n          dup2\n          mstore\n          0x20\n          add\n          0x00\n          keccak256\n            /* \"miscellaneous/SimpleERC223Token.sol\":2305:2332  allowance[from][msg.sender] */\n          0x00\n            /* \"miscellaneous/SimpleERC223Token.sol\":2321:2331  msg.sender */\n          caller\n            /* \"miscellaneous/SimpleERC223Token.sol\":2305:2332  allowance[from][msg.sender] */\n          0xffffffffffffffffffffffffffffffffffffffff\n          and\n          0xffffffffffffffffffffffffffffffffffffffff\n          and\n          dup2\n          mstore\n          0x20\n          add\n          swap1\n          dup2\n          mstore\n          0x20\n          add\n          0x00\n          keccak256\n          0x00\n            /* \"miscellaneous/SimpleERC223Token.sol\":2305:2341  allowance[from][msg.sender] -= value */\n          dup3\n          dup3\n          sload\n          tag_74\n          swap2\n          swap1\n          tag_71\n          jump\t// in\n        tag_74:\n          swap3\n          pop\n          pop\n          dup2\n          swap1\n          sstore\n          pop\n            /* \"miscellaneous/SimpleERC223Token.sol\":2372:2374  to */\n          dup3\n            /* \"miscellaneous/SimpleERC223Token.sol\":2357:2382  Transfer(from, to, value) */\n          0xffffffffffffffffffffffffffffffffffffffff\n          and\n            /* \"miscellaneous/SimpleERC223Token.sol\":2366:2370  from */\n          dup5\n            /* \"miscellaneous/SimpleERC223Token.sol\":2357:2382  Transfer(from, to, value) */\n          0xffffffffffffffffffffffffffffffffffffffff\n          and\n          0xddf252ad1be2c89b69c2b068fc378daa952ba7f163c4a11628f55a4df523b3ef\n            /* \"miscellaneous/SimpleERC223Token.sol\":2376:2381  value */\n          dup5\n            /* \"miscellaneous/SimpleERC223Token.sol\":2357:2382  Transfer(from, to, value) */\n          mload(0x40)\n          tag_75\n          swap2\n          swap1\n          tag_27\n          jump\t// in\n        tag_75:\n          mload(0x40)\n          dup1\n          swap2\n          sub\n          swap1\n          log3\n            /* \"miscellaneous/SimpleERC223Token.sol\":2400:2404  true */\n          0x01\n            /* \"miscellaneous/SimpleERC223Token.sol\":2393:2404  return true */\n          swap1\n          pop\n            /* \"miscellaneous/SimpleERC223Token.sol\":2008:2412  function transferFrom(address from, address to, uint256 value)... */\n          swap4\n          swap3\n          pop\n          pop\n          pop\n          jump\t// out\n            /* \"miscellaneous/SimpleERC223Token.sol\":409:435  uint8 public decimals = 18 */\n        tag_34:\n          0x03\n          0x00\n          swap1\n          sload\n          swap1\n          0x0100\n          exp\n          swap1\n          div\n          0xff\n          and\n          dup2\n          jump\t// out\n            /* \"miscellaneous/SimpleERC223Token.sol\":271:316  mapping (address => uint256) public balanceOf */\n        tag_40:\n          mstore(0x20, 0x00)\n          dup1\n          0x00\n          mstore\n          keccak256(0x00, 0x40)\n          0x00\n          swap2\n          pop\n          swap1\n          pop\n          sload\n          dup2\n          jump\t// out\n            /* \"miscellaneous/SimpleERC223Token.sol\":374:402  string public symbol = \"SET\" */\n        tag_43:\n          0x02\n          dup1\n          sload\n          tag_76\n          swap1\n          tag_60\n          jump\t// in\n        tag_76:\n          dup1\n          0x1f\n          add\n          0x20\n          dup1\n          swap2\n          div\n          mul\n          0x20\n          add\n          mload(0x40)\n          swap1\n          dup2\n          add\n          0x40\n          mstore\n          dup1\n          swap3\n          swap2\n          swap1\n          dup2\n          dup2\n          mstore\n          0x20\n          add\n          dup3\n          dup1\n          sload\n          tag_77\n          swap1\n          tag_60\n          jump\t// in\n        tag_77:\n          dup1\n          iszero\n          tag_78\n          jumpi\n          dup1\n          0x1f\n          lt\n          tag_79\n          jumpi\n          0x0100\n          dup1\n          dup4\n          sload\n          div\n          mul\n          dup4\n          mstore\n          swap2\n          0x20\n          add\n          swap2\n          jump(tag_78)\n        tag_79:\n          dup3\n          add\n          swap2\n          swap1\n          0x00\n          mstore\n          keccak256(0x00, 0x20)\n          swap1\n        tag_80:\n          dup2\n          sload\n          dup2\n          mstore\n          swap1\n          0x01\n          add\n          swap1\n          0x20\n          add\n          dup1\n          dup4\n          gt\n          tag_80\n          jumpi\n          dup3\n          swap1\n          sub\n          0x1f\n          and\n          dup3\n          add\n          swap2\n        tag_78:\n          pop\n          pop\n          pop\n          pop\n          pop\n          dup2\n          jump\t// out\n            /* \"miscellaneous/SimpleERC223Token.sol\":1031:1187  function transfer(address to, uint256 value) public returns (bool success) {... */\n        tag_47:\n            /* \"miscellaneous/SimpleERC223Token.sol\":1092:1104  bool success */\n          0x00\n            /* \"miscellaneous/SimpleERC223Token.sol\":1117:1135  bytes memory empty */\n          0x60\n            /* \"miscellaneous/SimpleERC223Token.sol\":1153:1179  transfer(to, value, empty) */\n          tag_82\n            /* \"miscellaneous/SimpleERC223Token.sol\":1162:1164  to */\n          dup5\n            /* \"miscellaneous/SimpleERC223Token.sol\":1166:1171  value */\n          dup5\n            /* \"miscellaneous/SimpleERC223Token.sol\":1173:1178  empty */\n          dup4\n            /* \"miscellaneous/SimpleERC223Token.sol\":1153:1161  transfer */\n          tag_52\n            /* \"miscellaneous/SimpleERC223Token.sol\":1153:1179  transfer(to, value, empty) */\n          jump\t// in\n        tag_82:\n            /* \"miscellaneous/SimpleERC223Token.sol\":1146:1179  return transfer(to, value, empty) */\n          swap2\n          pop\n          pop\n            /* \"miscellaneous/SimpleERC223Token.sol\":1031:1187  function transfer(address to, uint256 value) public returns (bool success) {... */\n          swap3\n          swap2\n          pop\n          pop\n          jump\t// out\n            /* \"miscellaneous/SimpleERC223Token.sol\":1195:1600  function transfer(address to, uint256 value, bytes memory data) public returns (bool) {... */\n        tag_52:\n            /* \"miscellaneous/SimpleERC223Token.sol\":1275:1279  bool */\n          0x00\n            /* \"miscellaneous/SimpleERC223Token.sol\":1325:1330  value */\n          dup3\n            /* \"miscellaneous/SimpleERC223Token.sol\":1300:1309  balanceOf */\n          0x00\n            /* \"miscellaneous/SimpleERC223Token.sol\":1300:1321  balanceOf[msg.sender] */\n          dup1\n            /* \"miscellaneous/SimpleERC223Token.sol\":1310:1320  msg.sender */\n          caller\n            /* \"miscellaneous/SimpleERC223Token.sol\":1300:1321  balanceOf[msg.sender] */\n          0xffffffffffffffffffffffffffffffffffffffff\n          and\n          0xffffffffffffffffffffffffffffffffffffffff\n          and\n          dup2\n          mstore\n          0x20\n          add\n          swap1\n          dup2\n          mstore\n          0x20\n          add\n          0x00\n          keccak256\n          sload\n            /* \"miscellaneous/SimpleERC223Token.sol\":1300:1330  balanceOf[msg.sender] >= value */\n          lt\n          iszero\n            /* \"miscellaneous/SimpleERC223Token.sol\":1292:1331  require(balanceOf[msg.sender] >= value) */\n          tag_84\n          jumpi\n          0x00\n          dup1\n          revert\n        tag_84:\n            /* \"miscellaneous/SimpleERC223Token.sol\":1369:1374  value */\n          dup3\n            /* \"miscellaneous/SimpleERC223Token.sol\":1344:1353  balanceOf */\n          0x00\n            /* \"miscellaneous/SimpleERC223Token.sol\":1344:1365  balanceOf[msg.sender] */\n          dup1\n            /* \"miscellaneous/SimpleERC223Token.sol\":1354:1364  msg.sender */\n          caller\n            /* \"miscellaneous/SimpleERC223Token.sol\":1344:1365  balanceOf[msg.sender] */\n          0xffffffffffffffffffffffffffffffffffffffff\n          and\n          0xffffffffffffffffffffffffffffffffffffffff\n          and\n          dup2\n          mstore\n          0x20\n          add\n          swap1\n          dup2\n          mstore\n          0x20\n          add\n          0x00\n          keccak256\n          0x00\n            /* \"miscellaneous/SimpleERC223Token.sol\":1344:1374  balanceOf[msg.sender] -= value */\n          dup3\n          dup3\n          sload\n          tag_85\n          swap2\n          swap1\n          tag_71\n          jump\t// in\n        tag_85:\n          swap3\n          pop\n          pop\n          dup2\n          swap1\n          sstore\n          pop\n            /* \"miscellaneous/SimpleERC223Token.sol\":1402:1407  value */\n          dup3\n            /* \"miscellaneous/SimpleERC223Token.sol\":1385:1394  balanceOf */\n          0x00\n            /* \"miscellaneous/SimpleERC223Token.sol\":1385:1398  balanceOf[to] */\n          dup1\n            /* \"miscellaneous/SimpleERC223Token.sol\":1395:1397  to */\n          dup7\n            /* \"miscellaneous/SimpleERC223Token.sol\":1385:1398  balanceOf[to] */\n          0xffffffffffffffffffffffffffffffffffffffff\n          and\n          0xffffffffffffffffffffffffffffffffffffffff\n          and\n          dup2\n          mstore\n          0x20\n          add\n          swap1\n          dup2\n          mstore\n          0x20\n          add\n          0x00\n          keccak256\n          0x00\n            /* \"miscellaneous/SimpleERC223Token.sol\":1385:1407  balanceOf[to] += value */\n          dup3\n          dup3\n          sload\n          tag_86\n          swap2\n          swap1\n          tag_73\n          jump\t// in\n        tag_86:\n          swap3\n          pop\n          pop\n          dup2\n          swap1\n          sstore\n          pop\n            /* \"miscellaneous/SimpleERC223Token.sol\":1444:1446  to */\n          dup4\n            /* \"miscellaneous/SimpleERC223Token.sol\":1423:1454  Transfer(msg.sender, to, value) */\n          0xffffffffffffffffffffffffffffffffffffffff\n          and\n            /* \"miscellaneous/SimpleERC223Token.sol\":1432:1442  msg.sender */\n          caller\n            /* \"miscellaneous/SimpleERC223Token.sol\":1423:1454  Transfer(msg.sender, to, value) */\n          0xffffffffffffffffffffffffffffffffffffffff\n          and\n          0xddf252ad1be2c89b69c2b068fc378daa952ba7f163c4a11628f55a4df523b3ef\n            /* \"miscellaneous/SimpleERC223Token.sol\":1448:1453  value */\n          dup6\n            /* \"miscellaneous/SimpleERC223Token.sol\":1423:1454  Transfer(msg.sender, to, value) */\n          mload(0x40)\n          tag_87\n          swap2\n          swap1\n          tag_27\n          jump\t// in\n        tag_87:\n          mload(0x40)\n          dup1\n          swap2\n          sub\n          swap1\n          log3\n            /* \"miscellaneous/SimpleERC223Token.sol\":1471:1485  isContract(to) */\n          tag_88\n            /* \"miscellaneous/SimpleERC223Token.sol\":1482:1484  to */\n          dup5\n            /* \"miscellaneous/SimpleERC223Token.sol\":1471:1481  isContract */\n          tag_89\n            /* \"miscellaneous/SimpleERC223Token.sol\":1471:1485  isContract(to) */\n          jump\t// in\n        tag_88:\n            /* \"miscellaneous/SimpleERC223Token.sol\":1467:1571  if (isContract(to)) {... */\n          iszero\n          tag_90\n          jumpi\n            /* \"miscellaneous/SimpleERC223Token.sol\":1517:1519  to */\n          dup4\n            /* \"miscellaneous/SimpleERC223Token.sol\":1502:1534  ITokenReceiver(to).tokenFallback */\n          0xffffffffffffffffffffffffffffffffffffffff\n          and\n          0xc0ee0b8a\n            /* \"miscellaneous/SimpleERC223Token.sol\":1535:1545  msg.sender */\n          caller\n            /* \"miscellaneous/SimpleERC223Token.sol\":1547:1552  value */\n          dup6\n            /* \"miscellaneous/SimpleERC223Token.sol\":1554:1558  data */\n          dup6\n            /* \"miscellaneous/SimpleERC223Token.sol\":1502:1559  ITokenReceiver(to).tokenFallback(msg.sender, value, data) */\n          mload(0x40)\n          dup5\n          0xffffffff\n          and\n          0xe0\n          shl\n          dup2\n          mstore\n          0x04\n          add\n          tag_91\n          swap4\n          swap3\n          swap2\n          swap1\n          tag_92\n          jump\t// in\n        tag_91:\n          0x00\n          mload(0x40)\n          dup1\n          dup4\n          sub\n          dup2\n          0x00\n          dup8\n          dup1\n          extcodesize\n          iszero\n          dup1\n          iszero\n          tag_93\n          jumpi\n          0x00\n          dup1\n          revert\n        tag_93:\n          pop\n          gas\n          call\n          iszero\n          dup1\n          iszero\n          tag_95\n          jumpi\n          returndatasize\n          0x00\n          dup1\n          returndatacopy\n          revert(0x00, returndatasize)\n        tag_95:\n          pop\n          pop\n          pop\n          pop\n            /* \"miscellaneous/SimpleERC223Token.sol\":1467:1571  if (isContract(to)) {... */\n        tag_90:\n            /* \"miscellaneous/SimpleERC223Token.sol\":1588:1592  true */\n          0x01\n            /* \"miscellaneous/SimpleERC223Token.sol\":1581:1592  return true */\n          swap1\n          pop\n            /* \"miscellaneous/SimpleERC223Token.sol\":1195:1600  function transfer(address to, uint256 value, bytes memory data) public returns (bool) {... */\n          swap4\n          swap3\n          pop\n          pop\n          pop\n          jump\t// out\n            /* \"miscellaneous/SimpleERC223Token.sol\":1694:1758  mapping(address => mapping(address => uint256)) public allowance */\n        tag_57:\n          mstore(0x20, 0x05)\n          dup2\n          0x00\n          mstore\n          mstore(0x20, keccak256(0x00, 0x40))\n          dup1\n          0x00\n          mstore\n          keccak256(0x00, 0x40)\n          0x00\n          swap2\n          pop\n          swap2\n          pop\n          pop\n          sload\n          dup2\n          jump\t// out\n            /* \"miscellaneous/SimpleERC223Token.sol\":733:1023  function isContract(address _addr) private view returns (bool is_contract) {... */\n        tag_89:\n            /* \"miscellaneous/SimpleERC223Token.sol\":790:806  bool is_contract */\n          0x00\n            /* \"miscellaneous/SimpleERC223Token.sol\":819:830  uint length */\n          dup1\n            /* \"miscellaneous/SimpleERC223Token.sol\":971:976  _addr */\n          dup3\n            /* \"miscellaneous/SimpleERC223Token.sol\":959:977  extcodesize(_addr) */\n          extcodesize\n            /* \"miscellaneous/SimpleERC223Token.sol\":949:977  length := extcodesize(_addr) */\n          swap1\n          pop\n            /* \"miscellaneous/SimpleERC223Token.sol\":1014:1015  0 */\n          0x00\n            /* \"miscellaneous/SimpleERC223Token.sol\":1005:1011  length */\n          dup2\n            /* \"miscellaneous/SimpleERC223Token.sol\":1005:1015  length > 0 */\n          gt\n            /* \"miscellaneous/SimpleERC223Token.sol\":998:1015  return length > 0 */\n          swap2\n          pop\n          pop\n            /* \"miscellaneous/SimpleERC223Token.sol\":733:1023  function isContract(address _addr) private view returns (bool is_contract) {... */\n          swap2\n          swap1\n          pop\n          jump\t// out\n            /* \"#utility.yul\":7:106   */\n        tag_97:\n            /* \"#utility.yul\":59:65   */\n          0x00\n            /* \"#utility.yul\":93:98   */\n          dup2\n            /* \"#utility.yul\":87:99   */\n          mload\n            /* \"#utility.yul\":77:99   */\n          swap1\n          pop\n            /* \"#utility.yul\":7:106   */\n          swap2\n          swap1\n          pop\n          jump\t// out\n            /* \"#utility.yul\":112:281   */\n        tag_98:\n            /* \"#utility.yul\":196:207   */\n          0x00\n            /* \"#utility.yul\":230:236   */\n          dup3\n            /* \"#utility.yul\":225:228   */\n          dup3\n            /* \"#utility.yul\":218:237   */\n          mstore\n            /* \"#utility.yul\":270:274   */\n          0x20\n            /* \"#utility.yul\":265:268   */\n          dup3\n            /* \"#utility.yul\":261:275   */\n          add\n            /* \"#utility.yul\":246:275   */\n          swap1\n          pop\n            /* \"#utility.yul\":112:281   */\n          swap3\n          swap2\n          pop\n          pop\n          jump\t// out\n            /* \"#utility.yul\":287:594   */\n        tag_99:\n            /* \"#utility.yul\":355:356   */\n          0x00\n            /* \"#utility.yul\":365:478   */\n        tag_136:\n            /* \"#utility.yul\":379:385   */\n          dup4\n            /* \"#utility.yul\":376:377   */\n          dup2\n            /* \"#utility.yul\":373:386   */\n          lt\n            /* \"#utility.yul\":365:478   */\n          iszero\n          tag_138\n          jumpi\n            /* \"#utility.yul\":464:465   */\n          dup1\n            /* \"#utility.yul\":459:462   */\n          dup3\n            /* \"#utility.yul\":455:466   */\n          add\n            /* \"#utility.yul\":449:467   */\n          mload\n            /* \"#utility.yul\":445:446   */\n          dup2\n            /* \"#utility.yul\":440:443   */\n          dup5\n            /* \"#utility.yul\":436:447   */\n          add\n            /* \"#utility.yul\":429:468   */\n          mstore\n            /* \"#utility.yul\":401:403   */\n          0x20\n            /* \"#utility.yul\":398:399   */\n          dup2\n            /* \"#utility.yul\":394:404   */\n          add\n            /* \"#utility.yul\":389:404   */\n          swap1\n          pop\n            /* \"#utility.yul\":365:478   */\n          jump(tag_136)\n        tag_138:\n            /* \"#utility.yul\":496:502   */\n          dup4\n            /* \"#utility.yul\":493:494   */\n          dup2\n            /* \"#utility.yul\":490:503   */\n          gt\n            /* \"#utility.yul\":487:588   */\n          iszero\n          tag_139\n          jumpi\n            /* \"#utility.yul\":576:577   */\n          0x00\n            /* \"#utility.yul\":567:573   */\n          dup5\n            /* \"#utility.yul\":562:565   */\n          dup5\n            /* \"#utility.yul\":558:574   */\n          add\n            /* \"#utility.yul\":551:578   */\n          mstore\n            /* \"#utility.yul\":487:588   */\n        tag_139:\n            /* \"#utility.yul\":336:594   */\n          pop\n            /* \"#utility.yul\":287:594   */\n          pop\n          pop\n          pop\n          jump\t// out\n            /* \"#utility.yul\":600:702   */\n        tag_100:\n            /* \"#utility.yul\":641:647   */\n          0x00\n            /* \"#utility.yul\":692:694   */\n          0x1f\n            /* \"#utility.yul\":688:695   */\n          not\n            /* \"#utility.yul\":683:685   */\n          0x1f\n            /* \"#utility.yul\":676:681   */\n          dup4\n            /* \"#utility.yul\":672:686   */\n          add\n            /* \"#utility.yul\":668:696   */\n          and\n            /* \"#utility.yul\":658:696   */\n          swap1\n          pop\n            /* \"#utility.yul\":600:702   */\n          swap2\n          swap1\n          pop\n          jump\t// out\n            /* \"#utility.yul\":708:1072   */\n        tag_101:\n            /* \"#utility.yul\":796:799   */\n          0x00\n            /* \"#utility.yul\":824:863   */\n          tag_142\n            /* \"#utility.yul\":857:862   */\n          dup3\n            /* \"#utility.yul\":824:863   */\n          tag_97\n          jump\t// in\n        tag_142:\n            /* \"#utility.yul\":879:950   */\n          tag_143\n            /* \"#utility.yul\":943:949   */\n          dup2\n            /* \"#utility.yul\":938:941   */\n          dup6\n            /* \"#utility.yul\":879:950   */\n          tag_98\n          jump\t// in\n        tag_143:\n            /* \"#utility.yul\":872:950   */\n          swap4\n          pop\n            /* \"#utility.yul\":959:1011   */\n          tag_144\n            /* \"#utility.yul\":1004:1010   */\n          dup2\n            /* \"#utility.yul\":999:1002   */\n          dup6\n            /* \"#utility.yul\":992:996   */\n          0x20\n            /* \"#utility.yul\":985:990   */\n          dup7\n            /* \"#utility.yul\":981:997   */\n          add\n            /* \"#utility.yul\":959:1011   */\n          tag_99\n          jump\t// in\n        tag_144:\n            /* \"#utility.yul\":1036:1065   */\n          tag_145\n            /* \"#utility.yul\":1058:1064   */\n          dup2\n            /* \"#utility.yul\":1036:1065   */\n          tag_100\n          jump\t// in\n        tag_145:\n            /* \"#utility.yul\":1031:1034   */\n          dup5\n            /* \"#utility.yul\":1027:1066   */\n          add\n            /* \"#utility.yul\":1020:1066   */\n          swap2\n          pop\n            /* \"#utility.yul\":800:1072   */\n          pop\n            /* \"#utility.yul\":708:1072   */\n          swap3\n          swap2\n          pop\n          pop\n          jump\t// out\n            /* \"#utility.yul\":1078:1391   */\n        tag_17:\n            /* \"#utility.yul\":1191:1195   */\n          0x00\n            /* \"#utility.yul\":1229:1231   */\n          0x20\n            /* \"#utility.yul\":1218:1227   */\n          dup3\n            /* \"#utility.yul\":1214:1232   */\n          add\n            /* \"#utility.yul\":1206:1232   */\n          swap1\n          pop\n            /* \"#utility.yul\":1278:1287   */\n          dup2\n            /* \"#utility.yul\":1272:1276   */\n          dup2\n            /* \"#utility.yul\":1268:1288   */\n          sub\n            /* \"#utility.yul\":1264:1265   */\n          0x00\n            /* \"#utility.yul\":1253:1262   */\n          dup4\n            /* \"#utility.yul\":1249:1266   */\n          add\n            /* \"#utility.yul\":1242:1289   */\n          mstore\n            /* \"#utility.yul\":1306:1384   */\n          tag_147\n            /* \"#utility.yul\":1379:1383   */\n          dup2\n            /* \"#utility.yul\":1370:1376   */\n          dup5\n            /* \"#utility.yul\":1306:1384   */\n          tag_101\n          jump\t// in\n        tag_147:\n            /* \"#utility.yul\":1298:1384   */\n          swap1\n          pop\n            /* \"#utility.yul\":1078:1391   */\n          swap3\n          swap2\n          pop\n          pop\n          jump\t// out\n            /* \"#utility.yul\":1397:1472   */\n        tag_102:\n            /* \"#utility.yul\":1430:1436   */\n          0x00\n            /* \"#utility.yul\":1463:1465   */\n          0x40\n            /* \"#utility.yul\":1457:1466   */\n          mload\n            /* \"#utility.yul\":1447:1466   */\n          swap1\n          pop\n            /* \"#utility.yul\":1397:1472   */\n          swap1\n          jump\t// out\n            /* \"#utility.yul\":1478:1595   */\n        tag_103:\n            /* \"#utility.yul\":1587:1588   */\n          0x00\n            /* \"#utility.yul\":1584:1585   */\n          dup1\n            /* \"#utility.yul\":1577:1589   */\n          revert\n            /* \"#utility.yul\":1601:1718   */\n        tag_104:\n            /* \"#utility.yul\":1710:1711   */\n          0x00\n            /* \"#utility.yul\":1707:1708   */\n          dup1\n            /* \"#utility.yul\":1700:1712   */\n          revert\n            /* \"#utility.yul\":1724:1850   */\n        tag_105:\n            /* \"#utility.yul\":1761:1768   */\n          0x00\n            /* \"#utility.yul\":1801:1843   */\n          0xffffffffffffffffffffffffffffffffffffffff\n            /* \"#utility.yul\":1794:1799   */\n          dup3\n            /* \"#utility.yul\":1790:1844   */\n          and\n            /* \"#utility.yul\":1779:1844   */\n          swap1\n          pop\n            /* \"#utility.yul\":1724:1850   */\n          swap2\n          swap1\n          pop\n          jump\t// out\n            /* \"#utility.yul\":1856:1952   */\n        tag_106:\n            /* \"#utility.yul\":1893:1900   */\n          0x00\n            /* \"#utility.yul\":1922:1946   */\n          tag_153\n            /* \"#utility.yul\":1940:1945   */\n          dup3\n            /* \"#utility.yul\":1922:1946   */\n          tag_105\n          jump\t// in\n        tag_153:\n            /* \"#utility.yul\":1911:1946   */\n          swap1\n          pop\n            /* \"#utility.yul\":1856:1952   */\n          swap2\n          swap1\n          pop\n          jump\t// out\n            /* \"#utility.yul\":1958:2080   */\n        tag_107:\n            /* \"#utility.yul\":2031:2055   */\n          tag_155\n            /* \"#utility.yul\":2049:2054   */\n          dup2\n            /* \"#utility.yul\":2031:2055   */\n          tag_106\n          jump\t// in\n        tag_155:\n            /* \"#utility.yul\":2024:2029   */\n          dup2\n            /* \"#utility.yul\":2021:2056   */\n          eq\n            /* \"#utility.yul\":2011:2074   */\n          tag_156\n          jumpi\n            /* \"#utility.yul\":2070:2071   */\n          0x00\n            /* \"#utility.yul\":2067:2068   */\n          dup1\n            /* \"#utility.yul\":2060:2072   */\n          revert\n            /* \"#utility.yul\":2011:2074   */\n        tag_156:\n            /* \"#utility.yul\":1958:2080   */\n          pop\n          jump\t// out\n            /* \"#utility.yul\":2086:2225   */\n        tag_108:\n            /* \"#utility.yul\":2132:2137   */\n          0x00\n            /* \"#utility.yul\":2170:2176   */\n          dup2\n            /* \"#utility.yul\":2157:2177   */\n          calldataload\n            /* \"#utility.yul\":2148:2177   */\n          swap1\n          pop\n            /* \"#utility.yul\":2186:2219   */\n          tag_158\n            /* \"#utility.yul\":2213:2218   */\n          dup2\n            /* \"#utility.yul\":2186:2219   */\n          tag_107\n          jump\t// in\n        tag_158:\n            /* \"#utility.yul\":2086:2225   */\n          swap3\n          swap2\n          pop\n          pop\n          jump\t// out\n            /* \"#utility.yul\":2231:2308   */\n        tag_109:\n            /* \"#utility.yul\":2268:2275   */\n          0x00\n            /* \"#utility.yul\":2297:2302   */\n          dup2\n            /* \"#utility.yul\":2286:2302   */\n          swap1\n          pop\n            /* \"#utility.yul\":2231:2308   */\n          swap2\n          swap1\n          pop\n          jump\t// out\n            /* \"#utility.yul\":2314:2436   */\n        tag_110:\n            /* \"#utility.yul\":2387:2411   */\n          tag_161\n            /* \"#utility.yul\":2405:2410   */\n          dup2\n            /* \"#utility.yul\":2387:2411   */\n          tag_109\n          jump\t// in\n        tag_161:\n            /* \"#utility.yul\":2380:2385   */\n          dup2\n            /* \"#utility.yul\":2377:2412   */\n          eq\n            /* \"#utility.yul\":2367:2430   */\n          tag_162\n          jumpi\n            /* \"#utility.yul\":2426:2427   */\n          0x00\n            /* \"#utility.yul\":2423:2424   */\n          dup1\n            /* \"#utility.yul\":2416:2428   */\n          revert\n            /* \"#utility.yul\":2367:2430   */\n        tag_162:\n            /* \"#utility.yul\":2314:2436   */\n          pop\n          jump\t// out\n            /* \"#utility.yul\":2442:2581   */\n        tag_111:\n            /* \"#utility.yul\":2488:2493   */\n          0x00\n            /* \"#utility.yul\":2526:2532   */\n          dup2\n            /* \"#utility.yul\":2513:2533   */\n          calldataload\n            /* \"#utility.yul\":2504:2533   */\n          swap1\n          pop\n            /* \"#utility.yul\":2542:2575   */\n          tag_164\n            /* \"#utility.yul\":2569:2574   */\n          dup2\n            /* \"#utility.yul\":2542:2575   */\n          tag_110\n          jump\t// in\n        tag_164:\n            /* \"#utility.yul\":2442:2581   */\n          swap3\n          swap2\n          pop\n          pop\n          jump\t// out\n            /* \"#utility.yul\":2587:3061   */\n        tag_20:\n            /* \"#utility.yul\":2655:2661   */\n          0x00\n            /* \"#utility.yul\":2663:2669   */\n          dup1\n            /* \"#utility.yul\":2712:2714   */\n          0x40\n            /* \"#utility.yul\":2700:2709   */\n          dup4\n            /* \"#utility.yul\":2691:2698   */\n          dup6\n            /* \"#utility.yul\":2687:2710   */\n          sub\n            /* \"#utility.yul\":2683:2715   */\n          slt\n            /* \"#utility.yul\":2680:2799   */\n          iszero\n          tag_166\n          jumpi\n            /* \"#utility.yul\":2718:2797   */\n          tag_167\n          tag_103\n          jump\t// in\n        tag_167:\n            /* \"#utility.yul\":2680:2799   */\n        tag_166:\n            /* \"#utility.yul\":2838:2839   */\n          0x00\n            /* \"#utility.yul\":2863:2916   */\n          tag_168\n            /* \"#utility.yul\":2908:2915   */\n          dup6\n            /* \"#utility.yul\":2899:2905   */\n          dup3\n            /* \"#utility.yul\":2888:2897   */\n          dup7\n            /* \"#utility.yul\":2884:2906   */\n          add\n            /* \"#utility.yul\":2863:2916   */\n          tag_108\n          jump\t// in\n        tag_168:\n            /* \"#utility.yul\":2853:2916   */\n          swap3\n          pop\n            /* \"#utility.yul\":2809:2926   */\n          pop\n            /* \"#utility.yul\":2965:2967   */\n          0x20\n            /* \"#utility.yul\":2991:3044   */\n          tag_169\n            /* \"#utility.yul\":3036:3043   */\n          dup6\n            /* \"#utility.yul\":3027:3033   */\n          dup3\n            /* \"#utility.yul\":3016:3025   */\n          dup7\n            /* \"#utility.yul\":3012:3034   */\n          add\n            /* \"#utility.yul\":2991:3044   */\n          tag_111\n          jump\t// in\n        tag_169:\n            /* \"#utility.yul\":2981:3044   */\n          swap2\n          pop\n            /* \"#utility.yul\":2936:3054   */\n          pop\n            /* \"#utility.yul\":2587:3061   */\n          swap3\n          pop\n          swap3\n          swap1\n          pop\n          jump\t// out\n            /* \"#utility.yul\":3067:3157   */\n        tag_112:\n            /* \"#utility.yul\":3101:3108   */\n          0x00\n            /* \"#utility.yul\":3144:3149   */\n          dup2\n            /* \"#utility.yul\":3137:3150   */\n          iszero\n            /* \"#utility.yul\":3130:3151   */\n          iszero\n            /* \"#utility.yul\":3119:3151   */\n          swap1\n          pop\n            /* \"#utility.yul\":3067:3157   */\n          swap2\n          swap1\n          pop\n          jump\t// out\n            /* \"#utility.yul\":3163:3272   */\n        tag_113:\n            /* \"#utility.yul\":3244:3265   */\n          tag_172\n            /* \"#utility.yul\":3259:3264   */\n          dup2\n            /* \"#utility.yul\":3244:3265   */\n          tag_112\n          jump\t// in\n        tag_172:\n            /* \"#utility.yul\":3239:3242   */\n          dup3\n            /* \"#utility.yul\":3232:3266   */\n          mstore\n            /* \"#utility.yul\":3163:3272   */\n          pop\n          pop\n          jump\t// out\n            /* \"#utility.yul\":3278:3488   */\n        tag_23:\n            /* \"#utility.yul\":3365:3369   */\n          0x00\n            /* \"#utility.yul\":3403:3405   */\n          0x20\n            /* \"#utility.yul\":3392:3401   */\n          dup3\n            /* \"#utility.yul\":3388:3406   */\n          add\n            /* \"#utility.yul\":3380:3406   */\n          swap1\n          pop\n            /* \"#utility.yul\":3416:3481   */\n          tag_174\n            /* \"#utility.yul\":3478:3479   */\n          0x00\n            /* \"#utility.yul\":3467:3476   */\n          dup4\n            /* \"#utility.yul\":3463:3480   */\n          add\n            /* \"#utility.yul\":3454:3460   */\n          dup5\n            /* \"#utility.yul\":3416:3481   */\n          tag_113\n          jump\t// in\n        tag_174:\n            /* \"#utility.yul\":3278:3488   */\n          swap3\n          swap2\n          pop\n          pop\n          jump\t// out\n            /* \"#utility.yul\":3494:3612   */\n        tag_114:\n            /* \"#utility.yul\":3581:3605   */\n          tag_176\n            /* \"#utility.yul\":3599:3604   */\n          dup2\n            /* \"#utility.yul\":3581:3605   */\n          tag_109\n          jump\t// in\n        tag_176:\n            /* \"#utility.yul\":3576:3579   */\n          dup3\n            /* \"#utility.yul\":3569:3606   */\n          mstore\n            /* \"#utility.yul\":3494:3612   */\n          pop\n          pop\n          jump\t// out\n            /* \"#utility.yul\":3618:3840   */\n        tag_27:\n            /* \"#utility.yul\":3711:3715   */\n          0x00\n            /* \"#utility.yul\":3749:3751   */\n          0x20\n            /* \"#utility.yul\":3738:3747   */\n          dup3\n            /* \"#utility.yul\":3734:3752   */\n          add\n            /* \"#utility.yul\":3726:3752   */\n          swap1\n          pop\n            /* \"#utility.yul\":3762:3833   */\n          tag_178\n            /* \"#utility.yul\":3830:3831   */\n          0x00\n            /* \"#utility.yul\":3819:3828   */\n          dup4\n            /* \"#utility.yul\":3815:3832   */\n          add\n            /* \"#utility.yul\":3806:3812   */\n          dup5\n            /* \"#utility.yul\":3762:3833   */\n          tag_114\n          jump\t// in\n        tag_178:\n            /* \"#utility.yul\":3618:3840   */\n          swap3\n          swap2\n          pop\n          pop\n          jump\t// out\n            /* \"#utility.yul\":3846:4465   */\n        tag_30:\n            /* \"#utility.yul\":3923:3929   */\n          0x00\n            /* \"#utility.yul\":3931:3937   */\n          dup1\n            /* \"#utility.yul\":3939:3945   */\n          0x00\n            /* \"#utility.yul\":3988:3990   */\n          0x60\n            /* \"#utility.yul\":3976:3985   */\n          dup5\n            /* \"#utility.yul\":3967:3974   */\n          dup7\n            /* \"#utility.yul\":3963:3986   */\n          sub\n            /* \"#utility.yul\":3959:3991   */\n          slt\n            /* \"#utility.yul\":3956:4075   */\n          iszero\n          tag_180\n          jumpi\n            /* \"#utility.yul\":3994:4073   */\n          tag_181\n          tag_103\n          jump\t// in\n        tag_181:\n            /* \"#utility.yul\":3956:4075   */\n        tag_180:\n            /* \"#utility.yul\":4114:4115   */\n          0x00\n            /* \"#utility.yul\":4139:4192   */\n          tag_182\n            /* \"#utility.yul\":4184:4191   */\n          dup7\n            /* \"#utility.yul\":4175:4181   */\n          dup3\n            /* \"#utility.yul\":4164:4173   */\n          dup8\n            /* \"#utility.yul\":4160:4182   */\n          add\n            /* \"#utility.yul\":4139:4192   */\n          tag_108\n          jump\t// in\n        tag_182:\n            /* \"#utility.yul\":4129:4192   */\n          swap4\n          pop\n            /* \"#utility.yul\":4085:4202   */\n          pop\n            /* \"#utility.yul\":4241:4243   */\n          0x20\n            /* \"#utility.yul\":4267:4320   */\n          tag_183\n            /* \"#utility.yul\":4312:4319   */\n          dup7\n            /* \"#utility.yul\":4303:4309   */\n          dup3\n            /* \"#utility.yul\":4292:4301   */\n          dup8\n            /* \"#utility.yul\":4288:4310   */\n          add\n            /* \"#utility.yul\":4267:4320   */\n          tag_108\n          jump\t// in\n        tag_183:\n            /* \"#utility.yul\":4257:4320   */\n          swap3\n          pop\n            /* \"#utility.yul\":4212:4330   */\n          pop\n            /* \"#utility.yul\":4369:4371   */\n          0x40\n            /* \"#utility.yul\":4395:4448   */\n          tag_184\n            /* \"#utility.yul\":4440:4447   */\n          dup7\n            /* \"#utility.yul\":4431:4437   */\n          dup3\n            /* \"#utility.yul\":4420:4429   */\n          dup8\n            /* \"#utility.yul\":4416:4438   */\n          add\n            /* \"#utility.yul\":4395:4448   */\n          tag_111\n          jump\t// in\n        tag_184:\n            /* \"#utility.yul\":4385:4448   */\n          swap2\n          pop\n            /* \"#utility.yul\":4340:4458   */\n          pop\n            /* \"#utility.yul\":3846:4465   */\n          swap3\n          pop\n          swap3\n          pop\n          swap3\n          jump\t// out\n            /* \"#utility.yul\":4471:4557   */\n        tag_115:\n            /* \"#utility.yul\":4506:4513   */\n          0x00\n            /* \"#utility.yul\":4546:4550   */\n          0xff\n            /* \"#utility.yul\":4539:4544   */\n          dup3\n            /* \"#utility.yul\":4535:4551   */\n          and\n            /* \"#utility.yul\":4524:4551   */\n          swap1\n          pop\n            /* \"#utility.yul\":4471:4557   */\n          swap2\n          swap1\n          pop\n          jump\t// out\n            /* \"#utility.yul\":4563:4675   */\n        tag_116:\n            /* \"#utility.yul\":4646:4668   */\n          tag_187\n            /* \"#utility.yul\":4662:4667   */\n          dup2\n            /* \"#utility.yul\":4646:4668   */\n          tag_115\n          jump\t// in\n        tag_187:\n            /* \"#utility.yul\":4641:4644   */\n          dup3\n            /* \"#utility.yul\":4634:4669   */\n          mstore\n            /* \"#utility.yul\":4563:4675   */\n          pop\n          pop\n          jump\t// out\n            /* \"#utility.yul\":4681:4895   */\n        tag_36:\n            /* \"#utility.yul\":4770:4774   */\n          0x00\n            /* \"#utility.yul\":4808:4810   */\n          0x20\n            /* \"#utility.yul\":4797:4806   */\n          dup3\n            /* \"#utility.yul\":4793:4811   */\n          add\n            /* \"#utility.yul\":4785:4811   */\n          swap1\n          pop\n            /* \"#utility.yul\":4821:4888   */\n          tag_189\n            /* \"#utility.yul\":4885:4886   */\n          0x00\n            /* \"#utility.yul\":4874:4883   */\n          dup4\n            /* \"#utility.yul\":4870:4887   */\n          add\n            /* \"#utility.yul\":4861:4867   */\n          dup5\n            /* \"#utility.yul\":4821:4888   */\n          tag_116\n          jump\t// in\n        tag_189:\n            /* \"#utility.yul\":4681:4895   */\n          swap3\n          swap2\n          pop\n          pop\n          jump\t// out\n            /* \"#utility.yul\":4901:5230   */\n        tag_39:\n            /* \"#utility.yul\":4960:4966   */\n          0x00\n            /* \"#utility.yul\":5009:5011   */\n          0x20\n            /* \"#utility.yul\":4997:5006   */\n          dup3\n            /* \"#utility.yul\":4988:4995   */\n          dup5\n            /* \"#utility.yul\":4984:5007   */\n          sub\n            /* \"#utility.yul\":4980:5012   */\n          slt\n            /* \"#utility.yul\":4977:5096   */\n          iszero\n          tag_191\n          jumpi\n            /* \"#utility.yul\":5015:5094   */\n          tag_192\n          tag_103\n          jump\t// in\n        tag_192:\n            /* \"#utility.yul\":4977:5096   */\n        tag_191:\n            /* \"#utility.yul\":5135:5136   */\n          0x00\n            /* \"#utility.yul\":5160:5213   */\n          tag_193\n            /* \"#utility.yul\":5205:5212   */\n          dup5\n            /* \"#utility.yul\":5196:5202   */\n          dup3\n            /* \"#utility.yul\":5185:5194   */\n          dup6\n            /* \"#utility.yul\":5181:5203   */\n          add\n            /* \"#utility.yul\":5160:5213   */\n          tag_108\n          jump\t// in\n        tag_193:\n            /* \"#utility.yul\":5150:5213   */\n          swap2\n          pop\n            /* \"#utility.yul\":5106:5223   */\n          pop\n            /* \"#utility.yul\":4901:5230   */\n          swap3\n          swap2\n          pop\n          pop\n          jump\t// out\n            /* \"#utility.yul\":5236:5353   */\n        tag_117:\n            /* \"#utility.yul\":5345:5346   */\n          0x00\n            /* \"#utility.yul\":5342:5343   */\n          dup1\n            /* \"#utility.yul\":5335:5347   */\n          revert\n            /* \"#utility.yul\":5359:5476   */\n        tag_118:\n            /* \"#utility.yul\":5468:5469   */\n          0x00\n            /* \"#utility.yul\":5465:5466   */\n          dup1\n            /* \"#utility.yul\":5458:5470   */\n          revert\n            /* \"#utility.yul\":5482:5662   */\n        tag_119:\n            /* \"#utility.yul\":5530:5607   */\n          0x4e487b7100000000000000000000000000000000000000000000000000000000\n            /* \"#utility.yul\":5527:5528   */\n          0x00\n            /* \"#utility.yul\":5520:5608   */\n          mstore\n            /* \"#utility.yul\":5627:5631   */\n          0x41\n            /* \"#utility.yul\":5624:5625   */\n          0x04\n            /* \"#utility.yul\":5617:5632   */\n          mstore\n            /* \"#utility.yul\":5651:5655   */\n          0x24\n            /* \"#utility.yul\":5648:5649   */\n          0x00\n            /* \"#utility.yul\":5641:5656   */\n          revert\n            /* \"#utility.yul\":5668:5949   */\n        tag_120:\n            /* \"#utility.yul\":5751:5778   */\n          tag_198\n            /* \"#utility.yul\":5773:5777   */\n          dup3\n            /* \"#utility.yul\":5751:5778   */\n          tag_100\n          jump\t// in\n        tag_198:\n            /* \"#utility.yul\":5743:5749   */\n          dup2\n            /* \"#utility.yul\":5739:5779   */\n          add\n            /* \"#utility.yul\":5881:5887   */\n          dup2\n            /* \"#utility.yul\":5869:5879   */\n          dup2\n            /* \"#utility.yul\":5866:5888   */\n          lt\n            /* \"#utility.yul\":5845:5863   */\n          0xffffffffffffffff\n            /* \"#utility.yul\":5833:5843   */\n          dup3\n            /* \"#utility.yul\":5830:5864   */\n          gt\n            /* \"#utility.yul\":5827:5889   */\n          or\n            /* \"#utility.yul\":5824:5912   */\n          iszero\n          tag_199\n          jumpi\n            /* \"#utility.yul\":5892:5910   */\n          tag_200\n          tag_119\n          jump\t// in\n        tag_200:\n            /* \"#utility.yul\":5824:5912   */\n        tag_199:\n            /* \"#utility.yul\":5932:5942   */\n          dup1\n            /* \"#utility.yul\":5928:5930   */\n          0x40\n            /* \"#utility.yul\":5921:5943   */\n          mstore\n            /* \"#utility.yul\":5711:5949   */\n          pop\n            /* \"#utility.yul\":5668:5949   */\n          pop\n          pop\n          jump\t// out\n            /* \"#utility.yul\":5955:6084   */\n        tag_121:\n            /* \"#utility.yul\":5989:5995   */\n          0x00\n            /* \"#utility.yul\":6016:6036   */\n          tag_202\n          tag_102\n          jump\t// in\n        tag_202:\n            /* \"#utility.yul\":6006:6036   */\n          swap1\n          pop\n            /* \"#utility.yul\":6045:6078   */\n          tag_203\n            /* \"#utility.yul\":6073:6077   */\n          dup3\n            /* \"#utility.yul\":6065:6071   */\n          dup3\n            /* \"#utility.yul\":6045:6078   */\n          tag_120\n          jump\t// in\n        tag_203:\n            /* \"#utility.yul\":5955:6084   */\n          swap2\n          swap1\n          pop\n          jump\t// out\n            /* \"#utility.yul\":6090:6397   */\n        tag_122:\n            /* \"#utility.yul\":6151:6155   */\n          0x00\n            /* \"#utility.yul\":6241:6259   */\n          0xffffffffffffffff\n            /* \"#utility.yul\":6233:6239   */\n          dup3\n            /* \"#utility.yul\":6230:6260   */\n          gt\n            /* \"#utility.yul\":6227:6283   */\n          iszero\n          tag_205\n          jumpi\n            /* \"#utility.yul\":6263:6281   */\n          tag_206\n          tag_119\n          jump\t// in\n        tag_206:\n            /* \"#utility.yul\":6227:6283   */\n        tag_205:\n            /* \"#utility.yul\":6301:6330   */\n          tag_207\n            /* \"#utility.yul\":6323:6329   */\n          dup3\n            /* \"#utility.yul\":6301:6330   */\n          tag_100\n          jump\t// in\n        tag_207:\n            /* \"#utility.yul\":6293:6330   */\n          swap1\n          pop\n            /* \"#utility.yul\":6385:6389   */\n          0x20\n            /* \"#utility.yul\":6379:6383   */\n          dup2\n            /* \"#utility.yul\":6375:6390   */\n          add\n            /* \"#utility.yul\":6367:6390   */\n          swap1\n          pop\n            /* \"#utility.yul\":6090:6397   */\n          swap2\n          swap1\n          pop\n          jump\t// out\n            /* \"#utility.yul\":6403:6557   */\n        tag_123:\n            /* \"#utility.yul\":6487:6493   */\n          dup3\n            /* \"#utility.yul\":6482:6485   */\n          dup2\n            /* \"#utility.yul\":6477:6480   */\n          dup4\n            /* \"#utility.yul\":6464:6494   */\n          calldatacopy\n            /* \"#utility.yul\":6549:6550   */\n          0x00\n            /* \"#utility.yul\":6540:6546   */\n          dup4\n            /* \"#utility.yul\":6535:6538   */\n          dup4\n            /* \"#utility.yul\":6531:6547   */\n          add\n            /* \"#utility.yul\":6524:6551   */\n          mstore\n            /* \"#utility.yul\":6403:6557   */\n          pop\n          pop\n          pop\n          jump\t// out\n            /* \"#utility.yul\":6563:6973   */\n        tag_124:\n            /* \"#utility.yul\":6640:6645   */\n          0x00\n            /* \"#utility.yul\":6665:6730   */\n          tag_210\n            /* \"#utility.yul\":6681:6729   */\n          tag_211\n            /* \"#utility.yul\":6722:6728   */\n          dup5\n            /* \"#utility.yul\":6681:6729   */\n          tag_122\n          jump\t// in\n        tag_211:\n            /* \"#utility.yul\":6665:6730   */\n          tag_121\n          jump\t// in\n        tag_210:\n            /* \"#utility.yul\":6656:6730   */\n          swap1\n          pop\n            /* \"#utility.yul\":6753:6759   */\n          dup3\n            /* \"#utility.yul\":6746:6751   */\n          dup2\n            /* \"#utility.yul\":6739:6760   */\n          mstore\n            /* \"#utility.yul\":6791:6795   */\n          0x20\n            /* \"#utility.yul\":6784:6789   */\n          dup2\n            /* \"#utility.yul\":6780:6796   */\n          add\n            /* \"#utility.yul\":6829:6832   */\n          dup5\n            /* \"#utility.yul\":6820:6826   */\n          dup5\n            /* \"#utility.yul\":6815:6818   */\n          dup5\n            /* \"#utility.yul\":6811:6827   */\n          add\n            /* \"#utility.yul\":6808:6833   */\n          gt\n            /* \"#utility.yul\":6805:6917   */\n          iszero\n          tag_212\n          jumpi\n            /* \"#utility.yul\":6836:6915   */\n          tag_213\n          tag_118\n          jump\t// in\n        tag_213:\n            /* \"#utility.yul\":6805:6917   */\n        tag_212:\n            /* \"#utility.yul\":6926:6967   */\n          tag_214\n            /* \"#utility.yul\":6960:6966   */\n          dup5\n            /* \"#utility.yul\":6955:6958   */\n          dup3\n            /* \"#utility.yul\":6950:6953   */\n          dup6\n            /* \"#utility.yul\":6926:6967   */\n          tag_123\n          jump\t// in\n        tag_214:\n            /* \"#utility.yul\":6646:6973   */\n          pop\n            /* \"#utility.yul\":6563:6973   */\n          swap4\n          swap3\n          pop\n          pop\n          pop\n          jump\t// out\n            /* \"#utility.yul\":6992:7330   */\n        tag_125:\n            /* \"#utility.yul\":7047:7052   */\n          0x00\n            /* \"#utility.yul\":7096:7099   */\n          dup3\n            /* \"#utility.yul\":7089:7093   */\n          0x1f\n            /* \"#utility.yul\":7081:7087   */\n          dup4\n            /* \"#utility.yul\":7077:7094   */\n          add\n            /* \"#utility.yul\":7073:7100   */\n          slt\n            /* \"#utility.yul\":7063:7185   */\n          tag_216\n          jumpi\n            /* \"#utility.yul\":7104:7183   */\n          tag_217\n          tag_117\n          jump\t// in\n        tag_217:\n            /* \"#utility.yul\":7063:7185   */\n        tag_216:\n            /* \"#utility.yul\":7221:7227   */\n          dup2\n            /* \"#utility.yul\":7208:7228   */\n          calldataload\n            /* \"#utility.yul\":7246:7324   */\n          tag_218\n            /* \"#utility.yul\":7320:7323   */\n          dup5\n            /* \"#utility.yul\":7312:7318   */\n          dup3\n            /* \"#utility.yul\":7305:7309   */\n          0x20\n            /* \"#utility.yul\":7297:7303   */\n          dup7\n            /* \"#utility.yul\":7293:7310   */\n          add\n            /* \"#utility.yul\":7246:7324   */\n          tag_124\n          jump\t// in\n        tag_218:\n            /* \"#utility.yul\":7237:7324   */\n          swap2\n          pop\n            /* \"#utility.yul\":7053:7330   */\n          pop\n            /* \"#utility.yul\":6992:7330   */\n          swap3\n          swap2\n          pop\n          pop\n          jump\t// out\n            /* \"#utility.yul\":7336:8133   */\n        tag_51:\n            /* \"#utility.yul\":7422:7428   */\n          0x00\n            /* \"#utility.yul\":7430:7436   */\n          dup1\n            /* \"#utility.yul\":7438:7444   */\n          0x00\n            /* \"#utility.yul\":7487:7489   */\n          0x60\n            /* \"#utility.yul\":7475:7484   */\n          dup5\n            /* \"#utility.yul\":7466:7473   */\n          dup7\n            /* \"#utility.yul\":7462:7485   */\n          sub\n            /* \"#utility.yul\":7458:7490   */\n          slt\n            /* \"#utility.yul\":7455:7574   */\n          iszero\n          tag_220\n          jumpi\n            /* \"#utility.yul\":7493:7572   */\n          tag_221\n          tag_103\n          jump\t// in\n        tag_221:\n            /* \"#utility.yul\":7455:7574   */\n        tag_220:\n            /* \"#utility.yul\":7613:7614   */\n          0x00\n            /* \"#utility.yul\":7638:7691   */\n          tag_222\n            /* \"#utility.yul\":7683:7690   */\n          dup7\n            /* \"#utility.yul\":7674:7680   */\n          dup3\n            /* \"#utility.yul\":7663:7672   */\n          dup8\n            /* \"#utility.yul\":7659:7681   */\n          add\n            /* \"#utility.yul\":7638:7691   */\n          tag_108\n          jump\t// in\n        tag_222:\n            /* \"#utility.yul\":7628:7691   */\n          swap4\n          pop\n            /* \"#utility.yul\":7584:7701   */\n          pop\n            /* \"#utility.yul\":7740:7742   */\n          0x20\n            /* \"#utility.yul\":7766:7819   */\n          tag_223\n            /* \"#utility.yul\":7811:7818   */\n          dup7\n            /* \"#utility.yul\":7802:7808   */\n          dup3\n            /* \"#utility.yul\":7791:7800   */\n          dup8\n            /* \"#utility.yul\":7787:7809   */\n          add\n            /* \"#utility.yul\":7766:7819   */\n          tag_111\n          jump\t// in\n        tag_223:\n            /* \"#utility.yul\":7756:7819   */\n          swap3\n          pop\n            /* \"#utility.yul\":7711:7829   */\n          pop\n            /* \"#utility.yul\":7896:7898   */\n          0x40\n            /* \"#utility.yul\":7885:7894   */\n          dup5\n            /* \"#utility.yul\":7881:7899   */\n          add\n            /* \"#utility.yul\":7868:7900   */\n          calldataload\n            /* \"#utility.yul\":7927:7945   */\n          0xffffffffffffffff\n            /* \"#utility.yul\":7919:7925   */\n          dup2\n            /* \"#utility.yul\":7916:7946   */\n          gt\n            /* \"#utility.yul\":7913:8030   */\n          iszero\n          tag_224\n          jumpi\n            /* \"#utility.yul\":7949:8028   */\n          tag_225\n          tag_104\n          jump\t// in\n        tag_225:\n            /* \"#utility.yul\":7913:8030   */\n        tag_224:\n            /* \"#utility.yul\":8054:8116   */\n          tag_226\n            /* \"#utility.yul\":8108:8115   */\n          dup7\n            /* \"#utility.yul\":8099:8105   */\n          dup3\n            /* \"#utility.yul\":8088:8097   */\n          dup8\n            /* \"#utility.yul\":8084:8106   */\n          add\n            /* \"#utility.yul\":8054:8116   */\n          tag_125\n          jump\t// in\n        tag_226:\n            /* \"#utility.yul\":8044:8116   */\n          swap2\n          pop\n            /* \"#utility.yul\":7839:8126   */\n          pop\n            /* \"#utility.yul\":7336:8133   */\n          swap3\n          pop\n          swap3\n          pop\n          swap3\n          jump\t// out\n            /* \"#utility.yul\":8139:8613   */\n        tag_56:\n            /* \"#utility.yul\":8207:8213   */\n          0x00\n            /* \"#utility.yul\":8215:8221   */\n          dup1\n            /* \"#utility.yul\":8264:8266   */\n          0x40\n            /* \"#utility.yul\":8252:8261   */\n          dup4\n            /* \"#utility.yul\":8243:8250   */\n          dup6\n            /* \"#utility.yul\":8239:8262   */\n          sub\n            /* \"#utility.yul\":8235:8267   */\n          slt\n            /* \"#utility.yul\":8232:8351   */\n          iszero\n          tag_228\n          jumpi\n            /* \"#utility.yul\":8270:8349   */\n          tag_229\n          tag_103\n          jump\t// in\n        tag_229:\n            /* \"#utility.yul\":8232:8351   */\n        tag_228:\n            /* \"#utility.yul\":8390:8391   */\n          0x00\n            /* \"#utility.yul\":8415:8468   */\n          tag_230\n            /* \"#utility.yul\":8460:8467   */\n          dup6\n            /* \"#utility.yul\":8451:8457   */\n          dup3\n            /* \"#utility.yul\":8440:8449   */\n          dup7\n            /* \"#utility.yul\":8436:8458   */\n          add\n            /* \"#utility.yul\":8415:8468   */\n          tag_108\n          jump\t// in\n        tag_230:\n            /* \"#utility.yul\":8405:8468   */\n          swap3\n          pop\n            /* \"#utility.yul\":8361:8478   */\n          pop\n            /* \"#utility.yul\":8517:8519   */\n          0x20\n            /* \"#utility.yul\":8543:8596   */\n          tag_231\n            /* \"#utility.yul\":8588:8595   */\n          dup6\n            /* \"#utility.yul\":8579:8585   */\n          dup3\n            /* \"#utility.yul\":8568:8577   */\n          dup7\n            /* \"#utility.yul\":8564:8586   */\n          add\n            /* \"#utility.yul\":8543:8596   */\n          tag_108\n          jump\t// in\n        tag_231:\n            /* \"#utility.yul\":8533:8596   */\n          swap2\n          pop\n            /* \"#utility.yul\":8488:8606   */\n          pop\n            /* \"#utility.yul\":8139:8613   */\n          swap3\n          pop\n          swap3\n          swap1\n          pop\n          jump\t// out\n            /* \"#utility.yul\":8619:8799   */\n        tag_126:\n            /* \"#utility.yul\":8667:8744   */\n          0x4e487b7100000000000000000000000000000000000000000000000000000000\n            /* \"#utility.yul\":8664:8665   */\n          0x00\n            /* \"#utility.yul\":8657:8745   */\n          mstore\n            /* \"#utility.yul\":8764:8768   */\n          0x22\n            /* \"#utility.yul\":8761:8762   */\n          0x04\n            /* \"#utility.yul\":8754:8769   */\n          mstore\n            /* \"#utility.yul\":8788:8792   */\n          0x24\n            /* \"#utility.yul\":8785:8786   */\n          0x00\n            /* \"#utility.yul\":8778:8793   */\n          revert\n            /* \"#utility.yul\":8805:9125   */\n        tag_60:\n            /* \"#utility.yul\":8849:8855   */\n          0x00\n            /* \"#utility.yul\":8886:8887   */\n          0x02\n            /* \"#utility.yul\":8880:8884   */\n          dup3\n            /* \"#utility.yul\":8876:8888   */\n          div\n            /* \"#utility.yul\":8866:8888   */\n          swap1\n          pop\n            /* \"#utility.yul\":8933:8934   */\n          0x01\n            /* \"#utility.yul\":8927:8931   */\n          dup3\n            /* \"#utility.yul\":8923:8935   */\n          and\n            /* \"#utility.yul\":8954:8972   */\n          dup1\n            /* \"#utility.yul\":8944:9025   */\n          tag_234\n          jumpi\n            /* \"#utility.yul\":9010:9014   */\n          0x7f\n            /* \"#utility.yul\":9002:9008   */\n          dup3\n            /* \"#utility.yul\":8998:9015   */\n          and\n            /* \"#utility.yul\":8988:9015   */\n          swap2\n          pop\n            /* \"#utility.yul\":8944:9025   */\n        tag_234:\n            /* \"#utility.yul\":9072:9074   */\n          0x20\n            /* \"#utility.yul\":9064:9070   */\n          dup3\n            /* \"#utility.yul\":9061:9075   */\n          lt\n            /* \"#utility.yul\":9041:9059   */\n          dup2\n            /* \"#utility.yul\":9038:9076   */\n          sub\n            /* \"#utility.yul\":9035:9119   */\n          tag_235\n          jumpi\n            /* \"#utility.yul\":9091:9109   */\n          tag_236\n          tag_126\n          jump\t// in\n        tag_236:\n            /* \"#utility.yul\":9035:9119   */\n        tag_235:\n            /* \"#utility.yul\":8856:9125   */\n          pop\n            /* \"#utility.yul\":8805:9125   */\n          swap2\n          swap1\n          pop\n          jump\t// out\n            /* \"#utility.yul\":9131:9311   */\n        tag_127:\n            /* \"#utility.yul\":9179:9256   */\n          0x4e487b7100000000000000000000000000000000000000000000000000000000\n            /* \"#utility.yul\":9176:9177   */\n          0x00\n            /* \"#utility.yul\":9169:9257   */\n          mstore\n            /* \"#utility.yul\":9276:9280   */\n          0x11\n            /* \"#utility.yul\":9273:9274   */\n          0x04\n            /* \"#utility.yul\":9266:9281   */\n          mstore\n            /* \"#utility.yul\":9300:9304   */\n          0x24\n            /* \"#utility.yul\":9297:9298   */\n          0x00\n            /* \"#utility.yul\":9290:9305   */\n          revert\n            /* \"#utility.yul\":9317:9508   */\n        tag_71:\n            /* \"#utility.yul\":9357:9361   */\n          0x00\n            /* \"#utility.yul\":9377:9397   */\n          tag_239\n            /* \"#utility.yul\":9395:9396   */\n          dup3\n            /* \"#utility.yul\":9377:9397   */\n          tag_109\n          jump\t// in\n        tag_239:\n            /* \"#utility.yul\":9372:9397   */\n          swap2\n          pop\n            /* \"#utility.yul\":9411:9431   */\n          tag_240\n            /* \"#utility.yul\":9429:9430   */\n          dup4\n            /* \"#utility.yul\":9411:9431   */\n          tag_109\n          jump\t// in\n        tag_240:\n            /* \"#utility.yul\":9406:9431   */\n          swap3\n          pop\n            /* \"#utility.yul\":9450:9451   */\n          dup3\n            /* \"#utility.yul\":9447:9448   */\n          dup3\n            /* \"#utility.yul\":9444:9452   */\n          lt\n            /* \"#utility.yul\":9441:9475   */\n          iszero\n          tag_241\n          jumpi\n            /* \"#utility.yul\":9455:9473   */\n          tag_242\n          tag_127\n          jump\t// in\n        tag_242:\n            /* \"#utility.yul\":9441:9475   */\n        tag_241:\n            /* \"#utility.yul\":9500:9501   */\n          dup3\n            /* \"#utility.yul\":9497:9498   */\n          dup3\n            /* \"#utility.yul\":9493:9502   */\n          sub\n            /* \"#utility.yul\":9485:9502   */\n          swap1\n          pop\n            /* \"#utility.yul\":9317:9508   */\n          swap3\n          swap2\n          pop\n          pop\n          jump\t// out\n            /* \"#utility.yul\":9514:9819   */\n        tag_73:\n            /* \"#utility.yul\":9554:9557   */\n          0x00\n            /* \"#utility.yul\":9573:9593   */\n          tag_244\n            /* \"#utility.yul\":9591:9592   */\n          dup3\n            /* \"#utility.yul\":9573:9593   */\n          tag_109\n          jump\t// in\n        tag_244:\n            /* \"#utility.yul\":9568:9593   */\n          swap2\n          pop\n            /* \"#utility.yul\":9607:9627   */\n          tag_245\n            /* \"#utility.yul\":9625:9626   */\n          dup4\n            /* \"#utility.yul\":9607:9627   */\n          tag_109\n          jump\t// in\n        tag_245:\n            /* \"#utility.yul\":9602:9627   */\n          swap3\n          pop\n            /* \"#utility.yul\":9761:9762   */\n          dup3\n            /* \"#utility.yul\":9693:9759   */\n          0xffffffffffffffffffffffffffffffffffffffffffffffffffffffffffffffff\n            /* \"#utility.yul\":9689:9763   */\n          sub\n            /* \"#utility.yul\":9686:9687   */\n          dup3\n            /* \"#utility.yul\":9683:9764   */\n          gt\n            /* \"#utility.yul\":9680:9787   */\n          iszero\n          tag_246\n          jumpi\n            /* \"#utility.yul\":9767:9785   */\n          tag_247\n          tag_127\n          jump\t// in\n        tag_247:\n            /* \"#utility.yul\":9680:9787   */\n        tag_246:\n            /* \"#utility.yul\":9811:9812   */\n          dup3\n            /* \"#utility.yul\":9808:9809   */\n          dup3\n            /* \"#utility.yul\":9804:9813   */\n          add\n            /* \"#utility.yul\":9797:9813   */\n          swap1\n          pop\n            /* \"#utility.yul\":9514:9819   */\n          swap3\n          swap2\n          pop\n          pop\n          jump\t// out\n            /* \"#utility.yul\":9825:9943   */\n        tag_128:\n            /* \"#utility.yul\":9912:9936   */\n          tag_249\n            /* \"#utility.yul\":9930:9935   */\n          dup2\n            /* \"#utility.yul\":9912:9936   */\n          tag_106\n          jump\t// in\n        tag_249:\n            /* \"#utility.yul\":9907:9910   */\n          dup3\n            /* \"#utility.yul\":9900:9937   */\n          mstore\n            /* \"#utility.yul\":9825:9943   */\n          pop\n          pop\n          jump\t// out\n            /* \"#utility.yul\":9949:10047   */\n        tag_129:\n            /* \"#utility.yul\":10000:10006   */\n          0x00\n            /* \"#utility.yul\":10034:10039   */\n          dup2\n            /* \"#utility.yul\":10028:10040   */\n          mload\n            /* \"#utility.yul\":10018:10040   */\n          swap1\n          pop\n            /* \"#utility.yul\":9949:10047   */\n          swap2\n          swap1\n          pop\n          jump\t// out\n            /* \"#utility.yul\":10053:10221   */\n        tag_130:\n            /* \"#utility.yul\":10136:10147   */\n          0x00\n            /* \"#utility.yul\":10170:10176   */\n          dup3\n            /* \"#utility.yul\":10165:10168   */\n          dup3\n            /* \"#utility.yul\":10158:10177   */\n          mstore\n            /* \"#utility.yul\":10210:10214   */\n          0x20\n            /* \"#utility.yul\":10205:10208   */\n          dup3\n            /* \"#utility.yul\":10201:10215   */\n          add\n            /* \"#utility.yul\":10186:10215   */\n          swap1\n          pop\n            /* \"#utility.yul\":10053:10221   */\n          swap3\n          swap2\n          pop\n          pop\n          jump\t// out\n            /* \"#utility.yul\":10227:10587   */\n        tag_131:\n            /* \"#utility.yul\":10313:10316   */\n          0x00\n            /* \"#utility.yul\":10341:10379   */\n          tag_253\n            /* \"#utility.yul\":10373:10378   */\n          dup3\n            /* \"#utility.yul\":10341:10379   */\n          tag_129\n          jump\t// in\n        tag_253:\n            /* \"#utility.yul\":10395:10465   */\n          tag_254\n            /* \"#utility.yul\":10458:10464   */\n          dup2\n            /* \"#utility.yul\":10453:10456   */\n          dup6\n            /* \"#utility.yul\":10395:10465   */\n          tag_130\n          jump\t// in\n        tag_254:\n            /* \"#utility.yul\":10388:10465   */\n          swap4\n          pop\n            /* \"#utility.yul\":10474:10526   */\n          tag_255\n            /* \"#utility.yul\":10519:10525   */\n          dup2\n            /* \"#utility.yul\":10514:10517   */\n          dup6\n            /* \"#utility.yul\":10507:10511   */\n          0x20\n            /* \"#utility.yul\":10500:10505   */\n          dup7\n            /* \"#utility.yul\":10496:10512   */\n          add\n            /* \"#utility.yul\":10474:10526   */\n          tag_99\n          jump\t// in\n        tag_255:\n            /* \"#utility.yul\":10551:10580   */\n          tag_256\n            /* \"#utility.yul\":10573:10579   */\n          dup2\n            /* \"#utility.yul\":10551:10580   */\n          tag_100\n          jump\t// in\n        tag_256:\n            /* \"#utility.yul\":10546:10549   */\n          dup5\n            /* \"#utility.yul\":10542:10581   */\n          add\n            /* \"#utility.yul\":10535:10581   */\n          swap2\n          pop\n            /* \"#utility.yul\":10317:10587   */\n          pop\n            /* \"#utility.yul\":10227:10587   */\n          swap3\n          swap2\n          pop\n          pop\n          jump\t// out\n            /* \"#utility.yul\":10593:11122   */\n        tag_92:\n            /* \"#utility.yul\":10760:10764   */\n          0x00\n            /* \"#utility.yul\":10798:10800   */\n          0x60\n            /* \"#utility.yul\":10787:10796   */\n          dup3\n            /* \"#utility.yul\":10783:10801   */\n          add\n            /* \"#utility.yul\":10775:10801   */\n          swap1\n          pop\n            /* \"#utility.yul\":10811:10882   */\n          tag_258\n            /* \"#utility.yul\":10879:10880   */\n          0x00\n            /* \"#utility.yul\":10868:10877   */\n          dup4\n            /* \"#utility.yul\":10864:10881   */\n          add\n            /* \"#utility.yul\":10855:10861   */\n          dup7\n            /* \"#utility.yul\":10811:10882   */\n          tag_128\n          jump\t// in\n        tag_258:\n            /* \"#utility.yul\":10892:10964   */\n          tag_259\n            /* \"#utility.yul\":10960:10962   */\n          0x20\n            /* \"#utility.yul\":10949:10958   */\n          dup4\n            /* \"#utility.yul\":10945:10963   */\n          add\n            /* \"#utility.yul\":10936:10942   */\n          dup6\n            /* \"#utility.yul\":10892:10964   */\n          tag_114\n          jump\t// in\n        tag_259:\n            /* \"#utility.yul\":11011:11020   */\n          dup2\n            /* \"#utility.yul\":11005:11009   */\n          dup2\n            /* \"#utility.yul\":11001:11021   */\n          sub\n            /* \"#utility.yul\":10996:10998   */\n          0x40\n            /* \"#utility.yul\":10985:10994   */\n          dup4\n            /* \"#utility.yul\":10981:10999   */\n          add\n            /* \"#utility.yul\":10974:11022   */\n          mstore\n            /* \"#utility.yul\":11039:11115   */\n          tag_260\n            /* \"#utility.yul\":11110:11114   */\n          dup2\n            /* \"#utility.yul\":11101:11107   */\n          dup5\n            /* \"#utility.yul\":11039:11115   */\n          tag_131\n          jump\t// in\n        tag_260:\n            /* \"#utility.yul\":11031:11115   */\n          swap1\n          pop\n            /* \"#utility.yul\":10593:11122   */\n          swap5\n          swap4\n          pop\n          pop\n          pop\n          pop\n          jump\t// out\n\n        auxdata: 0xa26469706673582212208df0427e9e7b7b5f08e613d7644379d3538c360f2f41b0ac489dedf01f52b20f64736f6c634300080f0033\n    }\n}\n",
				"bytecode": {
					"linkReferences": {},
					"object": "608060405234801561001057600080fd5b5060405161230e38038061230e833981810160405281019061003291906101ac565b60405161003e9061013c565b604051809103906000f08015801561005a573d6000803e3d6000fd5b506000806101000a81548173ffffffffffffffffffffffffffffffffffffffff021916908373ffffffffffffffffffffffffffffffffffffffff1602179055506969e10de76676d0800000600160003373ffffffffffffffffffffffffffffffffffffffff1673ffffffffffffffffffffffffffffffffffffffff168152602001908152602001600020819055506969e10de76676d0800000600160008373ffffffffffffffffffffffffffffffffffffffff1673ffffffffffffffffffffffffffffffffffffffff16815260200190815260200160002081905550506101d9565b61174480610bca83390190565b600080fd5b600073ffffffffffffffffffffffffffffffffffffffff82169050919050565b60006101798261014e565b9050919050565b6101898161016e565b811461019457600080fd5b50565b6000815190506101a681610180565b92915050565b6000602082840312156101c2576101c1610149565b5b60006101d084828501610197565b91505092915050565b6109e2806101e86000396000f3fe608060405234801561001057600080fd5b50600436106100575760003560e01c80632e1a7d4d1461005c57806370a0823114610078578063b2fa1c9e146100a8578063c0ee0b8a146100c6578063fc0c546a146100e2575b600080fd5b610076600480360381019061007191906104be565b610100565b005b610092600480360381019061008d9190610549565b61024c565b60405161009f9190610585565b60405180910390f35b6100b0610264565b6040516100bd91906105bb565b60405180910390f35b6100e060048036038101906100db919061071c565b610307565b005b6100ea610450565b6040516100f791906107ea565b60405180910390f35b80600160003373ffffffffffffffffffffffffffffffffffffffff1673ffffffffffffffffffffffffffffffffffffffff16815260200190815260200160002054101561014c57600080fd5b60008054906101000a900473ffffffffffffffffffffffffffffffffffffffff1673ffffffffffffffffffffffffffffffffffffffff1663a9059cbb33836040518363ffffffff1660e01b81526004016101a7929190610814565b6020604051808303816000875af11580156101c6573d6000803e3d6000fd5b505050506040513d601f19601f820116820180604052508101906101ea9190610869565b6101f357600080fd5b80600160003373ffffffffffffffffffffffffffffffffffffffff1673ffffffffffffffffffffffffffffffffffffffff168152602001908152602001600020600082825461024291906108c5565b9250508190555050565b60016020528060005260406000206000915090505481565b60008060008054906101000a900473ffffffffffffffffffffffffffffffffffffffff1673ffffffffffffffffffffffffffffffffffffffff166370a08231306040518263ffffffff1660e01b81526004016102c091906108f9565b602060405180830381865afa1580156102dd573d6000803e3d6000fd5b505050506040513d601f19601f820116820180604052508101906103019190610929565b14905090565b60008054906101000a900473ffffffffffffffffffffffffffffffffffffffff1673ffffffffffffffffffffffffffffffffffffffff163373ffffffffffffffffffffffffffffffffffffffff161461035f57600080fd5b600160008473ffffffffffffffffffffffffffffffffffffffff1673ffffffffffffffffffffffffffffffffffffffff1681526020019081526020016000205482600160008673ffffffffffffffffffffffffffffffffffffffff1673ffffffffffffffffffffffffffffffffffffffff168152602001908152602001600020546103ea9190610956565b10156103f557600080fd5b81600160008573ffffffffffffffffffffffffffffffffffffffff1673ffffffffffffffffffffffffffffffffffffffff16815260200190815260200160002060008282546104449190610956565b92505081905550505050565b60008054906101000a900473ffffffffffffffffffffffffffffffffffffffff1681565b6000604051905090565b600080fd5b600080fd5b6000819050919050565b61049b81610488565b81146104a657600080fd5b50565b6000813590506104b881610492565b92915050565b6000602082840312156104d4576104d361047e565b5b60006104e2848285016104a9565b91505092915050565b600073ffffffffffffffffffffffffffffffffffffffff82169050919050565b6000610516826104eb565b9050919050565b6105268161050b565b811461053157600080fd5b50565b6000813590506105438161051d565b92915050565b60006020828403121561055f5761055e61047e565b5b600061056d84828501610534565b91505092915050565b61057f81610488565b82525050565b600060208201905061059a6000830184610576565b92915050565b60008115159050919050565b6105b5816105a0565b82525050565b60006020820190506105d060008301846105ac565b92915050565b600080fd5b600080fd5b6000601f19601f8301169050919050565b7f4e487b7100000000000000000000000000000000000000000000000000000000600052604160045260246000fd5b610629826105e0565b810181811067ffffffffffffffff82111715610648576106476105f1565b5b80604052505050565b600061065b610474565b90506106678282610620565b919050565b600067ffffffffffffffff821115610687576106866105f1565b5b610690826105e0565b9050602081019050919050565b82818337600083830152505050565b60006106bf6106ba8461066c565b610651565b9050828152602081018484840111156106db576106da6105db565b5b6106e684828561069d565b509392505050565b600082601f830112610703576107026105d6565b5b81356107138482602086016106ac565b91505092915050565b6000806000606084860312156107355761073461047e565b5b600061074386828701610534565b9350506020610754868287016104a9565b925050604084013567ffffffffffffffff81111561077557610774610483565b5b610781868287016106ee565b9150509250925092565b6000819050919050565b60006107b06107ab6107a6846104eb565b61078b565b6104eb565b9050919050565b60006107c282610795565b9050919050565b60006107d4826107b7565b9050919050565b6107e4816107c9565b82525050565b60006020820190506107ff60008301846107db565b92915050565b61080e8161050b565b82525050565b60006040820190506108296000830185610805565b6108366020830184610576565b9392505050565b610846816105a0565b811461085157600080fd5b50565b6000815190506108638161083d565b92915050565b60006020828403121561087f5761087e61047e565b5b600061088d84828501610854565b91505092915050565b7f4e487b7100000000000000000000000000000000000000000000000000000000600052601160045260246000fd5b60006108d082610488565b91506108db83610488565b9250828210156108ee576108ed610896565b5b828203905092915050565b600060208201905061090e6000830184610805565b92915050565b60008151905061092381610492565b92915050565b60006020828403121561093f5761093e61047e565b5b600061094d84828501610914565b91505092915050565b600061096182610488565b915061096c83610488565b9250827fffffffffffffffffffffffffffffffffffffffffffffffffffffffffffffffff038211156109a1576109a0610896565b5b82820190509291505056fea2646970667358221220bda0bbf132043934451518321bf134bb47bb813f342eaaf83590bdbd49bffb1664736f6c634300080f003360806040526040518060400160405280601381526020017f53696d706c652045524332323320546f6b656e00000000000000000000000000815250600190816200004a91906200041c565b506040518060400160405280600381526020017f5345540000000000000000000000000000000000000000000000000000000000815250600290816200009191906200041c565b506012600360006101000a81548160ff021916908360ff160217905550600360009054906101000a900460ff16600a620000cc919062000693565b620f4240620000dc9190620006e4565b600455348015620000ec57600080fd5b506004546000803373ffffffffffffffffffffffffffffffffffffffff1673ffffffffffffffffffffffffffffffffffffffff168152602001908152602001600020819055503373ffffffffffffffffffffffffffffffffffffffff16600073ffffffffffffffffffffffffffffffffffffffff167fddf252ad1be2c89b69c2b068fc378daa952ba7f163c4a11628f55a4df523b3ef60045460405162000194919062000756565b60405180910390a362000773565b600081519050919050565b7f4e487b7100000000000000000000000000000000000000000000000000000000600052604160045260246000fd5b7f4e487b7100000000000000000000000000000000000000000000000000000000600052602260045260246000fd5b600060028204905060018216806200022457607f821691505b6020821081036200023a5762000239620001dc565b5b50919050565b60008190508160005260206000209050919050565b60006020601f8301049050919050565b600082821b905092915050565b600060088302620002a47fffffffffffffffffffffffffffffffffffffffffffffffffffffffffffffffff8262000265565b620002b0868362000265565b95508019841693508086168417925050509392505050565b6000819050919050565b6000819050919050565b6000620002fd620002f7620002f184620002c8565b620002d2565b620002c8565b9050919050565b6000819050919050565b6200031983620002dc565b62000331620003288262000304565b84845462000272565b825550505050565b600090565b6200034862000339565b620003558184846200030e565b505050565b5b818110156200037d57620003716000826200033e565b6001810190506200035b565b5050565b601f821115620003cc57620003968162000240565b620003a18462000255565b81016020851015620003b1578190505b620003c9620003c08562000255565b8301826200035a565b50505b505050565b600082821c905092915050565b6000620003f160001984600802620003d1565b1980831691505092915050565b60006200040c8383620003de565b9150826002028217905092915050565b6200042782620001a2565b67ffffffffffffffff811115620004435762000442620001ad565b5b6200044f82546200020b565b6200045c82828562000381565b600060209050601f8311600181146200049457600084156200047f578287015190505b6200048b8582620003fe565b865550620004fb565b601f198416620004a48662000240565b60005b82811015620004ce57848901518255600182019150602085019450602081019050620004a7565b86831015620004ee5784890151620004ea601f891682620003de565b8355505b6001600288020188555050505b505050505050565b7f4e487b7100000000000000000000000000000000000000000000000000000000600052601160045260246000fd5b60008160011c9050919050565b6000808291508390505b6001851115620005915780860481111562000569576200056862000503565b5b6001851615620005795780820291505b8081029050620005898562000532565b945062000549565b94509492505050565b600082620005ac57600190506200067f565b81620005bc57600090506200067f565b8160018114620005d55760028114620005e05762000616565b60019150506200067f565b60ff841115620005f557620005f462000503565b5b8360020a9150848211156200060f576200060e62000503565b5b506200067f565b5060208310610133831016604e8410600b8410161715620006505782820a9050838111156200064a576200064962000503565b5b6200067f565b6200065f84848460016200053f565b9250905081840481111562000679576200067862000503565b5b81810290505b9392505050565b600060ff82169050919050565b6000620006a082620002c8565b9150620006ad8362000686565b9250620006dc7fffffffffffffffffffffffffffffffffffffffffffffffffffffffffffffffff84846200059a565b905092915050565b6000620006f182620002c8565b9150620006fe83620002c8565b9250817fffffffffffffffffffffffffffffffffffffffffffffffffffffffffffffffff04831182151516156200073a576200073962000503565b5b828202905092915050565b6200075081620002c8565b82525050565b60006020820190506200076d600083018462000745565b92915050565b610fc180620007836000396000f3fe608060405234801561001057600080fd5b506004361061009e5760003560e01c806370a082311161006657806370a082311461015d57806395d89b411461018d578063a9059cbb146101ab578063be45fd62146101db578063dd62ed3e1461020b5761009e565b806306fdde03146100a3578063095ea7b3146100c157806318160ddd146100f157806323b872dd1461010f578063313ce5671461013f575b600080fd5b6100ab61023b565b6040516100b891906109cb565b60405180910390f35b6100db60048036038101906100d69190610a95565b6102c9565b6040516100e89190610af0565b60405180910390f35b6100f96103bb565b6040516101069190610b1a565b60405180910390f35b61012960048036038101906101249190610b35565b6103c1565b6040516101369190610af0565b60405180910390f35b610147610644565b6040516101549190610ba4565b60405180910390f35b61017760048036038101906101729190610bbf565b610657565b6040516101849190610b1a565b60405180910390f35b61019561066f565b6040516101a291906109cb565b60405180910390f35b6101c560048036038101906101c09190610a95565b6106fd565b6040516101d29190610af0565b60405180910390f35b6101f560048036038101906101f09190610d21565b610715565b6040516102029190610af0565b60405180910390f35b61022560048036038101906102209190610d90565b6108fa565b6040516102329190610b1a565b60405180910390f35b6001805461024890610dff565b80601f016020809104026020016040519081016040528092919081815260200182805461027490610dff565b80156102c15780601f10610296576101008083540402835291602001916102c1565b820191906000526020600020905b8154815290600101906020018083116102a457829003601f168201915b505050505081565b600081600560003373ffffffffffffffffffffffffffffffffffffffff1673ffffffffffffffffffffffffffffffffffffffff16815260200190815260200160002060008573ffffffffffffffffffffffffffffffffffffffff1673ffffffffffffffffffffffffffffffffffffffff168152602001908152602001600020819055508273ffffffffffffffffffffffffffffffffffffffff163373ffffffffffffffffffffffffffffffffffffffff167f8c5be1e5ebec7d5bd14f71427d1e84f3dd0314c0f7b2291e5b200ac8c7c3b925846040516103a99190610b1a565b60405180910390a36001905092915050565b60045481565b60008060008573ffffffffffffffffffffffffffffffffffffffff1673ffffffffffffffffffffffffffffffffffffffff1681526020019081526020016000205482111561040e57600080fd5b600560008573ffffffffffffffffffffffffffffffffffffffff1673ffffffffffffffffffffffffffffffffffffffff16815260200190815260200160002060003373ffffffffffffffffffffffffffffffffffffffff1673ffffffffffffffffffffffffffffffffffffffff1681526020019081526020016000205482111561049757600080fd5b816000808673ffffffffffffffffffffffffffffffffffffffff1673ffffffffffffffffffffffffffffffffffffffff16815260200190815260200160002060008282546104e59190610e5f565b92505081905550816000808573ffffffffffffffffffffffffffffffffffffffff1673ffffffffffffffffffffffffffffffffffffffff168152602001908152602001600020600082825461053a9190610e93565b9250508190555081600560008673ffffffffffffffffffffffffffffffffffffffff1673ffffffffffffffffffffffffffffffffffffffff16815260200190815260200160002060003373ffffffffffffffffffffffffffffffffffffffff1673ffffffffffffffffffffffffffffffffffffffff16815260200190815260200160002060008282546105cd9190610e5f565b925050819055508273ffffffffffffffffffffffffffffffffffffffff168473ffffffffffffffffffffffffffffffffffffffff167fddf252ad1be2c89b69c2b068fc378daa952ba7f163c4a11628f55a4df523b3ef846040516106319190610b1a565b60405180910390a3600190509392505050565b600360009054906101000a900460ff1681565b60006020528060005260406000206000915090505481565b6002805461067c90610dff565b80601f01602080910402602001604051908101604052809291908181526020018280546106a890610dff565b80156106f55780601f106106ca576101008083540402835291602001916106f5565b820191906000526020600020905b8154815290600101906020018083116106d857829003601f168201915b505050505081565b6000606061070c848483610715565b91505092915050565b6000826000803373ffffffffffffffffffffffffffffffffffffffff1673ffffffffffffffffffffffffffffffffffffffff16815260200190815260200160002054101561076257600080fd5b826000803373ffffffffffffffffffffffffffffffffffffffff1673ffffffffffffffffffffffffffffffffffffffff16815260200190815260200160002060008282546107b09190610e5f565b92505081905550826000808673ffffffffffffffffffffffffffffffffffffffff1673ffffffffffffffffffffffffffffffffffffffff16815260200190815260200160002060008282546108059190610e93565b925050819055508373ffffffffffffffffffffffffffffffffffffffff163373ffffffffffffffffffffffffffffffffffffffff167fddf252ad1be2c89b69c2b068fc378daa952ba7f163c4a11628f55a4df523b3ef856040516108699190610b1a565b60405180910390a361087a8461091f565b156108ef578373ffffffffffffffffffffffffffffffffffffffff1663c0ee0b8a3385856040518463ffffffff1660e01b81526004016108bc93929190610f4d565b600060405180830381600087803b1580156108d657600080fd5b505af11580156108ea573d6000803e3d6000fd5b505050505b600190509392505050565b6005602052816000526040600020602052806000526040600020600091509150505481565b600080823b905060008111915050919050565b600081519050919050565b600082825260208201905092915050565b60005b8381101561096c578082015181840152602081019050610951565b8381111561097b576000848401525b50505050565b6000601f19601f8301169050919050565b600061099d82610932565b6109a7818561093d565b93506109b781856020860161094e565b6109c081610981565b840191505092915050565b600060208201905081810360008301526109e58184610992565b905092915050565b6000604051905090565b600080fd5b600080fd5b600073ffffffffffffffffffffffffffffffffffffffff82169050919050565b6000610a2c82610a01565b9050919050565b610a3c81610a21565b8114610a4757600080fd5b50565b600081359050610a5981610a33565b92915050565b6000819050919050565b610a7281610a5f565b8114610a7d57600080fd5b50565b600081359050610a8f81610a69565b92915050565b60008060408385031215610aac57610aab6109f7565b5b6000610aba85828601610a4a565b9250506020610acb85828601610a80565b9150509250929050565b60008115159050919050565b610aea81610ad5565b82525050565b6000602082019050610b056000830184610ae1565b92915050565b610b1481610a5f565b82525050565b6000602082019050610b2f6000830184610b0b565b92915050565b600080600060608486031215610b4e57610b4d6109f7565b5b6000610b5c86828701610a4a565b9350506020610b6d86828701610a4a565b9250506040610b7e86828701610a80565b9150509250925092565b600060ff82169050919050565b610b9e81610b88565b82525050565b6000602082019050610bb96000830184610b95565b92915050565b600060208284031215610bd557610bd46109f7565b5b6000610be384828501610a4a565b91505092915050565b600080fd5b600080fd5b7f4e487b7100000000000000000000000000000000000000000000000000000000600052604160045260246000fd5b610c2e82610981565b810181811067ffffffffffffffff82111715610c4d57610c4c610bf6565b5b80604052505050565b6000610c606109ed565b9050610c6c8282610c25565b919050565b600067ffffffffffffffff821115610c8c57610c8b610bf6565b5b610c9582610981565b9050602081019050919050565b82818337600083830152505050565b6000610cc4610cbf84610c71565b610c56565b905082815260208101848484011115610ce057610cdf610bf1565b5b610ceb848285610ca2565b509392505050565b600082601f830112610d0857610d07610bec565b5b8135610d18848260208601610cb1565b91505092915050565b600080600060608486031215610d3a57610d396109f7565b5b6000610d4886828701610a4a565b9350506020610d5986828701610a80565b925050604084013567ffffffffffffffff811115610d7a57610d796109fc565b5b610d8686828701610cf3565b9150509250925092565b60008060408385031215610da757610da66109f7565b5b6000610db585828601610a4a565b9250506020610dc685828601610a4a565b9150509250929050565b7f4e487b7100000000000000000000000000000000000000000000000000000000600052602260045260246000fd5b60006002820490506001821680610e1757607f821691505b602082108103610e2a57610e29610dd0565b5b50919050565b7f4e487b7100000000000000000000000000000000000000000000000000000000600052601160045260246000fd5b6000610e6a82610a5f565b9150610e7583610a5f565b925082821015610e8857610e87610e30565b5b828203905092915050565b6000610e9e82610a5f565b9150610ea983610a5f565b9250827fffffffffffffffffffffffffffffffffffffffffffffffffffffffffffffffff03821115610ede57610edd610e30565b5b828201905092915050565b610ef281610a21565b82525050565b600081519050919050565b600082825260208201905092915050565b6000610f1f82610ef8565b610f298185610f03565b9350610f3981856020860161094e565b610f4281610981565b840191505092915050565b6000606082019050610f626000830186610ee9565b610f6f6020830185610b0b565b8181036040830152610f818184610f14565b905094935050505056fea26469706673582212208df0427e9e7b7b5f08e613d7644379d3538c360f2f41b0ac489dedf01f52b20f64736f6c634300080f0033",
					"opcodes": "PUSH1 0x80 PUSH1 0x40 MSTORE CALLVALUE DUP1 ISZERO PUSH2 0x10 JUMPI PUSH1 0x0 DUP1 REVERT JUMPDEST POP PUSH1 0x40 MLOAD PUSH2 0x230E CODESIZE SUB DUP1 PUSH2 0x230E DUP4 CODECOPY DUP2 DUP2 ADD PUSH1 0x40 MSTORE DUP2 ADD SWAP1 PUSH2 0x32 SWAP2 SWAP1 PUSH2 0x1AC JUMP JUMPDEST PUSH1 0x40 MLOAD PUSH2 0x3E SWAP1 PUSH2 0x13C JUMP JUMPDEST PUSH1 0x40 MLOAD DUP1 SWAP2 SUB SWAP1 PUSH1 0x0 CREATE DUP1 ISZERO DUP1 ISZERO PUSH2 0x5A JUMPI RETURNDATASIZE PUSH1 0x0 DUP1 RETURNDATACOPY RETURNDATASIZE PUSH1 0x0 REVERT JUMPDEST POP PUSH1 0x0 DUP1 PUSH2 0x100 EXP DUP2 SLOAD DUP2 PUSH20 0xFFFFFFFFFFFFFFFFFFFFFFFFFFFFFFFFFFFFFFFF MUL NOT AND SWAP1 DUP4 PUSH20 0xFFFFFFFFFFFFFFFFFFFFFFFFFFFFFFFFFFFFFFFF AND MUL OR SWAP1 SSTORE POP PUSH10 0x69E10DE76676D0800000 PUSH1 0x1 PUSH1 0x0 CALLER PUSH20 0xFFFFFFFFFFFFFFFFFFFFFFFFFFFFFFFFFFFFFFFF AND PUSH20 0xFFFFFFFFFFFFFFFFFFFFFFFFFFFFFFFFFFFFFFFF AND DUP2 MSTORE PUSH1 0x20 ADD SWAP1 DUP2 MSTORE PUSH1 0x20 ADD PUSH1 0x0 KECCAK256 DUP2 SWAP1 SSTORE POP PUSH10 0x69E10DE76676D0800000 PUSH1 0x1 PUSH1 0x0 DUP4 PUSH20 0xFFFFFFFFFFFFFFFFFFFFFFFFFFFFFFFFFFFFFFFF AND PUSH20 0xFFFFFFFFFFFFFFFFFFFFFFFFFFFFFFFFFFFFFFFF AND DUP2 MSTORE PUSH1 0x20 ADD SWAP1 DUP2 MSTORE PUSH1 0x20 ADD PUSH1 0x0 KECCAK256 DUP2 SWAP1 SSTORE POP POP PUSH2 0x1D9 JUMP JUMPDEST PUSH2 0x1744 DUP1 PUSH2 0xBCA DUP4 CODECOPY ADD SWAP1 JUMP JUMPDEST PUSH1 0x0 DUP1 REVERT JUMPDEST PUSH1 0x0 PUSH20 0xFFFFFFFFFFFFFFFFFFFFFFFFFFFFFFFFFFFFFFFF DUP3 AND SWAP1 POP SWAP2 SWAP1 POP JUMP JUMPDEST PUSH1 0x0 PUSH2 0x179 DUP3 PUSH2 0x14E JUMP JUMPDEST SWAP1 POP SWAP2 SWAP1 POP JUMP JUMPDEST PUSH2 0x189 DUP2 PUSH2 0x16E JUMP JUMPDEST DUP2 EQ PUSH2 0x194 JUMPI PUSH1 0x0 DUP1 REVERT JUMPDEST POP JUMP JUMPDEST PUSH1 0x0 DUP2 MLOAD SWAP1 POP PUSH2 0x1A6 DUP2 PUSH2 0x180 JUMP JUMPDEST SWAP3 SWAP2 POP POP JUMP JUMPDEST PUSH1 0x0 PUSH1 0x20 DUP3 DUP5 SUB SLT ISZERO PUSH2 0x1C2 JUMPI PUSH2 0x1C1 PUSH2 0x149 JUMP JUMPDEST JUMPDEST PUSH1 0x0 PUSH2 0x1D0 DUP5 DUP3 DUP6 ADD PUSH2 0x197 JUMP JUMPDEST SWAP2 POP POP SWAP3 SWAP2 POP POP JUMP JUMPDEST PUSH2 0x9E2 DUP1 PUSH2 0x1E8 PUSH1 0x0 CODECOPY PUSH1 0x0 RETURN INVALID PUSH1 0x80 PUSH1 0x40 MSTORE CALLVALUE DUP1 ISZERO PUSH2 0x10 JUMPI PUSH1 0x0 DUP1 REVERT JUMPDEST POP PUSH1 0x4 CALLDATASIZE LT PUSH2 0x57 JUMPI PUSH1 0x0 CALLDATALOAD PUSH1 0xE0 SHR DUP1 PUSH4 0x2E1A7D4D EQ PUSH2 0x5C JUMPI DUP1 PUSH4 0x70A08231 EQ PUSH2 0x78 JUMPI DUP1 PUSH4 0xB2FA1C9E EQ PUSH2 0xA8 JUMPI DUP1 PUSH4 0xC0EE0B8A EQ PUSH2 0xC6 JUMPI DUP1 PUSH4 0xFC0C546A EQ PUSH2 0xE2 JUMPI JUMPDEST PUSH1 0x0 DUP1 REVERT JUMPDEST PUSH2 0x76 PUSH1 0x4 DUP1 CALLDATASIZE SUB DUP2 ADD SWAP1 PUSH2 0x71 SWAP2 SWAP1 PUSH2 0x4BE JUMP JUMPDEST PUSH2 0x100 JUMP JUMPDEST STOP JUMPDEST PUSH2 0x92 PUSH1 0x4 DUP1 CALLDATASIZE SUB DUP2 ADD SWAP1 PUSH2 0x8D SWAP2 SWAP1 PUSH2 0x549 JUMP JUMPDEST PUSH2 0x24C JUMP JUMPDEST PUSH1 0x40 MLOAD PUSH2 0x9F SWAP2 SWAP1 PUSH2 0x585 JUMP JUMPDEST PUSH1 0x40 MLOAD DUP1 SWAP2 SUB SWAP1 RETURN JUMPDEST PUSH2 0xB0 PUSH2 0x264 JUMP JUMPDEST PUSH1 0x40 MLOAD PUSH2 0xBD SWAP2 SWAP1 PUSH2 0x5BB JUMP JUMPDEST PUSH1 0x40 MLOAD DUP1 SWAP2 SUB SWAP1 RETURN JUMPDEST PUSH2 0xE0 PUSH1 0x4 DUP1 CALLDATASIZE SUB DUP2 ADD SWAP1 PUSH2 0xDB SWAP2 SWAP1 PUSH2 0x71C JUMP JUMPDEST PUSH2 0x307 JUMP JUMPDEST STOP JUMPDEST PUSH2 0xEA PUSH2 0x450 JUMP JUMPDEST PUSH1 0x40 MLOAD PUSH2 0xF7 SWAP2 SWAP1 PUSH2 0x7EA JUMP JUMPDEST PUSH1 0x40 MLOAD DUP1 SWAP2 SUB SWAP1 RETURN JUMPDEST DUP1 PUSH1 0x1 PUSH1 0x0 CALLER PUSH20 0xFFFFFFFFFFFFFFFFFFFFFFFFFFFFFFFFFFFFFFFF AND PUSH20 0xFFFFFFFFFFFFFFFFFFFFFFFFFFFFFFFFFFFFFFFF AND DUP2 MSTORE PUSH1 0x20 ADD SWAP1 DUP2 MSTORE PUSH1 0x20 ADD PUSH1 0x0 KECCAK256 SLOAD LT ISZERO PUSH2 0x14C JUMPI PUSH1 0x0 DUP1 REVERT JUMPDEST PUSH1 0x0 DUP1 SLOAD SWAP1 PUSH2 0x100 EXP SWAP1 DIV PUSH20 0xFFFFFFFFFFFFFFFFFFFFFFFFFFFFFFFFFFFFFFFF AND PUSH20 0xFFFFFFFFFFFFFFFFFFFFFFFFFFFFFFFFFFFFFFFF AND PUSH4 0xA9059CBB CALLER DUP4 PUSH1 0x40 MLOAD DUP4 PUSH4 0xFFFFFFFF AND PUSH1 0xE0 SHL DUP2 MSTORE PUSH1 0x4 ADD PUSH2 0x1A7 SWAP3 SWAP2 SWAP1 PUSH2 0x814 JUMP JUMPDEST PUSH1 0x20 PUSH1 0x40 MLOAD DUP1 DUP4 SUB DUP2 PUSH1 0x0 DUP8 GAS CALL ISZERO DUP1 ISZERO PUSH2 0x1C6 JUMPI RETURNDATASIZE PUSH1 0x0 DUP1 RETURNDATACOPY RETURNDATASIZE PUSH1 0x0 REVERT JUMPDEST POP POP POP POP PUSH1 0x40 MLOAD RETURNDATASIZE PUSH1 0x1F NOT PUSH1 0x1F DUP3 ADD AND DUP3 ADD DUP1 PUSH1 0x40 MSTORE POP DUP2 ADD SWAP1 PUSH2 0x1EA SWAP2 SWAP1 PUSH2 0x869 JUMP JUMPDEST PUSH2 0x1F3 JUMPI PUSH1 0x0 DUP1 REVERT JUMPDEST DUP1 PUSH1 0x1 PUSH1 0x0 CALLER PUSH20 0xFFFFFFFFFFFFFFFFFFFFFFFFFFFFFFFFFFFFFFFF AND PUSH20 0xFFFFFFFFFFFFFFFFFFFFFFFFFFFFFFFFFFFFFFFF AND DUP2 MSTORE PUSH1 0x20 ADD SWAP1 DUP2 MSTORE PUSH1 0x20 ADD PUSH1 0x0 KECCAK256 PUSH1 0x0 DUP3 DUP3 SLOAD PUSH2 0x242 SWAP2 SWAP1 PUSH2 0x8C5 JUMP JUMPDEST SWAP3 POP POP DUP2 SWAP1 SSTORE POP POP JUMP JUMPDEST PUSH1 0x1 PUSH1 0x20 MSTORE DUP1 PUSH1 0x0 MSTORE PUSH1 0x40 PUSH1 0x0 KECCAK256 PUSH1 0x0 SWAP2 POP SWAP1 POP SLOAD DUP2 JUMP JUMPDEST PUSH1 0x0 DUP1 PUSH1 0x0 DUP1 SLOAD SWAP1 PUSH2 0x100 EXP SWAP1 DIV PUSH20 0xFFFFFFFFFFFFFFFFFFFFFFFFFFFFFFFFFFFFFFFF AND PUSH20 0xFFFFFFFFFFFFFFFFFFFFFFFFFFFFFFFFFFFFFFFF AND PUSH4 0x70A08231 ADDRESS PUSH1 0x40 MLOAD DUP3 PUSH4 0xFFFFFFFF AND PUSH1 0xE0 SHL DUP2 MSTORE PUSH1 0x4 ADD PUSH2 0x2C0 SWAP2 SWAP1 PUSH2 0x8F9 JUMP JUMPDEST PUSH1 0x20 PUSH1 0x40 MLOAD DUP1 DUP4 SUB DUP2 DUP7 GAS STATICCALL ISZERO DUP1 ISZERO PUSH2 0x2DD JUMPI RETURNDATASIZE PUSH1 0x0 DUP1 RETURNDATACOPY RETURNDATASIZE PUSH1 0x0 REVERT JUMPDEST POP POP POP POP PUSH1 0x40 MLOAD RETURNDATASIZE PUSH1 0x1F NOT PUSH1 0x1F DUP3 ADD AND DUP3 ADD DUP1 PUSH1 0x40 MSTORE POP DUP2 ADD SWAP1 PUSH2 0x301 SWAP2 SWAP1 PUSH2 0x929 JUMP JUMPDEST EQ SWAP1 POP SWAP1 JUMP JUMPDEST PUSH1 0x0 DUP1 SLOAD SWAP1 PUSH2 0x100 EXP SWAP1 DIV PUSH20 0xFFFFFFFFFFFFFFFFFFFFFFFFFFFFFFFFFFFFFFFF AND PUSH20 0xFFFFFFFFFFFFFFFFFFFFFFFFFFFFFFFFFFFFFFFF AND CALLER PUSH20 0xFFFFFFFFFFFFFFFFFFFFFFFFFFFFFFFFFFFFFFFF AND EQ PUSH2 0x35F JUMPI PUSH1 0x0 DUP1 REVERT JUMPDEST PUSH1 0x1 PUSH1 0x0 DUP5 PUSH20 0xFFFFFFFFFFFFFFFFFFFFFFFFFFFFFFFFFFFFFFFF AND PUSH20 0xFFFFFFFFFFFFFFFFFFFFFFFFFFFFFFFFFFFFFFFF AND DUP2 MSTORE PUSH1 0x20 ADD SWAP1 DUP2 MSTORE PUSH1 0x20 ADD PUSH1 0x0 KECCAK256 SLOAD DUP3 PUSH1 0x1 PUSH1 0x0 DUP7 PUSH20 0xFFFFFFFFFFFFFFFFFFFFFFFFFFFFFFFFFFFFFFFF AND PUSH20 0xFFFFFFFFFFFFFFFFFFFFFFFFFFFFFFFFFFFFFFFF AND DUP2 MSTORE PUSH1 0x20 ADD SWAP1 DUP2 MSTORE PUSH1 0x20 ADD PUSH1 0x0 KECCAK256 SLOAD PUSH2 0x3EA SWAP2 SWAP1 PUSH2 0x956 JUMP JUMPDEST LT ISZERO PUSH2 0x3F5 JUMPI PUSH1 0x0 DUP1 REVERT JUMPDEST DUP2 PUSH1 0x1 PUSH1 0x0 DUP6 PUSH20 0xFFFFFFFFFFFFFFFFFFFFFFFFFFFFFFFFFFFFFFFF AND PUSH20 0xFFFFFFFFFFFFFFFFFFFFFFFFFFFFFFFFFFFFFFFF AND DUP2 MSTORE PUSH1 0x20 ADD SWAP1 DUP2 MSTORE PUSH1 0x20 ADD PUSH1 0x0 KECCAK256 PUSH1 0x0 DUP3 DUP3 SLOAD PUSH2 0x444 SWAP2 SWAP1 PUSH2 0x956 JUMP JUMPDEST SWAP3 POP POP DUP2 SWAP1 SSTORE POP POP POP POP JUMP JUMPDEST PUSH1 0x0 DUP1 SLOAD SWAP1 PUSH2 0x100 EXP SWAP1 DIV PUSH20 0xFFFFFFFFFFFFFFFFFFFFFFFFFFFFFFFFFFFFFFFF AND DUP2 JUMP JUMPDEST PUSH1 0x0 PUSH1 0x40 MLOAD SWAP1 POP SWAP1 JUMP JUMPDEST PUSH1 0x0 DUP1 REVERT JUMPDEST PUSH1 0x0 DUP1 REVERT JUMPDEST PUSH1 0x0 DUP2 SWAP1 POP SWAP2 SWAP1 POP JUMP JUMPDEST PUSH2 0x49B DUP2 PUSH2 0x488 JUMP JUMPDEST DUP2 EQ PUSH2 0x4A6 JUMPI PUSH1 0x0 DUP1 REVERT JUMPDEST POP JUMP JUMPDEST PUSH1 0x0 DUP2 CALLDATALOAD SWAP1 POP PUSH2 0x4B8 DUP2 PUSH2 0x492 JUMP JUMPDEST SWAP3 SWAP2 POP POP JUMP JUMPDEST PUSH1 0x0 PUSH1 0x20 DUP3 DUP5 SUB SLT ISZERO PUSH2 0x4D4 JUMPI PUSH2 0x4D3 PUSH2 0x47E JUMP JUMPDEST JUMPDEST PUSH1 0x0 PUSH2 0x4E2 DUP5 DUP3 DUP6 ADD PUSH2 0x4A9 JUMP JUMPDEST SWAP2 POP POP SWAP3 SWAP2 POP POP JUMP JUMPDEST PUSH1 0x0 PUSH20 0xFFFFFFFFFFFFFFFFFFFFFFFFFFFFFFFFFFFFFFFF DUP3 AND SWAP1 POP SWAP2 SWAP1 POP JUMP JUMPDEST PUSH1 0x0 PUSH2 0x516 DUP3 PUSH2 0x4EB JUMP JUMPDEST SWAP1 POP SWAP2 SWAP1 POP JUMP JUMPDEST PUSH2 0x526 DUP2 PUSH2 0x50B JUMP JUMPDEST DUP2 EQ PUSH2 0x531 JUMPI PUSH1 0x0 DUP1 REVERT JUMPDEST POP JUMP JUMPDEST PUSH1 0x0 DUP2 CALLDATALOAD SWAP1 POP PUSH2 0x543 DUP2 PUSH2 0x51D JUMP JUMPDEST SWAP3 SWAP2 POP POP JUMP JUMPDEST PUSH1 0x0 PUSH1 0x20 DUP3 DUP5 SUB SLT ISZERO PUSH2 0x55F JUMPI PUSH2 0x55E PUSH2 0x47E JUMP JUMPDEST JUMPDEST PUSH1 0x0 PUSH2 0x56D DUP5 DUP3 DUP6 ADD PUSH2 0x534 JUMP JUMPDEST SWAP2 POP POP SWAP3 SWAP2 POP POP JUMP JUMPDEST PUSH2 0x57F DUP2 PUSH2 0x488 JUMP JUMPDEST DUP3 MSTORE POP POP JUMP JUMPDEST PUSH1 0x0 PUSH1 0x20 DUP3 ADD SWAP1 POP PUSH2 0x59A PUSH1 0x0 DUP4 ADD DUP5 PUSH2 0x576 JUMP JUMPDEST SWAP3 SWAP2 POP POP JUMP JUMPDEST PUSH1 0x0 DUP2 ISZERO ISZERO SWAP1 POP SWAP2 SWAP1 POP JUMP JUMPDEST PUSH2 0x5B5 DUP2 PUSH2 0x5A0 JUMP JUMPDEST DUP3 MSTORE POP POP JUMP JUMPDEST PUSH1 0x0 PUSH1 0x20 DUP3 ADD SWAP1 POP PUSH2 0x5D0 PUSH1 0x0 DUP4 ADD DUP5 PUSH2 0x5AC JUMP JUMPDEST SWAP3 SWAP2 POP POP JUMP JUMPDEST PUSH1 0x0 DUP1 REVERT JUMPDEST PUSH1 0x0 DUP1 REVERT JUMPDEST PUSH1 0x0 PUSH1 0x1F NOT PUSH1 0x1F DUP4 ADD AND SWAP1 POP SWAP2 SWAP1 POP JUMP JUMPDEST PUSH32 0x4E487B7100000000000000000000000000000000000000000000000000000000 PUSH1 0x0 MSTORE PUSH1 0x41 PUSH1 0x4 MSTORE PUSH1 0x24 PUSH1 0x0 REVERT JUMPDEST PUSH2 0x629 DUP3 PUSH2 0x5E0 JUMP JUMPDEST DUP2 ADD DUP2 DUP2 LT PUSH8 0xFFFFFFFFFFFFFFFF DUP3 GT OR ISZERO PUSH2 0x648 JUMPI PUSH2 0x647 PUSH2 0x5F1 JUMP JUMPDEST JUMPDEST DUP1 PUSH1 0x40 MSTORE POP POP POP JUMP JUMPDEST PUSH1 0x0 PUSH2 0x65B PUSH2 0x474 JUMP JUMPDEST SWAP1 POP PUSH2 0x667 DUP3 DUP3 PUSH2 0x620 JUMP JUMPDEST SWAP2 SWAP1 POP JUMP JUMPDEST PUSH1 0x0 PUSH8 0xFFFFFFFFFFFFFFFF DUP3 GT ISZERO PUSH2 0x687 JUMPI PUSH2 0x686 PUSH2 0x5F1 JUMP JUMPDEST JUMPDEST PUSH2 0x690 DUP3 PUSH2 0x5E0 JUMP JUMPDEST SWAP1 POP PUSH1 0x20 DUP2 ADD SWAP1 POP SWAP2 SWAP1 POP JUMP JUMPDEST DUP3 DUP2 DUP4 CALLDATACOPY PUSH1 0x0 DUP4 DUP4 ADD MSTORE POP POP POP JUMP JUMPDEST PUSH1 0x0 PUSH2 0x6BF PUSH2 0x6BA DUP5 PUSH2 0x66C JUMP JUMPDEST PUSH2 0x651 JUMP JUMPDEST SWAP1 POP DUP3 DUP2 MSTORE PUSH1 0x20 DUP2 ADD DUP5 DUP5 DUP5 ADD GT ISZERO PUSH2 0x6DB JUMPI PUSH2 0x6DA PUSH2 0x5DB JUMP JUMPDEST JUMPDEST PUSH2 0x6E6 DUP5 DUP3 DUP6 PUSH2 0x69D JUMP JUMPDEST POP SWAP4 SWAP3 POP POP POP JUMP JUMPDEST PUSH1 0x0 DUP3 PUSH1 0x1F DUP4 ADD SLT PUSH2 0x703 JUMPI PUSH2 0x702 PUSH2 0x5D6 JUMP JUMPDEST JUMPDEST DUP2 CALLDATALOAD PUSH2 0x713 DUP5 DUP3 PUSH1 0x20 DUP7 ADD PUSH2 0x6AC JUMP JUMPDEST SWAP2 POP POP SWAP3 SWAP2 POP POP JUMP JUMPDEST PUSH1 0x0 DUP1 PUSH1 0x0 PUSH1 0x60 DUP5 DUP7 SUB SLT ISZERO PUSH2 0x735 JUMPI PUSH2 0x734 PUSH2 0x47E JUMP JUMPDEST JUMPDEST PUSH1 0x0 PUSH2 0x743 DUP7 DUP3 DUP8 ADD PUSH2 0x534 JUMP JUMPDEST SWAP4 POP POP PUSH1 0x20 PUSH2 0x754 DUP7 DUP3 DUP8 ADD PUSH2 0x4A9 JUMP JUMPDEST SWAP3 POP POP PUSH1 0x40 DUP5 ADD CALLDATALOAD PUSH8 0xFFFFFFFFFFFFFFFF DUP2 GT ISZERO PUSH2 0x775 JUMPI PUSH2 0x774 PUSH2 0x483 JUMP JUMPDEST JUMPDEST PUSH2 0x781 DUP7 DUP3 DUP8 ADD PUSH2 0x6EE JUMP JUMPDEST SWAP2 POP POP SWAP3 POP SWAP3 POP SWAP3 JUMP JUMPDEST PUSH1 0x0 DUP2 SWAP1 POP SWAP2 SWAP1 POP JUMP JUMPDEST PUSH1 0x0 PUSH2 0x7B0 PUSH2 0x7AB PUSH2 0x7A6 DUP5 PUSH2 0x4EB JUMP JUMPDEST PUSH2 0x78B JUMP JUMPDEST PUSH2 0x4EB JUMP JUMPDEST SWAP1 POP SWAP2 SWAP1 POP JUMP JUMPDEST PUSH1 0x0 PUSH2 0x7C2 DUP3 PUSH2 0x795 JUMP JUMPDEST SWAP1 POP SWAP2 SWAP1 POP JUMP JUMPDEST PUSH1 0x0 PUSH2 0x7D4 DUP3 PUSH2 0x7B7 JUMP JUMPDEST SWAP1 POP SWAP2 SWAP1 POP JUMP JUMPDEST PUSH2 0x7E4 DUP2 PUSH2 0x7C9 JUMP JUMPDEST DUP3 MSTORE POP POP JUMP JUMPDEST PUSH1 0x0 PUSH1 0x20 DUP3 ADD SWAP1 POP PUSH2 0x7FF PUSH1 0x0 DUP4 ADD DUP5 PUSH2 0x7DB JUMP JUMPDEST SWAP3 SWAP2 POP POP JUMP JUMPDEST PUSH2 0x80E DUP2 PUSH2 0x50B JUMP JUMPDEST DUP3 MSTORE POP POP JUMP JUMPDEST PUSH1 0x0 PUSH1 0x40 DUP3 ADD SWAP1 POP PUSH2 0x829 PUSH1 0x0 DUP4 ADD DUP6 PUSH2 0x805 JUMP JUMPDEST PUSH2 0x836 PUSH1 0x20 DUP4 ADD DUP5 PUSH2 0x576 JUMP JUMPDEST SWAP4 SWAP3 POP POP POP JUMP JUMPDEST PUSH2 0x846 DUP2 PUSH2 0x5A0 JUMP JUMPDEST DUP2 EQ PUSH2 0x851 JUMPI PUSH1 0x0 DUP1 REVERT JUMPDEST POP JUMP JUMPDEST PUSH1 0x0 DUP2 MLOAD SWAP1 POP PUSH2 0x863 DUP2 PUSH2 0x83D JUMP JUMPDEST SWAP3 SWAP2 POP POP JUMP JUMPDEST PUSH1 0x0 PUSH1 0x20 DUP3 DUP5 SUB SLT ISZERO PUSH2 0x87F JUMPI PUSH2 0x87E PUSH2 0x47E JUMP JUMPDEST JUMPDEST PUSH1 0x0 PUSH2 0x88D DUP5 DUP3 DUP6 ADD PUSH2 0x854 JUMP JUMPDEST SWAP2 POP POP SWAP3 SWAP2 POP POP JUMP JUMPDEST PUSH32 0x4E487B7100000000000000000000000000000000000000000000000000000000 PUSH1 0x0 MSTORE PUSH1 0x11 PUSH1 0x4 MSTORE PUSH1 0x24 PUSH1 0x0 REVERT JUMPDEST PUSH1 0x0 PUSH2 0x8D0 DUP3 PUSH2 0x488 JUMP JUMPDEST SWAP2 POP PUSH2 0x8DB DUP4 PUSH2 0x488 JUMP JUMPDEST SWAP3 POP DUP3 DUP3 LT ISZERO PUSH2 0x8EE JUMPI PUSH2 0x8ED PUSH2 0x896 JUMP JUMPDEST JUMPDEST DUP3 DUP3 SUB SWAP1 POP SWAP3 SWAP2 POP POP JUMP JUMPDEST PUSH1 0x0 PUSH1 0x20 DUP3 ADD SWAP1 POP PUSH2 0x90E PUSH1 0x0 DUP4 ADD DUP5 PUSH2 0x805 JUMP JUMPDEST SWAP3 SWAP2 POP POP JUMP JUMPDEST PUSH1 0x0 DUP2 MLOAD SWAP1 POP PUSH2 0x923 DUP2 PUSH2 0x492 JUMP JUMPDEST SWAP3 SWAP2 POP POP JUMP JUMPDEST PUSH1 0x0 PUSH1 0x20 DUP3 DUP5 SUB SLT ISZERO PUSH2 0x93F JUMPI PUSH2 0x93E PUSH2 0x47E JUMP JUMPDEST JUMPDEST PUSH1 0x0 PUSH2 0x94D DUP5 DUP3 DUP6 ADD PUSH2 0x914 JUMP JUMPDEST SWAP2 POP POP SWAP3 SWAP2 POP POP JUMP JUMPDEST PUSH1 0x0 PUSH2 0x961 DUP3 PUSH2 0x488 JUMP JUMPDEST SWAP2 POP PUSH2 0x96C DUP4 PUSH2 0x488 JUMP JUMPDEST SWAP3 POP DUP3 PUSH32 0xFFFFFFFFFFFFFFFFFFFFFFFFFFFFFFFFFFFFFFFFFFFFFFFFFFFFFFFFFFFFFFFF SUB DUP3 GT ISZERO PUSH2 0x9A1 JUMPI PUSH2 0x9A0 PUSH2 0x896 JUMP JUMPDEST JUMPDEST DUP3 DUP3 ADD SWAP1 POP SWAP3 SWAP2 POP POP JUMP INVALID LOG2 PUSH5 0x6970667358 0x22 SLT KECCAK256 0xBD LOG0 0xBB CALL ORIGIN DIV CODECOPY CALLVALUE GASLIMIT ISZERO XOR ORIGIN SHL CALL CALLVALUE 0xBB SELFBALANCE 0xBB DUP2 EXTCODEHASH CALLVALUE 0x2E 0xAA 0xF8 CALLDATALOAD SWAP1 0xBD 0xBD 0x49 0xBF 0xFB AND PUSH5 0x736F6C6343 STOP ADDMOD 0xF STOP CALLER PUSH1 0x80 PUSH1 0x40 MSTORE PUSH1 0x40 MLOAD DUP1 PUSH1 0x40 ADD PUSH1 0x40 MSTORE DUP1 PUSH1 0x13 DUP2 MSTORE PUSH1 0x20 ADD PUSH32 0x53696D706C652045524332323320546F6B656E00000000000000000000000000 DUP2 MSTORE POP PUSH1 0x1 SWAP1 DUP2 PUSH3 0x4A SWAP2 SWAP1 PUSH3 0x41C JUMP JUMPDEST POP PUSH1 0x40 MLOAD DUP1 PUSH1 0x40 ADD PUSH1 0x40 MSTORE DUP1 PUSH1 0x3 DUP2 MSTORE PUSH1 0x20 ADD PUSH32 0x5345540000000000000000000000000000000000000000000000000000000000 DUP2 MSTORE POP PUSH1 0x2 SWAP1 DUP2 PUSH3 0x91 SWAP2 SWAP1 PUSH3 0x41C JUMP JUMPDEST POP PUSH1 0x12 PUSH1 0x3 PUSH1 0x0 PUSH2 0x100 EXP DUP2 SLOAD DUP2 PUSH1 0xFF MUL NOT AND SWAP1 DUP4 PUSH1 0xFF AND MUL OR SWAP1 SSTORE POP PUSH1 0x3 PUSH1 0x0 SWAP1 SLOAD SWAP1 PUSH2 0x100 EXP SWAP1 DIV PUSH1 0xFF AND PUSH1 0xA PUSH3 0xCC SWAP2 SWAP1 PUSH3 0x693 JUMP JUMPDEST PUSH3 0xF4240 PUSH3 0xDC SWAP2 SWAP1 PUSH3 0x6E4 JUMP JUMPDEST PUSH1 0x4 SSTORE CALLVALUE DUP1 ISZERO PUSH3 0xEC JUMPI PUSH1 0x0 DUP1 REVERT JUMPDEST POP PUSH1 0x4 SLOAD PUSH1 0x0 DUP1 CALLER PUSH20 0xFFFFFFFFFFFFFFFFFFFFFFFFFFFFFFFFFFFFFFFF AND PUSH20 0xFFFFFFFFFFFFFFFFFFFFFFFFFFFFFFFFFFFFFFFF AND DUP2 MSTORE PUSH1 0x20 ADD SWAP1 DUP2 MSTORE PUSH1 0x20 ADD PUSH1 0x0 KECCAK256 DUP2 SWAP1 SSTORE POP CALLER PUSH20 0xFFFFFFFFFFFFFFFFFFFFFFFFFFFFFFFFFFFFFFFF AND PUSH1 0x0 PUSH20 0xFFFFFFFFFFFFFFFFFFFFFFFFFFFFFFFFFFFFFFFF AND PUSH32 0xDDF252AD1BE2C89B69C2B068FC378DAA952BA7F163C4A11628F55A4DF523B3EF PUSH1 0x4 SLOAD PUSH1 0x40 MLOAD PUSH3 0x194 SWAP2 SWAP1 PUSH3 0x756 JUMP JUMPDEST PUSH1 0x40 MLOAD DUP1 SWAP2 SUB SWAP1 LOG3 PUSH3 0x773 JUMP JUMPDEST PUSH1 0x0 DUP2 MLOAD SWAP1 POP SWAP2 SWAP1 POP JUMP JUMPDEST PUSH32 0x4E487B7100000000000000000000000000000000000000000000000000000000 PUSH1 0x0 MSTORE PUSH1 0x41 PUSH1 0x4 MSTORE PUSH1 0x24 PUSH1 0x0 REVERT JUMPDEST PUSH32 0x4E487B7100000000000000000000000000000000000000000000000000000000 PUSH1 0x0 MSTORE PUSH1 0x22 PUSH1 0x4 MSTORE PUSH1 0x24 PUSH1 0x0 REVERT JUMPDEST PUSH1 0x0 PUSH1 0x2 DUP3 DIV SWAP1 POP PUSH1 0x1 DUP3 AND DUP1 PUSH3 0x224 JUMPI PUSH1 0x7F DUP3 AND SWAP2 POP JUMPDEST PUSH1 0x20 DUP3 LT DUP2 SUB PUSH3 0x23A JUMPI PUSH3 0x239 PUSH3 0x1DC JUMP JUMPDEST JUMPDEST POP SWAP2 SWAP1 POP JUMP JUMPDEST PUSH1 0x0 DUP2 SWAP1 POP DUP2 PUSH1 0x0 MSTORE PUSH1 0x20 PUSH1 0x0 KECCAK256 SWAP1 POP SWAP2 SWAP1 POP JUMP JUMPDEST PUSH1 0x0 PUSH1 0x20 PUSH1 0x1F DUP4 ADD DIV SWAP1 POP SWAP2 SWAP1 POP JUMP JUMPDEST PUSH1 0x0 DUP3 DUP3 SHL SWAP1 POP SWAP3 SWAP2 POP POP JUMP JUMPDEST PUSH1 0x0 PUSH1 0x8 DUP4 MUL PUSH3 0x2A4 PUSH32 0xFFFFFFFFFFFFFFFFFFFFFFFFFFFFFFFFFFFFFFFFFFFFFFFFFFFFFFFFFFFFFFFF DUP3 PUSH3 0x265 JUMP JUMPDEST PUSH3 0x2B0 DUP7 DUP4 PUSH3 0x265 JUMP JUMPDEST SWAP6 POP DUP1 NOT DUP5 AND SWAP4 POP DUP1 DUP7 AND DUP5 OR SWAP3 POP POP POP SWAP4 SWAP3 POP POP POP JUMP JUMPDEST PUSH1 0x0 DUP2 SWAP1 POP SWAP2 SWAP1 POP JUMP JUMPDEST PUSH1 0x0 DUP2 SWAP1 POP SWAP2 SWAP1 POP JUMP JUMPDEST PUSH1 0x0 PUSH3 0x2FD PUSH3 0x2F7 PUSH3 0x2F1 DUP5 PUSH3 0x2C8 JUMP JUMPDEST PUSH3 0x2D2 JUMP JUMPDEST PUSH3 0x2C8 JUMP JUMPDEST SWAP1 POP SWAP2 SWAP1 POP JUMP JUMPDEST PUSH1 0x0 DUP2 SWAP1 POP SWAP2 SWAP1 POP JUMP JUMPDEST PUSH3 0x319 DUP4 PUSH3 0x2DC JUMP JUMPDEST PUSH3 0x331 PUSH3 0x328 DUP3 PUSH3 0x304 JUMP JUMPDEST DUP5 DUP5 SLOAD PUSH3 0x272 JUMP JUMPDEST DUP3 SSTORE POP POP POP POP JUMP JUMPDEST PUSH1 0x0 SWAP1 JUMP JUMPDEST PUSH3 0x348 PUSH3 0x339 JUMP JUMPDEST PUSH3 0x355 DUP2 DUP5 DUP5 PUSH3 0x30E JUMP JUMPDEST POP POP POP JUMP JUMPDEST JUMPDEST DUP2 DUP2 LT ISZERO PUSH3 0x37D JUMPI PUSH3 0x371 PUSH1 0x0 DUP3 PUSH3 0x33E JUMP JUMPDEST PUSH1 0x1 DUP2 ADD SWAP1 POP PUSH3 0x35B JUMP JUMPDEST POP POP JUMP JUMPDEST PUSH1 0x1F DUP3 GT ISZERO PUSH3 0x3CC JUMPI PUSH3 0x396 DUP2 PUSH3 0x240 JUMP JUMPDEST PUSH3 0x3A1 DUP5 PUSH3 0x255 JUMP JUMPDEST DUP2 ADD PUSH1 0x20 DUP6 LT ISZERO PUSH3 0x3B1 JUMPI DUP2 SWAP1 POP JUMPDEST PUSH3 0x3C9 PUSH3 0x3C0 DUP6 PUSH3 0x255 JUMP JUMPDEST DUP4 ADD DUP3 PUSH3 0x35A JUMP JUMPDEST POP POP JUMPDEST POP POP POP JUMP JUMPDEST PUSH1 0x0 DUP3 DUP3 SHR SWAP1 POP SWAP3 SWAP2 POP POP JUMP JUMPDEST PUSH1 0x0 PUSH3 0x3F1 PUSH1 0x0 NOT DUP5 PUSH1 0x8 MUL PUSH3 0x3D1 JUMP JUMPDEST NOT DUP1 DUP4 AND SWAP2 POP POP SWAP3 SWAP2 POP POP JUMP JUMPDEST PUSH1 0x0 PUSH3 0x40C DUP4 DUP4 PUSH3 0x3DE JUMP JUMPDEST SWAP2 POP DUP3 PUSH1 0x2 MUL DUP3 OR SWAP1 POP SWAP3 SWAP2 POP POP JUMP JUMPDEST PUSH3 0x427 DUP3 PUSH3 0x1A2 JUMP JUMPDEST PUSH8 0xFFFFFFFFFFFFFFFF DUP2 GT ISZERO PUSH3 0x443 JUMPI PUSH3 0x442 PUSH3 0x1AD JUMP JUMPDEST JUMPDEST PUSH3 0x44F DUP3 SLOAD PUSH3 0x20B JUMP JUMPDEST PUSH3 0x45C DUP3 DUP3 DUP6 PUSH3 0x381 JUMP JUMPDEST PUSH1 0x0 PUSH1 0x20 SWAP1 POP PUSH1 0x1F DUP4 GT PUSH1 0x1 DUP2 EQ PUSH3 0x494 JUMPI PUSH1 0x0 DUP5 ISZERO PUSH3 0x47F JUMPI DUP3 DUP8 ADD MLOAD SWAP1 POP JUMPDEST PUSH3 0x48B DUP6 DUP3 PUSH3 0x3FE JUMP JUMPDEST DUP7 SSTORE POP PUSH3 0x4FB JUMP JUMPDEST PUSH1 0x1F NOT DUP5 AND PUSH3 0x4A4 DUP7 PUSH3 0x240 JUMP JUMPDEST PUSH1 0x0 JUMPDEST DUP3 DUP2 LT ISZERO PUSH3 0x4CE JUMPI DUP5 DUP10 ADD MLOAD DUP3 SSTORE PUSH1 0x1 DUP3 ADD SWAP2 POP PUSH1 0x20 DUP6 ADD SWAP5 POP PUSH1 0x20 DUP2 ADD SWAP1 POP PUSH3 0x4A7 JUMP JUMPDEST DUP7 DUP4 LT ISZERO PUSH3 0x4EE JUMPI DUP5 DUP10 ADD MLOAD PUSH3 0x4EA PUSH1 0x1F DUP10 AND DUP3 PUSH3 0x3DE JUMP JUMPDEST DUP4 SSTORE POP JUMPDEST PUSH1 0x1 PUSH1 0x2 DUP9 MUL ADD DUP9 SSTORE POP POP POP JUMPDEST POP POP POP POP POP POP JUMP JUMPDEST PUSH32 0x4E487B7100000000000000000000000000000000000000000000000000000000 PUSH1 0x0 MSTORE PUSH1 0x11 PUSH1 0x4 MSTORE PUSH1 0x24 PUSH1 0x0 REVERT JUMPDEST PUSH1 0x0 DUP2 PUSH1 0x1 SHR SWAP1 POP SWAP2 SWAP1 POP JUMP JUMPDEST PUSH1 0x0 DUP1 DUP3 SWAP2 POP DUP4 SWAP1 POP JUMPDEST PUSH1 0x1 DUP6 GT ISZERO PUSH3 0x591 JUMPI DUP1 DUP7 DIV DUP2 GT ISZERO PUSH3 0x569 JUMPI PUSH3 0x568 PUSH3 0x503 JUMP JUMPDEST JUMPDEST PUSH1 0x1 DUP6 AND ISZERO PUSH3 0x579 JUMPI DUP1 DUP3 MUL SWAP2 POP JUMPDEST DUP1 DUP2 MUL SWAP1 POP PUSH3 0x589 DUP6 PUSH3 0x532 JUMP JUMPDEST SWAP5 POP PUSH3 0x549 JUMP JUMPDEST SWAP5 POP SWAP5 SWAP3 POP POP POP JUMP JUMPDEST PUSH1 0x0 DUP3 PUSH3 0x5AC JUMPI PUSH1 0x1 SWAP1 POP PUSH3 0x67F JUMP JUMPDEST DUP2 PUSH3 0x5BC JUMPI PUSH1 0x0 SWAP1 POP PUSH3 0x67F JUMP JUMPDEST DUP2 PUSH1 0x1 DUP2 EQ PUSH3 0x5D5 JUMPI PUSH1 0x2 DUP2 EQ PUSH3 0x5E0 JUMPI PUSH3 0x616 JUMP JUMPDEST PUSH1 0x1 SWAP2 POP POP PUSH3 0x67F JUMP JUMPDEST PUSH1 0xFF DUP5 GT ISZERO PUSH3 0x5F5 JUMPI PUSH3 0x5F4 PUSH3 0x503 JUMP JUMPDEST JUMPDEST DUP4 PUSH1 0x2 EXP SWAP2 POP DUP5 DUP3 GT ISZERO PUSH3 0x60F JUMPI PUSH3 0x60E PUSH3 0x503 JUMP JUMPDEST JUMPDEST POP PUSH3 0x67F JUMP JUMPDEST POP PUSH1 0x20 DUP4 LT PUSH2 0x133 DUP4 LT AND PUSH1 0x4E DUP5 LT PUSH1 0xB DUP5 LT AND OR ISZERO PUSH3 0x650 JUMPI DUP3 DUP3 EXP SWAP1 POP DUP4 DUP2 GT ISZERO PUSH3 0x64A JUMPI PUSH3 0x649 PUSH3 0x503 JUMP JUMPDEST JUMPDEST PUSH3 0x67F JUMP JUMPDEST PUSH3 0x65F DUP5 DUP5 DUP5 PUSH1 0x1 PUSH3 0x53F JUMP JUMPDEST SWAP3 POP SWAP1 POP DUP2 DUP5 DIV DUP2 GT ISZERO PUSH3 0x679 JUMPI PUSH3 0x678 PUSH3 0x503 JUMP JUMPDEST JUMPDEST DUP2 DUP2 MUL SWAP1 POP JUMPDEST SWAP4 SWAP3 POP POP POP JUMP JUMPDEST PUSH1 0x0 PUSH1 0xFF DUP3 AND SWAP1 POP SWAP2 SWAP1 POP JUMP JUMPDEST PUSH1 0x0 PUSH3 0x6A0 DUP3 PUSH3 0x2C8 JUMP JUMPDEST SWAP2 POP PUSH3 0x6AD DUP4 PUSH3 0x686 JUMP JUMPDEST SWAP3 POP PUSH3 0x6DC PUSH32 0xFFFFFFFFFFFFFFFFFFFFFFFFFFFFFFFFFFFFFFFFFFFFFFFFFFFFFFFFFFFFFFFF DUP5 DUP5 PUSH3 0x59A JUMP JUMPDEST SWAP1 POP SWAP3 SWAP2 POP POP JUMP JUMPDEST PUSH1 0x0 PUSH3 0x6F1 DUP3 PUSH3 0x2C8 JUMP JUMPDEST SWAP2 POP PUSH3 0x6FE DUP4 PUSH3 0x2C8 JUMP JUMPDEST SWAP3 POP DUP2 PUSH32 0xFFFFFFFFFFFFFFFFFFFFFFFFFFFFFFFFFFFFFFFFFFFFFFFFFFFFFFFFFFFFFFFF DIV DUP4 GT DUP3 ISZERO ISZERO AND ISZERO PUSH3 0x73A JUMPI PUSH3 0x739 PUSH3 0x503 JUMP JUMPDEST JUMPDEST DUP3 DUP3 MUL SWAP1 POP SWAP3 SWAP2 POP POP JUMP JUMPDEST PUSH3 0x750 DUP2 PUSH3 0x2C8 JUMP JUMPDEST DUP3 MSTORE POP POP JUMP JUMPDEST PUSH1 0x0 PUSH1 0x20 DUP3 ADD SWAP1 POP PUSH3 0x76D PUSH1 0x0 DUP4 ADD DUP5 PUSH3 0x745 JUMP JUMPDEST SWAP3 SWAP2 POP POP JUMP JUMPDEST PUSH2 0xFC1 DUP1 PUSH3 0x783 PUSH1 0x0 CODECOPY PUSH1 0x0 RETURN INVALID PUSH1 0x80 PUSH1 0x40 MSTORE CALLVALUE DUP1 ISZERO PUSH2 0x10 JUMPI PUSH1 0x0 DUP1 REVERT JUMPDEST POP PUSH1 0x4 CALLDATASIZE LT PUSH2 0x9E JUMPI PUSH1 0x0 CALLDATALOAD PUSH1 0xE0 SHR DUP1 PUSH4 0x70A08231 GT PUSH2 0x66 JUMPI DUP1 PUSH4 0x70A08231 EQ PUSH2 0x15D JUMPI DUP1 PUSH4 0x95D89B41 EQ PUSH2 0x18D JUMPI DUP1 PUSH4 0xA9059CBB EQ PUSH2 0x1AB JUMPI DUP1 PUSH4 0xBE45FD62 EQ PUSH2 0x1DB JUMPI DUP1 PUSH4 0xDD62ED3E EQ PUSH2 0x20B JUMPI PUSH2 0x9E JUMP JUMPDEST DUP1 PUSH4 0x6FDDE03 EQ PUSH2 0xA3 JUMPI DUP1 PUSH4 0x95EA7B3 EQ PUSH2 0xC1 JUMPI DUP1 PUSH4 0x18160DDD EQ PUSH2 0xF1 JUMPI DUP1 PUSH4 0x23B872DD EQ PUSH2 0x10F JUMPI DUP1 PUSH4 0x313CE567 EQ PUSH2 0x13F JUMPI JUMPDEST PUSH1 0x0 DUP1 REVERT JUMPDEST PUSH2 0xAB PUSH2 0x23B JUMP JUMPDEST PUSH1 0x40 MLOAD PUSH2 0xB8 SWAP2 SWAP1 PUSH2 0x9CB JUMP JUMPDEST PUSH1 0x40 MLOAD DUP1 SWAP2 SUB SWAP1 RETURN JUMPDEST PUSH2 0xDB PUSH1 0x4 DUP1 CALLDATASIZE SUB DUP2 ADD SWAP1 PUSH2 0xD6 SWAP2 SWAP1 PUSH2 0xA95 JUMP JUMPDEST PUSH2 0x2C9 JUMP JUMPDEST PUSH1 0x40 MLOAD PUSH2 0xE8 SWAP2 SWAP1 PUSH2 0xAF0 JUMP JUMPDEST PUSH1 0x40 MLOAD DUP1 SWAP2 SUB SWAP1 RETURN JUMPDEST PUSH2 0xF9 PUSH2 0x3BB JUMP JUMPDEST PUSH1 0x40 MLOAD PUSH2 0x106 SWAP2 SWAP1 PUSH2 0xB1A JUMP JUMPDEST PUSH1 0x40 MLOAD DUP1 SWAP2 SUB SWAP1 RETURN JUMPDEST PUSH2 0x129 PUSH1 0x4 DUP1 CALLDATASIZE SUB DUP2 ADD SWAP1 PUSH2 0x124 SWAP2 SWAP1 PUSH2 0xB35 JUMP JUMPDEST PUSH2 0x3C1 JUMP JUMPDEST PUSH1 0x40 MLOAD PUSH2 0x136 SWAP2 SWAP1 PUSH2 0xAF0 JUMP JUMPDEST PUSH1 0x40 MLOAD DUP1 SWAP2 SUB SWAP1 RETURN JUMPDEST PUSH2 0x147 PUSH2 0x644 JUMP JUMPDEST PUSH1 0x40 MLOAD PUSH2 0x154 SWAP2 SWAP1 PUSH2 0xBA4 JUMP JUMPDEST PUSH1 0x40 MLOAD DUP1 SWAP2 SUB SWAP1 RETURN JUMPDEST PUSH2 0x177 PUSH1 0x4 DUP1 CALLDATASIZE SUB DUP2 ADD SWAP1 PUSH2 0x172 SWAP2 SWAP1 PUSH2 0xBBF JUMP JUMPDEST PUSH2 0x657 JUMP JUMPDEST PUSH1 0x40 MLOAD PUSH2 0x184 SWAP2 SWAP1 PUSH2 0xB1A JUMP JUMPDEST PUSH1 0x40 MLOAD DUP1 SWAP2 SUB SWAP1 RETURN JUMPDEST PUSH2 0x195 PUSH2 0x66F JUMP JUMPDEST PUSH1 0x40 MLOAD PUSH2 0x1A2 SWAP2 SWAP1 PUSH2 0x9CB JUMP JUMPDEST PUSH1 0x40 MLOAD DUP1 SWAP2 SUB SWAP1 RETURN JUMPDEST PUSH2 0x1C5 PUSH1 0x4 DUP1 CALLDATASIZE SUB DUP2 ADD SWAP1 PUSH2 0x1C0 SWAP2 SWAP1 PUSH2 0xA95 JUMP JUMPDEST PUSH2 0x6FD JUMP JUMPDEST PUSH1 0x40 MLOAD PUSH2 0x1D2 SWAP2 SWAP1 PUSH2 0xAF0 JUMP JUMPDEST PUSH1 0x40 MLOAD DUP1 SWAP2 SUB SWAP1 RETURN JUMPDEST PUSH2 0x1F5 PUSH1 0x4 DUP1 CALLDATASIZE SUB DUP2 ADD SWAP1 PUSH2 0x1F0 SWAP2 SWAP1 PUSH2 0xD21 JUMP JUMPDEST PUSH2 0x715 JUMP JUMPDEST PUSH1 0x40 MLOAD PUSH2 0x202 SWAP2 SWAP1 PUSH2 0xAF0 JUMP JUMPDEST PUSH1 0x40 MLOAD DUP1 SWAP2 SUB SWAP1 RETURN JUMPDEST PUSH2 0x225 PUSH1 0x4 DUP1 CALLDATASIZE SUB DUP2 ADD SWAP1 PUSH2 0x220 SWAP2 SWAP1 PUSH2 0xD90 JUMP JUMPDEST PUSH2 0x8FA JUMP JUMPDEST PUSH1 0x40 MLOAD PUSH2 0x232 SWAP2 SWAP1 PUSH2 0xB1A JUMP JUMPDEST PUSH1 0x40 MLOAD DUP1 SWAP2 SUB SWAP1 RETURN JUMPDEST PUSH1 0x1 DUP1 SLOAD PUSH2 0x248 SWAP1 PUSH2 0xDFF JUMP JUMPDEST DUP1 PUSH1 0x1F ADD PUSH1 0x20 DUP1 SWAP2 DIV MUL PUSH1 0x20 ADD PUSH1 0x40 MLOAD SWAP1 DUP2 ADD PUSH1 0x40 MSTORE DUP1 SWAP3 SWAP2 SWAP1 DUP2 DUP2 MSTORE PUSH1 0x20 ADD DUP3 DUP1 SLOAD PUSH2 0x274 SWAP1 PUSH2 0xDFF JUMP JUMPDEST DUP1 ISZERO PUSH2 0x2C1 JUMPI DUP1 PUSH1 0x1F LT PUSH2 0x296 JUMPI PUSH2 0x100 DUP1 DUP4 SLOAD DIV MUL DUP4 MSTORE SWAP2 PUSH1 0x20 ADD SWAP2 PUSH2 0x2C1 JUMP JUMPDEST DUP3 ADD SWAP2 SWAP1 PUSH1 0x0 MSTORE PUSH1 0x20 PUSH1 0x0 KECCAK256 SWAP1 JUMPDEST DUP2 SLOAD DUP2 MSTORE SWAP1 PUSH1 0x1 ADD SWAP1 PUSH1 0x20 ADD DUP1 DUP4 GT PUSH2 0x2A4 JUMPI DUP3 SWAP1 SUB PUSH1 0x1F AND DUP3 ADD SWAP2 JUMPDEST POP POP POP POP POP DUP2 JUMP JUMPDEST PUSH1 0x0 DUP2 PUSH1 0x5 PUSH1 0x0 CALLER PUSH20 0xFFFFFFFFFFFFFFFFFFFFFFFFFFFFFFFFFFFFFFFF AND PUSH20 0xFFFFFFFFFFFFFFFFFFFFFFFFFFFFFFFFFFFFFFFF AND DUP2 MSTORE PUSH1 0x20 ADD SWAP1 DUP2 MSTORE PUSH1 0x20 ADD PUSH1 0x0 KECCAK256 PUSH1 0x0 DUP6 PUSH20 0xFFFFFFFFFFFFFFFFFFFFFFFFFFFFFFFFFFFFFFFF AND PUSH20 0xFFFFFFFFFFFFFFFFFFFFFFFFFFFFFFFFFFFFFFFF AND DUP2 MSTORE PUSH1 0x20 ADD SWAP1 DUP2 MSTORE PUSH1 0x20 ADD PUSH1 0x0 KECCAK256 DUP2 SWAP1 SSTORE POP DUP3 PUSH20 0xFFFFFFFFFFFFFFFFFFFFFFFFFFFFFFFFFFFFFFFF AND CALLER PUSH20 0xFFFFFFFFFFFFFFFFFFFFFFFFFFFFFFFFFFFFFFFF AND PUSH32 0x8C5BE1E5EBEC7D5BD14F71427D1E84F3DD0314C0F7B2291E5B200AC8C7C3B925 DUP5 PUSH1 0x40 MLOAD PUSH2 0x3A9 SWAP2 SWAP1 PUSH2 0xB1A JUMP JUMPDEST PUSH1 0x40 MLOAD DUP1 SWAP2 SUB SWAP1 LOG3 PUSH1 0x1 SWAP1 POP SWAP3 SWAP2 POP POP JUMP JUMPDEST PUSH1 0x4 SLOAD DUP2 JUMP JUMPDEST PUSH1 0x0 DUP1 PUSH1 0x0 DUP6 PUSH20 0xFFFFFFFFFFFFFFFFFFFFFFFFFFFFFFFFFFFFFFFF AND PUSH20 0xFFFFFFFFFFFFFFFFFFFFFFFFFFFFFFFFFFFFFFFF AND DUP2 MSTORE PUSH1 0x20 ADD SWAP1 DUP2 MSTORE PUSH1 0x20 ADD PUSH1 0x0 KECCAK256 SLOAD DUP3 GT ISZERO PUSH2 0x40E JUMPI PUSH1 0x0 DUP1 REVERT JUMPDEST PUSH1 0x5 PUSH1 0x0 DUP6 PUSH20 0xFFFFFFFFFFFFFFFFFFFFFFFFFFFFFFFFFFFFFFFF AND PUSH20 0xFFFFFFFFFFFFFFFFFFFFFFFFFFFFFFFFFFFFFFFF AND DUP2 MSTORE PUSH1 0x20 ADD SWAP1 DUP2 MSTORE PUSH1 0x20 ADD PUSH1 0x0 KECCAK256 PUSH1 0x0 CALLER PUSH20 0xFFFFFFFFFFFFFFFFFFFFFFFFFFFFFFFFFFFFFFFF AND PUSH20 0xFFFFFFFFFFFFFFFFFFFFFFFFFFFFFFFFFFFFFFFF AND DUP2 MSTORE PUSH1 0x20 ADD SWAP1 DUP2 MSTORE PUSH1 0x20 ADD PUSH1 0x0 KECCAK256 SLOAD DUP3 GT ISZERO PUSH2 0x497 JUMPI PUSH1 0x0 DUP1 REVERT JUMPDEST DUP2 PUSH1 0x0 DUP1 DUP7 PUSH20 0xFFFFFFFFFFFFFFFFFFFFFFFFFFFFFFFFFFFFFFFF AND PUSH20 0xFFFFFFFFFFFFFFFFFFFFFFFFFFFFFFFFFFFFFFFF AND DUP2 MSTORE PUSH1 0x20 ADD SWAP1 DUP2 MSTORE PUSH1 0x20 ADD PUSH1 0x0 KECCAK256 PUSH1 0x0 DUP3 DUP3 SLOAD PUSH2 0x4E5 SWAP2 SWAP1 PUSH2 0xE5F JUMP JUMPDEST SWAP3 POP POP DUP2 SWAP1 SSTORE POP DUP2 PUSH1 0x0 DUP1 DUP6 PUSH20 0xFFFFFFFFFFFFFFFFFFFFFFFFFFFFFFFFFFFFFFFF AND PUSH20 0xFFFFFFFFFFFFFFFFFFFFFFFFFFFFFFFFFFFFFFFF AND DUP2 MSTORE PUSH1 0x20 ADD SWAP1 DUP2 MSTORE PUSH1 0x20 ADD PUSH1 0x0 KECCAK256 PUSH1 0x0 DUP3 DUP3 SLOAD PUSH2 0x53A SWAP2 SWAP1 PUSH2 0xE93 JUMP JUMPDEST SWAP3 POP POP DUP2 SWAP1 SSTORE POP DUP2 PUSH1 0x5 PUSH1 0x0 DUP7 PUSH20 0xFFFFFFFFFFFFFFFFFFFFFFFFFFFFFFFFFFFFFFFF AND PUSH20 0xFFFFFFFFFFFFFFFFFFFFFFFFFFFFFFFFFFFFFFFF AND DUP2 MSTORE PUSH1 0x20 ADD SWAP1 DUP2 MSTORE PUSH1 0x20 ADD PUSH1 0x0 KECCAK256 PUSH1 0x0 CALLER PUSH20 0xFFFFFFFFFFFFFFFFFFFFFFFFFFFFFFFFFFFFFFFF AND PUSH20 0xFFFFFFFFFFFFFFFFFFFFFFFFFFFFFFFFFFFFFFFF AND DUP2 MSTORE PUSH1 0x20 ADD SWAP1 DUP2 MSTORE PUSH1 0x20 ADD PUSH1 0x0 KECCAK256 PUSH1 0x0 DUP3 DUP3 SLOAD PUSH2 0x5CD SWAP2 SWAP1 PUSH2 0xE5F JUMP JUMPDEST SWAP3 POP POP DUP2 SWAP1 SSTORE POP DUP3 PUSH20 0xFFFFFFFFFFFFFFFFFFFFFFFFFFFFFFFFFFFFFFFF AND DUP5 PUSH20 0xFFFFFFFFFFFFFFFFFFFFFFFFFFFFFFFFFFFFFFFF AND PUSH32 0xDDF252AD1BE2C89B69C2B068FC378DAA952BA7F163C4A11628F55A4DF523B3EF DUP5 PUSH1 0x40 MLOAD PUSH2 0x631 SWAP2 SWAP1 PUSH2 0xB1A JUMP JUMPDEST PUSH1 0x40 MLOAD DUP1 SWAP2 SUB SWAP1 LOG3 PUSH1 0x1 SWAP1 POP SWAP4 SWAP3 POP POP POP JUMP JUMPDEST PUSH1 0x3 PUSH1 0x0 SWAP1 SLOAD SWAP1 PUSH2 0x100 EXP SWAP1 DIV PUSH1 0xFF AND DUP2 JUMP JUMPDEST PUSH1 0x0 PUSH1 0x20 MSTORE DUP1 PUSH1 0x0 MSTORE PUSH1 0x40 PUSH1 0x0 KECCAK256 PUSH1 0x0 SWAP2 POP SWAP1 POP SLOAD DUP2 JUMP JUMPDEST PUSH1 0x2 DUP1 SLOAD PUSH2 0x67C SWAP1 PUSH2 0xDFF JUMP JUMPDEST DUP1 PUSH1 0x1F ADD PUSH1 0x20 DUP1 SWAP2 DIV MUL PUSH1 0x20 ADD PUSH1 0x40 MLOAD SWAP1 DUP2 ADD PUSH1 0x40 MSTORE DUP1 SWAP3 SWAP2 SWAP1 DUP2 DUP2 MSTORE PUSH1 0x20 ADD DUP3 DUP1 SLOAD PUSH2 0x6A8 SWAP1 PUSH2 0xDFF JUMP JUMPDEST DUP1 ISZERO PUSH2 0x6F5 JUMPI DUP1 PUSH1 0x1F LT PUSH2 0x6CA JUMPI PUSH2 0x100 DUP1 DUP4 SLOAD DIV MUL DUP4 MSTORE SWAP2 PUSH1 0x20 ADD SWAP2 PUSH2 0x6F5 JUMP JUMPDEST DUP3 ADD SWAP2 SWAP1 PUSH1 0x0 MSTORE PUSH1 0x20 PUSH1 0x0 KECCAK256 SWAP1 JUMPDEST DUP2 SLOAD DUP2 MSTORE SWAP1 PUSH1 0x1 ADD SWAP1 PUSH1 0x20 ADD DUP1 DUP4 GT PUSH2 0x6D8 JUMPI DUP3 SWAP1 SUB PUSH1 0x1F AND DUP3 ADD SWAP2 JUMPDEST POP POP POP POP POP DUP2 JUMP JUMPDEST PUSH1 0x0 PUSH1 0x60 PUSH2 0x70C DUP5 DUP5 DUP4 PUSH2 0x715 JUMP JUMPDEST SWAP2 POP POP SWAP3 SWAP2 POP POP JUMP JUMPDEST PUSH1 0x0 DUP3 PUSH1 0x0 DUP1 CALLER PUSH20 0xFFFFFFFFFFFFFFFFFFFFFFFFFFFFFFFFFFFFFFFF AND PUSH20 0xFFFFFFFFFFFFFFFFFFFFFFFFFFFFFFFFFFFFFFFF AND DUP2 MSTORE PUSH1 0x20 ADD SWAP1 DUP2 MSTORE PUSH1 0x20 ADD PUSH1 0x0 KECCAK256 SLOAD LT ISZERO PUSH2 0x762 JUMPI PUSH1 0x0 DUP1 REVERT JUMPDEST DUP3 PUSH1 0x0 DUP1 CALLER PUSH20 0xFFFFFFFFFFFFFFFFFFFFFFFFFFFFFFFFFFFFFFFF AND PUSH20 0xFFFFFFFFFFFFFFFFFFFFFFFFFFFFFFFFFFFFFFFF AND DUP2 MSTORE PUSH1 0x20 ADD SWAP1 DUP2 MSTORE PUSH1 0x20 ADD PUSH1 0x0 KECCAK256 PUSH1 0x0 DUP3 DUP3 SLOAD PUSH2 0x7B0 SWAP2 SWAP1 PUSH2 0xE5F JUMP JUMPDEST SWAP3 POP POP DUP2 SWAP1 SSTORE POP DUP3 PUSH1 0x0 DUP1 DUP7 PUSH20 0xFFFFFFFFFFFFFFFFFFFFFFFFFFFFFFFFFFFFFFFF AND PUSH20 0xFFFFFFFFFFFFFFFFFFFFFFFFFFFFFFFFFFFFFFFF AND DUP2 MSTORE PUSH1 0x20 ADD SWAP1 DUP2 MSTORE PUSH1 0x20 ADD PUSH1 0x0 KECCAK256 PUSH1 0x0 DUP3 DUP3 SLOAD PUSH2 0x805 SWAP2 SWAP1 PUSH2 0xE93 JUMP JUMPDEST SWAP3 POP POP DUP2 SWAP1 SSTORE POP DUP4 PUSH20 0xFFFFFFFFFFFFFFFFFFFFFFFFFFFFFFFFFFFFFFFF AND CALLER PUSH20 0xFFFFFFFFFFFFFFFFFFFFFFFFFFFFFFFFFFFFFFFF AND PUSH32 0xDDF252AD1BE2C89B69C2B068FC378DAA952BA7F163C4A11628F55A4DF523B3EF DUP6 PUSH1 0x40 MLOAD PUSH2 0x869 SWAP2 SWAP1 PUSH2 0xB1A JUMP JUMPDEST PUSH1 0x40 MLOAD DUP1 SWAP2 SUB SWAP1 LOG3 PUSH2 0x87A DUP5 PUSH2 0x91F JUMP JUMPDEST ISZERO PUSH2 0x8EF JUMPI DUP4 PUSH20 0xFFFFFFFFFFFFFFFFFFFFFFFFFFFFFFFFFFFFFFFF AND PUSH4 0xC0EE0B8A CALLER DUP6 DUP6 PUSH1 0x40 MLOAD DUP5 PUSH4 0xFFFFFFFF AND PUSH1 0xE0 SHL DUP2 MSTORE PUSH1 0x4 ADD PUSH2 0x8BC SWAP4 SWAP3 SWAP2 SWAP1 PUSH2 0xF4D JUMP JUMPDEST PUSH1 0x0 PUSH1 0x40 MLOAD DUP1 DUP4 SUB DUP2 PUSH1 0x0 DUP8 DUP1 EXTCODESIZE ISZERO DUP1 ISZERO PUSH2 0x8D6 JUMPI PUSH1 0x0 DUP1 REVERT JUMPDEST POP GAS CALL ISZERO DUP1 ISZERO PUSH2 0x8EA JUMPI RETURNDATASIZE PUSH1 0x0 DUP1 RETURNDATACOPY RETURNDATASIZE PUSH1 0x0 REVERT JUMPDEST POP POP POP POP JUMPDEST PUSH1 0x1 SWAP1 POP SWAP4 SWAP3 POP POP POP JUMP JUMPDEST PUSH1 0x5 PUSH1 0x20 MSTORE DUP2 PUSH1 0x0 MSTORE PUSH1 0x40 PUSH1 0x0 KECCAK256 PUSH1 0x20 MSTORE DUP1 PUSH1 0x0 MSTORE PUSH1 0x40 PUSH1 0x0 KECCAK256 PUSH1 0x0 SWAP2 POP SWAP2 POP POP SLOAD DUP2 JUMP JUMPDEST PUSH1 0x0 DUP1 DUP3 EXTCODESIZE SWAP1 POP PUSH1 0x0 DUP2 GT SWAP2 POP POP SWAP2 SWAP1 POP JUMP JUMPDEST PUSH1 0x0 DUP2 MLOAD SWAP1 POP SWAP2 SWAP1 POP JUMP JUMPDEST PUSH1 0x0 DUP3 DUP3 MSTORE PUSH1 0x20 DUP3 ADD SWAP1 POP SWAP3 SWAP2 POP POP JUMP JUMPDEST PUSH1 0x0 JUMPDEST DUP4 DUP2 LT ISZERO PUSH2 0x96C JUMPI DUP1 DUP3 ADD MLOAD DUP2 DUP5 ADD MSTORE PUSH1 0x20 DUP2 ADD SWAP1 POP PUSH2 0x951 JUMP JUMPDEST DUP4 DUP2 GT ISZERO PUSH2 0x97B JUMPI PUSH1 0x0 DUP5 DUP5 ADD MSTORE JUMPDEST POP POP POP POP JUMP JUMPDEST PUSH1 0x0 PUSH1 0x1F NOT PUSH1 0x1F DUP4 ADD AND SWAP1 POP SWAP2 SWAP1 POP JUMP JUMPDEST PUSH1 0x0 PUSH2 0x99D DUP3 PUSH2 0x932 JUMP JUMPDEST PUSH2 0x9A7 DUP2 DUP6 PUSH2 0x93D JUMP JUMPDEST SWAP4 POP PUSH2 0x9B7 DUP2 DUP6 PUSH1 0x20 DUP7 ADD PUSH2 0x94E JUMP JUMPDEST PUSH2 0x9C0 DUP2 PUSH2 0x981 JUMP JUMPDEST DUP5 ADD SWAP2 POP POP SWAP3 SWAP2 POP POP JUMP JUMPDEST PUSH1 0x0 PUSH1 0x20 DUP3 ADD SWAP1 POP DUP2 DUP2 SUB PUSH1 0x0 DUP4 ADD MSTORE PUSH2 0x9E5 DUP2 DUP5 PUSH2 0x992 JUMP JUMPDEST SWAP1 POP SWAP3 SWAP2 POP POP JUMP JUMPDEST PUSH1 0x0 PUSH1 0x40 MLOAD SWAP1 POP SWAP1 JUMP JUMPDEST PUSH1 0x0 DUP1 REVERT JUMPDEST PUSH1 0x0 DUP1 REVERT JUMPDEST PUSH1 0x0 PUSH20 0xFFFFFFFFFFFFFFFFFFFFFFFFFFFFFFFFFFFFFFFF DUP3 AND SWAP1 POP SWAP2 SWAP1 POP JUMP JUMPDEST PUSH1 0x0 PUSH2 0xA2C DUP3 PUSH2 0xA01 JUMP JUMPDEST SWAP1 POP SWAP2 SWAP1 POP JUMP JUMPDEST PUSH2 0xA3C DUP2 PUSH2 0xA21 JUMP JUMPDEST DUP2 EQ PUSH2 0xA47 JUMPI PUSH1 0x0 DUP1 REVERT JUMPDEST POP JUMP JUMPDEST PUSH1 0x0 DUP2 CALLDATALOAD SWAP1 POP PUSH2 0xA59 DUP2 PUSH2 0xA33 JUMP JUMPDEST SWAP3 SWAP2 POP POP JUMP JUMPDEST PUSH1 0x0 DUP2 SWAP1 POP SWAP2 SWAP1 POP JUMP JUMPDEST PUSH2 0xA72 DUP2 PUSH2 0xA5F JUMP JUMPDEST DUP2 EQ PUSH2 0xA7D JUMPI PUSH1 0x0 DUP1 REVERT JUMPDEST POP JUMP JUMPDEST PUSH1 0x0 DUP2 CALLDATALOAD SWAP1 POP PUSH2 0xA8F DUP2 PUSH2 0xA69 JUMP JUMPDEST SWAP3 SWAP2 POP POP JUMP JUMPDEST PUSH1 0x0 DUP1 PUSH1 0x40 DUP4 DUP6 SUB SLT ISZERO PUSH2 0xAAC JUMPI PUSH2 0xAAB PUSH2 0x9F7 JUMP JUMPDEST JUMPDEST PUSH1 0x0 PUSH2 0xABA DUP6 DUP3 DUP7 ADD PUSH2 0xA4A JUMP JUMPDEST SWAP3 POP POP PUSH1 0x20 PUSH2 0xACB DUP6 DUP3 DUP7 ADD PUSH2 0xA80 JUMP JUMPDEST SWAP2 POP POP SWAP3 POP SWAP3 SWAP1 POP JUMP JUMPDEST PUSH1 0x0 DUP2 ISZERO ISZERO SWAP1 POP SWAP2 SWAP1 POP JUMP JUMPDEST PUSH2 0xAEA DUP2 PUSH2 0xAD5 JUMP JUMPDEST DUP3 MSTORE POP POP JUMP JUMPDEST PUSH1 0x0 PUSH1 0x20 DUP3 ADD SWAP1 POP PUSH2 0xB05 PUSH1 0x0 DUP4 ADD DUP5 PUSH2 0xAE1 JUMP JUMPDEST SWAP3 SWAP2 POP POP JUMP JUMPDEST PUSH2 0xB14 DUP2 PUSH2 0xA5F JUMP JUMPDEST DUP3 MSTORE POP POP JUMP JUMPDEST PUSH1 0x0 PUSH1 0x20 DUP3 ADD SWAP1 POP PUSH2 0xB2F PUSH1 0x0 DUP4 ADD DUP5 PUSH2 0xB0B JUMP JUMPDEST SWAP3 SWAP2 POP POP JUMP JUMPDEST PUSH1 0x0 DUP1 PUSH1 0x0 PUSH1 0x60 DUP5 DUP7 SUB SLT ISZERO PUSH2 0xB4E JUMPI PUSH2 0xB4D PUSH2 0x9F7 JUMP JUMPDEST JUMPDEST PUSH1 0x0 PUSH2 0xB5C DUP7 DUP3 DUP8 ADD PUSH2 0xA4A JUMP JUMPDEST SWAP4 POP POP PUSH1 0x20 PUSH2 0xB6D DUP7 DUP3 DUP8 ADD PUSH2 0xA4A JUMP JUMPDEST SWAP3 POP POP PUSH1 0x40 PUSH2 0xB7E DUP7 DUP3 DUP8 ADD PUSH2 0xA80 JUMP JUMPDEST SWAP2 POP POP SWAP3 POP SWAP3 POP SWAP3 JUMP JUMPDEST PUSH1 0x0 PUSH1 0xFF DUP3 AND SWAP1 POP SWAP2 SWAP1 POP JUMP JUMPDEST PUSH2 0xB9E DUP2 PUSH2 0xB88 JUMP JUMPDEST DUP3 MSTORE POP POP JUMP JUMPDEST PUSH1 0x0 PUSH1 0x20 DUP3 ADD SWAP1 POP PUSH2 0xBB9 PUSH1 0x0 DUP4 ADD DUP5 PUSH2 0xB95 JUMP JUMPDEST SWAP3 SWAP2 POP POP JUMP JUMPDEST PUSH1 0x0 PUSH1 0x20 DUP3 DUP5 SUB SLT ISZERO PUSH2 0xBD5 JUMPI PUSH2 0xBD4 PUSH2 0x9F7 JUMP JUMPDEST JUMPDEST PUSH1 0x0 PUSH2 0xBE3 DUP5 DUP3 DUP6 ADD PUSH2 0xA4A JUMP JUMPDEST SWAP2 POP POP SWAP3 SWAP2 POP POP JUMP JUMPDEST PUSH1 0x0 DUP1 REVERT JUMPDEST PUSH1 0x0 DUP1 REVERT JUMPDEST PUSH32 0x4E487B7100000000000000000000000000000000000000000000000000000000 PUSH1 0x0 MSTORE PUSH1 0x41 PUSH1 0x4 MSTORE PUSH1 0x24 PUSH1 0x0 REVERT JUMPDEST PUSH2 0xC2E DUP3 PUSH2 0x981 JUMP JUMPDEST DUP2 ADD DUP2 DUP2 LT PUSH8 0xFFFFFFFFFFFFFFFF DUP3 GT OR ISZERO PUSH2 0xC4D JUMPI PUSH2 0xC4C PUSH2 0xBF6 JUMP JUMPDEST JUMPDEST DUP1 PUSH1 0x40 MSTORE POP POP POP JUMP JUMPDEST PUSH1 0x0 PUSH2 0xC60 PUSH2 0x9ED JUMP JUMPDEST SWAP1 POP PUSH2 0xC6C DUP3 DUP3 PUSH2 0xC25 JUMP JUMPDEST SWAP2 SWAP1 POP JUMP JUMPDEST PUSH1 0x0 PUSH8 0xFFFFFFFFFFFFFFFF DUP3 GT ISZERO PUSH2 0xC8C JUMPI PUSH2 0xC8B PUSH2 0xBF6 JUMP JUMPDEST JUMPDEST PUSH2 0xC95 DUP3 PUSH2 0x981 JUMP JUMPDEST SWAP1 POP PUSH1 0x20 DUP2 ADD SWAP1 POP SWAP2 SWAP1 POP JUMP JUMPDEST DUP3 DUP2 DUP4 CALLDATACOPY PUSH1 0x0 DUP4 DUP4 ADD MSTORE POP POP POP JUMP JUMPDEST PUSH1 0x0 PUSH2 0xCC4 PUSH2 0xCBF DUP5 PUSH2 0xC71 JUMP JUMPDEST PUSH2 0xC56 JUMP JUMPDEST SWAP1 POP DUP3 DUP2 MSTORE PUSH1 0x20 DUP2 ADD DUP5 DUP5 DUP5 ADD GT ISZERO PUSH2 0xCE0 JUMPI PUSH2 0xCDF PUSH2 0xBF1 JUMP JUMPDEST JUMPDEST PUSH2 0xCEB DUP5 DUP3 DUP6 PUSH2 0xCA2 JUMP JUMPDEST POP SWAP4 SWAP3 POP POP POP JUMP JUMPDEST PUSH1 0x0 DUP3 PUSH1 0x1F DUP4 ADD SLT PUSH2 0xD08 JUMPI PUSH2 0xD07 PUSH2 0xBEC JUMP JUMPDEST JUMPDEST DUP2 CALLDATALOAD PUSH2 0xD18 DUP5 DUP3 PUSH1 0x20 DUP7 ADD PUSH2 0xCB1 JUMP JUMPDEST SWAP2 POP POP SWAP3 SWAP2 POP POP JUMP JUMPDEST PUSH1 0x0 DUP1 PUSH1 0x0 PUSH1 0x60 DUP5 DUP7 SUB SLT ISZERO PUSH2 0xD3A JUMPI PUSH2 0xD39 PUSH2 0x9F7 JUMP JUMPDEST JUMPDEST PUSH1 0x0 PUSH2 0xD48 DUP7 DUP3 DUP8 ADD PUSH2 0xA4A JUMP JUMPDEST SWAP4 POP POP PUSH1 0x20 PUSH2 0xD59 DUP7 DUP3 DUP8 ADD PUSH2 0xA80 JUMP JUMPDEST SWAP3 POP POP PUSH1 0x40 DUP5 ADD CALLDATALOAD PUSH8 0xFFFFFFFFFFFFFFFF DUP2 GT ISZERO PUSH2 0xD7A JUMPI PUSH2 0xD79 PUSH2 0x9FC JUMP JUMPDEST JUMPDEST PUSH2 0xD86 DUP7 DUP3 DUP8 ADD PUSH2 0xCF3 JUMP JUMPDEST SWAP2 POP POP SWAP3 POP SWAP3 POP SWAP3 JUMP JUMPDEST PUSH1 0x0 DUP1 PUSH1 0x40 DUP4 DUP6 SUB SLT ISZERO PUSH2 0xDA7 JUMPI PUSH2 0xDA6 PUSH2 0x9F7 JUMP JUMPDEST JUMPDEST PUSH1 0x0 PUSH2 0xDB5 DUP6 DUP3 DUP7 ADD PUSH2 0xA4A JUMP JUMPDEST SWAP3 POP POP PUSH1 0x20 PUSH2 0xDC6 DUP6 DUP3 DUP7 ADD PUSH2 0xA4A JUMP JUMPDEST SWAP2 POP POP SWAP3 POP SWAP3 SWAP1 POP JUMP JUMPDEST PUSH32 0x4E487B7100000000000000000000000000000000000000000000000000000000 PUSH1 0x0 MSTORE PUSH1 0x22 PUSH1 0x4 MSTORE PUSH1 0x24 PUSH1 0x0 REVERT JUMPDEST PUSH1 0x0 PUSH1 0x2 DUP3 DIV SWAP1 POP PUSH1 0x1 DUP3 AND DUP1 PUSH2 0xE17 JUMPI PUSH1 0x7F DUP3 AND SWAP2 POP JUMPDEST PUSH1 0x20 DUP3 LT DUP2 SUB PUSH2 0xE2A JUMPI PUSH2 0xE29 PUSH2 0xDD0 JUMP JUMPDEST JUMPDEST POP SWAP2 SWAP1 POP JUMP JUMPDEST PUSH32 0x4E487B7100000000000000000000000000000000000000000000000000000000 PUSH1 0x0 MSTORE PUSH1 0x11 PUSH1 0x4 MSTORE PUSH1 0x24 PUSH1 0x0 REVERT JUMPDEST PUSH1 0x0 PUSH2 0xE6A DUP3 PUSH2 0xA5F JUMP JUMPDEST SWAP2 POP PUSH2 0xE75 DUP4 PUSH2 0xA5F JUMP JUMPDEST SWAP3 POP DUP3 DUP3 LT ISZERO PUSH2 0xE88 JUMPI PUSH2 0xE87 PUSH2 0xE30 JUMP JUMPDEST JUMPDEST DUP3 DUP3 SUB SWAP1 POP SWAP3 SWAP2 POP POP JUMP JUMPDEST PUSH1 0x0 PUSH2 0xE9E DUP3 PUSH2 0xA5F JUMP JUMPDEST SWAP2 POP PUSH2 0xEA9 DUP4 PUSH2 0xA5F JUMP JUMPDEST SWAP3 POP DUP3 PUSH32 0xFFFFFFFFFFFFFFFFFFFFFFFFFFFFFFFFFFFFFFFFFFFFFFFFFFFFFFFFFFFFFFFF SUB DUP3 GT ISZERO PUSH2 0xEDE JUMPI PUSH2 0xEDD PUSH2 0xE30 JUMP JUMPDEST JUMPDEST DUP3 DUP3 ADD SWAP1 POP SWAP3 SWAP2 POP POP JUMP JUMPDEST PUSH2 0xEF2 DUP2 PUSH2 0xA21 JUMP JUMPDEST DUP3 MSTORE POP POP JUMP JUMPDEST PUSH1 0x0 DUP2 MLOAD SWAP1 POP SWAP2 SWAP1 POP JUMP JUMPDEST PUSH1 0x0 DUP3 DUP3 MSTORE PUSH1 0x20 DUP3 ADD SWAP1 POP SWAP3 SWAP2 POP POP JUMP JUMPDEST PUSH1 0x0 PUSH2 0xF1F DUP3 PUSH2 0xEF8 JUMP JUMPDEST PUSH2 0xF29 DUP2 DUP6 PUSH2 0xF03 JUMP JUMPDEST SWAP4 POP PUSH2 0xF39 DUP2 DUP6 PUSH1 0x20 DUP7 ADD PUSH2 0x94E JUMP JUMPDEST PUSH2 0xF42 DUP2 PUSH2 0x981 JUMP JUMPDEST DUP5 ADD SWAP2 POP POP SWAP3 SWAP2 POP POP JUMP JUMPDEST PUSH1 0x0 PUSH1 0x60 DUP3 ADD SWAP1 POP PUSH2 0xF62 PUSH1 0x0 DUP4 ADD DUP7 PUSH2 0xEE9 JUMP JUMPDEST PUSH2 0xF6F PUSH1 0x20 DUP4 ADD DUP6 PUSH2 0xB0B JUMP JUMPDEST DUP2 DUP2 SUB PUSH1 0x40 DUP4 ADD MSTORE PUSH2 0xF81 DUP2 DUP5 PUSH2 0xF14 JUMP JUMPDEST SWAP1 POP SWAP5 SWAP4 POP POP POP POP JUMP INVALID LOG2 PUSH5 0x6970667358 0x22 SLT KECCAK256 DUP14 CREATE TIMESTAMP PUSH31 0x9E7B7B5F08E613D7644379D3538C360F2F41B0AC489DEDF01F52B20F64736F PUSH13 0x634300080F0033000000000000 "
				},
				"gasEstimates": {
					"creation": {
						"codeDepositCost": "506000",
						"executionCost": "infinite",
						"totalCost": "infinite"
					},
					"external": {
						"balanceOf(address)": "2814",
						"isComplete()": "infinite",
						"token()": "infinite",
						"tokenFallback(address,uint256,bytes)": "infinite",
						"withdraw(uint256)": "infinite"
					}
				},
				"methodIdentifiers": {
					"balanceOf(address)": "70a08231",
					"isComplete()": "b2fa1c9e",
					"token()": "fc0c546a",
					"tokenFallback(address,uint256,bytes)": "c0ee0b8a",
					"withdraw(uint256)": "2e1a7d4d"
				}
			},
			"storageLayout": {
				"storage": [
					{
						"astId": 263,
						"contract": "miscellaneous/SimpleERC223Token.sol:TokenBankChallenge",
						"label": "token",
						"offset": 0,
						"slot": "0",
						"type": "t_contract(SimpleERC223Token)260"
					},
					{
						"astId": 267,
						"contract": "miscellaneous/SimpleERC223Token.sol:TokenBankChallenge",
						"label": "balanceOf",
						"offset": 0,
						"slot": "1",
						"type": "t_mapping(t_address,t_uint256)"
					}
				],
				"types": {
					"t_address": {
						"encoding": "inplace",
						"label": "address",
						"numberOfBytes": "20"
					},
					"t_contract(SimpleERC223Token)260": {
						"encoding": "inplace",
						"label": "contract SimpleERC223Token",
						"numberOfBytes": "20"
					},
					"t_mapping(t_address,t_uint256)": {
						"encoding": "mapping",
						"key": "t_address",
						"label": "mapping(address => uint256)",
						"numberOfBytes": "32",
						"value": "t_uint256"
					},
					"t_uint256": {
						"encoding": "inplace",
						"label": "uint256",
						"numberOfBytes": "32"
					}
				}
			},
			"userdoc": {
				"kind": "user",
				"methods": {},
				"version": 1
			}
		}
	}
}