{
	"miscellaneous/SimpleERC223Token.sol": {
		"TokenBankChallenge": {
			"abi": [
				{
					"constant": false,
					"inputs": [
						{
							"name": "amount",
							"type": "uint256"
						}
					],
					"name": "withdraw",
					"outputs": [],
					"payable": false,
					"stateMutability": "nonpayable",
					"type": "function"
				},
				{
					"constant": true,
					"inputs": [
						{
							"name": "",
							"type": "address"
						}
					],
					"name": "balanceOf",
					"outputs": [
						{
							"name": "",
							"type": "uint256"
						}
					],
					"payable": false,
					"stateMutability": "view",
					"type": "function"
				},
				{
					"constant": true,
					"inputs": [],
					"name": "isComplete",
					"outputs": [
						{
							"name": "",
							"type": "bool"
						}
					],
					"payable": false,
					"stateMutability": "view",
					"type": "function"
				},
				{
					"constant": false,
					"inputs": [
						{
							"name": "from",
							"type": "address"
						},
						{
							"name": "value",
							"type": "uint256"
						},
						{
							"name": "",
							"type": "bytes"
						}
					],
					"name": "tokenFallback",
					"outputs": [],
					"payable": false,
					"stateMutability": "nonpayable",
					"type": "function"
				},
				{
					"constant": true,
					"inputs": [],
					"name": "token",
					"outputs": [
						{
							"name": "",
							"type": "address"
						}
					],
					"payable": false,
					"stateMutability": "view",
					"type": "function"
				},
				{
					"inputs": [
						{
							"name": "player",
							"type": "address"
						}
					],
					"payable": false,
					"stateMutability": "nonpayable",
					"type": "constructor"
				}
			],
			"devdoc": {
				"methods": {}
			},
			"evm": {
				"assembly": "    /* \"miscellaneous/SimpleERC223Token.sol\":2395:3441  contract TokenBankChallenge {\r... */\n  mstore(0x40, 0x80)\n    /* \"miscellaneous/SimpleERC223Token.sol\":2520:2894  function TokenBankChallenge(address player) public {\r... */\n  callvalue\n    /* \"--CODEGEN--\":8:17   */\n  dup1\n    /* \"--CODEGEN--\":5:7   */\n  iszero\n  tag_1\n  jumpi\n    /* \"--CODEGEN--\":30:31   */\n  0x0\n    /* \"--CODEGEN--\":27:28   */\n  dup1\n    /* \"--CODEGEN--\":20:32   */\n  revert\n    /* \"--CODEGEN--\":5:7   */\ntag_1:\n    /* \"miscellaneous/SimpleERC223Token.sol\":2520:2894  function TokenBankChallenge(address player) public {\r... */\n  pop\n  mload(0x40)\n  0x20\n  dup1\n  bytecodeSize\n  dup4\n  codecopy\n  dup2\n  add\n  dup1\n  0x40\n  mstore\n  dup2\n  add\n  swap1\n  dup1\n  dup1\n  mload\n  swap1\n  0x20\n  add\n  swap1\n  swap3\n  swap2\n  swap1\n  pop\n  pop\n  pop\n    /* \"miscellaneous/SimpleERC223Token.sol\":2590:2613  new SimpleERC223Token() */\n  tag_4\n  jump\t// in(tag_5)\ntag_4:\n  mload(0x40)\n  dup1\n  swap2\n  sub\n  swap1\n  0x0\n  create\n  dup1\n  iszero\n    /* \"--CODEGEN--\":8:17   */\n  dup1\n    /* \"--CODEGEN--\":5:7   */\n  iszero\n  tag_6\n  jumpi\n    /* \"--CODEGEN--\":45:61   */\n  returndatasize\n    /* \"--CODEGEN--\":42:43   */\n  0x0\n    /* \"--CODEGEN--\":39:40   */\n  dup1\n    /* \"--CODEGEN--\":24:62   */\n  returndatacopy\n    /* \"--CODEGEN--\":77:93   */\n  returndatasize\n    /* \"--CODEGEN--\":74:75   */\n  0x0\n    /* \"--CODEGEN--\":67:94   */\n  revert\n    /* \"--CODEGEN--\":5:7   */\ntag_6:\n    /* \"miscellaneous/SimpleERC223Token.sol\":2590:2613  new SimpleERC223Token() */\n  pop\n    /* \"miscellaneous/SimpleERC223Token.sol\":2582:2587  token */\n  0x0\n  dup1\n    /* \"miscellaneous/SimpleERC223Token.sol\":2582:2613  token = new SimpleERC223Token() */\n  0x100\n  exp\n  dup2\n  sload\n  dup2\n  0xffffffffffffffffffffffffffffffffffffffff\n  mul\n  not\n  and\n  swap1\n  dup4\n  0xffffffffffffffffffffffffffffffffffffffff\n  and\n  mul\n  or\n  swap1\n  sstore\n  pop\n    /* \"miscellaneous/SimpleERC223Token.sol\":2788:2803  500000 * 10**18 */\n  0x69e10de76676d0800000\n    /* \"miscellaneous/SimpleERC223Token.sol\":2764:2773  balanceOf */\n  0x1\n    /* \"miscellaneous/SimpleERC223Token.sol\":2764:2785  balanceOf[msg.sender] */\n  0x0\n    /* \"miscellaneous/SimpleERC223Token.sol\":2774:2784  msg.sender */\n  caller\n    /* \"miscellaneous/SimpleERC223Token.sol\":2764:2785  balanceOf[msg.sender] */\n  0xffffffffffffffffffffffffffffffffffffffff\n  and\n  0xffffffffffffffffffffffffffffffffffffffff\n  and\n  dup2\n  mstore\n  0x20\n  add\n  swap1\n  dup2\n  mstore\n  0x20\n  add\n  0x0\n  keccak256\n    /* \"miscellaneous/SimpleERC223Token.sol\":2764:2803  balanceOf[msg.sender] = 500000 * 10**18 */\n  dup2\n  swap1\n  sstore\n  pop\n    /* \"miscellaneous/SimpleERC223Token.sol\":2850:2865  500000 * 10**18 */\n  0x69e10de76676d0800000\n    /* \"miscellaneous/SimpleERC223Token.sol\":2830:2839  balanceOf */\n  0x1\n    /* \"miscellaneous/SimpleERC223Token.sol\":2830:2847  balanceOf[player] */\n  0x0\n    /* \"miscellaneous/SimpleERC223Token.sol\":2840:2846  player */\n  dup4\n    /* \"miscellaneous/SimpleERC223Token.sol\":2830:2847  balanceOf[player] */\n  0xffffffffffffffffffffffffffffffffffffffff\n  and\n  0xffffffffffffffffffffffffffffffffffffffff\n  and\n  dup2\n  mstore\n  0x20\n  add\n  swap1\n  dup2\n  mstore\n  0x20\n  add\n  0x0\n  keccak256\n    /* \"miscellaneous/SimpleERC223Token.sol\":2830:2865  balanceOf[player] = 500000 * 10**18 */\n  dup2\n  swap1\n  sstore\n  pop\n    /* \"miscellaneous/SimpleERC223Token.sol\":2520:2894  function TokenBankChallenge(address player) public {\r... */\n  pop\n    /* \"miscellaneous/SimpleERC223Token.sol\":2395:3441  contract TokenBankChallenge {\r... */\n  jump(tag_7)\ntag_5:\n  mload(0x40)\n  dataSize(sub_1)\n  dup1\n  dataOffset(sub_1)\n  dup4\n  codecopy\n  add\n  swap1\n  jump\t// out\ntag_7:\n  dataSize(sub_0)\n  dup1\n  dataOffset(sub_0)\n  0x0\n  codecopy\n  0x0\n  return\nstop\n\nsub_0: assembly {\n        /* \"miscellaneous/SimpleERC223Token.sol\":2395:3441  contract TokenBankChallenge {\r... */\n      mstore(0x40, 0x80)\n      jumpi(tag_1, lt(calldatasize, 0x4))\n      calldataload(0x0)\n      0x100000000000000000000000000000000000000000000000000000000\n      swap1\n      div\n      0xffffffff\n      and\n      dup1\n      0x2e1a7d4d\n      eq\n      tag_2\n      jumpi\n      dup1\n      0x70a08231\n      eq\n      tag_3\n      jumpi\n      dup1\n      0xb2fa1c9e\n      eq\n      tag_4\n      jumpi\n      dup1\n      0xc0ee0b8a\n      eq\n      tag_5\n      jumpi\n      dup1\n      0xfc0c546a\n      eq\n      tag_6\n      jumpi\n    tag_1:\n      0x0\n      dup1\n      revert\n        /* \"miscellaneous/SimpleERC223Token.sol\":3240:3438  function withdraw(uint256 amount) public {\r... */\n    tag_2:\n      callvalue\n        /* \"--CODEGEN--\":8:17   */\n      dup1\n        /* \"--CODEGEN--\":5:7   */\n      iszero\n      tag_7\n      jumpi\n        /* \"--CODEGEN--\":30:31   */\n      0x0\n        /* \"--CODEGEN--\":27:28   */\n      dup1\n        /* \"--CODEGEN--\":20:32   */\n      revert\n        /* \"--CODEGEN--\":5:7   */\n    tag_7:\n        /* \"miscellaneous/SimpleERC223Token.sol\":3240:3438  function withdraw(uint256 amount) public {\r... */\n      pop\n      tag_8\n      0x4\n      dup1\n      calldatasize\n      sub\n      dup2\n      add\n      swap1\n      dup1\n      dup1\n      calldataload\n      swap1\n      0x20\n      add\n      swap1\n      swap3\n      swap2\n      swap1\n      pop\n      pop\n      pop\n      jump(tag_9)\n    tag_8:\n      stop\n        /* \"miscellaneous/SimpleERC223Token.sol\":2467:2511  mapping(address => uint256) public balanceOf */\n    tag_3:\n      callvalue\n        /* \"--CODEGEN--\":8:17   */\n      dup1\n        /* \"--CODEGEN--\":5:7   */\n      iszero\n      tag_10\n      jumpi\n        /* \"--CODEGEN--\":30:31   */\n      0x0\n        /* \"--CODEGEN--\":27:28   */\n      dup1\n        /* \"--CODEGEN--\":20:32   */\n      revert\n        /* \"--CODEGEN--\":5:7   */\n    tag_10:\n        /* \"miscellaneous/SimpleERC223Token.sol\":2467:2511  mapping(address => uint256) public balanceOf */\n      pop\n      tag_11\n      0x4\n      dup1\n      calldatasize\n      sub\n      dup2\n      add\n      swap1\n      dup1\n      dup1\n      calldataload\n      0xffffffffffffffffffffffffffffffffffffffff\n      and\n      swap1\n      0x20\n      add\n      swap1\n      swap3\n      swap2\n      swap1\n      pop\n      pop\n      pop\n      jump(tag_12)\n    tag_11:\n      mload(0x40)\n      dup1\n      dup3\n      dup2\n      mstore\n      0x20\n      add\n      swap2\n      pop\n      pop\n      mload(0x40)\n      dup1\n      swap2\n      sub\n      swap1\n      return\n        /* \"miscellaneous/SimpleERC223Token.sol\":2902:3003  function isComplete() public view returns (bool) {\r... */\n    tag_4:\n      callvalue\n        /* \"--CODEGEN--\":8:17   */\n      dup1\n        /* \"--CODEGEN--\":5:7   */\n      iszero\n      tag_13\n      jumpi\n        /* \"--CODEGEN--\":30:31   */\n      0x0\n        /* \"--CODEGEN--\":27:28   */\n      dup1\n        /* \"--CODEGEN--\":20:32   */\n      revert\n        /* \"--CODEGEN--\":5:7   */\n    tag_13:\n        /* \"miscellaneous/SimpleERC223Token.sol\":2902:3003  function isComplete() public view returns (bool) {\r... */\n      pop\n      tag_14\n      jump(tag_15)\n    tag_14:\n      mload(0x40)\n      dup1\n      dup3\n      iszero\n      iszero\n      iszero\n      iszero\n      dup2\n      mstore\n      0x20\n      add\n      swap2\n      pop\n      pop\n      mload(0x40)\n      dup1\n      swap2\n      sub\n      swap1\n      return\n        /* \"miscellaneous/SimpleERC223Token.sol\":3011:3232  function tokenFallback(address from, uint256 value, bytes) public {\r... */\n    tag_5:\n      callvalue\n        /* \"--CODEGEN--\":8:17   */\n      dup1\n        /* \"--CODEGEN--\":5:7   */\n      iszero\n      tag_16\n      jumpi\n        /* \"--CODEGEN--\":30:31   */\n      0x0\n        /* \"--CODEGEN--\":27:28   */\n      dup1\n        /* \"--CODEGEN--\":20:32   */\n      revert\n        /* \"--CODEGEN--\":5:7   */\n    tag_16:\n        /* \"miscellaneous/SimpleERC223Token.sol\":3011:3232  function tokenFallback(address from, uint256 value, bytes) public {\r... */\n      pop\n      tag_17\n      0x4\n      dup1\n      calldatasize\n      sub\n      dup2\n      add\n      swap1\n      dup1\n      dup1\n      calldataload\n      0xffffffffffffffffffffffffffffffffffffffff\n      and\n      swap1\n      0x20\n      add\n      swap1\n      swap3\n      swap2\n      swap1\n      dup1\n      calldataload\n      swap1\n      0x20\n      add\n      swap1\n      swap3\n      swap2\n      swap1\n      dup1\n      calldataload\n      swap1\n      0x20\n      add\n      swap1\n      dup3\n      add\n      dup1\n      calldataload\n      swap1\n      0x20\n      add\n      swap1\n      dup1\n      dup1\n      0x1f\n      add\n      0x20\n      dup1\n      swap2\n      div\n      mul\n      0x20\n      add\n      mload(0x40)\n      swap1\n      dup2\n      add\n      0x40\n      mstore\n      dup1\n      swap4\n      swap3\n      swap2\n      swap1\n      dup2\n      dup2\n      mstore\n      0x20\n      add\n      dup4\n      dup4\n      dup1\n      dup3\n      dup5\n      calldatacopy\n      dup3\n      add\n      swap2\n      pop\n      pop\n      pop\n      pop\n      pop\n      pop\n      swap2\n      swap3\n      swap2\n      swap3\n      swap1\n      pop\n      pop\n      pop\n      jump(tag_18)\n    tag_17:\n      stop\n        /* \"miscellaneous/SimpleERC223Token.sol\":2430:2460  SimpleERC223Token public token */\n    tag_6:\n      callvalue\n        /* \"--CODEGEN--\":8:17   */\n      dup1\n        /* \"--CODEGEN--\":5:7   */\n      iszero\n      tag_19\n      jumpi\n        /* \"--CODEGEN--\":30:31   */\n      0x0\n        /* \"--CODEGEN--\":27:28   */\n      dup1\n        /* \"--CODEGEN--\":20:32   */\n      revert\n        /* \"--CODEGEN--\":5:7   */\n    tag_19:\n        /* \"miscellaneous/SimpleERC223Token.sol\":2430:2460  SimpleERC223Token public token */\n      pop\n      tag_20\n      jump(tag_21)\n    tag_20:\n      mload(0x40)\n      dup1\n      dup3\n      0xffffffffffffffffffffffffffffffffffffffff\n      and\n      0xffffffffffffffffffffffffffffffffffffffff\n      and\n      dup2\n      mstore\n      0x20\n      add\n      swap2\n      pop\n      pop\n      mload(0x40)\n      dup1\n      swap2\n      sub\n      swap1\n      return\n        /* \"miscellaneous/SimpleERC223Token.sol\":3240:3438  function withdraw(uint256 amount) public {\r... */\n    tag_9:\n        /* \"miscellaneous/SimpleERC223Token.sol\":3325:3331  amount */\n      dup1\n        /* \"miscellaneous/SimpleERC223Token.sol\":3300:3309  balanceOf */\n      0x1\n        /* \"miscellaneous/SimpleERC223Token.sol\":3300:3321  balanceOf[msg.sender] */\n      0x0\n        /* \"miscellaneous/SimpleERC223Token.sol\":3310:3320  msg.sender */\n      caller\n        /* \"miscellaneous/SimpleERC223Token.sol\":3300:3321  balanceOf[msg.sender] */\n      0xffffffffffffffffffffffffffffffffffffffff\n      and\n      0xffffffffffffffffffffffffffffffffffffffff\n      and\n      dup2\n      mstore\n      0x20\n      add\n      swap1\n      dup2\n      mstore\n      0x20\n      add\n      0x0\n      keccak256\n      sload\n        /* \"miscellaneous/SimpleERC223Token.sol\":3300:3331  balanceOf[msg.sender] >= amount */\n      lt\n      iszero\n        /* \"miscellaneous/SimpleERC223Token.sol\":3292:3332  require(balanceOf[msg.sender] >= amount) */\n      iszero\n      iszero\n      tag_23\n      jumpi\n      0x0\n      dup1\n      revert\n    tag_23:\n        /* \"miscellaneous/SimpleERC223Token.sol\":3353:3358  token */\n      0x0\n      dup1\n      swap1\n      sload\n      swap1\n      0x100\n      exp\n      swap1\n      div\n      0xffffffffffffffffffffffffffffffffffffffff\n      and\n        /* \"miscellaneous/SimpleERC223Token.sol\":3353:3367  token.transfer */\n      0xffffffffffffffffffffffffffffffffffffffff\n      and\n      0xa9059cbb\n        /* \"miscellaneous/SimpleERC223Token.sol\":3368:3378  msg.sender */\n      caller\n        /* \"miscellaneous/SimpleERC223Token.sol\":3380:3386  amount */\n      dup4\n        /* \"miscellaneous/SimpleERC223Token.sol\":3353:3387  token.transfer(msg.sender, amount) */\n      mload(0x40)\n      dup4\n      0xffffffff\n      and\n      0x100000000000000000000000000000000000000000000000000000000\n      mul\n      dup2\n      mstore\n      0x4\n      add\n      dup1\n      dup4\n      0xffffffffffffffffffffffffffffffffffffffff\n      and\n      0xffffffffffffffffffffffffffffffffffffffff\n      and\n      dup2\n      mstore\n      0x20\n      add\n      dup3\n      dup2\n      mstore\n      0x20\n      add\n      swap3\n      pop\n      pop\n      pop\n      0x20\n      mload(0x40)\n      dup1\n      dup4\n      sub\n      dup2\n      0x0\n      dup8\n      dup1\n      extcodesize\n      iszero\n        /* \"--CODEGEN--\":8:17   */\n      dup1\n        /* \"--CODEGEN--\":5:7   */\n      iszero\n      tag_24\n      jumpi\n        /* \"--CODEGEN--\":30:31   */\n      0x0\n        /* \"--CODEGEN--\":27:28   */\n      dup1\n        /* \"--CODEGEN--\":20:32   */\n      revert\n        /* \"--CODEGEN--\":5:7   */\n    tag_24:\n        /* \"miscellaneous/SimpleERC223Token.sol\":3353:3387  token.transfer(msg.sender, amount) */\n      pop\n      gas\n      call\n      iszero\n        /* \"--CODEGEN--\":8:17   */\n      dup1\n        /* \"--CODEGEN--\":5:7   */\n      iszero\n      tag_25\n      jumpi\n        /* \"--CODEGEN--\":45:61   */\n      returndatasize\n        /* \"--CODEGEN--\":42:43   */\n      0x0\n        /* \"--CODEGEN--\":39:40   */\n      dup1\n        /* \"--CODEGEN--\":24:62   */\n      returndatacopy\n        /* \"--CODEGEN--\":77:93   */\n      returndatasize\n        /* \"--CODEGEN--\":74:75   */\n      0x0\n        /* \"--CODEGEN--\":67:94   */\n      revert\n        /* \"--CODEGEN--\":5:7   */\n    tag_25:\n        /* \"miscellaneous/SimpleERC223Token.sol\":3353:3387  token.transfer(msg.sender, amount) */\n      pop\n      pop\n      pop\n      pop\n      mload(0x40)\n      returndatasize\n        /* \"--CODEGEN--\":13:15   */\n      0x20\n        /* \"--CODEGEN--\":8:11   */\n      dup2\n        /* \"--CODEGEN--\":5:16   */\n      lt\n        /* \"--CODEGEN--\":2:4   */\n      iszero\n      tag_26\n      jumpi\n        /* \"--CODEGEN--\":29:30   */\n      0x0\n        /* \"--CODEGEN--\":26:27   */\n      dup1\n        /* \"--CODEGEN--\":19:31   */\n      revert\n        /* \"--CODEGEN--\":2:4   */\n    tag_26:\n        /* \"miscellaneous/SimpleERC223Token.sol\":3353:3387  token.transfer(msg.sender, amount) */\n      dup2\n      add\n      swap1\n      dup1\n      dup1\n      mload\n      swap1\n      0x20\n      add\n      swap1\n      swap3\n      swap2\n      swap1\n      pop\n      pop\n      pop\n        /* \"miscellaneous/SimpleERC223Token.sol\":3345:3388  require(token.transfer(msg.sender, amount)) */\n      iszero\n      iszero\n      tag_27\n      jumpi\n      0x0\n      dup1\n      revert\n    tag_27:\n        /* \"miscellaneous/SimpleERC223Token.sol\":3424:3430  amount */\n      dup1\n        /* \"miscellaneous/SimpleERC223Token.sol\":3399:3408  balanceOf */\n      0x1\n        /* \"miscellaneous/SimpleERC223Token.sol\":3399:3420  balanceOf[msg.sender] */\n      0x0\n        /* \"miscellaneous/SimpleERC223Token.sol\":3409:3419  msg.sender */\n      caller\n        /* \"miscellaneous/SimpleERC223Token.sol\":3399:3420  balanceOf[msg.sender] */\n      0xffffffffffffffffffffffffffffffffffffffff\n      and\n      0xffffffffffffffffffffffffffffffffffffffff\n      and\n      dup2\n      mstore\n      0x20\n      add\n      swap1\n      dup2\n      mstore\n      0x20\n      add\n      0x0\n      keccak256\n      0x0\n        /* \"miscellaneous/SimpleERC223Token.sol\":3399:3430  balanceOf[msg.sender] -= amount */\n      dup3\n      dup3\n      sload\n      sub\n      swap3\n      pop\n      pop\n      dup2\n      swap1\n      sstore\n      pop\n        /* \"miscellaneous/SimpleERC223Token.sol\":3240:3438  function withdraw(uint256 amount) public {\r... */\n      pop\n      jump\t// out\n        /* \"miscellaneous/SimpleERC223Token.sol\":2467:2511  mapping(address => uint256) public balanceOf */\n    tag_12:\n      mstore(0x20, 0x1)\n      dup1\n      0x0\n      mstore\n      keccak256(0x0, 0x40)\n      0x0\n      swap2\n      pop\n      swap1\n      pop\n      sload\n      dup2\n      jump\t// out\n        /* \"miscellaneous/SimpleERC223Token.sol\":2902:3003  function isComplete() public view returns (bool) {\r... */\n    tag_15:\n        /* \"miscellaneous/SimpleERC223Token.sol\":2945:2949  bool */\n      0x0\n        /* \"miscellaneous/SimpleERC223Token.sol\":2994:2995  0 */\n      dup1\n        /* \"miscellaneous/SimpleERC223Token.sol\":2969:2974  token */\n      0x0\n      dup1\n      swap1\n      sload\n      swap1\n      0x100\n      exp\n      swap1\n      div\n      0xffffffffffffffffffffffffffffffffffffffff\n      and\n        /* \"miscellaneous/SimpleERC223Token.sol\":2969:2984  token.balanceOf */\n      0xffffffffffffffffffffffffffffffffffffffff\n      and\n      0x70a08231\n        /* \"miscellaneous/SimpleERC223Token.sol\":2985:2989  this */\n      address\n        /* \"miscellaneous/SimpleERC223Token.sol\":2969:2990  token.balanceOf(this) */\n      mload(0x40)\n      dup3\n      0xffffffff\n      and\n      0x100000000000000000000000000000000000000000000000000000000\n      mul\n      dup2\n      mstore\n      0x4\n      add\n      dup1\n      dup3\n      0xffffffffffffffffffffffffffffffffffffffff\n      and\n      0xffffffffffffffffffffffffffffffffffffffff\n      and\n      dup2\n      mstore\n      0x20\n      add\n      swap2\n      pop\n      pop\n      0x20\n      mload(0x40)\n      dup1\n      dup4\n      sub\n      dup2\n      0x0\n      dup8\n      dup1\n      extcodesize\n      iszero\n        /* \"--CODEGEN--\":8:17   */\n      dup1\n        /* \"--CODEGEN--\":5:7   */\n      iszero\n      tag_29\n      jumpi\n        /* \"--CODEGEN--\":30:31   */\n      0x0\n        /* \"--CODEGEN--\":27:28   */\n      dup1\n        /* \"--CODEGEN--\":20:32   */\n      revert\n        /* \"--CODEGEN--\":5:7   */\n    tag_29:\n        /* \"miscellaneous/SimpleERC223Token.sol\":2969:2990  token.balanceOf(this) */\n      pop\n      gas\n      call\n      iszero\n        /* \"--CODEGEN--\":8:17   */\n      dup1\n        /* \"--CODEGEN--\":5:7   */\n      iszero\n      tag_30\n      jumpi\n        /* \"--CODEGEN--\":45:61   */\n      returndatasize\n        /* \"--CODEGEN--\":42:43   */\n      0x0\n        /* \"--CODEGEN--\":39:40   */\n      dup1\n        /* \"--CODEGEN--\":24:62   */\n      returndatacopy\n        /* \"--CODEGEN--\":77:93   */\n      returndatasize\n        /* \"--CODEGEN--\":74:75   */\n      0x0\n        /* \"--CODEGEN--\":67:94   */\n      revert\n        /* \"--CODEGEN--\":5:7   */\n    tag_30:\n        /* \"miscellaneous/SimpleERC223Token.sol\":2969:2990  token.balanceOf(this) */\n      pop\n      pop\n      pop\n      pop\n      mload(0x40)\n      returndatasize\n        /* \"--CODEGEN--\":13:15   */\n      0x20\n        /* \"--CODEGEN--\":8:11   */\n      dup2\n        /* \"--CODEGEN--\":5:16   */\n      lt\n        /* \"--CODEGEN--\":2:4   */\n      iszero\n      tag_31\n      jumpi\n        /* \"--CODEGEN--\":29:30   */\n      0x0\n        /* \"--CODEGEN--\":26:27   */\n      dup1\n        /* \"--CODEGEN--\":19:31   */\n      revert\n        /* \"--CODEGEN--\":2:4   */\n    tag_31:\n        /* \"miscellaneous/SimpleERC223Token.sol\":2969:2990  token.balanceOf(this) */\n      dup2\n      add\n      swap1\n      dup1\n      dup1\n      mload\n      swap1\n      0x20\n      add\n      swap1\n      swap3\n      swap2\n      swap1\n      pop\n      pop\n      pop\n        /* \"miscellaneous/SimpleERC223Token.sol\":2969:2995  token.balanceOf(this) == 0 */\n      eq\n        /* \"miscellaneous/SimpleERC223Token.sol\":2962:2995  return token.balanceOf(this) == 0 */\n      swap1\n      pop\n        /* \"miscellaneous/SimpleERC223Token.sol\":2902:3003  function isComplete() public view returns (bool) {\r... */\n      swap1\n      jump\t// out\n        /* \"miscellaneous/SimpleERC223Token.sol\":3011:3232  function tokenFallback(address from, uint256 value, bytes) public {\r... */\n    tag_18:\n        /* \"miscellaneous/SimpleERC223Token.sol\":3118:3123  token */\n      0x0\n      dup1\n      swap1\n      sload\n      swap1\n      0x100\n      exp\n      swap1\n      div\n      0xffffffffffffffffffffffffffffffffffffffff\n      and\n        /* \"miscellaneous/SimpleERC223Token.sol\":3096:3124  msg.sender == address(token) */\n      0xffffffffffffffffffffffffffffffffffffffff\n      and\n        /* \"miscellaneous/SimpleERC223Token.sol\":3096:3106  msg.sender */\n      caller\n        /* \"miscellaneous/SimpleERC223Token.sol\":3096:3124  msg.sender == address(token) */\n      0xffffffffffffffffffffffffffffffffffffffff\n      and\n      eq\n        /* \"miscellaneous/SimpleERC223Token.sol\":3088:3125  require(msg.sender == address(token)) */\n      iszero\n      iszero\n      tag_33\n      jumpi\n      0x0\n      dup1\n      revert\n    tag_33:\n        /* \"miscellaneous/SimpleERC223Token.sol\":3171:3180  balanceOf */\n      0x1\n        /* \"miscellaneous/SimpleERC223Token.sol\":3171:3186  balanceOf[from] */\n      0x0\n        /* \"miscellaneous/SimpleERC223Token.sol\":3181:3185  from */\n      dup5\n        /* \"miscellaneous/SimpleERC223Token.sol\":3171:3186  balanceOf[from] */\n      0xffffffffffffffffffffffffffffffffffffffff\n      and\n      0xffffffffffffffffffffffffffffffffffffffff\n      and\n      dup2\n      mstore\n      0x20\n      add\n      swap1\n      dup2\n      mstore\n      0x20\n      add\n      0x0\n      keccak256\n      sload\n        /* \"miscellaneous/SimpleERC223Token.sol\":3162:3167  value */\n      dup3\n        /* \"miscellaneous/SimpleERC223Token.sol\":3144:3153  balanceOf */\n      0x1\n        /* \"miscellaneous/SimpleERC223Token.sol\":3144:3159  balanceOf[from] */\n      0x0\n        /* \"miscellaneous/SimpleERC223Token.sol\":3154:3158  from */\n      dup7\n        /* \"miscellaneous/SimpleERC223Token.sol\":3144:3159  balanceOf[from] */\n      0xffffffffffffffffffffffffffffffffffffffff\n      and\n      0xffffffffffffffffffffffffffffffffffffffff\n      and\n      dup2\n      mstore\n      0x20\n      add\n      swap1\n      dup2\n      mstore\n      0x20\n      add\n      0x0\n      keccak256\n      sload\n        /* \"miscellaneous/SimpleERC223Token.sol\":3144:3167  balanceOf[from] + value */\n      add\n        /* \"miscellaneous/SimpleERC223Token.sol\":3144:3186  balanceOf[from] + value >= balanceOf[from] */\n      lt\n      iszero\n        /* \"miscellaneous/SimpleERC223Token.sol\":3136:3187  require(balanceOf[from] + value >= balanceOf[from]) */\n      iszero\n      iszero\n      tag_34\n      jumpi\n      0x0\n      dup1\n      revert\n    tag_34:\n        /* \"miscellaneous/SimpleERC223Token.sol\":3219:3224  value */\n      dup2\n        /* \"miscellaneous/SimpleERC223Token.sol\":3200:3209  balanceOf */\n      0x1\n        /* \"miscellaneous/SimpleERC223Token.sol\":3200:3215  balanceOf[from] */\n      0x0\n        /* \"miscellaneous/SimpleERC223Token.sol\":3210:3214  from */\n      dup6\n        /* \"miscellaneous/SimpleERC223Token.sol\":3200:3215  balanceOf[from] */\n      0xffffffffffffffffffffffffffffffffffffffff\n      and\n      0xffffffffffffffffffffffffffffffffffffffff\n      and\n      dup2\n      mstore\n      0x20\n      add\n      swap1\n      dup2\n      mstore\n      0x20\n      add\n      0x0\n      keccak256\n      0x0\n        /* \"miscellaneous/SimpleERC223Token.sol\":3200:3224  balanceOf[from] += value */\n      dup3\n      dup3\n      sload\n      add\n      swap3\n      pop\n      pop\n      dup2\n      swap1\n      sstore\n      pop\n        /* \"miscellaneous/SimpleERC223Token.sol\":3011:3232  function tokenFallback(address from, uint256 value, bytes) public {\r... */\n      pop\n      pop\n      pop\n      jump\t// out\n        /* \"miscellaneous/SimpleERC223Token.sol\":2430:2460  SimpleERC223Token public token */\n    tag_21:\n      0x0\n      dup1\n      swap1\n      sload\n      swap1\n      0x100\n      exp\n      swap1\n      div\n      0xffffffffffffffffffffffffffffffffffffffff\n      and\n      dup2\n      jump\t// out\n\n    auxdata: 0xa165627a7a72305820f7a4e4264c6961f79e7028459b21ca31a282c3dc4cd230d63d5b1f73d03cd35e0029\n}\n\nsub_1: assembly {\n        /* \"miscellaneous/SimpleERC223Token.sol\":140:2391  contract SimpleERC223Token {\r... */\n      mstore(0x40, 0x80)\n        /* \"miscellaneous/SimpleERC223Token.sol\":285:327  string public name = \"Simple ERC223 Token\" */\n      0x40\n      dup1\n      mload\n      swap1\n      dup2\n      add\n      0x40\n      mstore\n      dup1\n      0x13\n      dup2\n      mstore\n      0x20\n      add\n      0x53696d706c652045524332323320546f6b656e00000000000000000000000000\n      dup2\n      mstore\n      pop\n      0x1\n      swap1\n      dup1\n      mload\n      swap1\n      0x20\n      add\n      swap1\n      tag_1\n      swap3\n      swap2\n      swap1\n      jump\t// in(tag_2)\n    tag_1:\n      pop\n        /* \"miscellaneous/SimpleERC223Token.sol\":334:362  string public symbol = \"SET\" */\n      0x40\n      dup1\n      mload\n      swap1\n      dup2\n      add\n      0x40\n      mstore\n      dup1\n      0x3\n      dup2\n      mstore\n      0x20\n      add\n      0x5345540000000000000000000000000000000000000000000000000000000000\n      dup2\n      mstore\n      pop\n      0x2\n      swap1\n      dup1\n      mload\n      swap1\n      0x20\n      add\n      swap1\n      tag_3\n      swap3\n      swap2\n      swap1\n      jump\t// in(tag_2)\n    tag_3:\n      pop\n        /* \"miscellaneous/SimpleERC223Token.sol\":393:395  18 */\n      0x12\n        /* \"miscellaneous/SimpleERC223Token.sol\":369:395  uint8 public decimals = 18 */\n      0x3\n      exp(0x100, 0x0)\n      dup2\n      sload\n      dup2\n      0xff\n      mul\n      not\n      and\n      swap1\n      dup4\n      0xff\n      and\n      mul\n      or\n      swap1\n      sstore\n      pop\n        /* \"miscellaneous/SimpleERC223Token.sol\":459:467  decimals */\n      0x3\n      0x0\n      swap1\n      sload\n      swap1\n      0x100\n      exp\n      swap1\n      div\n      0xff\n      and\n        /* \"miscellaneous/SimpleERC223Token.sol\":444:467  uint256(10) ** decimals */\n      0xff\n      and\n        /* \"miscellaneous/SimpleERC223Token.sol\":452:454  10 */\n      0xa\n        /* \"miscellaneous/SimpleERC223Token.sol\":444:467  uint256(10) ** decimals */\n      exp\n        /* \"miscellaneous/SimpleERC223Token.sol\":433:440  1000000 */\n      0xf4240\n        /* \"miscellaneous/SimpleERC223Token.sol\":433:468  1000000 * (uint256(10) ** decimals) */\n      mul\n        /* \"miscellaneous/SimpleERC223Token.sol\":404:468  uint256 public totalSupply = 1000000 * (uint256(10) ** decimals) */\n      0x4\n      sstore\n        /* \"miscellaneous/SimpleERC223Token.sol\":557:708  function SimpleERC223Token() public {\r... */\n      callvalue\n        /* \"--CODEGEN--\":8:17   */\n      dup1\n        /* \"--CODEGEN--\":5:7   */\n      iszero\n      tag_4\n      jumpi\n        /* \"--CODEGEN--\":30:31   */\n      0x0\n        /* \"--CODEGEN--\":27:28   */\n      dup1\n        /* \"--CODEGEN--\":20:32   */\n      revert\n        /* \"--CODEGEN--\":5:7   */\n    tag_4:\n        /* \"miscellaneous/SimpleERC223Token.sol\":557:708  function SimpleERC223Token() public {\r... */\n      pop\n        /* \"miscellaneous/SimpleERC223Token.sol\":628:639  totalSupply */\n      sload(0x4)\n        /* \"miscellaneous/SimpleERC223Token.sol\":604:613  balanceOf */\n      0x0\n        /* \"miscellaneous/SimpleERC223Token.sol\":604:625  balanceOf[msg.sender] */\n      dup1\n        /* \"miscellaneous/SimpleERC223Token.sol\":614:624  msg.sender */\n      caller\n        /* \"miscellaneous/SimpleERC223Token.sol\":604:625  balanceOf[msg.sender] */\n      0xffffffffffffffffffffffffffffffffffffffff\n      and\n      0xffffffffffffffffffffffffffffffffffffffff\n      and\n      dup2\n      mstore\n      0x20\n      add\n      swap1\n      dup2\n      mstore\n      0x20\n      add\n      0x0\n      keccak256\n        /* \"miscellaneous/SimpleERC223Token.sol\":604:639  balanceOf[msg.sender] = totalSupply */\n      dup2\n      swap1\n      sstore\n      pop\n        /* \"miscellaneous/SimpleERC223Token.sol\":676:686  msg.sender */\n      caller\n        /* \"miscellaneous/SimpleERC223Token.sol\":655:700  Transfer(address(0), msg.sender, totalSupply) */\n      0xffffffffffffffffffffffffffffffffffffffff\n      and\n        /* \"miscellaneous/SimpleERC223Token.sol\":672:673  0 */\n      0x0\n        /* \"miscellaneous/SimpleERC223Token.sol\":655:700  Transfer(address(0), msg.sender, totalSupply) */\n      0xffffffffffffffffffffffffffffffffffffffff\n      and\n      0xddf252ad1be2c89b69c2b068fc378daa952ba7f163c4a11628f55a4df523b3ef\n        /* \"miscellaneous/SimpleERC223Token.sol\":688:699  totalSupply */\n      sload(0x4)\n        /* \"miscellaneous/SimpleERC223Token.sol\":655:700  Transfer(address(0), msg.sender, totalSupply) */\n      mload(0x40)\n      dup1\n      dup3\n      dup2\n      mstore\n      0x20\n      add\n      swap2\n      pop\n      pop\n      mload(0x40)\n      dup1\n      swap2\n      sub\n      swap1\n      log3\n        /* \"miscellaneous/SimpleERC223Token.sol\":140:2391  contract SimpleERC223Token {\r... */\n      jump(tag_7)\n    tag_2:\n      dup3\n      dup1\n      sload\n      0x1\n      dup2\n      0x1\n      and\n      iszero\n      0x100\n      mul\n      sub\n      and\n      0x2\n      swap1\n      div\n      swap1\n      0x0\n      mstore\n      keccak256(0x0, 0x20)\n      swap1\n      0x1f\n      add\n      0x20\n      swap1\n      div\n      dup2\n      add\n      swap3\n      dup3\n      0x1f\n      lt\n      tag_9\n      jumpi\n      dup1\n      mload\n      not(0xff)\n      and\n      dup4\n      dup1\n      add\n      or\n      dup6\n      sstore\n      jump(tag_8)\n    tag_9:\n      dup3\n      dup1\n      add\n      0x1\n      add\n      dup6\n      sstore\n      dup3\n      iszero\n      tag_8\n      jumpi\n      swap2\n      dup3\n      add\n    tag_10:\n      dup3\n      dup2\n      gt\n      iszero\n      tag_11\n      jumpi\n      dup3\n      mload\n      dup3\n      sstore\n      swap2\n      0x20\n      add\n      swap2\n      swap1\n      0x1\n      add\n      swap1\n      jump(tag_10)\n    tag_11:\n    tag_8:\n      pop\n      swap1\n      pop\n      tag_12\n      swap2\n      swap1\n      jump\t// in(tag_13)\n    tag_12:\n      pop\n      swap1\n      jump\t// out\n    tag_13:\n      tag_14\n      swap2\n      swap1\n    tag_15:\n      dup1\n      dup3\n      gt\n      iszero\n      tag_16\n      jumpi\n      0x0\n      dup2\n      0x0\n      swap1\n      sstore\n      pop\n      0x1\n      add\n      jump(tag_15)\n    tag_16:\n      pop\n      swap1\n      jump\n    tag_14:\n      swap1\n      jump\t// out\n    tag_7:\n      dataSize(sub_0)\n      dup1\n      dataOffset(sub_0)\n      0x0\n      codecopy\n      0x0\n      return\n    stop\n\n    sub_0: assembly {\n            /* \"miscellaneous/SimpleERC223Token.sol\":140:2391  contract SimpleERC223Token {\r... */\n          mstore(0x40, 0x80)\n          jumpi(tag_1, lt(calldatasize, 0x4))\n          calldataload(0x0)\n          0x100000000000000000000000000000000000000000000000000000000\n          swap1\n          div\n          0xffffffff\n          and\n          dup1\n          0x6fdde03\n          eq\n          tag_2\n          jumpi\n          dup1\n          0x95ea7b3\n          eq\n          tag_3\n          jumpi\n          dup1\n          0x18160ddd\n          eq\n          tag_4\n          jumpi\n          dup1\n          0x23b872dd\n          eq\n          tag_5\n          jumpi\n          dup1\n          0x313ce567\n          eq\n          tag_6\n          jumpi\n          dup1\n          0x70a08231\n          eq\n          tag_7\n          jumpi\n          dup1\n          0x95d89b41\n          eq\n          tag_8\n          jumpi\n          dup1\n          0xa9059cbb\n          eq\n          tag_9\n          jumpi\n          dup1\n          0xbe45fd62\n          eq\n          tag_10\n          jumpi\n          dup1\n          0xdd62ed3e\n          eq\n          tag_11\n          jumpi\n        tag_1:\n          0x0\n          dup1\n          revert\n            /* \"miscellaneous/SimpleERC223Token.sol\":285:327  string public name = \"Simple ERC223 Token\" */\n        tag_2:\n          callvalue\n            /* \"--CODEGEN--\":8:17   */\n          dup1\n            /* \"--CODEGEN--\":5:7   */\n          iszero\n          tag_12\n          jumpi\n            /* \"--CODEGEN--\":30:31   */\n          0x0\n            /* \"--CODEGEN--\":27:28   */\n          dup1\n            /* \"--CODEGEN--\":20:32   */\n          revert\n            /* \"--CODEGEN--\":5:7   */\n        tag_12:\n            /* \"miscellaneous/SimpleERC223Token.sol\":285:327  string public name = \"Simple ERC223 Token\" */\n          pop\n          tag_13\n          jump(tag_14)\n        tag_13:\n          mload(0x40)\n          dup1\n          dup1\n          0x20\n          add\n          dup3\n          dup2\n          sub\n          dup3\n          mstore\n          dup4\n          dup2\n          dup2\n          mload\n          dup2\n          mstore\n          0x20\n          add\n          swap2\n          pop\n          dup1\n          mload\n          swap1\n          0x20\n          add\n          swap1\n          dup1\n          dup4\n          dup4\n            /* \"--CODEGEN--\":23:24   */\n          0x0\n            /* \"--CODEGEN--\":8:108   */\n        tag_15:\n            /* \"--CODEGEN--\":33:36   */\n          dup4\n            /* \"--CODEGEN--\":30:31   */\n          dup2\n            /* \"--CODEGEN--\":27:37   */\n          lt\n            /* \"--CODEGEN--\":8:108   */\n          iszero\n          tag_16\n          jumpi\n            /* \"--CODEGEN--\":99:100   */\n          dup1\n            /* \"--CODEGEN--\":94:97   */\n          dup3\n            /* \"--CODEGEN--\":90:101   */\n          add\n            /* \"--CODEGEN--\":84:102   */\n          mload\n            /* \"--CODEGEN--\":80:81   */\n          dup2\n            /* \"--CODEGEN--\":75:78   */\n          dup5\n            /* \"--CODEGEN--\":71:82   */\n          add\n            /* \"--CODEGEN--\":64:103   */\n          mstore\n            /* \"--CODEGEN--\":52:54   */\n          0x20\n            /* \"--CODEGEN--\":49:50   */\n          dup2\n            /* \"--CODEGEN--\":45:55   */\n          add\n            /* \"--CODEGEN--\":40:55   */\n          swap1\n          pop\n            /* \"--CODEGEN--\":8:108   */\n          jump(tag_15)\n        tag_16:\n            /* \"--CODEGEN--\":12:26   */\n          pop\n            /* \"miscellaneous/SimpleERC223Token.sol\":285:327  string public name = \"Simple ERC223 Token\" */\n          pop\n          pop\n          pop\n          swap1\n          pop\n          swap1\n          dup2\n          add\n          swap1\n          0x1f\n          and\n          dup1\n          iszero\n          tag_18\n          jumpi\n          dup1\n          dup3\n          sub\n          dup1\n          mload\n          0x1\n          dup4\n          0x20\n          sub\n          0x100\n          exp\n          sub\n          not\n          and\n          dup2\n          mstore\n          0x20\n          add\n          swap2\n          pop\n        tag_18:\n          pop\n          swap3\n          pop\n          pop\n          pop\n          mload(0x40)\n          dup1\n          swap2\n          sub\n          swap1\n          return\n            /* \"miscellaneous/SimpleERC223Token.sol\":1743:1976  function approve(address spender, uint256 value)\r... */\n        tag_3:\n          callvalue\n            /* \"--CODEGEN--\":8:17   */\n          dup1\n            /* \"--CODEGEN--\":5:7   */\n          iszero\n          tag_19\n          jumpi\n            /* \"--CODEGEN--\":30:31   */\n          0x0\n            /* \"--CODEGEN--\":27:28   */\n          dup1\n            /* \"--CODEGEN--\":20:32   */\n          revert\n            /* \"--CODEGEN--\":5:7   */\n        tag_19:\n            /* \"miscellaneous/SimpleERC223Token.sol\":1743:1976  function approve(address spender, uint256 value)\r... */\n          pop\n          tag_20\n          0x4\n          dup1\n          calldatasize\n          sub\n          dup2\n          add\n          swap1\n          dup1\n          dup1\n          calldataload\n          0xffffffffffffffffffffffffffffffffffffffff\n          and\n          swap1\n          0x20\n          add\n          swap1\n          swap3\n          swap2\n          swap1\n          dup1\n          calldataload\n          swap1\n          0x20\n          add\n          swap1\n          swap3\n          swap2\n          swap1\n          pop\n          pop\n          pop\n          jump(tag_21)\n        tag_20:\n          mload(0x40)\n          dup1\n          dup3\n          iszero\n          iszero\n          iszero\n          iszero\n          dup2\n          mstore\n          0x20\n          add\n          swap2\n          pop\n          pop\n          mload(0x40)\n          dup1\n          swap2\n          sub\n          swap1\n          return\n            /* \"miscellaneous/SimpleERC223Token.sol\":404:468  uint256 public totalSupply = 1000000 * (uint256(10) ** decimals) */\n        tag_4:\n          callvalue\n            /* \"--CODEGEN--\":8:17   */\n          dup1\n            /* \"--CODEGEN--\":5:7   */\n          iszero\n          tag_22\n          jumpi\n            /* \"--CODEGEN--\":30:31   */\n          0x0\n            /* \"--CODEGEN--\":27:28   */\n          dup1\n            /* \"--CODEGEN--\":20:32   */\n          revert\n            /* \"--CODEGEN--\":5:7   */\n        tag_22:\n            /* \"miscellaneous/SimpleERC223Token.sol\":404:468  uint256 public totalSupply = 1000000 * (uint256(10) ** decimals) */\n          pop\n          tag_23\n          jump(tag_24)\n        tag_23:\n          mload(0x40)\n          dup1\n          dup3\n          dup2\n          mstore\n          0x20\n          add\n          swap2\n          pop\n          pop\n          mload(0x40)\n          dup1\n          swap2\n          sub\n          swap1\n          return\n            /* \"miscellaneous/SimpleERC223Token.sol\":1984:2388  function transferFrom(address from, address to, uint256 value)\r... */\n        tag_5:\n          callvalue\n            /* \"--CODEGEN--\":8:17   */\n          dup1\n            /* \"--CODEGEN--\":5:7   */\n          iszero\n          tag_25\n          jumpi\n            /* \"--CODEGEN--\":30:31   */\n          0x0\n            /* \"--CODEGEN--\":27:28   */\n          dup1\n            /* \"--CODEGEN--\":20:32   */\n          revert\n            /* \"--CODEGEN--\":5:7   */\n        tag_25:\n            /* \"miscellaneous/SimpleERC223Token.sol\":1984:2388  function transferFrom(address from, address to, uint256 value)\r... */\n          pop\n          tag_26\n          0x4\n          dup1\n          calldatasize\n          sub\n          dup2\n          add\n          swap1\n          dup1\n          dup1\n          calldataload\n          0xffffffffffffffffffffffffffffffffffffffff\n          and\n          swap1\n          0x20\n          add\n          swap1\n          swap3\n          swap2\n          swap1\n          dup1\n          calldataload\n          0xffffffffffffffffffffffffffffffffffffffff\n          and\n          swap1\n          0x20\n          add\n          swap1\n          swap3\n          swap2\n          swap1\n          dup1\n          calldataload\n          swap1\n          0x20\n          add\n          swap1\n          swap3\n          swap2\n          swap1\n          pop\n          pop\n          pop\n          jump(tag_27)\n        tag_26:\n          mload(0x40)\n          dup1\n          dup3\n          iszero\n          iszero\n          iszero\n          iszero\n          dup2\n          mstore\n          0x20\n          add\n          swap2\n          pop\n          pop\n          mload(0x40)\n          dup1\n          swap2\n          sub\n          swap1\n          return\n            /* \"miscellaneous/SimpleERC223Token.sol\":369:395  uint8 public decimals = 18 */\n        tag_6:\n          callvalue\n            /* \"--CODEGEN--\":8:17   */\n          dup1\n            /* \"--CODEGEN--\":5:7   */\n          iszero\n          tag_28\n          jumpi\n            /* \"--CODEGEN--\":30:31   */\n          0x0\n            /* \"--CODEGEN--\":27:28   */\n          dup1\n            /* \"--CODEGEN--\":20:32   */\n          revert\n            /* \"--CODEGEN--\":5:7   */\n        tag_28:\n            /* \"miscellaneous/SimpleERC223Token.sol\":369:395  uint8 public decimals = 18 */\n          pop\n          tag_29\n          jump(tag_30)\n        tag_29:\n          mload(0x40)\n          dup1\n          dup3\n          0xff\n          and\n          0xff\n          and\n          dup2\n          mstore\n          0x20\n          add\n          swap2\n          pop\n          pop\n          mload(0x40)\n          dup1\n          swap2\n          sub\n          swap1\n          return\n            /* \"miscellaneous/SimpleERC223Token.sol\":231:276  mapping (address => uint256) public balanceOf */\n        tag_7:\n          callvalue\n            /* \"--CODEGEN--\":8:17   */\n          dup1\n            /* \"--CODEGEN--\":5:7   */\n          iszero\n          tag_31\n          jumpi\n            /* \"--CODEGEN--\":30:31   */\n          0x0\n            /* \"--CODEGEN--\":27:28   */\n          dup1\n            /* \"--CODEGEN--\":20:32   */\n          revert\n            /* \"--CODEGEN--\":5:7   */\n        tag_31:\n            /* \"miscellaneous/SimpleERC223Token.sol\":231:276  mapping (address => uint256) public balanceOf */\n          pop\n          tag_32\n          0x4\n          dup1\n          calldatasize\n          sub\n          dup2\n          add\n          swap1\n          dup1\n          dup1\n          calldataload\n          0xffffffffffffffffffffffffffffffffffffffff\n          and\n          swap1\n          0x20\n          add\n          swap1\n          swap3\n          swap2\n          swap1\n          pop\n          pop\n          pop\n          jump(tag_33)\n        tag_32:\n          mload(0x40)\n          dup1\n          dup3\n          dup2\n          mstore\n          0x20\n          add\n          swap2\n          pop\n          pop\n          mload(0x40)\n          dup1\n          swap2\n          sub\n          swap1\n          return\n            /* \"miscellaneous/SimpleERC223Token.sol\":334:362  string public symbol = \"SET\" */\n        tag_8:\n          callvalue\n            /* \"--CODEGEN--\":8:17   */\n          dup1\n            /* \"--CODEGEN--\":5:7   */\n          iszero\n          tag_34\n          jumpi\n            /* \"--CODEGEN--\":30:31   */\n          0x0\n            /* \"--CODEGEN--\":27:28   */\n          dup1\n            /* \"--CODEGEN--\":20:32   */\n          revert\n            /* \"--CODEGEN--\":5:7   */\n        tag_34:\n            /* \"miscellaneous/SimpleERC223Token.sol\":334:362  string public symbol = \"SET\" */\n          pop\n          tag_35\n          jump(tag_36)\n        tag_35:\n          mload(0x40)\n          dup1\n          dup1\n          0x20\n          add\n          dup3\n          dup2\n          sub\n          dup3\n          mstore\n          dup4\n          dup2\n          dup2\n          mload\n          dup2\n          mstore\n          0x20\n          add\n          swap2\n          pop\n          dup1\n          mload\n          swap1\n          0x20\n          add\n          swap1\n          dup1\n          dup4\n          dup4\n            /* \"--CODEGEN--\":23:24   */\n          0x0\n            /* \"--CODEGEN--\":8:108   */\n        tag_37:\n            /* \"--CODEGEN--\":33:36   */\n          dup4\n            /* \"--CODEGEN--\":30:31   */\n          dup2\n            /* \"--CODEGEN--\":27:37   */\n          lt\n            /* \"--CODEGEN--\":8:108   */\n          iszero\n          tag_38\n          jumpi\n            /* \"--CODEGEN--\":99:100   */\n          dup1\n            /* \"--CODEGEN--\":94:97   */\n          dup3\n            /* \"--CODEGEN--\":90:101   */\n          add\n            /* \"--CODEGEN--\":84:102   */\n          mload\n            /* \"--CODEGEN--\":80:81   */\n          dup2\n            /* \"--CODEGEN--\":75:78   */\n          dup5\n            /* \"--CODEGEN--\":71:82   */\n          add\n            /* \"--CODEGEN--\":64:103   */\n          mstore\n            /* \"--CODEGEN--\":52:54   */\n          0x20\n            /* \"--CODEGEN--\":49:50   */\n          dup2\n            /* \"--CODEGEN--\":45:55   */\n          add\n            /* \"--CODEGEN--\":40:55   */\n          swap1\n          pop\n            /* \"--CODEGEN--\":8:108   */\n          jump(tag_37)\n        tag_38:\n            /* \"--CODEGEN--\":12:26   */\n          pop\n            /* \"miscellaneous/SimpleERC223Token.sol\":334:362  string public symbol = \"SET\" */\n          pop\n          pop\n          pop\n          swap1\n          pop\n          swap1\n          dup2\n          add\n          swap1\n          0x1f\n          and\n          dup1\n          iszero\n          tag_40\n          jumpi\n          dup1\n          dup3\n          sub\n          dup1\n          mload\n          0x1\n          dup4\n          0x20\n          sub\n          0x100\n          exp\n          sub\n          not\n          and\n          dup2\n          mstore\n          0x20\n          add\n          swap2\n          pop\n        tag_40:\n          pop\n          swap3\n          pop\n          pop\n          pop\n          mload(0x40)\n          dup1\n          swap2\n          sub\n          swap1\n          return\n            /* \"miscellaneous/SimpleERC223Token.sol\":1014:1170  function transfer(address to, uint256 value) public returns (bool success) {\r... */\n        tag_9:\n          callvalue\n            /* \"--CODEGEN--\":8:17   */\n          dup1\n            /* \"--CODEGEN--\":5:7   */\n          iszero\n          tag_41\n          jumpi\n            /* \"--CODEGEN--\":30:31   */\n          0x0\n            /* \"--CODEGEN--\":27:28   */\n          dup1\n            /* \"--CODEGEN--\":20:32   */\n          revert\n            /* \"--CODEGEN--\":5:7   */\n        tag_41:\n            /* \"miscellaneous/SimpleERC223Token.sol\":1014:1170  function transfer(address to, uint256 value) public returns (bool success) {\r... */\n          pop\n          tag_42\n          0x4\n          dup1\n          calldatasize\n          sub\n          dup2\n          add\n          swap1\n          dup1\n          dup1\n          calldataload\n          0xffffffffffffffffffffffffffffffffffffffff\n          and\n          swap1\n          0x20\n          add\n          swap1\n          swap3\n          swap2\n          swap1\n          dup1\n          calldataload\n          swap1\n          0x20\n          add\n          swap1\n          swap3\n          swap2\n          swap1\n          pop\n          pop\n          pop\n          jump(tag_43)\n        tag_42:\n          mload(0x40)\n          dup1\n          dup3\n          iszero\n          iszero\n          iszero\n          iszero\n          dup2\n          mstore\n          0x20\n          add\n          swap2\n          pop\n          pop\n          mload(0x40)\n          dup1\n          swap2\n          sub\n          swap1\n          return\n            /* \"miscellaneous/SimpleERC223Token.sol\":1178:1576  function transfer(address to, uint256 value, bytes data) public returns (bool) {\r... */\n        tag_10:\n          callvalue\n            /* \"--CODEGEN--\":8:17   */\n          dup1\n            /* \"--CODEGEN--\":5:7   */\n          iszero\n          tag_44\n          jumpi\n            /* \"--CODEGEN--\":30:31   */\n          0x0\n            /* \"--CODEGEN--\":27:28   */\n          dup1\n            /* \"--CODEGEN--\":20:32   */\n          revert\n            /* \"--CODEGEN--\":5:7   */\n        tag_44:\n            /* \"miscellaneous/SimpleERC223Token.sol\":1178:1576  function transfer(address to, uint256 value, bytes data) public returns (bool) {\r... */\n          pop\n          tag_45\n          0x4\n          dup1\n          calldatasize\n          sub\n          dup2\n          add\n          swap1\n          dup1\n          dup1\n          calldataload\n          0xffffffffffffffffffffffffffffffffffffffff\n          and\n          swap1\n          0x20\n          add\n          swap1\n          swap3\n          swap2\n          swap1\n          dup1\n          calldataload\n          swap1\n          0x20\n          add\n          swap1\n          swap3\n          swap2\n          swap1\n          dup1\n          calldataload\n          swap1\n          0x20\n          add\n          swap1\n          dup3\n          add\n          dup1\n          calldataload\n          swap1\n          0x20\n          add\n          swap1\n          dup1\n          dup1\n          0x1f\n          add\n          0x20\n          dup1\n          swap2\n          div\n          mul\n          0x20\n          add\n          mload(0x40)\n          swap1\n          dup2\n          add\n          0x40\n          mstore\n          dup1\n          swap4\n          swap3\n          swap2\n          swap1\n          dup2\n          dup2\n          mstore\n          0x20\n          add\n          dup4\n          dup4\n          dup1\n          dup3\n          dup5\n          calldatacopy\n          dup3\n          add\n          swap2\n          pop\n          pop\n          pop\n          pop\n          pop\n          pop\n          swap2\n          swap3\n          swap2\n          swap3\n          swap1\n          pop\n          pop\n          pop\n          jump(tag_46)\n        tag_45:\n          mload(0x40)\n          dup1\n          dup3\n          iszero\n          iszero\n          iszero\n          iszero\n          dup2\n          mstore\n          0x20\n          add\n          swap2\n          pop\n          pop\n          mload(0x40)\n          dup1\n          swap2\n          sub\n          swap1\n          return\n            /* \"miscellaneous/SimpleERC223Token.sol\":1670:1734  mapping(address => mapping(address => uint256)) public allowance */\n        tag_11:\n          callvalue\n            /* \"--CODEGEN--\":8:17   */\n          dup1\n            /* \"--CODEGEN--\":5:7   */\n          iszero\n          tag_47\n          jumpi\n            /* \"--CODEGEN--\":30:31   */\n          0x0\n            /* \"--CODEGEN--\":27:28   */\n          dup1\n            /* \"--CODEGEN--\":20:32   */\n          revert\n            /* \"--CODEGEN--\":5:7   */\n        tag_47:\n            /* \"miscellaneous/SimpleERC223Token.sol\":1670:1734  mapping(address => mapping(address => uint256)) public allowance */\n          pop\n          tag_48\n          0x4\n          dup1\n          calldatasize\n          sub\n          dup2\n          add\n          swap1\n          dup1\n          dup1\n          calldataload\n          0xffffffffffffffffffffffffffffffffffffffff\n          and\n          swap1\n          0x20\n          add\n          swap1\n          swap3\n          swap2\n          swap1\n          dup1\n          calldataload\n          0xffffffffffffffffffffffffffffffffffffffff\n          and\n          swap1\n          0x20\n          add\n          swap1\n          swap3\n          swap2\n          swap1\n          pop\n          pop\n          pop\n          jump(tag_49)\n        tag_48:\n          mload(0x40)\n          dup1\n          dup3\n          dup2\n          mstore\n          0x20\n          add\n          swap2\n          pop\n          pop\n          mload(0x40)\n          dup1\n          swap2\n          sub\n          swap1\n          return\n            /* \"miscellaneous/SimpleERC223Token.sol\":285:327  string public name = \"Simple ERC223 Token\" */\n        tag_14:\n          0x1\n          dup1\n          sload\n          0x1\n          dup2\n          0x1\n          and\n          iszero\n          0x100\n          mul\n          sub\n          and\n          0x2\n          swap1\n          div\n          dup1\n          0x1f\n          add\n          0x20\n          dup1\n          swap2\n          div\n          mul\n          0x20\n          add\n          mload(0x40)\n          swap1\n          dup2\n          add\n          0x40\n          mstore\n          dup1\n          swap3\n          swap2\n          swap1\n          dup2\n          dup2\n          mstore\n          0x20\n          add\n          dup3\n          dup1\n          sload\n          0x1\n          dup2\n          0x1\n          and\n          iszero\n          0x100\n          mul\n          sub\n          and\n          0x2\n          swap1\n          div\n          dup1\n          iszero\n          tag_50\n          jumpi\n          dup1\n          0x1f\n          lt\n          tag_51\n          jumpi\n          0x100\n          dup1\n          dup4\n          sload\n          div\n          mul\n          dup4\n          mstore\n          swap2\n          0x20\n          add\n          swap2\n          jump(tag_50)\n        tag_51:\n          dup3\n          add\n          swap2\n          swap1\n          0x0\n          mstore\n          keccak256(0x0, 0x20)\n          swap1\n        tag_52:\n          dup2\n          sload\n          dup2\n          mstore\n          swap1\n          0x1\n          add\n          swap1\n          0x20\n          add\n          dup1\n          dup4\n          gt\n          tag_52\n          jumpi\n          dup3\n          swap1\n          sub\n          0x1f\n          and\n          dup3\n          add\n          swap2\n        tag_50:\n          pop\n          pop\n          pop\n          pop\n          pop\n          dup2\n          jump\t// out\n            /* \"miscellaneous/SimpleERC223Token.sol\":1743:1976  function approve(address spender, uint256 value)\r... */\n        tag_21:\n            /* \"miscellaneous/SimpleERC223Token.sol\":1826:1838  bool success */\n          0x0\n            /* \"miscellaneous/SimpleERC223Token.sol\":1889:1894  value */\n          dup2\n            /* \"miscellaneous/SimpleERC223Token.sol\":1856:1865  allowance */\n          0x5\n            /* \"miscellaneous/SimpleERC223Token.sol\":1856:1877  allowance[msg.sender] */\n          0x0\n            /* \"miscellaneous/SimpleERC223Token.sol\":1866:1876  msg.sender */\n          caller\n            /* \"miscellaneous/SimpleERC223Token.sol\":1856:1877  allowance[msg.sender] */\n          0xffffffffffffffffffffffffffffffffffffffff\n          and\n          0xffffffffffffffffffffffffffffffffffffffff\n          and\n          dup2\n          mstore\n          0x20\n          add\n          swap1\n          dup2\n          mstore\n          0x20\n          add\n          0x0\n          keccak256\n            /* \"miscellaneous/SimpleERC223Token.sol\":1856:1886  allowance[msg.sender][spender] */\n          0x0\n            /* \"miscellaneous/SimpleERC223Token.sol\":1878:1885  spender */\n          dup6\n            /* \"miscellaneous/SimpleERC223Token.sol\":1856:1886  allowance[msg.sender][spender] */\n          0xffffffffffffffffffffffffffffffffffffffff\n          and\n          0xffffffffffffffffffffffffffffffffffffffff\n          and\n          dup2\n          mstore\n          0x20\n          add\n          swap1\n          dup2\n          mstore\n          0x20\n          add\n          0x0\n          keccak256\n            /* \"miscellaneous/SimpleERC223Token.sol\":1856:1894  allowance[msg.sender][spender] = value */\n          dup2\n          swap1\n          sstore\n          pop\n            /* \"miscellaneous/SimpleERC223Token.sol\":1931:1938  spender */\n          dup3\n            /* \"miscellaneous/SimpleERC223Token.sol\":1910:1946  Approval(msg.sender, spender, value) */\n          0xffffffffffffffffffffffffffffffffffffffff\n          and\n            /* \"miscellaneous/SimpleERC223Token.sol\":1919:1929  msg.sender */\n          caller\n            /* \"miscellaneous/SimpleERC223Token.sol\":1910:1946  Approval(msg.sender, spender, value) */\n          0xffffffffffffffffffffffffffffffffffffffff\n          and\n          0x8c5be1e5ebec7d5bd14f71427d1e84f3dd0314c0f7b2291e5b200ac8c7c3b925\n            /* \"miscellaneous/SimpleERC223Token.sol\":1940:1945  value */\n          dup5\n            /* \"miscellaneous/SimpleERC223Token.sol\":1910:1946  Approval(msg.sender, spender, value) */\n          mload(0x40)\n          dup1\n          dup3\n          dup2\n          mstore\n          0x20\n          add\n          swap2\n          pop\n          pop\n          mload(0x40)\n          dup1\n          swap2\n          sub\n          swap1\n          log3\n            /* \"miscellaneous/SimpleERC223Token.sol\":1964:1968  true */\n          0x1\n            /* \"miscellaneous/SimpleERC223Token.sol\":1957:1968  return true */\n          swap1\n          pop\n            /* \"miscellaneous/SimpleERC223Token.sol\":1743:1976  function approve(address spender, uint256 value)\r... */\n          swap3\n          swap2\n          pop\n          pop\n          jump\t// out\n            /* \"miscellaneous/SimpleERC223Token.sol\":404:468  uint256 public totalSupply = 1000000 * (uint256(10) ** decimals) */\n        tag_24:\n          sload(0x4)\n          dup2\n          jump\t// out\n            /* \"miscellaneous/SimpleERC223Token.sol\":1984:2388  function transferFrom(address from, address to, uint256 value)\r... */\n        tag_27:\n            /* \"miscellaneous/SimpleERC223Token.sol\":2081:2093  bool success */\n          0x0\n            /* \"miscellaneous/SimpleERC223Token.sol\":2128:2137  balanceOf */\n          dup1\n            /* \"miscellaneous/SimpleERC223Token.sol\":2128:2143  balanceOf[from] */\n          0x0\n            /* \"miscellaneous/SimpleERC223Token.sol\":2138:2142  from */\n          dup6\n            /* \"miscellaneous/SimpleERC223Token.sol\":2128:2143  balanceOf[from] */\n          0xffffffffffffffffffffffffffffffffffffffff\n          and\n          0xffffffffffffffffffffffffffffffffffffffff\n          and\n          dup2\n          mstore\n          0x20\n          add\n          swap1\n          dup2\n          mstore\n          0x20\n          add\n          0x0\n          keccak256\n          sload\n            /* \"miscellaneous/SimpleERC223Token.sol\":2119:2124  value */\n          dup3\n            /* \"miscellaneous/SimpleERC223Token.sol\":2119:2143  value <= balanceOf[from] */\n          gt\n          iszero\n            /* \"miscellaneous/SimpleERC223Token.sol\":2111:2144  require(value <= balanceOf[from]) */\n          iszero\n          iszero\n          tag_55\n          jumpi\n          0x0\n          dup1\n          revert\n        tag_55:\n            /* \"miscellaneous/SimpleERC223Token.sol\":2172:2181  allowance */\n          0x5\n            /* \"miscellaneous/SimpleERC223Token.sol\":2172:2187  allowance[from] */\n          0x0\n            /* \"miscellaneous/SimpleERC223Token.sol\":2182:2186  from */\n          dup6\n            /* \"miscellaneous/SimpleERC223Token.sol\":2172:2187  allowance[from] */\n          0xffffffffffffffffffffffffffffffffffffffff\n          and\n          0xffffffffffffffffffffffffffffffffffffffff\n          and\n          dup2\n          mstore\n          0x20\n          add\n          swap1\n          dup2\n          mstore\n          0x20\n          add\n          0x0\n          keccak256\n            /* \"miscellaneous/SimpleERC223Token.sol\":2172:2199  allowance[from][msg.sender] */\n          0x0\n            /* \"miscellaneous/SimpleERC223Token.sol\":2188:2198  msg.sender */\n          caller\n            /* \"miscellaneous/SimpleERC223Token.sol\":2172:2199  allowance[from][msg.sender] */\n          0xffffffffffffffffffffffffffffffffffffffff\n          and\n          0xffffffffffffffffffffffffffffffffffffffff\n          and\n          dup2\n          mstore\n          0x20\n          add\n          swap1\n          dup2\n          mstore\n          0x20\n          add\n          0x0\n          keccak256\n          sload\n            /* \"miscellaneous/SimpleERC223Token.sol\":2163:2168  value */\n          dup3\n            /* \"miscellaneous/SimpleERC223Token.sol\":2163:2199  value <= allowance[from][msg.sender] */\n          gt\n          iszero\n            /* \"miscellaneous/SimpleERC223Token.sol\":2155:2200  require(value <= allowance[from][msg.sender]) */\n          iszero\n          iszero\n          tag_56\n          jumpi\n          0x0\n          dup1\n          revert\n        tag_56:\n            /* \"miscellaneous/SimpleERC223Token.sol\":2232:2237  value */\n          dup2\n            /* \"miscellaneous/SimpleERC223Token.sol\":2213:2222  balanceOf */\n          0x0\n            /* \"miscellaneous/SimpleERC223Token.sol\":2213:2228  balanceOf[from] */\n          dup1\n            /* \"miscellaneous/SimpleERC223Token.sol\":2223:2227  from */\n          dup7\n            /* \"miscellaneous/SimpleERC223Token.sol\":2213:2228  balanceOf[from] */\n          0xffffffffffffffffffffffffffffffffffffffff\n          and\n          0xffffffffffffffffffffffffffffffffffffffff\n          and\n          dup2\n          mstore\n          0x20\n          add\n          swap1\n          dup2\n          mstore\n          0x20\n          add\n          0x0\n          keccak256\n          0x0\n            /* \"miscellaneous/SimpleERC223Token.sol\":2213:2237  balanceOf[from] -= value */\n          dup3\n          dup3\n          sload\n          sub\n          swap3\n          pop\n          pop\n          dup2\n          swap1\n          sstore\n          pop\n            /* \"miscellaneous/SimpleERC223Token.sol\":2265:2270  value */\n          dup2\n            /* \"miscellaneous/SimpleERC223Token.sol\":2248:2257  balanceOf */\n          0x0\n            /* \"miscellaneous/SimpleERC223Token.sol\":2248:2261  balanceOf[to] */\n          dup1\n            /* \"miscellaneous/SimpleERC223Token.sol\":2258:2260  to */\n          dup6\n            /* \"miscellaneous/SimpleERC223Token.sol\":2248:2261  balanceOf[to] */\n          0xffffffffffffffffffffffffffffffffffffffff\n          and\n          0xffffffffffffffffffffffffffffffffffffffff\n          and\n          dup2\n          mstore\n          0x20\n          add\n          swap1\n          dup2\n          mstore\n          0x20\n          add\n          0x0\n          keccak256\n          0x0\n            /* \"miscellaneous/SimpleERC223Token.sol\":2248:2270  balanceOf[to] += value */\n          dup3\n          dup3\n          sload\n          add\n          swap3\n          pop\n          pop\n          dup2\n          swap1\n          sstore\n          pop\n            /* \"miscellaneous/SimpleERC223Token.sol\":2312:2317  value */\n          dup2\n            /* \"miscellaneous/SimpleERC223Token.sol\":2281:2290  allowance */\n          0x5\n            /* \"miscellaneous/SimpleERC223Token.sol\":2281:2296  allowance[from] */\n          0x0\n            /* \"miscellaneous/SimpleERC223Token.sol\":2291:2295  from */\n          dup7\n            /* \"miscellaneous/SimpleERC223Token.sol\":2281:2296  allowance[from] */\n          0xffffffffffffffffffffffffffffffffffffffff\n          and\n          0xffffffffffffffffffffffffffffffffffffffff\n          and\n          dup2\n          mstore\n          0x20\n          add\n          swap1\n          dup2\n          mstore\n          0x20\n          add\n          0x0\n          keccak256\n            /* \"miscellaneous/SimpleERC223Token.sol\":2281:2308  allowance[from][msg.sender] */\n          0x0\n            /* \"miscellaneous/SimpleERC223Token.sol\":2297:2307  msg.sender */\n          caller\n            /* \"miscellaneous/SimpleERC223Token.sol\":2281:2308  allowance[from][msg.sender] */\n          0xffffffffffffffffffffffffffffffffffffffff\n          and\n          0xffffffffffffffffffffffffffffffffffffffff\n          and\n          dup2\n          mstore\n          0x20\n          add\n          swap1\n          dup2\n          mstore\n          0x20\n          add\n          0x0\n          keccak256\n          0x0\n            /* \"miscellaneous/SimpleERC223Token.sol\":2281:2317  allowance[from][msg.sender] -= value */\n          dup3\n          dup3\n          sload\n          sub\n          swap3\n          pop\n          pop\n          dup2\n          swap1\n          sstore\n          pop\n            /* \"miscellaneous/SimpleERC223Token.sol\":2348:2350  to */\n          dup3\n            /* \"miscellaneous/SimpleERC223Token.sol\":2333:2358  Transfer(from, to, value) */\n          0xffffffffffffffffffffffffffffffffffffffff\n          and\n            /* \"miscellaneous/SimpleERC223Token.sol\":2342:2346  from */\n          dup5\n            /* \"miscellaneous/SimpleERC223Token.sol\":2333:2358  Transfer(from, to, value) */\n          0xffffffffffffffffffffffffffffffffffffffff\n          and\n          0xddf252ad1be2c89b69c2b068fc378daa952ba7f163c4a11628f55a4df523b3ef\n            /* \"miscellaneous/SimpleERC223Token.sol\":2352:2357  value */\n          dup5\n            /* \"miscellaneous/SimpleERC223Token.sol\":2333:2358  Transfer(from, to, value) */\n          mload(0x40)\n          dup1\n          dup3\n          dup2\n          mstore\n          0x20\n          add\n          swap2\n          pop\n          pop\n          mload(0x40)\n          dup1\n          swap2\n          sub\n          swap1\n          log3\n            /* \"miscellaneous/SimpleERC223Token.sol\":2376:2380  true */\n          0x1\n            /* \"miscellaneous/SimpleERC223Token.sol\":2369:2380  return true */\n          swap1\n          pop\n            /* \"miscellaneous/SimpleERC223Token.sol\":1984:2388  function transferFrom(address from, address to, uint256 value)\r... */\n          swap4\n          swap3\n          pop\n          pop\n          pop\n          jump\t// out\n            /* \"miscellaneous/SimpleERC223Token.sol\":369:395  uint8 public decimals = 18 */\n        tag_30:\n          0x3\n          0x0\n          swap1\n          sload\n          swap1\n          0x100\n          exp\n          swap1\n          div\n          0xff\n          and\n          dup2\n          jump\t// out\n            /* \"miscellaneous/SimpleERC223Token.sol\":231:276  mapping (address => uint256) public balanceOf */\n        tag_33:\n          mstore(0x20, 0x0)\n          dup1\n          0x0\n          mstore\n          keccak256(0x0, 0x40)\n          0x0\n          swap2\n          pop\n          swap1\n          pop\n          sload\n          dup2\n          jump\t// out\n            /* \"miscellaneous/SimpleERC223Token.sol\":334:362  string public symbol = \"SET\" */\n        tag_36:\n          0x2\n          dup1\n          sload\n          0x1\n          dup2\n          0x1\n          and\n          iszero\n          0x100\n          mul\n          sub\n          and\n          0x2\n          swap1\n          div\n          dup1\n          0x1f\n          add\n          0x20\n          dup1\n          swap2\n          div\n          mul\n          0x20\n          add\n          mload(0x40)\n          swap1\n          dup2\n          add\n          0x40\n          mstore\n          dup1\n          swap3\n          swap2\n          swap1\n          dup2\n          dup2\n          mstore\n          0x20\n          add\n          dup3\n          dup1\n          sload\n          0x1\n          dup2\n          0x1\n          and\n          iszero\n          0x100\n          mul\n          sub\n          and\n          0x2\n          swap1\n          div\n          dup1\n          iszero\n          tag_57\n          jumpi\n          dup1\n          0x1f\n          lt\n          tag_58\n          jumpi\n          0x100\n          dup1\n          dup4\n          sload\n          div\n          mul\n          dup4\n          mstore\n          swap2\n          0x20\n          add\n          swap2\n          jump(tag_57)\n        tag_58:\n          dup3\n          add\n          swap2\n          swap1\n          0x0\n          mstore\n          keccak256(0x0, 0x20)\n          swap1\n        tag_59:\n          dup2\n          sload\n          dup2\n          mstore\n          swap1\n          0x1\n          add\n          swap1\n          0x20\n          add\n          dup1\n          dup4\n          gt\n          tag_59\n          jumpi\n          dup3\n          swap1\n          sub\n          0x1f\n          and\n          dup3\n          add\n          swap2\n        tag_57:\n          pop\n          pop\n          pop\n          pop\n          pop\n          dup2\n          jump\t// out\n            /* \"miscellaneous/SimpleERC223Token.sol\":1014:1170  function transfer(address to, uint256 value) public returns (bool success) {\r... */\n        tag_43:\n            /* \"miscellaneous/SimpleERC223Token.sol\":1075:1087  bool success */\n          0x0\n            /* \"miscellaneous/SimpleERC223Token.sol\":1100:1118  bytes memory empty */\n          0x60\n            /* \"miscellaneous/SimpleERC223Token.sol\":1136:1162  transfer(to, value, empty) */\n          tag_61\n            /* \"miscellaneous/SimpleERC223Token.sol\":1145:1147  to */\n          dup5\n            /* \"miscellaneous/SimpleERC223Token.sol\":1149:1154  value */\n          dup5\n            /* \"miscellaneous/SimpleERC223Token.sol\":1156:1161  empty */\n          dup4\n            /* \"miscellaneous/SimpleERC223Token.sol\":1136:1144  transfer */\n          tag_46\n            /* \"miscellaneous/SimpleERC223Token.sol\":1136:1162  transfer(to, value, empty) */\n          jump\t// in\n        tag_61:\n            /* \"miscellaneous/SimpleERC223Token.sol\":1129:1162  return transfer(to, value, empty) */\n          swap2\n          pop\n            /* \"miscellaneous/SimpleERC223Token.sol\":1014:1170  function transfer(address to, uint256 value) public returns (bool success) {\r... */\n          pop\n          swap3\n          swap2\n          pop\n          pop\n          jump\t// out\n            /* \"miscellaneous/SimpleERC223Token.sol\":1178:1576  function transfer(address to, uint256 value, bytes data) public returns (bool) {\r... */\n        tag_46:\n            /* \"miscellaneous/SimpleERC223Token.sol\":1251:1255  bool */\n          0x0\n            /* \"miscellaneous/SimpleERC223Token.sol\":1301:1306  value */\n          dup3\n            /* \"miscellaneous/SimpleERC223Token.sol\":1276:1285  balanceOf */\n          0x0\n            /* \"miscellaneous/SimpleERC223Token.sol\":1276:1297  balanceOf[msg.sender] */\n          dup1\n            /* \"miscellaneous/SimpleERC223Token.sol\":1286:1296  msg.sender */\n          caller\n            /* \"miscellaneous/SimpleERC223Token.sol\":1276:1297  balanceOf[msg.sender] */\n          0xffffffffffffffffffffffffffffffffffffffff\n          and\n          0xffffffffffffffffffffffffffffffffffffffff\n          and\n          dup2\n          mstore\n          0x20\n          add\n          swap1\n          dup2\n          mstore\n          0x20\n          add\n          0x0\n          keccak256\n          sload\n            /* \"miscellaneous/SimpleERC223Token.sol\":1276:1306  balanceOf[msg.sender] >= value */\n          lt\n          iszero\n            /* \"miscellaneous/SimpleERC223Token.sol\":1268:1307  require(balanceOf[msg.sender] >= value) */\n          iszero\n          iszero\n          tag_63\n          jumpi\n          0x0\n          dup1\n          revert\n        tag_63:\n            /* \"miscellaneous/SimpleERC223Token.sol\":1345:1350  value */\n          dup3\n            /* \"miscellaneous/SimpleERC223Token.sol\":1320:1329  balanceOf */\n          0x0\n            /* \"miscellaneous/SimpleERC223Token.sol\":1320:1341  balanceOf[msg.sender] */\n          dup1\n            /* \"miscellaneous/SimpleERC223Token.sol\":1330:1340  msg.sender */\n          caller\n            /* \"miscellaneous/SimpleERC223Token.sol\":1320:1341  balanceOf[msg.sender] */\n          0xffffffffffffffffffffffffffffffffffffffff\n          and\n          0xffffffffffffffffffffffffffffffffffffffff\n          and\n          dup2\n          mstore\n          0x20\n          add\n          swap1\n          dup2\n          mstore\n          0x20\n          add\n          0x0\n          keccak256\n          0x0\n            /* \"miscellaneous/SimpleERC223Token.sol\":1320:1350  balanceOf[msg.sender] -= value */\n          dup3\n          dup3\n          sload\n          sub\n          swap3\n          pop\n          pop\n          dup2\n          swap1\n          sstore\n          pop\n            /* \"miscellaneous/SimpleERC223Token.sol\":1378:1383  value */\n          dup3\n            /* \"miscellaneous/SimpleERC223Token.sol\":1361:1370  balanceOf */\n          0x0\n            /* \"miscellaneous/SimpleERC223Token.sol\":1361:1374  balanceOf[to] */\n          dup1\n            /* \"miscellaneous/SimpleERC223Token.sol\":1371:1373  to */\n          dup7\n            /* \"miscellaneous/SimpleERC223Token.sol\":1361:1374  balanceOf[to] */\n          0xffffffffffffffffffffffffffffffffffffffff\n          and\n          0xffffffffffffffffffffffffffffffffffffffff\n          and\n          dup2\n          mstore\n          0x20\n          add\n          swap1\n          dup2\n          mstore\n          0x20\n          add\n          0x0\n          keccak256\n          0x0\n            /* \"miscellaneous/SimpleERC223Token.sol\":1361:1383  balanceOf[to] += value */\n          dup3\n          dup3\n          sload\n          add\n          swap3\n          pop\n          pop\n          dup2\n          swap1\n          sstore\n          pop\n            /* \"miscellaneous/SimpleERC223Token.sol\":1420:1422  to */\n          dup4\n            /* \"miscellaneous/SimpleERC223Token.sol\":1399:1430  Transfer(msg.sender, to, value) */\n          0xffffffffffffffffffffffffffffffffffffffff\n          and\n            /* \"miscellaneous/SimpleERC223Token.sol\":1408:1418  msg.sender */\n          caller\n            /* \"miscellaneous/SimpleERC223Token.sol\":1399:1430  Transfer(msg.sender, to, value) */\n          0xffffffffffffffffffffffffffffffffffffffff\n          and\n          0xddf252ad1be2c89b69c2b068fc378daa952ba7f163c4a11628f55a4df523b3ef\n            /* \"miscellaneous/SimpleERC223Token.sol\":1424:1429  value */\n          dup6\n            /* \"miscellaneous/SimpleERC223Token.sol\":1399:1430  Transfer(msg.sender, to, value) */\n          mload(0x40)\n          dup1\n          dup3\n          dup2\n          mstore\n          0x20\n          add\n          swap2\n          pop\n          pop\n          mload(0x40)\n          dup1\n          swap2\n          sub\n          swap1\n          log3\n            /* \"miscellaneous/SimpleERC223Token.sol\":1447:1461  isContract(to) */\n          tag_64\n            /* \"miscellaneous/SimpleERC223Token.sol\":1458:1460  to */\n          dup5\n            /* \"miscellaneous/SimpleERC223Token.sol\":1447:1457  isContract */\n          tag_65\n            /* \"miscellaneous/SimpleERC223Token.sol\":1447:1461  isContract(to) */\n          jump\t// in\n        tag_64:\n            /* \"miscellaneous/SimpleERC223Token.sol\":1443:1547  if (isContract(to)) {\r... */\n          iszero\n          tag_66\n          jumpi\n            /* \"miscellaneous/SimpleERC223Token.sol\":1493:1495  to */\n          dup4\n            /* \"miscellaneous/SimpleERC223Token.sol\":1478:1510  ITokenReceiver(to).tokenFallback */\n          0xffffffffffffffffffffffffffffffffffffffff\n          and\n          0xc0ee0b8a\n            /* \"miscellaneous/SimpleERC223Token.sol\":1511:1521  msg.sender */\n          caller\n            /* \"miscellaneous/SimpleERC223Token.sol\":1523:1528  value */\n          dup6\n            /* \"miscellaneous/SimpleERC223Token.sol\":1530:1534  data */\n          dup6\n            /* \"miscellaneous/SimpleERC223Token.sol\":1478:1535  ITokenReceiver(to).tokenFallback(msg.sender, value, data) */\n          mload(0x40)\n          dup5\n          0xffffffff\n          and\n          0x100000000000000000000000000000000000000000000000000000000\n          mul\n          dup2\n          mstore\n          0x4\n          add\n          dup1\n          dup5\n          0xffffffffffffffffffffffffffffffffffffffff\n          and\n          0xffffffffffffffffffffffffffffffffffffffff\n          and\n          dup2\n          mstore\n          0x20\n          add\n          dup4\n          dup2\n          mstore\n          0x20\n          add\n          dup1\n          0x20\n          add\n          dup3\n          dup2\n          sub\n          dup3\n          mstore\n          dup4\n          dup2\n          dup2\n          mload\n          dup2\n          mstore\n          0x20\n          add\n          swap2\n          pop\n          dup1\n          mload\n          swap1\n          0x20\n          add\n          swap1\n          dup1\n          dup4\n          dup4\n            /* \"--CODEGEN--\":23:24   */\n          0x0\n            /* \"--CODEGEN--\":8:108   */\n        tag_67:\n            /* \"--CODEGEN--\":33:36   */\n          dup4\n            /* \"--CODEGEN--\":30:31   */\n          dup2\n            /* \"--CODEGEN--\":27:37   */\n          lt\n            /* \"--CODEGEN--\":8:108   */\n          iszero\n          tag_68\n          jumpi\n            /* \"--CODEGEN--\":99:100   */\n          dup1\n            /* \"--CODEGEN--\":94:97   */\n          dup3\n            /* \"--CODEGEN--\":90:101   */\n          add\n            /* \"--CODEGEN--\":84:102   */\n          mload\n            /* \"--CODEGEN--\":80:81   */\n          dup2\n            /* \"--CODEGEN--\":75:78   */\n          dup5\n            /* \"--CODEGEN--\":71:82   */\n          add\n            /* \"--CODEGEN--\":64:103   */\n          mstore\n            /* \"--CODEGEN--\":52:54   */\n          0x20\n            /* \"--CODEGEN--\":49:50   */\n          dup2\n            /* \"--CODEGEN--\":45:55   */\n          add\n            /* \"--CODEGEN--\":40:55   */\n          swap1\n          pop\n            /* \"--CODEGEN--\":8:108   */\n          jump(tag_67)\n        tag_68:\n            /* \"--CODEGEN--\":12:26   */\n          pop\n            /* \"miscellaneous/SimpleERC223Token.sol\":1478:1535  ITokenReceiver(to).tokenFallback(msg.sender, value, data) */\n          pop\n          pop\n          pop\n          swap1\n          pop\n          swap1\n          dup2\n          add\n          swap1\n          0x1f\n          and\n          dup1\n          iszero\n          tag_70\n          jumpi\n          dup1\n          dup3\n          sub\n          dup1\n          mload\n          0x1\n          dup4\n          0x20\n          sub\n          0x100\n          exp\n          sub\n          not\n          and\n          dup2\n          mstore\n          0x20\n          add\n          swap2\n          pop\n        tag_70:\n          pop\n          swap5\n          pop\n          pop\n          pop\n          pop\n          pop\n          0x0\n          mload(0x40)\n          dup1\n          dup4\n          sub\n          dup2\n          0x0\n          dup8\n          dup1\n          extcodesize\n          iszero\n            /* \"--CODEGEN--\":8:17   */\n          dup1\n            /* \"--CODEGEN--\":5:7   */\n          iszero\n          tag_71\n          jumpi\n            /* \"--CODEGEN--\":30:31   */\n          0x0\n            /* \"--CODEGEN--\":27:28   */\n          dup1\n            /* \"--CODEGEN--\":20:32   */\n          revert\n            /* \"--CODEGEN--\":5:7   */\n        tag_71:\n            /* \"miscellaneous/SimpleERC223Token.sol\":1478:1535  ITokenReceiver(to).tokenFallback(msg.sender, value, data) */\n          pop\n          gas\n          call\n          iszero\n            /* \"--CODEGEN--\":8:17   */\n          dup1\n            /* \"--CODEGEN--\":5:7   */\n          iszero\n          tag_72\n          jumpi\n            /* \"--CODEGEN--\":45:61   */\n          returndatasize\n            /* \"--CODEGEN--\":42:43   */\n          0x0\n            /* \"--CODEGEN--\":39:40   */\n          dup1\n            /* \"--CODEGEN--\":24:62   */\n          returndatacopy\n            /* \"--CODEGEN--\":77:93   */\n          returndatasize\n            /* \"--CODEGEN--\":74:75   */\n          0x0\n            /* \"--CODEGEN--\":67:94   */\n          revert\n            /* \"--CODEGEN--\":5:7   */\n        tag_72:\n            /* \"miscellaneous/SimpleERC223Token.sol\":1478:1535  ITokenReceiver(to).tokenFallback(msg.sender, value, data) */\n          pop\n          pop\n          pop\n          pop\n            /* \"miscellaneous/SimpleERC223Token.sol\":1443:1547  if (isContract(to)) {\r... */\n        tag_66:\n            /* \"miscellaneous/SimpleERC223Token.sol\":1564:1568  true */\n          0x1\n            /* \"miscellaneous/SimpleERC223Token.sol\":1557:1568  return true */\n          swap1\n          pop\n            /* \"miscellaneous/SimpleERC223Token.sol\":1178:1576  function transfer(address to, uint256 value, bytes data) public returns (bool) {\r... */\n          swap4\n          swap3\n          pop\n          pop\n          pop\n          jump\t// out\n            /* \"miscellaneous/SimpleERC223Token.sol\":1670:1734  mapping(address => mapping(address => uint256)) public allowance */\n        tag_49:\n          mstore(0x20, 0x5)\n          dup2\n          0x0\n          mstore\n          mstore(0x20, keccak256(0x0, 0x40))\n          dup1\n          0x0\n          mstore\n          keccak256(0x0, 0x40)\n          0x0\n          swap2\n          pop\n          swap2\n          pop\n          pop\n          sload\n          dup2\n          jump\t// out\n            /* \"miscellaneous/SimpleERC223Token.sol\":716:1006  function isContract(address _addr) private view returns (bool is_contract) {\r... */\n        tag_65:\n            /* \"miscellaneous/SimpleERC223Token.sol\":773:789  bool is_contract */\n          0x0\n            /* \"miscellaneous/SimpleERC223Token.sol\":802:813  uint length */\n          dup1\n            /* \"miscellaneous/SimpleERC223Token.sol\":954:959  _addr */\n          dup3\n            /* \"miscellaneous/SimpleERC223Token.sol\":942:960  extcodesize(_addr) */\n          extcodesize\n            /* \"miscellaneous/SimpleERC223Token.sol\":932:960  length := extcodesize(_addr) */\n          swap1\n          pop\n            /* \"miscellaneous/SimpleERC223Token.sol\":997:998  0 */\n          0x0\n            /* \"miscellaneous/SimpleERC223Token.sol\":988:994  length */\n          dup2\n            /* \"miscellaneous/SimpleERC223Token.sol\":988:998  length > 0 */\n          gt\n            /* \"miscellaneous/SimpleERC223Token.sol\":981:998  return length > 0 */\n          swap2\n          pop\n            /* \"miscellaneous/SimpleERC223Token.sol\":716:1006  function isContract(address _addr) private view returns (bool is_contract) {\r... */\n          pop\n          swap2\n          swap1\n          pop\n          jump\t// out\n\n        auxdata: 0xa165627a7a723058206b3e66903a4eba2ec0d65ea7d990ed11ecd8b889f5b4f7471774624fb279aece0029\n    }\n}\n",
				"bytecode": {
					"linkReferences": {},
					"object": "608060405234801561001057600080fd5b506040516020806116bf8339810180604052810190808051906020019092919050505061003b610139565b604051809103906000f080158015610057573d6000803e3d6000fd5b506000806101000a81548173ffffffffffffffffffffffffffffffffffffffff021916908373ffffffffffffffffffffffffffffffffffffffff1602179055506969e10de76676d0800000600160003373ffffffffffffffffffffffffffffffffffffffff1673ffffffffffffffffffffffffffffffffffffffff168152602001908152602001600020819055506969e10de76676d0800000600160008373ffffffffffffffffffffffffffffffffffffffff1673ffffffffffffffffffffffffffffffffffffffff1681526020019081526020016000208190555050610149565b604051610f0b806107b483390190565b61065c806101586000396000f30060806040526004361061006d576000357c0100000000000000000000000000000000000000000000000000000000900463ffffffff1680632e1a7d4d1461007257806370a082311461009f578063b2fa1c9e146100f6578063c0ee0b8a14610125578063fc0c546a146101b8575b600080fd5b34801561007e57600080fd5b5061009d6004803603810190808035906020019092919050505061020f565b005b3480156100ab57600080fd5b506100e0600480360381019080803573ffffffffffffffffffffffffffffffffffffffff1690602001909291905050506103b7565b6040518082815260200191505060405180910390f35b34801561010257600080fd5b5061010b6103cf565b604051808215151515815260200191505060405180910390f35b34801561013157600080fd5b506101b6600480360381019080803573ffffffffffffffffffffffffffffffffffffffff16906020019092919080359060200190929190803590602001908201803590602001908080601f01602080910402602001604051908101604052809392919081815260200183838082843782019150505050505091929192905050506104cf565b005b3480156101c457600080fd5b506101cd61060b565b604051808273ffffffffffffffffffffffffffffffffffffffff1673ffffffffffffffffffffffffffffffffffffffff16815260200191505060405180910390f35b80600160003373ffffffffffffffffffffffffffffffffffffffff1673ffffffffffffffffffffffffffffffffffffffff168152602001908152602001600020541015151561025d57600080fd5b6000809054906101000a900473ffffffffffffffffffffffffffffffffffffffff1673ffffffffffffffffffffffffffffffffffffffff1663a9059cbb33836040518363ffffffff167c0100000000000000000000000000000000000000000000000000000000028152600401808373ffffffffffffffffffffffffffffffffffffffff1673ffffffffffffffffffffffffffffffffffffffff16815260200182815260200192505050602060405180830381600087803b15801561032157600080fd5b505af1158015610335573d6000803e3d6000fd5b505050506040513d602081101561034b57600080fd5b8101908080519060200190929190505050151561036757600080fd5b80600160003373ffffffffffffffffffffffffffffffffffffffff1673ffffffffffffffffffffffffffffffffffffffff1681526020019081526020016000206000828254039250508190555050565b60016020528060005260406000206000915090505481565b6000806000809054906101000a900473ffffffffffffffffffffffffffffffffffffffff1673ffffffffffffffffffffffffffffffffffffffff166370a08231306040518263ffffffff167c0100000000000000000000000000000000000000000000000000000000028152600401808273ffffffffffffffffffffffffffffffffffffffff1673ffffffffffffffffffffffffffffffffffffffff168152602001915050602060405180830381600087803b15801561048e57600080fd5b505af11580156104a2573d6000803e3d6000fd5b505050506040513d60208110156104b857600080fd5b810190808051906020019092919050505014905090565b6000809054906101000a900473ffffffffffffffffffffffffffffffffffffffff1673ffffffffffffffffffffffffffffffffffffffff163373ffffffffffffffffffffffffffffffffffffffff1614151561052a57600080fd5b600160008473ffffffffffffffffffffffffffffffffffffffff1673ffffffffffffffffffffffffffffffffffffffff1681526020019081526020016000205482600160008673ffffffffffffffffffffffffffffffffffffffff1673ffffffffffffffffffffffffffffffffffffffff1681526020019081526020016000205401101515156105b957600080fd5b81600160008573ffffffffffffffffffffffffffffffffffffffff1673ffffffffffffffffffffffffffffffffffffffff16815260200190815260200160002060008282540192505081905550505050565b6000809054906101000a900473ffffffffffffffffffffffffffffffffffffffff16815600a165627a7a72305820f7a4e4264c6961f79e7028459b21ca31a282c3dc4cd230d63d5b1f73d03cd35e002960806040526040805190810160405280601381526020017f53696d706c652045524332323320546f6b656e000000000000000000000000008152506001908051906020019061004f929190610195565b506040805190810160405280600381526020017f53455400000000000000000000000000000000000000000000000000000000008152506002908051906020019061009b929190610195565b506012600360006101000a81548160ff021916908360ff160217905550600360009054906101000a900460ff1660ff16600a0a620f4240026004553480156100e257600080fd5b506004546000803373ffffffffffffffffffffffffffffffffffffffff1673ffffffffffffffffffffffffffffffffffffffff168152602001908152602001600020819055503373ffffffffffffffffffffffffffffffffffffffff16600073ffffffffffffffffffffffffffffffffffffffff167fddf252ad1be2c89b69c2b068fc378daa952ba7f163c4a11628f55a4df523b3ef6004546040518082815260200191505060405180910390a361023a565b828054600181600116156101000203166002900490600052602060002090601f016020900481019282601f106101d657805160ff1916838001178555610204565b82800160010185558215610204579182015b828111156102035782518255916020019190600101906101e8565b5b5090506102119190610215565b5090565b61023791905b8082111561023357600081600090555060010161021b565b5090565b90565b610cc2806102496000396000f3006080604052600436106100a4576000357c0100000000000000000000000000000000000000000000000000000000900463ffffffff16806306fdde03146100a9578063095ea7b31461013957806318160ddd1461019e57806323b872dd146101c9578063313ce5671461024e57806370a082311461027f57806395d89b41146102d6578063a9059cbb14610366578063be45fd62146103cb578063dd62ed3e14610476575b600080fd5b3480156100b557600080fd5b506100be6104ed565b6040518080602001828103825283818151815260200191508051906020019080838360005b838110156100fe5780820151818401526020810190506100e3565b50505050905090810190601f16801561012b5780820380516001836020036101000a031916815260200191505b509250505060405180910390f35b34801561014557600080fd5b50610184600480360381019080803573ffffffffffffffffffffffffffffffffffffffff1690602001909291908035906020019092919050505061058b565b604051808215151515815260200191505060405180910390f35b3480156101aa57600080fd5b506101b361067d565b6040518082815260200191505060405180910390f35b3480156101d557600080fd5b50610234600480360381019080803573ffffffffffffffffffffffffffffffffffffffff169060200190929190803573ffffffffffffffffffffffffffffffffffffffff16906020019092919080359060200190929190505050610683565b604051808215151515815260200191505060405180910390f35b34801561025a57600080fd5b506102636108ef565b604051808260ff1660ff16815260200191505060405180910390f35b34801561028b57600080fd5b506102c0600480360381019080803573ffffffffffffffffffffffffffffffffffffffff169060200190929190505050610902565b6040518082815260200191505060405180910390f35b3480156102e257600080fd5b506102eb61091a565b6040518080602001828103825283818151815260200191508051906020019080838360005b8381101561032b578082015181840152602081019050610310565b50505050905090810190601f1680156103585780820380516001836020036101000a031916815260200191505b509250505060405180910390f35b34801561037257600080fd5b506103b1600480360381019080803573ffffffffffffffffffffffffffffffffffffffff169060200190929190803590602001909291905050506109b8565b604051808215151515815260200191505060405180910390f35b3480156103d757600080fd5b5061045c600480360381019080803573ffffffffffffffffffffffffffffffffffffffff16906020019092919080359060200190929190803590602001908201803590602001908080601f01602080910402602001604051908101604052809392919081815260200183838082843782019150505050505091929192905050506109d0565b604051808215151515815260200191505060405180910390f35b34801561048257600080fd5b506104d7600480360381019080803573ffffffffffffffffffffffffffffffffffffffff169060200190929190803573ffffffffffffffffffffffffffffffffffffffff169060200190929190505050610c5e565b6040518082815260200191505060405180910390f35b60018054600181600116156101000203166002900480601f0160208091040260200160405190810160405280929190818152602001828054600181600116156101000203166002900480156105835780601f1061055857610100808354040283529160200191610583565b820191906000526020600020905b81548152906001019060200180831161056657829003601f168201915b505050505081565b600081600560003373ffffffffffffffffffffffffffffffffffffffff1673ffffffffffffffffffffffffffffffffffffffff16815260200190815260200160002060008573ffffffffffffffffffffffffffffffffffffffff1673ffffffffffffffffffffffffffffffffffffffff168152602001908152602001600020819055508273ffffffffffffffffffffffffffffffffffffffff163373ffffffffffffffffffffffffffffffffffffffff167f8c5be1e5ebec7d5bd14f71427d1e84f3dd0314c0f7b2291e5b200ac8c7c3b925846040518082815260200191505060405180910390a36001905092915050565b60045481565b60008060008573ffffffffffffffffffffffffffffffffffffffff1673ffffffffffffffffffffffffffffffffffffffff1681526020019081526020016000205482111515156106d257600080fd5b600560008573ffffffffffffffffffffffffffffffffffffffff1673ffffffffffffffffffffffffffffffffffffffff16815260200190815260200160002060003373ffffffffffffffffffffffffffffffffffffffff1673ffffffffffffffffffffffffffffffffffffffff16815260200190815260200160002054821115151561075d57600080fd5b816000808673ffffffffffffffffffffffffffffffffffffffff1673ffffffffffffffffffffffffffffffffffffffff16815260200190815260200160002060008282540392505081905550816000808573ffffffffffffffffffffffffffffffffffffffff1673ffffffffffffffffffffffffffffffffffffffff1681526020019081526020016000206000828254019250508190555081600560008673ffffffffffffffffffffffffffffffffffffffff1673ffffffffffffffffffffffffffffffffffffffff16815260200190815260200160002060003373ffffffffffffffffffffffffffffffffffffffff1673ffffffffffffffffffffffffffffffffffffffff168152602001908152602001600020600082825403925050819055508273ffffffffffffffffffffffffffffffffffffffff168473ffffffffffffffffffffffffffffffffffffffff167fddf252ad1be2c89b69c2b068fc378daa952ba7f163c4a11628f55a4df523b3ef846040518082815260200191505060405180910390a3600190509392505050565b600360009054906101000a900460ff1681565b60006020528060005260406000206000915090505481565b60028054600181600116156101000203166002900480601f0160208091040260200160405190810160405280929190818152602001828054600181600116156101000203166002900480156109b05780601f10610985576101008083540402835291602001916109b0565b820191906000526020600020905b81548152906001019060200180831161099357829003601f168201915b505050505081565b600060606109c78484836109d0565b91505092915050565b6000826000803373ffffffffffffffffffffffffffffffffffffffff1673ffffffffffffffffffffffffffffffffffffffff1681526020019081526020016000205410151515610a1f57600080fd5b826000803373ffffffffffffffffffffffffffffffffffffffff1673ffffffffffffffffffffffffffffffffffffffff16815260200190815260200160002060008282540392505081905550826000808673ffffffffffffffffffffffffffffffffffffffff1673ffffffffffffffffffffffffffffffffffffffff168152602001908152602001600020600082825401925050819055508373ffffffffffffffffffffffffffffffffffffffff163373ffffffffffffffffffffffffffffffffffffffff167fddf252ad1be2c89b69c2b068fc378daa952ba7f163c4a11628f55a4df523b3ef856040518082815260200191505060405180910390a3610b2584610c83565b15610c53578373ffffffffffffffffffffffffffffffffffffffff1663c0ee0b8a3385856040518463ffffffff167c0100000000000000000000000000000000000000000000000000000000028152600401808473ffffffffffffffffffffffffffffffffffffffff1673ffffffffffffffffffffffffffffffffffffffff16815260200183815260200180602001828103825283818151815260200191508051906020019080838360005b83811015610bec578082015181840152602081019050610bd1565b50505050905090810190601f168015610c195780820380516001836020036101000a031916815260200191505b50945050505050600060405180830381600087803b158015610c3a57600080fd5b505af1158015610c4e573d6000803e3d6000fd5b505050505b600190509392505050565b6005602052816000526040600020602052806000526040600020600091509150505481565b600080823b9050600081119150509190505600a165627a7a723058206b3e66903a4eba2ec0d65ea7d990ed11ecd8b889f5b4f7471774624fb279aece0029",
					"opcodes": "PUSH1 0x80 PUSH1 0x40 MSTORE CALLVALUE DUP1 ISZERO PUSH2 0x10 JUMPI PUSH1 0x0 DUP1 REVERT JUMPDEST POP PUSH1 0x40 MLOAD PUSH1 0x20 DUP1 PUSH2 0x16BF DUP4 CODECOPY DUP2 ADD DUP1 PUSH1 0x40 MSTORE DUP2 ADD SWAP1 DUP1 DUP1 MLOAD SWAP1 PUSH1 0x20 ADD SWAP1 SWAP3 SWAP2 SWAP1 POP POP POP PUSH2 0x3B PUSH2 0x139 JUMP JUMPDEST PUSH1 0x40 MLOAD DUP1 SWAP2 SUB SWAP1 PUSH1 0x0 CREATE DUP1 ISZERO DUP1 ISZERO PUSH2 0x57 JUMPI RETURNDATASIZE PUSH1 0x0 DUP1 RETURNDATACOPY RETURNDATASIZE PUSH1 0x0 REVERT JUMPDEST POP PUSH1 0x0 DUP1 PUSH2 0x100 EXP DUP2 SLOAD DUP2 PUSH20 0xFFFFFFFFFFFFFFFFFFFFFFFFFFFFFFFFFFFFFFFF MUL NOT AND SWAP1 DUP4 PUSH20 0xFFFFFFFFFFFFFFFFFFFFFFFFFFFFFFFFFFFFFFFF AND MUL OR SWAP1 SSTORE POP PUSH10 0x69E10DE76676D0800000 PUSH1 0x1 PUSH1 0x0 CALLER PUSH20 0xFFFFFFFFFFFFFFFFFFFFFFFFFFFFFFFFFFFFFFFF AND PUSH20 0xFFFFFFFFFFFFFFFFFFFFFFFFFFFFFFFFFFFFFFFF AND DUP2 MSTORE PUSH1 0x20 ADD SWAP1 DUP2 MSTORE PUSH1 0x20 ADD PUSH1 0x0 KECCAK256 DUP2 SWAP1 SSTORE POP PUSH10 0x69E10DE76676D0800000 PUSH1 0x1 PUSH1 0x0 DUP4 PUSH20 0xFFFFFFFFFFFFFFFFFFFFFFFFFFFFFFFFFFFFFFFF AND PUSH20 0xFFFFFFFFFFFFFFFFFFFFFFFFFFFFFFFFFFFFFFFF AND DUP2 MSTORE PUSH1 0x20 ADD SWAP1 DUP2 MSTORE PUSH1 0x20 ADD PUSH1 0x0 KECCAK256 DUP2 SWAP1 SSTORE POP POP PUSH2 0x149 JUMP JUMPDEST PUSH1 0x40 MLOAD PUSH2 0xF0B DUP1 PUSH2 0x7B4 DUP4 CODECOPY ADD SWAP1 JUMP JUMPDEST PUSH2 0x65C DUP1 PUSH2 0x158 PUSH1 0x0 CODECOPY PUSH1 0x0 RETURN STOP PUSH1 0x80 PUSH1 0x40 MSTORE PUSH1 0x4 CALLDATASIZE LT PUSH2 0x6D JUMPI PUSH1 0x0 CALLDATALOAD PUSH29 0x100000000000000000000000000000000000000000000000000000000 SWAP1 DIV PUSH4 0xFFFFFFFF AND DUP1 PUSH4 0x2E1A7D4D EQ PUSH2 0x72 JUMPI DUP1 PUSH4 0x70A08231 EQ PUSH2 0x9F JUMPI DUP1 PUSH4 0xB2FA1C9E EQ PUSH2 0xF6 JUMPI DUP1 PUSH4 0xC0EE0B8A EQ PUSH2 0x125 JUMPI DUP1 PUSH4 0xFC0C546A EQ PUSH2 0x1B8 JUMPI JUMPDEST PUSH1 0x0 DUP1 REVERT JUMPDEST CALLVALUE DUP1 ISZERO PUSH2 0x7E JUMPI PUSH1 0x0 DUP1 REVERT JUMPDEST POP PUSH2 0x9D PUSH1 0x4 DUP1 CALLDATASIZE SUB DUP2 ADD SWAP1 DUP1 DUP1 CALLDATALOAD SWAP1 PUSH1 0x20 ADD SWAP1 SWAP3 SWAP2 SWAP1 POP POP POP PUSH2 0x20F JUMP JUMPDEST STOP JUMPDEST CALLVALUE DUP1 ISZERO PUSH2 0xAB JUMPI PUSH1 0x0 DUP1 REVERT JUMPDEST POP PUSH2 0xE0 PUSH1 0x4 DUP1 CALLDATASIZE SUB DUP2 ADD SWAP1 DUP1 DUP1 CALLDATALOAD PUSH20 0xFFFFFFFFFFFFFFFFFFFFFFFFFFFFFFFFFFFFFFFF AND SWAP1 PUSH1 0x20 ADD SWAP1 SWAP3 SWAP2 SWAP1 POP POP POP PUSH2 0x3B7 JUMP JUMPDEST PUSH1 0x40 MLOAD DUP1 DUP3 DUP2 MSTORE PUSH1 0x20 ADD SWAP2 POP POP PUSH1 0x40 MLOAD DUP1 SWAP2 SUB SWAP1 RETURN JUMPDEST CALLVALUE DUP1 ISZERO PUSH2 0x102 JUMPI PUSH1 0x0 DUP1 REVERT JUMPDEST POP PUSH2 0x10B PUSH2 0x3CF JUMP JUMPDEST PUSH1 0x40 MLOAD DUP1 DUP3 ISZERO ISZERO ISZERO ISZERO DUP2 MSTORE PUSH1 0x20 ADD SWAP2 POP POP PUSH1 0x40 MLOAD DUP1 SWAP2 SUB SWAP1 RETURN JUMPDEST CALLVALUE DUP1 ISZERO PUSH2 0x131 JUMPI PUSH1 0x0 DUP1 REVERT JUMPDEST POP PUSH2 0x1B6 PUSH1 0x4 DUP1 CALLDATASIZE SUB DUP2 ADD SWAP1 DUP1 DUP1 CALLDATALOAD PUSH20 0xFFFFFFFFFFFFFFFFFFFFFFFFFFFFFFFFFFFFFFFF AND SWAP1 PUSH1 0x20 ADD SWAP1 SWAP3 SWAP2 SWAP1 DUP1 CALLDATALOAD SWAP1 PUSH1 0x20 ADD SWAP1 SWAP3 SWAP2 SWAP1 DUP1 CALLDATALOAD SWAP1 PUSH1 0x20 ADD SWAP1 DUP3 ADD DUP1 CALLDATALOAD SWAP1 PUSH1 0x20 ADD SWAP1 DUP1 DUP1 PUSH1 0x1F ADD PUSH1 0x20 DUP1 SWAP2 DIV MUL PUSH1 0x20 ADD PUSH1 0x40 MLOAD SWAP1 DUP2 ADD PUSH1 0x40 MSTORE DUP1 SWAP4 SWAP3 SWAP2 SWAP1 DUP2 DUP2 MSTORE PUSH1 0x20 ADD DUP4 DUP4 DUP1 DUP3 DUP5 CALLDATACOPY DUP3 ADD SWAP2 POP POP POP POP POP POP SWAP2 SWAP3 SWAP2 SWAP3 SWAP1 POP POP POP PUSH2 0x4CF JUMP JUMPDEST STOP JUMPDEST CALLVALUE DUP1 ISZERO PUSH2 0x1C4 JUMPI PUSH1 0x0 DUP1 REVERT JUMPDEST POP PUSH2 0x1CD PUSH2 0x60B JUMP JUMPDEST PUSH1 0x40 MLOAD DUP1 DUP3 PUSH20 0xFFFFFFFFFFFFFFFFFFFFFFFFFFFFFFFFFFFFFFFF AND PUSH20 0xFFFFFFFFFFFFFFFFFFFFFFFFFFFFFFFFFFFFFFFF AND DUP2 MSTORE PUSH1 0x20 ADD SWAP2 POP POP PUSH1 0x40 MLOAD DUP1 SWAP2 SUB SWAP1 RETURN JUMPDEST DUP1 PUSH1 0x1 PUSH1 0x0 CALLER PUSH20 0xFFFFFFFFFFFFFFFFFFFFFFFFFFFFFFFFFFFFFFFF AND PUSH20 0xFFFFFFFFFFFFFFFFFFFFFFFFFFFFFFFFFFFFFFFF AND DUP2 MSTORE PUSH1 0x20 ADD SWAP1 DUP2 MSTORE PUSH1 0x20 ADD PUSH1 0x0 KECCAK256 SLOAD LT ISZERO ISZERO ISZERO PUSH2 0x25D JUMPI PUSH1 0x0 DUP1 REVERT JUMPDEST PUSH1 0x0 DUP1 SWAP1 SLOAD SWAP1 PUSH2 0x100 EXP SWAP1 DIV PUSH20 0xFFFFFFFFFFFFFFFFFFFFFFFFFFFFFFFFFFFFFFFF AND PUSH20 0xFFFFFFFFFFFFFFFFFFFFFFFFFFFFFFFFFFFFFFFF AND PUSH4 0xA9059CBB CALLER DUP4 PUSH1 0x40 MLOAD DUP4 PUSH4 0xFFFFFFFF AND PUSH29 0x100000000000000000000000000000000000000000000000000000000 MUL DUP2 MSTORE PUSH1 0x4 ADD DUP1 DUP4 PUSH20 0xFFFFFFFFFFFFFFFFFFFFFFFFFFFFFFFFFFFFFFFF AND PUSH20 0xFFFFFFFFFFFFFFFFFFFFFFFFFFFFFFFFFFFFFFFF AND DUP2 MSTORE PUSH1 0x20 ADD DUP3 DUP2 MSTORE PUSH1 0x20 ADD SWAP3 POP POP POP PUSH1 0x20 PUSH1 0x40 MLOAD DUP1 DUP4 SUB DUP2 PUSH1 0x0 DUP8 DUP1 EXTCODESIZE ISZERO DUP1 ISZERO PUSH2 0x321 JUMPI PUSH1 0x0 DUP1 REVERT JUMPDEST POP GAS CALL ISZERO DUP1 ISZERO PUSH2 0x335 JUMPI RETURNDATASIZE PUSH1 0x0 DUP1 RETURNDATACOPY RETURNDATASIZE PUSH1 0x0 REVERT JUMPDEST POP POP POP POP PUSH1 0x40 MLOAD RETURNDATASIZE PUSH1 0x20 DUP2 LT ISZERO PUSH2 0x34B JUMPI PUSH1 0x0 DUP1 REVERT JUMPDEST DUP2 ADD SWAP1 DUP1 DUP1 MLOAD SWAP1 PUSH1 0x20 ADD SWAP1 SWAP3 SWAP2 SWAP1 POP POP POP ISZERO ISZERO PUSH2 0x367 JUMPI PUSH1 0x0 DUP1 REVERT JUMPDEST DUP1 PUSH1 0x1 PUSH1 0x0 CALLER PUSH20 0xFFFFFFFFFFFFFFFFFFFFFFFFFFFFFFFFFFFFFFFF AND PUSH20 0xFFFFFFFFFFFFFFFFFFFFFFFFFFFFFFFFFFFFFFFF AND DUP2 MSTORE PUSH1 0x20 ADD SWAP1 DUP2 MSTORE PUSH1 0x20 ADD PUSH1 0x0 KECCAK256 PUSH1 0x0 DUP3 DUP3 SLOAD SUB SWAP3 POP POP DUP2 SWAP1 SSTORE POP POP JUMP JUMPDEST PUSH1 0x1 PUSH1 0x20 MSTORE DUP1 PUSH1 0x0 MSTORE PUSH1 0x40 PUSH1 0x0 KECCAK256 PUSH1 0x0 SWAP2 POP SWAP1 POP SLOAD DUP2 JUMP JUMPDEST PUSH1 0x0 DUP1 PUSH1 0x0 DUP1 SWAP1 SLOAD SWAP1 PUSH2 0x100 EXP SWAP1 DIV PUSH20 0xFFFFFFFFFFFFFFFFFFFFFFFFFFFFFFFFFFFFFFFF AND PUSH20 0xFFFFFFFFFFFFFFFFFFFFFFFFFFFFFFFFFFFFFFFF AND PUSH4 0x70A08231 ADDRESS PUSH1 0x40 MLOAD DUP3 PUSH4 0xFFFFFFFF AND PUSH29 0x100000000000000000000000000000000000000000000000000000000 MUL DUP2 MSTORE PUSH1 0x4 ADD DUP1 DUP3 PUSH20 0xFFFFFFFFFFFFFFFFFFFFFFFFFFFFFFFFFFFFFFFF AND PUSH20 0xFFFFFFFFFFFFFFFFFFFFFFFFFFFFFFFFFFFFFFFF AND DUP2 MSTORE PUSH1 0x20 ADD SWAP2 POP POP PUSH1 0x20 PUSH1 0x40 MLOAD DUP1 DUP4 SUB DUP2 PUSH1 0x0 DUP8 DUP1 EXTCODESIZE ISZERO DUP1 ISZERO PUSH2 0x48E JUMPI PUSH1 0x0 DUP1 REVERT JUMPDEST POP GAS CALL ISZERO DUP1 ISZERO PUSH2 0x4A2 JUMPI RETURNDATASIZE PUSH1 0x0 DUP1 RETURNDATACOPY RETURNDATASIZE PUSH1 0x0 REVERT JUMPDEST POP POP POP POP PUSH1 0x40 MLOAD RETURNDATASIZE PUSH1 0x20 DUP2 LT ISZERO PUSH2 0x4B8 JUMPI PUSH1 0x0 DUP1 REVERT JUMPDEST DUP2 ADD SWAP1 DUP1 DUP1 MLOAD SWAP1 PUSH1 0x20 ADD SWAP1 SWAP3 SWAP2 SWAP1 POP POP POP EQ SWAP1 POP SWAP1 JUMP JUMPDEST PUSH1 0x0 DUP1 SWAP1 SLOAD SWAP1 PUSH2 0x100 EXP SWAP1 DIV PUSH20 0xFFFFFFFFFFFFFFFFFFFFFFFFFFFFFFFFFFFFFFFF AND PUSH20 0xFFFFFFFFFFFFFFFFFFFFFFFFFFFFFFFFFFFFFFFF AND CALLER PUSH20 0xFFFFFFFFFFFFFFFFFFFFFFFFFFFFFFFFFFFFFFFF AND EQ ISZERO ISZERO PUSH2 0x52A JUMPI PUSH1 0x0 DUP1 REVERT JUMPDEST PUSH1 0x1 PUSH1 0x0 DUP5 PUSH20 0xFFFFFFFFFFFFFFFFFFFFFFFFFFFFFFFFFFFFFFFF AND PUSH20 0xFFFFFFFFFFFFFFFFFFFFFFFFFFFFFFFFFFFFFFFF AND DUP2 MSTORE PUSH1 0x20 ADD SWAP1 DUP2 MSTORE PUSH1 0x20 ADD PUSH1 0x0 KECCAK256 SLOAD DUP3 PUSH1 0x1 PUSH1 0x0 DUP7 PUSH20 0xFFFFFFFFFFFFFFFFFFFFFFFFFFFFFFFFFFFFFFFF AND PUSH20 0xFFFFFFFFFFFFFFFFFFFFFFFFFFFFFFFFFFFFFFFF AND DUP2 MSTORE PUSH1 0x20 ADD SWAP1 DUP2 MSTORE PUSH1 0x20 ADD PUSH1 0x0 KECCAK256 SLOAD ADD LT ISZERO ISZERO ISZERO PUSH2 0x5B9 JUMPI PUSH1 0x0 DUP1 REVERT JUMPDEST DUP2 PUSH1 0x1 PUSH1 0x0 DUP6 PUSH20 0xFFFFFFFFFFFFFFFFFFFFFFFFFFFFFFFFFFFFFFFF AND PUSH20 0xFFFFFFFFFFFFFFFFFFFFFFFFFFFFFFFFFFFFFFFF AND DUP2 MSTORE PUSH1 0x20 ADD SWAP1 DUP2 MSTORE PUSH1 0x20 ADD PUSH1 0x0 KECCAK256 PUSH1 0x0 DUP3 DUP3 SLOAD ADD SWAP3 POP POP DUP2 SWAP1 SSTORE POP POP POP POP JUMP JUMPDEST PUSH1 0x0 DUP1 SWAP1 SLOAD SWAP1 PUSH2 0x100 EXP SWAP1 DIV PUSH20 0xFFFFFFFFFFFFFFFFFFFFFFFFFFFFFFFFFFFFFFFF AND DUP2 JUMP STOP LOG1 PUSH6 0x627A7A723058 KECCAK256 0xf7 LOG4 0xe4 0x26 0x4c PUSH10 0x61F79E7028459B21CA31 LOG2 DUP3 0xc3 0xdc 0x4c 0xd2 ADDRESS 0xd6 RETURNDATASIZE JUMPDEST 0x1f PUSH20 0xD03CD35E00296080604052604080519081016040 MSTORE DUP1 PUSH1 0x13 DUP2 MSTORE PUSH1 0x20 ADD PUSH32 0x53696D706C652045524332323320546F6B656E00000000000000000000000000 DUP2 MSTORE POP PUSH1 0x1 SWAP1 DUP1 MLOAD SWAP1 PUSH1 0x20 ADD SWAP1 PUSH2 0x4F SWAP3 SWAP2 SWAP1 PUSH2 0x195 JUMP JUMPDEST POP PUSH1 0x40 DUP1 MLOAD SWAP1 DUP2 ADD PUSH1 0x40 MSTORE DUP1 PUSH1 0x3 DUP2 MSTORE PUSH1 0x20 ADD PUSH32 0x5345540000000000000000000000000000000000000000000000000000000000 DUP2 MSTORE POP PUSH1 0x2 SWAP1 DUP1 MLOAD SWAP1 PUSH1 0x20 ADD SWAP1 PUSH2 0x9B SWAP3 SWAP2 SWAP1 PUSH2 0x195 JUMP JUMPDEST POP PUSH1 0x12 PUSH1 0x3 PUSH1 0x0 PUSH2 0x100 EXP DUP2 SLOAD DUP2 PUSH1 0xFF MUL NOT AND SWAP1 DUP4 PUSH1 0xFF AND MUL OR SWAP1 SSTORE POP PUSH1 0x3 PUSH1 0x0 SWAP1 SLOAD SWAP1 PUSH2 0x100 EXP SWAP1 DIV PUSH1 0xFF AND PUSH1 0xFF AND PUSH1 0xA EXP PUSH3 0xF4240 MUL PUSH1 0x4 SSTORE CALLVALUE DUP1 ISZERO PUSH2 0xE2 JUMPI PUSH1 0x0 DUP1 REVERT JUMPDEST POP PUSH1 0x4 SLOAD PUSH1 0x0 DUP1 CALLER PUSH20 0xFFFFFFFFFFFFFFFFFFFFFFFFFFFFFFFFFFFFFFFF AND PUSH20 0xFFFFFFFFFFFFFFFFFFFFFFFFFFFFFFFFFFFFFFFF AND DUP2 MSTORE PUSH1 0x20 ADD SWAP1 DUP2 MSTORE PUSH1 0x20 ADD PUSH1 0x0 KECCAK256 DUP2 SWAP1 SSTORE POP CALLER PUSH20 0xFFFFFFFFFFFFFFFFFFFFFFFFFFFFFFFFFFFFFFFF AND PUSH1 0x0 PUSH20 0xFFFFFFFFFFFFFFFFFFFFFFFFFFFFFFFFFFFFFFFF AND PUSH32 0xDDF252AD1BE2C89B69C2B068FC378DAA952BA7F163C4A11628F55A4DF523B3EF PUSH1 0x4 SLOAD PUSH1 0x40 MLOAD DUP1 DUP3 DUP2 MSTORE PUSH1 0x20 ADD SWAP2 POP POP PUSH1 0x40 MLOAD DUP1 SWAP2 SUB SWAP1 LOG3 PUSH2 0x23A JUMP JUMPDEST DUP3 DUP1 SLOAD PUSH1 0x1 DUP2 PUSH1 0x1 AND ISZERO PUSH2 0x100 MUL SUB AND PUSH1 0x2 SWAP1 DIV SWAP1 PUSH1 0x0 MSTORE PUSH1 0x20 PUSH1 0x0 KECCAK256 SWAP1 PUSH1 0x1F ADD PUSH1 0x20 SWAP1 DIV DUP2 ADD SWAP3 DUP3 PUSH1 0x1F LT PUSH2 0x1D6 JUMPI DUP1 MLOAD PUSH1 0xFF NOT AND DUP4 DUP1 ADD OR DUP6 SSTORE PUSH2 0x204 JUMP JUMPDEST DUP3 DUP1 ADD PUSH1 0x1 ADD DUP6 SSTORE DUP3 ISZERO PUSH2 0x204 JUMPI SWAP2 DUP3 ADD JUMPDEST DUP3 DUP2 GT ISZERO PUSH2 0x203 JUMPI DUP3 MLOAD DUP3 SSTORE SWAP2 PUSH1 0x20 ADD SWAP2 SWAP1 PUSH1 0x1 ADD SWAP1 PUSH2 0x1E8 JUMP JUMPDEST JUMPDEST POP SWAP1 POP PUSH2 0x211 SWAP2 SWAP1 PUSH2 0x215 JUMP JUMPDEST POP SWAP1 JUMP JUMPDEST PUSH2 0x237 SWAP2 SWAP1 JUMPDEST DUP1 DUP3 GT ISZERO PUSH2 0x233 JUMPI PUSH1 0x0 DUP2 PUSH1 0x0 SWAP1 SSTORE POP PUSH1 0x1 ADD PUSH2 0x21B JUMP JUMPDEST POP SWAP1 JUMP JUMPDEST SWAP1 JUMP JUMPDEST PUSH2 0xCC2 DUP1 PUSH2 0x249 PUSH1 0x0 CODECOPY PUSH1 0x0 RETURN STOP PUSH1 0x80 PUSH1 0x40 MSTORE PUSH1 0x4 CALLDATASIZE LT PUSH2 0xA4 JUMPI PUSH1 0x0 CALLDATALOAD PUSH29 0x100000000000000000000000000000000000000000000000000000000 SWAP1 DIV PUSH4 0xFFFFFFFF AND DUP1 PUSH4 0x6FDDE03 EQ PUSH2 0xA9 JUMPI DUP1 PUSH4 0x95EA7B3 EQ PUSH2 0x139 JUMPI DUP1 PUSH4 0x18160DDD EQ PUSH2 0x19E JUMPI DUP1 PUSH4 0x23B872DD EQ PUSH2 0x1C9 JUMPI DUP1 PUSH4 0x313CE567 EQ PUSH2 0x24E JUMPI DUP1 PUSH4 0x70A08231 EQ PUSH2 0x27F JUMPI DUP1 PUSH4 0x95D89B41 EQ PUSH2 0x2D6 JUMPI DUP1 PUSH4 0xA9059CBB EQ PUSH2 0x366 JUMPI DUP1 PUSH4 0xBE45FD62 EQ PUSH2 0x3CB JUMPI DUP1 PUSH4 0xDD62ED3E EQ PUSH2 0x476 JUMPI JUMPDEST PUSH1 0x0 DUP1 REVERT JUMPDEST CALLVALUE DUP1 ISZERO PUSH2 0xB5 JUMPI PUSH1 0x0 DUP1 REVERT JUMPDEST POP PUSH2 0xBE PUSH2 0x4ED JUMP JUMPDEST PUSH1 0x40 MLOAD DUP1 DUP1 PUSH1 0x20 ADD DUP3 DUP2 SUB DUP3 MSTORE DUP4 DUP2 DUP2 MLOAD DUP2 MSTORE PUSH1 0x20 ADD SWAP2 POP DUP1 MLOAD SWAP1 PUSH1 0x20 ADD SWAP1 DUP1 DUP4 DUP4 PUSH1 0x0 JUMPDEST DUP4 DUP2 LT ISZERO PUSH2 0xFE JUMPI DUP1 DUP3 ADD MLOAD DUP2 DUP5 ADD MSTORE PUSH1 0x20 DUP2 ADD SWAP1 POP PUSH2 0xE3 JUMP JUMPDEST POP POP POP POP SWAP1 POP SWAP1 DUP2 ADD SWAP1 PUSH1 0x1F AND DUP1 ISZERO PUSH2 0x12B JUMPI DUP1 DUP3 SUB DUP1 MLOAD PUSH1 0x1 DUP4 PUSH1 0x20 SUB PUSH2 0x100 EXP SUB NOT AND DUP2 MSTORE PUSH1 0x20 ADD SWAP2 POP JUMPDEST POP SWAP3 POP POP POP PUSH1 0x40 MLOAD DUP1 SWAP2 SUB SWAP1 RETURN JUMPDEST CALLVALUE DUP1 ISZERO PUSH2 0x145 JUMPI PUSH1 0x0 DUP1 REVERT JUMPDEST POP PUSH2 0x184 PUSH1 0x4 DUP1 CALLDATASIZE SUB DUP2 ADD SWAP1 DUP1 DUP1 CALLDATALOAD PUSH20 0xFFFFFFFFFFFFFFFFFFFFFFFFFFFFFFFFFFFFFFFF AND SWAP1 PUSH1 0x20 ADD SWAP1 SWAP3 SWAP2 SWAP1 DUP1 CALLDATALOAD SWAP1 PUSH1 0x20 ADD SWAP1 SWAP3 SWAP2 SWAP1 POP POP POP PUSH2 0x58B JUMP JUMPDEST PUSH1 0x40 MLOAD DUP1 DUP3 ISZERO ISZERO ISZERO ISZERO DUP2 MSTORE PUSH1 0x20 ADD SWAP2 POP POP PUSH1 0x40 MLOAD DUP1 SWAP2 SUB SWAP1 RETURN JUMPDEST CALLVALUE DUP1 ISZERO PUSH2 0x1AA JUMPI PUSH1 0x0 DUP1 REVERT JUMPDEST POP PUSH2 0x1B3 PUSH2 0x67D JUMP JUMPDEST PUSH1 0x40 MLOAD DUP1 DUP3 DUP2 MSTORE PUSH1 0x20 ADD SWAP2 POP POP PUSH1 0x40 MLOAD DUP1 SWAP2 SUB SWAP1 RETURN JUMPDEST CALLVALUE DUP1 ISZERO PUSH2 0x1D5 JUMPI PUSH1 0x0 DUP1 REVERT JUMPDEST POP PUSH2 0x234 PUSH1 0x4 DUP1 CALLDATASIZE SUB DUP2 ADD SWAP1 DUP1 DUP1 CALLDATALOAD PUSH20 0xFFFFFFFFFFFFFFFFFFFFFFFFFFFFFFFFFFFFFFFF AND SWAP1 PUSH1 0x20 ADD SWAP1 SWAP3 SWAP2 SWAP1 DUP1 CALLDATALOAD PUSH20 0xFFFFFFFFFFFFFFFFFFFFFFFFFFFFFFFFFFFFFFFF AND SWAP1 PUSH1 0x20 ADD SWAP1 SWAP3 SWAP2 SWAP1 DUP1 CALLDATALOAD SWAP1 PUSH1 0x20 ADD SWAP1 SWAP3 SWAP2 SWAP1 POP POP POP PUSH2 0x683 JUMP JUMPDEST PUSH1 0x40 MLOAD DUP1 DUP3 ISZERO ISZERO ISZERO ISZERO DUP2 MSTORE PUSH1 0x20 ADD SWAP2 POP POP PUSH1 0x40 MLOAD DUP1 SWAP2 SUB SWAP1 RETURN JUMPDEST CALLVALUE DUP1 ISZERO PUSH2 0x25A JUMPI PUSH1 0x0 DUP1 REVERT JUMPDEST POP PUSH2 0x263 PUSH2 0x8EF JUMP JUMPDEST PUSH1 0x40 MLOAD DUP1 DUP3 PUSH1 0xFF AND PUSH1 0xFF AND DUP2 MSTORE PUSH1 0x20 ADD SWAP2 POP POP PUSH1 0x40 MLOAD DUP1 SWAP2 SUB SWAP1 RETURN JUMPDEST CALLVALUE DUP1 ISZERO PUSH2 0x28B JUMPI PUSH1 0x0 DUP1 REVERT JUMPDEST POP PUSH2 0x2C0 PUSH1 0x4 DUP1 CALLDATASIZE SUB DUP2 ADD SWAP1 DUP1 DUP1 CALLDATALOAD PUSH20 0xFFFFFFFFFFFFFFFFFFFFFFFFFFFFFFFFFFFFFFFF AND SWAP1 PUSH1 0x20 ADD SWAP1 SWAP3 SWAP2 SWAP1 POP POP POP PUSH2 0x902 JUMP JUMPDEST PUSH1 0x40 MLOAD DUP1 DUP3 DUP2 MSTORE PUSH1 0x20 ADD SWAP2 POP POP PUSH1 0x40 MLOAD DUP1 SWAP2 SUB SWAP1 RETURN JUMPDEST CALLVALUE DUP1 ISZERO PUSH2 0x2E2 JUMPI PUSH1 0x0 DUP1 REVERT JUMPDEST POP PUSH2 0x2EB PUSH2 0x91A JUMP JUMPDEST PUSH1 0x40 MLOAD DUP1 DUP1 PUSH1 0x20 ADD DUP3 DUP2 SUB DUP3 MSTORE DUP4 DUP2 DUP2 MLOAD DUP2 MSTORE PUSH1 0x20 ADD SWAP2 POP DUP1 MLOAD SWAP1 PUSH1 0x20 ADD SWAP1 DUP1 DUP4 DUP4 PUSH1 0x0 JUMPDEST DUP4 DUP2 LT ISZERO PUSH2 0x32B JUMPI DUP1 DUP3 ADD MLOAD DUP2 DUP5 ADD MSTORE PUSH1 0x20 DUP2 ADD SWAP1 POP PUSH2 0x310 JUMP JUMPDEST POP POP POP POP SWAP1 POP SWAP1 DUP2 ADD SWAP1 PUSH1 0x1F AND DUP1 ISZERO PUSH2 0x358 JUMPI DUP1 DUP3 SUB DUP1 MLOAD PUSH1 0x1 DUP4 PUSH1 0x20 SUB PUSH2 0x100 EXP SUB NOT AND DUP2 MSTORE PUSH1 0x20 ADD SWAP2 POP JUMPDEST POP SWAP3 POP POP POP PUSH1 0x40 MLOAD DUP1 SWAP2 SUB SWAP1 RETURN JUMPDEST CALLVALUE DUP1 ISZERO PUSH2 0x372 JUMPI PUSH1 0x0 DUP1 REVERT JUMPDEST POP PUSH2 0x3B1 PUSH1 0x4 DUP1 CALLDATASIZE SUB DUP2 ADD SWAP1 DUP1 DUP1 CALLDATALOAD PUSH20 0xFFFFFFFFFFFFFFFFFFFFFFFFFFFFFFFFFFFFFFFF AND SWAP1 PUSH1 0x20 ADD SWAP1 SWAP3 SWAP2 SWAP1 DUP1 CALLDATALOAD SWAP1 PUSH1 0x20 ADD SWAP1 SWAP3 SWAP2 SWAP1 POP POP POP PUSH2 0x9B8 JUMP JUMPDEST PUSH1 0x40 MLOAD DUP1 DUP3 ISZERO ISZERO ISZERO ISZERO DUP2 MSTORE PUSH1 0x20 ADD SWAP2 POP POP PUSH1 0x40 MLOAD DUP1 SWAP2 SUB SWAP1 RETURN JUMPDEST CALLVALUE DUP1 ISZERO PUSH2 0x3D7 JUMPI PUSH1 0x0 DUP1 REVERT JUMPDEST POP PUSH2 0x45C PUSH1 0x4 DUP1 CALLDATASIZE SUB DUP2 ADD SWAP1 DUP1 DUP1 CALLDATALOAD PUSH20 0xFFFFFFFFFFFFFFFFFFFFFFFFFFFFFFFFFFFFFFFF AND SWAP1 PUSH1 0x20 ADD SWAP1 SWAP3 SWAP2 SWAP1 DUP1 CALLDATALOAD SWAP1 PUSH1 0x20 ADD SWAP1 SWAP3 SWAP2 SWAP1 DUP1 CALLDATALOAD SWAP1 PUSH1 0x20 ADD SWAP1 DUP3 ADD DUP1 CALLDATALOAD SWAP1 PUSH1 0x20 ADD SWAP1 DUP1 DUP1 PUSH1 0x1F ADD PUSH1 0x20 DUP1 SWAP2 DIV MUL PUSH1 0x20 ADD PUSH1 0x40 MLOAD SWAP1 DUP2 ADD PUSH1 0x40 MSTORE DUP1 SWAP4 SWAP3 SWAP2 SWAP1 DUP2 DUP2 MSTORE PUSH1 0x20 ADD DUP4 DUP4 DUP1 DUP3 DUP5 CALLDATACOPY DUP3 ADD SWAP2 POP POP POP POP POP POP SWAP2 SWAP3 SWAP2 SWAP3 SWAP1 POP POP POP PUSH2 0x9D0 JUMP JUMPDEST PUSH1 0x40 MLOAD DUP1 DUP3 ISZERO ISZERO ISZERO ISZERO DUP2 MSTORE PUSH1 0x20 ADD SWAP2 POP POP PUSH1 0x40 MLOAD DUP1 SWAP2 SUB SWAP1 RETURN JUMPDEST CALLVALUE DUP1 ISZERO PUSH2 0x482 JUMPI PUSH1 0x0 DUP1 REVERT JUMPDEST POP PUSH2 0x4D7 PUSH1 0x4 DUP1 CALLDATASIZE SUB DUP2 ADD SWAP1 DUP1 DUP1 CALLDATALOAD PUSH20 0xFFFFFFFFFFFFFFFFFFFFFFFFFFFFFFFFFFFFFFFF AND SWAP1 PUSH1 0x20 ADD SWAP1 SWAP3 SWAP2 SWAP1 DUP1 CALLDATALOAD PUSH20 0xFFFFFFFFFFFFFFFFFFFFFFFFFFFFFFFFFFFFFFFF AND SWAP1 PUSH1 0x20 ADD SWAP1 SWAP3 SWAP2 SWAP1 POP POP POP PUSH2 0xC5E JUMP JUMPDEST PUSH1 0x40 MLOAD DUP1 DUP3 DUP2 MSTORE PUSH1 0x20 ADD SWAP2 POP POP PUSH1 0x40 MLOAD DUP1 SWAP2 SUB SWAP1 RETURN JUMPDEST PUSH1 0x1 DUP1 SLOAD PUSH1 0x1 DUP2 PUSH1 0x1 AND ISZERO PUSH2 0x100 MUL SUB AND PUSH1 0x2 SWAP1 DIV DUP1 PUSH1 0x1F ADD PUSH1 0x20 DUP1 SWAP2 DIV MUL PUSH1 0x20 ADD PUSH1 0x40 MLOAD SWAP1 DUP2 ADD PUSH1 0x40 MSTORE DUP1 SWAP3 SWAP2 SWAP1 DUP2 DUP2 MSTORE PUSH1 0x20 ADD DUP3 DUP1 SLOAD PUSH1 0x1 DUP2 PUSH1 0x1 AND ISZERO PUSH2 0x100 MUL SUB AND PUSH1 0x2 SWAP1 DIV DUP1 ISZERO PUSH2 0x583 JUMPI DUP1 PUSH1 0x1F LT PUSH2 0x558 JUMPI PUSH2 0x100 DUP1 DUP4 SLOAD DIV MUL DUP4 MSTORE SWAP2 PUSH1 0x20 ADD SWAP2 PUSH2 0x583 JUMP JUMPDEST DUP3 ADD SWAP2 SWAP1 PUSH1 0x0 MSTORE PUSH1 0x20 PUSH1 0x0 KECCAK256 SWAP1 JUMPDEST DUP2 SLOAD DUP2 MSTORE SWAP1 PUSH1 0x1 ADD SWAP1 PUSH1 0x20 ADD DUP1 DUP4 GT PUSH2 0x566 JUMPI DUP3 SWAP1 SUB PUSH1 0x1F AND DUP3 ADD SWAP2 JUMPDEST POP POP POP POP POP DUP2 JUMP JUMPDEST PUSH1 0x0 DUP2 PUSH1 0x5 PUSH1 0x0 CALLER PUSH20 0xFFFFFFFFFFFFFFFFFFFFFFFFFFFFFFFFFFFFFFFF AND PUSH20 0xFFFFFFFFFFFFFFFFFFFFFFFFFFFFFFFFFFFFFFFF AND DUP2 MSTORE PUSH1 0x20 ADD SWAP1 DUP2 MSTORE PUSH1 0x20 ADD PUSH1 0x0 KECCAK256 PUSH1 0x0 DUP6 PUSH20 0xFFFFFFFFFFFFFFFFFFFFFFFFFFFFFFFFFFFFFFFF AND PUSH20 0xFFFFFFFFFFFFFFFFFFFFFFFFFFFFFFFFFFFFFFFF AND DUP2 MSTORE PUSH1 0x20 ADD SWAP1 DUP2 MSTORE PUSH1 0x20 ADD PUSH1 0x0 KECCAK256 DUP2 SWAP1 SSTORE POP DUP3 PUSH20 0xFFFFFFFFFFFFFFFFFFFFFFFFFFFFFFFFFFFFFFFF AND CALLER PUSH20 0xFFFFFFFFFFFFFFFFFFFFFFFFFFFFFFFFFFFFFFFF AND PUSH32 0x8C5BE1E5EBEC7D5BD14F71427D1E84F3DD0314C0F7B2291E5B200AC8C7C3B925 DUP5 PUSH1 0x40 MLOAD DUP1 DUP3 DUP2 MSTORE PUSH1 0x20 ADD SWAP2 POP POP PUSH1 0x40 MLOAD DUP1 SWAP2 SUB SWAP1 LOG3 PUSH1 0x1 SWAP1 POP SWAP3 SWAP2 POP POP JUMP JUMPDEST PUSH1 0x4 SLOAD DUP2 JUMP JUMPDEST PUSH1 0x0 DUP1 PUSH1 0x0 DUP6 PUSH20 0xFFFFFFFFFFFFFFFFFFFFFFFFFFFFFFFFFFFFFFFF AND PUSH20 0xFFFFFFFFFFFFFFFFFFFFFFFFFFFFFFFFFFFFFFFF AND DUP2 MSTORE PUSH1 0x20 ADD SWAP1 DUP2 MSTORE PUSH1 0x20 ADD PUSH1 0x0 KECCAK256 SLOAD DUP3 GT ISZERO ISZERO ISZERO PUSH2 0x6D2 JUMPI PUSH1 0x0 DUP1 REVERT JUMPDEST PUSH1 0x5 PUSH1 0x0 DUP6 PUSH20 0xFFFFFFFFFFFFFFFFFFFFFFFFFFFFFFFFFFFFFFFF AND PUSH20 0xFFFFFFFFFFFFFFFFFFFFFFFFFFFFFFFFFFFFFFFF AND DUP2 MSTORE PUSH1 0x20 ADD SWAP1 DUP2 MSTORE PUSH1 0x20 ADD PUSH1 0x0 KECCAK256 PUSH1 0x0 CALLER PUSH20 0xFFFFFFFFFFFFFFFFFFFFFFFFFFFFFFFFFFFFFFFF AND PUSH20 0xFFFFFFFFFFFFFFFFFFFFFFFFFFFFFFFFFFFFFFFF AND DUP2 MSTORE PUSH1 0x20 ADD SWAP1 DUP2 MSTORE PUSH1 0x20 ADD PUSH1 0x0 KECCAK256 SLOAD DUP3 GT ISZERO ISZERO ISZERO PUSH2 0x75D JUMPI PUSH1 0x0 DUP1 REVERT JUMPDEST DUP2 PUSH1 0x0 DUP1 DUP7 PUSH20 0xFFFFFFFFFFFFFFFFFFFFFFFFFFFFFFFFFFFFFFFF AND PUSH20 0xFFFFFFFFFFFFFFFFFFFFFFFFFFFFFFFFFFFFFFFF AND DUP2 MSTORE PUSH1 0x20 ADD SWAP1 DUP2 MSTORE PUSH1 0x20 ADD PUSH1 0x0 KECCAK256 PUSH1 0x0 DUP3 DUP3 SLOAD SUB SWAP3 POP POP DUP2 SWAP1 SSTORE POP DUP2 PUSH1 0x0 DUP1 DUP6 PUSH20 0xFFFFFFFFFFFFFFFFFFFFFFFFFFFFFFFFFFFFFFFF AND PUSH20 0xFFFFFFFFFFFFFFFFFFFFFFFFFFFFFFFFFFFFFFFF AND DUP2 MSTORE PUSH1 0x20 ADD SWAP1 DUP2 MSTORE PUSH1 0x20 ADD PUSH1 0x0 KECCAK256 PUSH1 0x0 DUP3 DUP3 SLOAD ADD SWAP3 POP POP DUP2 SWAP1 SSTORE POP DUP2 PUSH1 0x5 PUSH1 0x0 DUP7 PUSH20 0xFFFFFFFFFFFFFFFFFFFFFFFFFFFFFFFFFFFFFFFF AND PUSH20 0xFFFFFFFFFFFFFFFFFFFFFFFFFFFFFFFFFFFFFFFF AND DUP2 MSTORE PUSH1 0x20 ADD SWAP1 DUP2 MSTORE PUSH1 0x20 ADD PUSH1 0x0 KECCAK256 PUSH1 0x0 CALLER PUSH20 0xFFFFFFFFFFFFFFFFFFFFFFFFFFFFFFFFFFFFFFFF AND PUSH20 0xFFFFFFFFFFFFFFFFFFFFFFFFFFFFFFFFFFFFFFFF AND DUP2 MSTORE PUSH1 0x20 ADD SWAP1 DUP2 MSTORE PUSH1 0x20 ADD PUSH1 0x0 KECCAK256 PUSH1 0x0 DUP3 DUP3 SLOAD SUB SWAP3 POP POP DUP2 SWAP1 SSTORE POP DUP3 PUSH20 0xFFFFFFFFFFFFFFFFFFFFFFFFFFFFFFFFFFFFFFFF AND DUP5 PUSH20 0xFFFFFFFFFFFFFFFFFFFFFFFFFFFFFFFFFFFFFFFF AND PUSH32 0xDDF252AD1BE2C89B69C2B068FC378DAA952BA7F163C4A11628F55A4DF523B3EF DUP5 PUSH1 0x40 MLOAD DUP1 DUP3 DUP2 MSTORE PUSH1 0x20 ADD SWAP2 POP POP PUSH1 0x40 MLOAD DUP1 SWAP2 SUB SWAP1 LOG3 PUSH1 0x1 SWAP1 POP SWAP4 SWAP3 POP POP POP JUMP JUMPDEST PUSH1 0x3 PUSH1 0x0 SWAP1 SLOAD SWAP1 PUSH2 0x100 EXP SWAP1 DIV PUSH1 0xFF AND DUP2 JUMP JUMPDEST PUSH1 0x0 PUSH1 0x20 MSTORE DUP1 PUSH1 0x0 MSTORE PUSH1 0x40 PUSH1 0x0 KECCAK256 PUSH1 0x0 SWAP2 POP SWAP1 POP SLOAD DUP2 JUMP JUMPDEST PUSH1 0x2 DUP1 SLOAD PUSH1 0x1 DUP2 PUSH1 0x1 AND ISZERO PUSH2 0x100 MUL SUB AND PUSH1 0x2 SWAP1 DIV DUP1 PUSH1 0x1F ADD PUSH1 0x20 DUP1 SWAP2 DIV MUL PUSH1 0x20 ADD PUSH1 0x40 MLOAD SWAP1 DUP2 ADD PUSH1 0x40 MSTORE DUP1 SWAP3 SWAP2 SWAP1 DUP2 DUP2 MSTORE PUSH1 0x20 ADD DUP3 DUP1 SLOAD PUSH1 0x1 DUP2 PUSH1 0x1 AND ISZERO PUSH2 0x100 MUL SUB AND PUSH1 0x2 SWAP1 DIV DUP1 ISZERO PUSH2 0x9B0 JUMPI DUP1 PUSH1 0x1F LT PUSH2 0x985 JUMPI PUSH2 0x100 DUP1 DUP4 SLOAD DIV MUL DUP4 MSTORE SWAP2 PUSH1 0x20 ADD SWAP2 PUSH2 0x9B0 JUMP JUMPDEST DUP3 ADD SWAP2 SWAP1 PUSH1 0x0 MSTORE PUSH1 0x20 PUSH1 0x0 KECCAK256 SWAP1 JUMPDEST DUP2 SLOAD DUP2 MSTORE SWAP1 PUSH1 0x1 ADD SWAP1 PUSH1 0x20 ADD DUP1 DUP4 GT PUSH2 0x993 JUMPI DUP3 SWAP1 SUB PUSH1 0x1F AND DUP3 ADD SWAP2 JUMPDEST POP POP POP POP POP DUP2 JUMP JUMPDEST PUSH1 0x0 PUSH1 0x60 PUSH2 0x9C7 DUP5 DUP5 DUP4 PUSH2 0x9D0 JUMP JUMPDEST SWAP2 POP POP SWAP3 SWAP2 POP POP JUMP JUMPDEST PUSH1 0x0 DUP3 PUSH1 0x0 DUP1 CALLER PUSH20 0xFFFFFFFFFFFFFFFFFFFFFFFFFFFFFFFFFFFFFFFF AND PUSH20 0xFFFFFFFFFFFFFFFFFFFFFFFFFFFFFFFFFFFFFFFF AND DUP2 MSTORE PUSH1 0x20 ADD SWAP1 DUP2 MSTORE PUSH1 0x20 ADD PUSH1 0x0 KECCAK256 SLOAD LT ISZERO ISZERO ISZERO PUSH2 0xA1F JUMPI PUSH1 0x0 DUP1 REVERT JUMPDEST DUP3 PUSH1 0x0 DUP1 CALLER PUSH20 0xFFFFFFFFFFFFFFFFFFFFFFFFFFFFFFFFFFFFFFFF AND PUSH20 0xFFFFFFFFFFFFFFFFFFFFFFFFFFFFFFFFFFFFFFFF AND DUP2 MSTORE PUSH1 0x20 ADD SWAP1 DUP2 MSTORE PUSH1 0x20 ADD PUSH1 0x0 KECCAK256 PUSH1 0x0 DUP3 DUP3 SLOAD SUB SWAP3 POP POP DUP2 SWAP1 SSTORE POP DUP3 PUSH1 0x0 DUP1 DUP7 PUSH20 0xFFFFFFFFFFFFFFFFFFFFFFFFFFFFFFFFFFFFFFFF AND PUSH20 0xFFFFFFFFFFFFFFFFFFFFFFFFFFFFFFFFFFFFFFFF AND DUP2 MSTORE PUSH1 0x20 ADD SWAP1 DUP2 MSTORE PUSH1 0x20 ADD PUSH1 0x0 KECCAK256 PUSH1 0x0 DUP3 DUP3 SLOAD ADD SWAP3 POP POP DUP2 SWAP1 SSTORE POP DUP4 PUSH20 0xFFFFFFFFFFFFFFFFFFFFFFFFFFFFFFFFFFFFFFFF AND CALLER PUSH20 0xFFFFFFFFFFFFFFFFFFFFFFFFFFFFFFFFFFFFFFFF AND PUSH32 0xDDF252AD1BE2C89B69C2B068FC378DAA952BA7F163C4A11628F55A4DF523B3EF DUP6 PUSH1 0x40 MLOAD DUP1 DUP3 DUP2 MSTORE PUSH1 0x20 ADD SWAP2 POP POP PUSH1 0x40 MLOAD DUP1 SWAP2 SUB SWAP1 LOG3 PUSH2 0xB25 DUP5 PUSH2 0xC83 JUMP JUMPDEST ISZERO PUSH2 0xC53 JUMPI DUP4 PUSH20 0xFFFFFFFFFFFFFFFFFFFFFFFFFFFFFFFFFFFFFFFF AND PUSH4 0xC0EE0B8A CALLER DUP6 DUP6 PUSH1 0x40 MLOAD DUP5 PUSH4 0xFFFFFFFF AND PUSH29 0x100000000000000000000000000000000000000000000000000000000 MUL DUP2 MSTORE PUSH1 0x4 ADD DUP1 DUP5 PUSH20 0xFFFFFFFFFFFFFFFFFFFFFFFFFFFFFFFFFFFFFFFF AND PUSH20 0xFFFFFFFFFFFFFFFFFFFFFFFFFFFFFFFFFFFFFFFF AND DUP2 MSTORE PUSH1 0x20 ADD DUP4 DUP2 MSTORE PUSH1 0x20 ADD DUP1 PUSH1 0x20 ADD DUP3 DUP2 SUB DUP3 MSTORE DUP4 DUP2 DUP2 MLOAD DUP2 MSTORE PUSH1 0x20 ADD SWAP2 POP DUP1 MLOAD SWAP1 PUSH1 0x20 ADD SWAP1 DUP1 DUP4 DUP4 PUSH1 0x0 JUMPDEST DUP4 DUP2 LT ISZERO PUSH2 0xBEC JUMPI DUP1 DUP3 ADD MLOAD DUP2 DUP5 ADD MSTORE PUSH1 0x20 DUP2 ADD SWAP1 POP PUSH2 0xBD1 JUMP JUMPDEST POP POP POP POP SWAP1 POP SWAP1 DUP2 ADD SWAP1 PUSH1 0x1F AND DUP1 ISZERO PUSH2 0xC19 JUMPI DUP1 DUP3 SUB DUP1 MLOAD PUSH1 0x1 DUP4 PUSH1 0x20 SUB PUSH2 0x100 EXP SUB NOT AND DUP2 MSTORE PUSH1 0x20 ADD SWAP2 POP JUMPDEST POP SWAP5 POP POP POP POP POP PUSH1 0x0 PUSH1 0x40 MLOAD DUP1 DUP4 SUB DUP2 PUSH1 0x0 DUP8 DUP1 EXTCODESIZE ISZERO DUP1 ISZERO PUSH2 0xC3A JUMPI PUSH1 0x0 DUP1 REVERT JUMPDEST POP GAS CALL ISZERO DUP1 ISZERO PUSH2 0xC4E JUMPI RETURNDATASIZE PUSH1 0x0 DUP1 RETURNDATACOPY RETURNDATASIZE PUSH1 0x0 REVERT JUMPDEST POP POP POP POP JUMPDEST PUSH1 0x1 SWAP1 POP SWAP4 SWAP3 POP POP POP JUMP JUMPDEST PUSH1 0x5 PUSH1 0x20 MSTORE DUP2 PUSH1 0x0 MSTORE PUSH1 0x40 PUSH1 0x0 KECCAK256 PUSH1 0x20 MSTORE DUP1 PUSH1 0x0 MSTORE PUSH1 0x40 PUSH1 0x0 KECCAK256 PUSH1 0x0 SWAP2 POP SWAP2 POP POP SLOAD DUP2 JUMP JUMPDEST PUSH1 0x0 DUP1 DUP3 EXTCODESIZE SWAP1 POP PUSH1 0x0 DUP2 GT SWAP2 POP POP SWAP2 SWAP1 POP JUMP STOP LOG1 PUSH6 0x627A7A723058 KECCAK256 PUSH12 0x3E66903A4EBA2EC0D65EA7D9 SWAP1 0xed GT 0xec 0xd8 0xb8 DUP10 0xf5 0xb4 0xf7 0x47 OR PUSH21 0x624FB279AECE002900000000000000000000000000 "
				},
				"gasEstimates": {
					"creation": {
						"codeDepositCost": "325600",
						"executionCost": "infinite",
						"totalCost": "infinite"
					},
					"external": {
						"balanceOf(address)": "554",
						"isComplete()": "infinite",
						"token()": "530",
						"tokenFallback(address,uint256,bytes)": "infinite",
						"withdraw(uint256)": "infinite"
					}
				},
				"methodIdentifiers": {
					"balanceOf(address)": "70a08231",
					"isComplete()": "b2fa1c9e",
					"token()": "fc0c546a",
					"tokenFallback(address,uint256,bytes)": "c0ee0b8a",
					"withdraw(uint256)": "2e1a7d4d"
				}
			},
			"userdoc": {
				"methods": {}
			}
		}
	}
}