{
	"miscellaneous/AssumeOwnershipChallenge.sol": {
		"AssumeOwnershipChallenge": {
			"abi": [
				{
					"constant": false,
					"inputs": [],
					"name": "AssumeOwmershipChallenge",
					"outputs": [],
					"payable": false,
					"stateMutability": "nonpayable",
					"type": "function"
				},
				{
					"constant": false,
					"inputs": [],
					"name": "authenticate",
					"outputs": [],
					"payable": false,
					"stateMutability": "nonpayable",
					"type": "function"
				},
				{
					"constant": true,
					"inputs": [],
					"name": "isComplete",
					"outputs": [
						{
							"name": "",
							"type": "bool"
						}
					],
					"payable": false,
					"stateMutability": "view",
					"type": "function"
				}
			],
			"devdoc": {
				"methods": {}
			},
			"evm": {
				"assembly": "    /* \"miscellaneous/AssumeOwnershipChallenge.sol\":28:319  contract AssumeOwnershipChallenge {\r... */\n  mstore(0x40, 0x80)\n  callvalue\n    /* \"--CODEGEN--\":8:17   */\n  dup1\n    /* \"--CODEGEN--\":5:7   */\n  iszero\n  tag_1\n  jumpi\n    /* \"--CODEGEN--\":30:31   */\n  0x0\n    /* \"--CODEGEN--\":27:28   */\n  dup1\n    /* \"--CODEGEN--\":20:32   */\n  revert\n    /* \"--CODEGEN--\":5:7   */\ntag_1:\n    /* \"miscellaneous/AssumeOwnershipChallenge.sol\":28:319  contract AssumeOwnershipChallenge {\r... */\n  pop\n  dataSize(sub_0)\n  dup1\n  dataOffset(sub_0)\n  0x0\n  codecopy\n  0x0\n  return\nstop\n\nsub_0: assembly {\n        /* \"miscellaneous/AssumeOwnershipChallenge.sol\":28:319  contract AssumeOwnershipChallenge {\r... */\n      mstore(0x40, 0x80)\n      jumpi(tag_1, lt(calldatasize, 0x4))\n      calldataload(0x0)\n      0x100000000000000000000000000000000000000000000000000000000\n      swap1\n      div\n      0xffffffff\n      and\n      dup1\n      0x21aa0615\n      eq\n      tag_2\n      jumpi\n      dup1\n      0x380c7a67\n      eq\n      tag_3\n      jumpi\n      dup1\n      0xb2fa1c9e\n      eq\n      tag_4\n      jumpi\n    tag_1:\n      0x0\n      dup1\n      revert\n        /* \"miscellaneous/AssumeOwnershipChallenge.sol\":120:200  function AssumeOwmershipChallenge() public {\r... */\n    tag_2:\n      callvalue\n        /* \"--CODEGEN--\":8:17   */\n      dup1\n        /* \"--CODEGEN--\":5:7   */\n      iszero\n      tag_5\n      jumpi\n        /* \"--CODEGEN--\":30:31   */\n      0x0\n        /* \"--CODEGEN--\":27:28   */\n      dup1\n        /* \"--CODEGEN--\":20:32   */\n      revert\n        /* \"--CODEGEN--\":5:7   */\n    tag_5:\n        /* \"miscellaneous/AssumeOwnershipChallenge.sol\":120:200  function AssumeOwmershipChallenge() public {\r... */\n      pop\n      tag_6\n      jump(tag_7)\n    tag_6:\n      stop\n        /* \"miscellaneous/AssumeOwnershipChallenge.sol\":208:316  function authenticate() public {\r... */\n    tag_3:\n      callvalue\n        /* \"--CODEGEN--\":8:17   */\n      dup1\n        /* \"--CODEGEN--\":5:7   */\n      iszero\n      tag_8\n      jumpi\n        /* \"--CODEGEN--\":30:31   */\n      0x0\n        /* \"--CODEGEN--\":27:28   */\n      dup1\n        /* \"--CODEGEN--\":20:32   */\n      revert\n        /* \"--CODEGEN--\":5:7   */\n    tag_8:\n        /* \"miscellaneous/AssumeOwnershipChallenge.sol\":208:316  function authenticate() public {\r... */\n      pop\n      tag_9\n      jump(tag_10)\n    tag_9:\n      stop\n        /* \"miscellaneous/AssumeOwnershipChallenge.sol\":89:111  bool public isComplete */\n    tag_4:\n      callvalue\n        /* \"--CODEGEN--\":8:17   */\n      dup1\n        /* \"--CODEGEN--\":5:7   */\n      iszero\n      tag_11\n      jumpi\n        /* \"--CODEGEN--\":30:31   */\n      0x0\n        /* \"--CODEGEN--\":27:28   */\n      dup1\n        /* \"--CODEGEN--\":20:32   */\n      revert\n        /* \"--CODEGEN--\":5:7   */\n    tag_11:\n        /* \"miscellaneous/AssumeOwnershipChallenge.sol\":89:111  bool public isComplete */\n      pop\n      tag_12\n      jump(tag_13)\n    tag_12:\n      mload(0x40)\n      dup1\n      dup3\n      iszero\n      iszero\n      iszero\n      iszero\n      dup2\n      mstore\n      0x20\n      add\n      swap2\n      pop\n      pop\n      mload(0x40)\n      dup1\n      swap2\n      sub\n      swap1\n      return\n        /* \"miscellaneous/AssumeOwnershipChallenge.sol\":120:200  function AssumeOwmershipChallenge() public {\r... */\n    tag_7:\n        /* \"miscellaneous/AssumeOwnershipChallenge.sol\":182:192  msg.sender */\n      caller\n        /* \"miscellaneous/AssumeOwnershipChallenge.sol\":174:179  owner */\n      0x0\n      dup1\n        /* \"miscellaneous/AssumeOwnershipChallenge.sol\":174:192  owner = msg.sender */\n      0x100\n      exp\n      dup2\n      sload\n      dup2\n      0xffffffffffffffffffffffffffffffffffffffff\n      mul\n      not\n      and\n      swap1\n      dup4\n      0xffffffffffffffffffffffffffffffffffffffff\n      and\n      mul\n      or\n      swap1\n      sstore\n      pop\n        /* \"miscellaneous/AssumeOwnershipChallenge.sol\":120:200  function AssumeOwmershipChallenge() public {\r... */\n      jump\t// out\n        /* \"miscellaneous/AssumeOwnershipChallenge.sol\":208:316  function authenticate() public {\r... */\n    tag_10:\n        /* \"miscellaneous/AssumeOwnershipChallenge.sol\":272:277  owner */\n      0x0\n      dup1\n      swap1\n      sload\n      swap1\n      0x100\n      exp\n      swap1\n      div\n      0xffffffffffffffffffffffffffffffffffffffff\n      and\n        /* \"miscellaneous/AssumeOwnershipChallenge.sol\":258:277  msg.sender == owner */\n      0xffffffffffffffffffffffffffffffffffffffff\n      and\n        /* \"miscellaneous/AssumeOwnershipChallenge.sol\":258:268  msg.sender */\n      caller\n        /* \"miscellaneous/AssumeOwnershipChallenge.sol\":258:277  msg.sender == owner */\n      0xffffffffffffffffffffffffffffffffffffffff\n      and\n      eq\n        /* \"miscellaneous/AssumeOwnershipChallenge.sol\":250:278  require(msg.sender == owner) */\n      iszero\n      iszero\n      tag_16\n      jumpi\n      0x0\n      dup1\n      revert\n    tag_16:\n        /* \"miscellaneous/AssumeOwnershipChallenge.sol\":304:308  true */\n      0x1\n        /* \"miscellaneous/AssumeOwnershipChallenge.sol\":291:301  isComplete */\n      0x0\n      0x14\n        /* \"miscellaneous/AssumeOwnershipChallenge.sol\":291:308  isComplete = true */\n      0x100\n      exp\n      dup2\n      sload\n      dup2\n      0xff\n      mul\n      not\n      and\n      swap1\n      dup4\n      iszero\n      iszero\n      mul\n      or\n      swap1\n      sstore\n      pop\n        /* \"miscellaneous/AssumeOwnershipChallenge.sol\":208:316  function authenticate() public {\r... */\n      jump\t// out\n        /* \"miscellaneous/AssumeOwnershipChallenge.sol\":89:111  bool public isComplete */\n    tag_13:\n      0x0\n      0x14\n      swap1\n      sload\n      swap1\n      0x100\n      exp\n      swap1\n      div\n      0xff\n      and\n      dup2\n      jump\t// out\n\n    auxdata: 0xa165627a7a72305820638375226cfd06e4f3e8962c4eab833e2b520ae069febe7c62a817506cdba7480029\n}\n",
				"bytecode": {
					"linkReferences": {},
					"object": "608060405234801561001057600080fd5b506101b2806100206000396000f300608060405260043610610057576000357c0100000000000000000000000000000000000000000000000000000000900463ffffffff16806321aa06151461005c578063380c7a6714610073578063b2fa1c9e1461008a575b600080fd5b34801561006857600080fd5b506100716100b9565b005b34801561007f57600080fd5b506100886100fb565b005b34801561009657600080fd5b5061009f610173565b604051808215151515815260200191505060405180910390f35b336000806101000a81548173ffffffffffffffffffffffffffffffffffffffff021916908373ffffffffffffffffffffffffffffffffffffffff160217905550565b6000809054906101000a900473ffffffffffffffffffffffffffffffffffffffff1673ffffffffffffffffffffffffffffffffffffffff163373ffffffffffffffffffffffffffffffffffffffff1614151561015657600080fd5b6001600060146101000a81548160ff021916908315150217905550565b600060149054906101000a900460ff16815600a165627a7a72305820638375226cfd06e4f3e8962c4eab833e2b520ae069febe7c62a817506cdba7480029",
					"opcodes": "PUSH1 0x80 PUSH1 0x40 MSTORE CALLVALUE DUP1 ISZERO PUSH2 0x10 JUMPI PUSH1 0x0 DUP1 REVERT JUMPDEST POP PUSH2 0x1B2 DUP1 PUSH2 0x20 PUSH1 0x0 CODECOPY PUSH1 0x0 RETURN STOP PUSH1 0x80 PUSH1 0x40 MSTORE PUSH1 0x4 CALLDATASIZE LT PUSH2 0x57 JUMPI PUSH1 0x0 CALLDATALOAD PUSH29 0x100000000000000000000000000000000000000000000000000000000 SWAP1 DIV PUSH4 0xFFFFFFFF AND DUP1 PUSH4 0x21AA0615 EQ PUSH2 0x5C JUMPI DUP1 PUSH4 0x380C7A67 EQ PUSH2 0x73 JUMPI DUP1 PUSH4 0xB2FA1C9E EQ PUSH2 0x8A JUMPI JUMPDEST PUSH1 0x0 DUP1 REVERT JUMPDEST CALLVALUE DUP1 ISZERO PUSH2 0x68 JUMPI PUSH1 0x0 DUP1 REVERT JUMPDEST POP PUSH2 0x71 PUSH2 0xB9 JUMP JUMPDEST STOP JUMPDEST CALLVALUE DUP1 ISZERO PUSH2 0x7F JUMPI PUSH1 0x0 DUP1 REVERT JUMPDEST POP PUSH2 0x88 PUSH2 0xFB JUMP JUMPDEST STOP JUMPDEST CALLVALUE DUP1 ISZERO PUSH2 0x96 JUMPI PUSH1 0x0 DUP1 REVERT JUMPDEST POP PUSH2 0x9F PUSH2 0x173 JUMP JUMPDEST PUSH1 0x40 MLOAD DUP1 DUP3 ISZERO ISZERO ISZERO ISZERO DUP2 MSTORE PUSH1 0x20 ADD SWAP2 POP POP PUSH1 0x40 MLOAD DUP1 SWAP2 SUB SWAP1 RETURN JUMPDEST CALLER PUSH1 0x0 DUP1 PUSH2 0x100 EXP DUP2 SLOAD DUP2 PUSH20 0xFFFFFFFFFFFFFFFFFFFFFFFFFFFFFFFFFFFFFFFF MUL NOT AND SWAP1 DUP4 PUSH20 0xFFFFFFFFFFFFFFFFFFFFFFFFFFFFFFFFFFFFFFFF AND MUL OR SWAP1 SSTORE POP JUMP JUMPDEST PUSH1 0x0 DUP1 SWAP1 SLOAD SWAP1 PUSH2 0x100 EXP SWAP1 DIV PUSH20 0xFFFFFFFFFFFFFFFFFFFFFFFFFFFFFFFFFFFFFFFF AND PUSH20 0xFFFFFFFFFFFFFFFFFFFFFFFFFFFFFFFFFFFFFFFF AND CALLER PUSH20 0xFFFFFFFFFFFFFFFFFFFFFFFFFFFFFFFFFFFFFFFF AND EQ ISZERO ISZERO PUSH2 0x156 JUMPI PUSH1 0x0 DUP1 REVERT JUMPDEST PUSH1 0x1 PUSH1 0x0 PUSH1 0x14 PUSH2 0x100 EXP DUP2 SLOAD DUP2 PUSH1 0xFF MUL NOT AND SWAP1 DUP4 ISZERO ISZERO MUL OR SWAP1 SSTORE POP JUMP JUMPDEST PUSH1 0x0 PUSH1 0x14 SWAP1 SLOAD SWAP1 PUSH2 0x100 EXP SWAP1 DIV PUSH1 0xFF AND DUP2 JUMP STOP LOG1 PUSH6 0x627A7A723058 KECCAK256 PUSH4 0x8375226C REVERT MOD 0xe4 RETURN 0xe8 SWAP7 0x2c 0x4e 0xab DUP4 RETURNDATACOPY 0x2b MSTORE EXP 0xe0 PUSH10 0xFEBE7C62A817506CDBA7 0x48 STOP 0x29 "
				},
				"gasEstimates": {
					"creation": {
						"codeDepositCost": "86800",
						"executionCost": "135",
						"totalCost": "86935"
					},
					"external": {
						"AssumeOwmershipChallenge()": "20399",
						"authenticate()": "20748",
						"isComplete()": "536"
					}
				},
				"methodIdentifiers": {
					"AssumeOwmershipChallenge()": "21aa0615",
					"authenticate()": "380c7a67",
					"isComplete()": "b2fa1c9e"
				}
			},
			"userdoc": {
				"methods": {}
			}
		}
	}
}