{
	"accounts/PublicKeyChallenge.sol": {
		"PublicKeyChallenge": {
			"abi": [
				{
					"inputs": [
						{
							"internalType": "bytes",
							"name": "publicKey",
							"type": "bytes"
						}
					],
					"name": "authenticate",
					"outputs": [],
					"stateMutability": "nonpayable",
					"type": "function"
				},
				{
					"inputs": [],
					"name": "isComplete",
					"outputs": [
						{
							"internalType": "bool",
							"name": "",
							"type": "bool"
						}
					],
					"stateMutability": "view",
					"type": "function"
				}
			],
			"devdoc": {
				"kind": "dev",
				"methods": {},
				"version": 1
			},
			"evm": {
				"assembly": "    /* \"accounts/PublicKeyChallenge.sol\":61:360  contract PublicKeyChallenge {... */\n  mstore(0x40, 0x80)\n    /* \"accounts/PublicKeyChallenge.sol\":96:154  address owner = 0x92b28647Ae1F3264661f72fb2eB9625A89D88A31 */\n  0x00\n  dup1\n  sload\n  not(sub(shl(0xa0, 0x01), 0x01))\n  and\n    /* \"accounts/PublicKeyChallenge.sol\":112:154  0x92b28647Ae1F3264661f72fb2eB9625A89D88A31 */\n  0x92b28647ae1f3264661f72fb2eb9625a89d88a31\n    /* \"accounts/PublicKeyChallenge.sol\":96:154  address owner = 0x92b28647Ae1F3264661f72fb2eB9625A89D88A31 */\n  or\n  swap1\n  sstore\n    /* \"accounts/PublicKeyChallenge.sol\":61:360  contract PublicKeyChallenge {... */\n  callvalue\n  dup1\n  iszero\n  tag_1\n  jumpi\n  0x00\n  dup1\n  revert\ntag_1:\n  pop\n  dataSize(sub_0)\n  dup1\n  dataOffset(sub_0)\n  0x00\n  codecopy\n  0x00\n  return\nstop\n\nsub_0: assembly {\n        /* \"accounts/PublicKeyChallenge.sol\":61:360  contract PublicKeyChallenge {... */\n      mstore(0x40, 0x80)\n      callvalue\n      dup1\n      iszero\n      tag_1\n      jumpi\n      0x00\n      dup1\n      revert\n    tag_1:\n      pop\n      jumpi(tag_2, lt(calldatasize, 0x04))\n      shr(0xe0, calldataload(0x00))\n      dup1\n      0xb2fa1c9e\n      eq\n      tag_3\n      jumpi\n      dup1\n      0xee0d605c\n      eq\n      tag_4\n      jumpi\n    tag_2:\n      0x00\n      dup1\n      revert\n        /* \"accounts/PublicKeyChallenge.sol\":161:183  bool public isComplete */\n    tag_3:\n      sload(0x00)\n      tag_5\n      swap1\n      shl(0xa0, 0x01)\n      swap1\n      div\n      0xff\n      and\n      dup2\n      jump\n    tag_5:\n      mload(0x40)\n        /* \"#utility.yul\":179:193   */\n      swap1\n      iszero\n        /* \"#utility.yul\":172:194   */\n      iszero\n        /* \"#utility.yul\":154:195   */\n      dup2\n      mstore\n        /* \"#utility.yul\":142:144   */\n      0x20\n        /* \"#utility.yul\":127:145   */\n      add\n        /* \"accounts/PublicKeyChallenge.sol\":161:183  bool public isComplete */\n      mload(0x40)\n      dup1\n      swap2\n      sub\n      swap1\n      return\n        /* \"accounts/PublicKeyChallenge.sol\":192:357  function authenticate(bytes memory publicKey) public {... */\n    tag_4:\n      tag_9\n      tag_10\n      calldatasize\n      0x04\n      tag_11\n      jump\t// in\n    tag_10:\n      tag_12\n      jump\t// in\n    tag_9:\n      stop\n    tag_12:\n        /* \"accounts/PublicKeyChallenge.sol\":315:320  owner */\n      sload(0x00)\n        /* \"accounts/PublicKeyChallenge.sol\":288:308  keccak256(publicKey) */\n      dup2\n      mload\n      0x20\n      dup4\n      add\n      keccak256\n      sub(shl(0xa0, 0x01), 0x01)\n        /* \"accounts/PublicKeyChallenge.sol\":264:320  address(uint160(uint256(keccak256(publicKey)))) == owner */\n      swap1\n      dup2\n      and\n        /* \"accounts/PublicKeyChallenge.sol\":315:320  owner */\n      swap2\n      and\n        /* \"accounts/PublicKeyChallenge.sol\":264:320  address(uint160(uint256(keccak256(publicKey)))) == owner */\n      eq\n        /* \"accounts/PublicKeyChallenge.sol\":256:321  require(address(uint160(uint256(keccak256(publicKey)))) == owner) */\n      tag_14\n      jumpi\n      0x00\n      dup1\n      revert\n    tag_14:\n      pop\n        /* \"accounts/PublicKeyChallenge.sol\":332:342  isComplete */\n      0x00\n        /* \"accounts/PublicKeyChallenge.sol\":332:349  isComplete = true */\n      dup1\n      sload\n      not(shl(0xa0, 0xff))\n      and\n      shl(0xa0, 0x01)\n      or\n      swap1\n      sstore\n        /* \"accounts/PublicKeyChallenge.sol\":192:357  function authenticate(bytes memory publicKey) public {... */\n      jump\t// out\n        /* \"#utility.yul\":206:333   */\n    tag_15:\n        /* \"#utility.yul\":267:277   */\n      0x4e487b71\n        /* \"#utility.yul\":262:265   */\n      0xe0\n        /* \"#utility.yul\":258:278   */\n      shl\n        /* \"#utility.yul\":255:256   */\n      0x00\n        /* \"#utility.yul\":248:279   */\n      mstore\n        /* \"#utility.yul\":298:302   */\n      0x41\n        /* \"#utility.yul\":295:296   */\n      0x04\n        /* \"#utility.yul\":288:303   */\n      mstore\n        /* \"#utility.yul\":322:326   */\n      0x24\n        /* \"#utility.yul\":319:320   */\n      0x00\n        /* \"#utility.yul\":312:327   */\n      revert\n        /* \"#utility.yul\":338:1259   */\n    tag_11:\n        /* \"#utility.yul\":406:412   */\n      0x00\n        /* \"#utility.yul\":459:461   */\n      0x20\n        /* \"#utility.yul\":447:456   */\n      dup3\n        /* \"#utility.yul\":438:445   */\n      dup5\n        /* \"#utility.yul\":434:457   */\n      sub\n        /* \"#utility.yul\":430:462   */\n      slt\n        /* \"#utility.yul\":427:479   */\n      iszero\n      tag_20\n      jumpi\n        /* \"#utility.yul\":475:476   */\n      0x00\n        /* \"#utility.yul\":472:473   */\n      dup1\n        /* \"#utility.yul\":465:477   */\n      revert\n        /* \"#utility.yul\":427:479   */\n    tag_20:\n        /* \"#utility.yul\":515:524   */\n      dup2\n        /* \"#utility.yul\":502:525   */\n      calldataload\n        /* \"#utility.yul\":544:562   */\n      0xffffffffffffffff\n        /* \"#utility.yul\":585:587   */\n      dup1\n        /* \"#utility.yul\":577:583   */\n      dup3\n        /* \"#utility.yul\":574:588   */\n      gt\n        /* \"#utility.yul\":571:605   */\n      iszero\n      tag_21\n      jumpi\n        /* \"#utility.yul\":601:602   */\n      0x00\n        /* \"#utility.yul\":598:599   */\n      dup1\n        /* \"#utility.yul\":591:603   */\n      revert\n        /* \"#utility.yul\":571:605   */\n    tag_21:\n        /* \"#utility.yul\":639:645   */\n      dup2\n        /* \"#utility.yul\":628:637   */\n      dup5\n        /* \"#utility.yul\":624:646   */\n      add\n        /* \"#utility.yul\":614:646   */\n      swap2\n      pop\n        /* \"#utility.yul\":684:691   */\n      dup5\n        /* \"#utility.yul\":677:681   */\n      0x1f\n        /* \"#utility.yul\":673:675   */\n      dup4\n        /* \"#utility.yul\":669:682   */\n      add\n        /* \"#utility.yul\":665:692   */\n      slt\n        /* \"#utility.yul\":655:710   */\n      tag_22\n      jumpi\n        /* \"#utility.yul\":706:707   */\n      0x00\n        /* \"#utility.yul\":703:704   */\n      dup1\n        /* \"#utility.yul\":696:708   */\n      revert\n        /* \"#utility.yul\":655:710   */\n    tag_22:\n        /* \"#utility.yul\":742:744   */\n      dup2\n        /* \"#utility.yul\":729:745   */\n      calldataload\n        /* \"#utility.yul\":764:766   */\n      dup2\n        /* \"#utility.yul\":760:762   */\n      dup2\n        /* \"#utility.yul\":757:767   */\n      gt\n        /* \"#utility.yul\":754:790   */\n      iszero\n      tag_24\n      jumpi\n        /* \"#utility.yul\":770:788   */\n      tag_24\n      tag_15\n      jump\t// in\n    tag_24:\n        /* \"#utility.yul\":845:847   */\n      0x40\n        /* \"#utility.yul\":839:848   */\n      mload\n        /* \"#utility.yul\":813:815   */\n      0x1f\n        /* \"#utility.yul\":899:912   */\n      dup3\n      add\n      not(0x1f)\n        /* \"#utility.yul\":895:917   */\n      swap1\n      dup2\n      and\n        /* \"#utility.yul\":919:921   */\n      0x3f\n        /* \"#utility.yul\":891:922   */\n      add\n        /* \"#utility.yul\":887:927   */\n      and\n        /* \"#utility.yul\":875:928   */\n      dup2\n      add\n      swap1\n        /* \"#utility.yul\":943:961   */\n      dup4\n      dup3\n      gt\n        /* \"#utility.yul\":963:985   */\n      dup2\n      dup4\n      lt\n        /* \"#utility.yul\":940:986   */\n      or\n        /* \"#utility.yul\":937:1009   */\n      iszero\n      tag_26\n      jumpi\n        /* \"#utility.yul\":989:1007   */\n      tag_26\n      tag_15\n      jump\t// in\n    tag_26:\n        /* \"#utility.yul\":1029:1039   */\n      dup2\n        /* \"#utility.yul\":1025:1027   */\n      0x40\n        /* \"#utility.yul\":1018:1040   */\n      mstore\n        /* \"#utility.yul\":1064:1066   */\n      dup3\n        /* \"#utility.yul\":1056:1062   */\n      dup2\n        /* \"#utility.yul\":1049:1067   */\n      mstore\n        /* \"#utility.yul\":1104:1111   */\n      dup8\n        /* \"#utility.yul\":1099:1101   */\n      0x20\n        /* \"#utility.yul\":1094:1096   */\n      dup5\n        /* \"#utility.yul\":1090:1092   */\n      dup8\n        /* \"#utility.yul\":1086:1097   */\n      add\n        /* \"#utility.yul\":1082:1102   */\n      add\n        /* \"#utility.yul\":1079:1112   */\n      gt\n        /* \"#utility.yul\":1076:1129   */\n      iszero\n      tag_27\n      jumpi\n        /* \"#utility.yul\":1125:1126   */\n      0x00\n        /* \"#utility.yul\":1122:1123   */\n      dup1\n        /* \"#utility.yul\":1115:1127   */\n      revert\n        /* \"#utility.yul\":1076:1129   */\n    tag_27:\n        /* \"#utility.yul\":1181:1183   */\n      dup3\n        /* \"#utility.yul\":1176:1178   */\n      0x20\n        /* \"#utility.yul\":1172:1174   */\n      dup7\n        /* \"#utility.yul\":1168:1179   */\n      add\n        /* \"#utility.yul\":1163:1165   */\n      0x20\n        /* \"#utility.yul\":1155:1161   */\n      dup4\n        /* \"#utility.yul\":1151:1166   */\n      add\n        /* \"#utility.yul\":1138:1184   */\n      calldatacopy\n        /* \"#utility.yul\":1226:1227   */\n      0x00\n        /* \"#utility.yul\":1204:1219   */\n      swap3\n      dup2\n      add\n        /* \"#utility.yul\":1221:1223   */\n      0x20\n        /* \"#utility.yul\":1200:1224   */\n      add\n        /* \"#utility.yul\":1193:1228   */\n      swap3\n      swap1\n      swap3\n      mstore\n      pop\n        /* \"#utility.yul\":1208:1214   */\n      swap6\n        /* \"#utility.yul\":338:1259   */\n      swap5\n      pop\n      pop\n      pop\n      pop\n      pop\n      jump\t// out\n\n    auxdata: 0xa2646970667358221220b93cadf7dc735f4a0b8a30ef38d1e239c44515509248865f8ccb10d0957cfb5564736f6c634300080f0033\n}\n",
				"bytecode": {
					"linkReferences": {},
					"object": "6080604052600080546001600160a01b0319167392b28647ae1f3264661f72fb2eb9625a89d88a3117905534801561003657600080fd5b506101ac806100466000396000f3fe608060405234801561001057600080fd5b50600436106100365760003560e01c8063b2fa1c9e1461003b578063ee0d605c14610063575b600080fd5b60005461004f90600160a01b900460ff1681565b604051901515815260200160405180910390f35b6100766100713660046100c5565b610078565b005b600054815160208301206001600160a01b0390811691161461009957600080fd5b506000805460ff60a01b1916600160a01b179055565b634e487b7160e01b600052604160045260246000fd5b6000602082840312156100d757600080fd5b813567ffffffffffffffff808211156100ef57600080fd5b818401915084601f83011261010357600080fd5b813581811115610115576101156100af565b604051601f8201601f19908116603f0116810190838211818310171561013d5761013d6100af565b8160405282815287602084870101111561015657600080fd5b82602086016020830137600092810160200192909252509594505050505056fea2646970667358221220b93cadf7dc735f4a0b8a30ef38d1e239c44515509248865f8ccb10d0957cfb5564736f6c634300080f0033",
					"opcodes": "PUSH1 0x80 PUSH1 0x40 MSTORE PUSH1 0x0 DUP1 SLOAD PUSH1 0x1 PUSH1 0x1 PUSH1 0xA0 SHL SUB NOT AND PUSH20 0x92B28647AE1F3264661F72FB2EB9625A89D88A31 OR SWAP1 SSTORE CALLVALUE DUP1 ISZERO PUSH2 0x36 JUMPI PUSH1 0x0 DUP1 REVERT JUMPDEST POP PUSH2 0x1AC DUP1 PUSH2 0x46 PUSH1 0x0 CODECOPY PUSH1 0x0 RETURN INVALID PUSH1 0x80 PUSH1 0x40 MSTORE CALLVALUE DUP1 ISZERO PUSH2 0x10 JUMPI PUSH1 0x0 DUP1 REVERT JUMPDEST POP PUSH1 0x4 CALLDATASIZE LT PUSH2 0x36 JUMPI PUSH1 0x0 CALLDATALOAD PUSH1 0xE0 SHR DUP1 PUSH4 0xB2FA1C9E EQ PUSH2 0x3B JUMPI DUP1 PUSH4 0xEE0D605C EQ PUSH2 0x63 JUMPI JUMPDEST PUSH1 0x0 DUP1 REVERT JUMPDEST PUSH1 0x0 SLOAD PUSH2 0x4F SWAP1 PUSH1 0x1 PUSH1 0xA0 SHL SWAP1 DIV PUSH1 0xFF AND DUP2 JUMP JUMPDEST PUSH1 0x40 MLOAD SWAP1 ISZERO ISZERO DUP2 MSTORE PUSH1 0x20 ADD PUSH1 0x40 MLOAD DUP1 SWAP2 SUB SWAP1 RETURN JUMPDEST PUSH2 0x76 PUSH2 0x71 CALLDATASIZE PUSH1 0x4 PUSH2 0xC5 JUMP JUMPDEST PUSH2 0x78 JUMP JUMPDEST STOP JUMPDEST PUSH1 0x0 SLOAD DUP2 MLOAD PUSH1 0x20 DUP4 ADD KECCAK256 PUSH1 0x1 PUSH1 0x1 PUSH1 0xA0 SHL SUB SWAP1 DUP2 AND SWAP2 AND EQ PUSH2 0x99 JUMPI PUSH1 0x0 DUP1 REVERT JUMPDEST POP PUSH1 0x0 DUP1 SLOAD PUSH1 0xFF PUSH1 0xA0 SHL NOT AND PUSH1 0x1 PUSH1 0xA0 SHL OR SWAP1 SSTORE JUMP JUMPDEST PUSH4 0x4E487B71 PUSH1 0xE0 SHL PUSH1 0x0 MSTORE PUSH1 0x41 PUSH1 0x4 MSTORE PUSH1 0x24 PUSH1 0x0 REVERT JUMPDEST PUSH1 0x0 PUSH1 0x20 DUP3 DUP5 SUB SLT ISZERO PUSH2 0xD7 JUMPI PUSH1 0x0 DUP1 REVERT JUMPDEST DUP2 CALLDATALOAD PUSH8 0xFFFFFFFFFFFFFFFF DUP1 DUP3 GT ISZERO PUSH2 0xEF JUMPI PUSH1 0x0 DUP1 REVERT JUMPDEST DUP2 DUP5 ADD SWAP2 POP DUP5 PUSH1 0x1F DUP4 ADD SLT PUSH2 0x103 JUMPI PUSH1 0x0 DUP1 REVERT JUMPDEST DUP2 CALLDATALOAD DUP2 DUP2 GT ISZERO PUSH2 0x115 JUMPI PUSH2 0x115 PUSH2 0xAF JUMP JUMPDEST PUSH1 0x40 MLOAD PUSH1 0x1F DUP3 ADD PUSH1 0x1F NOT SWAP1 DUP2 AND PUSH1 0x3F ADD AND DUP2 ADD SWAP1 DUP4 DUP3 GT DUP2 DUP4 LT OR ISZERO PUSH2 0x13D JUMPI PUSH2 0x13D PUSH2 0xAF JUMP JUMPDEST DUP2 PUSH1 0x40 MSTORE DUP3 DUP2 MSTORE DUP8 PUSH1 0x20 DUP5 DUP8 ADD ADD GT ISZERO PUSH2 0x156 JUMPI PUSH1 0x0 DUP1 REVERT JUMPDEST DUP3 PUSH1 0x20 DUP7 ADD PUSH1 0x20 DUP4 ADD CALLDATACOPY PUSH1 0x0 SWAP3 DUP2 ADD PUSH1 0x20 ADD SWAP3 SWAP1 SWAP3 MSTORE POP SWAP6 SWAP5 POP POP POP POP POP JUMP INVALID LOG2 PUSH5 0x6970667358 0x22 SLT KECCAK256 0xB9 EXTCODECOPY 0xAD 0xF7 0xDC PUSH20 0x5F4A0B8A30EF38D1E239C44515509248865F8CCB LT 0xD0 SWAP6 PUSH29 0xFB5564736F6C634300080F003300000000000000000000000000000000 "
				},
				"gasEstimates": {
					"creation": {
						"codeDepositCost": "85600",
						"executionCost": "24371",
						"totalCost": "109971"
					},
					"external": {
						"authenticate(bytes)": "infinite",
						"isComplete()": "2293"
					}
				},
				"methodIdentifiers": {
					"authenticate(bytes)": "ee0d605c",
					"isComplete()": "b2fa1c9e"
				}
			},
			"storageLayout": {
				"storage": [
					{
						"astId": 4,
						"contract": "accounts/PublicKeyChallenge.sol:PublicKeyChallenge",
						"label": "owner",
						"offset": 0,
						"slot": "0",
						"type": "t_address"
					},
					{
						"astId": 6,
						"contract": "accounts/PublicKeyChallenge.sol:PublicKeyChallenge",
						"label": "isComplete",
						"offset": 20,
						"slot": "0",
						"type": "t_bool"
					}
				],
				"types": {
					"t_address": {
						"encoding": "inplace",
						"label": "address",
						"numberOfBytes": "20"
					},
					"t_bool": {
						"encoding": "inplace",
						"label": "bool",
						"numberOfBytes": "1"
					}
				}
			},
			"userdoc": {
				"kind": "user",
				"methods": {},
				"version": 1
			}
		}
	}
}