{
	"accounts/FuzzyIdentityChallenge.sol": {
		"FuzzyIdentityChallenge": {
			"abi": [
				{
					"inputs": [],
					"name": "authenticate",
					"outputs": [],
					"stateMutability": "nonpayable",
					"type": "function"
				},
				{
					"inputs": [],
					"name": "isComplete",
					"outputs": [
						{
							"internalType": "bool",
							"name": "",
							"type": "bool"
						}
					],
					"stateMutability": "view",
					"type": "function"
				}
			],
			"devdoc": {
				"kind": "dev",
				"methods": {},
				"version": 1
			},
			"evm": {
				"assembly": "    /* \"accounts/FuzzyIdentityChallenge.sol\":139:965  contract FuzzyIdentityChallenge {... */\n  mstore(0x40, 0x80)\n  callvalue\n  dup1\n  iszero\n  tag_1\n  jumpi\n  0x00\n  dup1\n  revert\ntag_1:\n  pop\n  dataSize(sub_0)\n  dup1\n  dataOffset(sub_0)\n  0x00\n  codecopy\n  0x00\n  return\nstop\n\nsub_0: assembly {\n        /* \"accounts/FuzzyIdentityChallenge.sol\":139:965  contract FuzzyIdentityChallenge {... */\n      mstore(0x40, 0x80)\n      callvalue\n      dup1\n      iszero\n      tag_1\n      jumpi\n      0x00\n      dup1\n      revert\n    tag_1:\n      pop\n      jumpi(tag_2, lt(calldatasize, 0x04))\n      shr(0xe0, calldataload(0x00))\n      dup1\n      0x380c7a67\n      eq\n      tag_3\n      jumpi\n      dup1\n      0xb2fa1c9e\n      eq\n      tag_4\n      jumpi\n    tag_2:\n      0x00\n      dup1\n      revert\n        /* \"accounts/FuzzyIdentityChallenge.sol\":209:358  function authenticate() public {... */\n    tag_3:\n      tag_5\n      tag_6\n      jump\t// in\n    tag_5:\n      stop\n        /* \"accounts/FuzzyIdentityChallenge.sol\":178:200  bool public isComplete */\n    tag_4:\n      tag_7\n      tag_8\n      jump\t// in\n    tag_7:\n      mload(0x40)\n      tag_9\n      swap2\n      swap1\n      tag_10\n      jump\t// in\n    tag_9:\n      mload(0x40)\n      dup1\n      swap2\n      sub\n      swap1\n      return\n        /* \"accounts/FuzzyIdentityChallenge.sol\":209:358  function authenticate() public {... */\n    tag_6:\n        /* \"accounts/FuzzyIdentityChallenge.sol\":259:278  isSmarx(msg.sender) */\n      tag_12\n        /* \"accounts/FuzzyIdentityChallenge.sol\":267:277  msg.sender */\n      caller\n        /* \"accounts/FuzzyIdentityChallenge.sol\":259:266  isSmarx */\n      tag_13\n        /* \"accounts/FuzzyIdentityChallenge.sol\":259:278  isSmarx(msg.sender) */\n      jump\t// in\n    tag_12:\n        /* \"accounts/FuzzyIdentityChallenge.sol\":251:279  require(isSmarx(msg.sender)) */\n      tag_14\n      jumpi\n      0x00\n      dup1\n      revert\n    tag_14:\n        /* \"accounts/FuzzyIdentityChallenge.sol\":298:319  isBadCode(msg.sender) */\n      tag_15\n        /* \"accounts/FuzzyIdentityChallenge.sol\":308:318  msg.sender */\n      caller\n        /* \"accounts/FuzzyIdentityChallenge.sol\":298:307  isBadCode */\n      tag_16\n        /* \"accounts/FuzzyIdentityChallenge.sol\":298:319  isBadCode(msg.sender) */\n      jump\t// in\n    tag_15:\n        /* \"accounts/FuzzyIdentityChallenge.sol\":290:320  require(isBadCode(msg.sender)) */\n      tag_17\n      jumpi\n      0x00\n      dup1\n      revert\n    tag_17:\n        /* \"accounts/FuzzyIdentityChallenge.sol\":346:350  true */\n      0x01\n        /* \"accounts/FuzzyIdentityChallenge.sol\":333:343  isComplete */\n      0x00\n      dup1\n        /* \"accounts/FuzzyIdentityChallenge.sol\":333:350  isComplete = true */\n      0x0100\n      exp\n      dup2\n      sload\n      dup2\n      0xff\n      mul\n      not\n      and\n      swap1\n      dup4\n      iszero\n      iszero\n      mul\n      or\n      swap1\n      sstore\n      pop\n        /* \"accounts/FuzzyIdentityChallenge.sol\":209:358  function authenticate() public {... */\n      jump\t// out\n        /* \"accounts/FuzzyIdentityChallenge.sol\":178:200  bool public isComplete */\n    tag_8:\n      0x00\n      dup1\n      sload\n      swap1\n      0x0100\n      exp\n      swap1\n      div\n      0xff\n      and\n      dup2\n      jump\t// out\n        /* \"accounts/FuzzyIdentityChallenge.sol\":366:490  function isSmarx(address addr) internal view returns (bool) {... */\n    tag_13:\n        /* \"accounts/FuzzyIdentityChallenge.sol\":420:424  bool */\n      0x00\n        /* \"accounts/FuzzyIdentityChallenge.sol\":466:482  bytes32(\"smarx\") */\n      0x736d617278000000000000000000000000000000000000000000000000000000\n        /* \"accounts/FuzzyIdentityChallenge.sol\":450:454  addr */\n      dup3\n        /* \"accounts/FuzzyIdentityChallenge.sol\":444:460  IName(addr).name */\n      0xffffffffffffffffffffffffffffffffffffffff\n      and\n      0x06fdde03\n        /* \"accounts/FuzzyIdentityChallenge.sol\":444:462  IName(addr).name() */\n      mload(0x40)\n      dup2\n      0xffffffff\n      and\n      0xe0\n      shl\n      dup2\n      mstore\n      0x04\n      add\n      0x20\n      mload(0x40)\n      dup1\n      dup4\n      sub\n      dup2\n      dup7\n      gas\n      staticcall\n      iszero\n      dup1\n      iszero\n      tag_20\n      jumpi\n      returndatasize\n      0x00\n      dup1\n      returndatacopy\n      revert(0x00, returndatasize)\n    tag_20:\n      pop\n      pop\n      pop\n      pop\n      mload(0x40)\n      returndatasize\n      not(0x1f)\n      0x1f\n      dup3\n      add\n      and\n      dup3\n      add\n      dup1\n      0x40\n      mstore\n      pop\n      dup2\n      add\n      swap1\n      tag_21\n      swap2\n      swap1\n      tag_22\n      jump\t// in\n    tag_21:\n        /* \"accounts/FuzzyIdentityChallenge.sol\":444:482  IName(addr).name() == bytes32(\"smarx\") */\n      eq\n        /* \"accounts/FuzzyIdentityChallenge.sol\":437:482  return IName(addr).name() == bytes32(\"smarx\") */\n      swap1\n      pop\n        /* \"accounts/FuzzyIdentityChallenge.sol\":366:490  function isSmarx(address addr) internal view returns (bool) {... */\n      swap2\n      swap1\n      pop\n      jump\t// out\n        /* \"accounts/FuzzyIdentityChallenge.sol\":498:962  function isBadCode(address _addr) internal pure returns (bool) {... */\n    tag_16:\n        /* \"accounts/FuzzyIdentityChallenge.sol\":555:559  bool */\n      0x00\n        /* \"accounts/FuzzyIdentityChallenge.sol\":572:584  bytes20 addr */\n      dup1\n        /* \"accounts/FuzzyIdentityChallenge.sol\":595:600  _addr */\n      dup3\n        /* \"accounts/FuzzyIdentityChallenge.sol\":587:601  bytes20(_addr) */\n      0x60\n      shl\n        /* \"accounts/FuzzyIdentityChallenge.sol\":572:601  bytes20 addr = bytes20(_addr) */\n      swap1\n      pop\n        /* \"accounts/FuzzyIdentityChallenge.sol\":612:622  bytes20 id */\n      0x00\n        /* \"accounts/FuzzyIdentityChallenge.sol\":612:670  bytes20 id = hex\"000000000000000000000000000000000badc0de\" */\n      0x0badc0de000000000000000000000000\n      swap1\n      pop\n        /* \"accounts/FuzzyIdentityChallenge.sol\":681:693  bytes20 mask */\n      0x00\n        /* \"accounts/FuzzyIdentityChallenge.sol\":681:741  bytes20 mask = hex\"000000000000000000000000000000000fffffff\" */\n      0x0fffffff000000000000000000000000\n      swap1\n      pop\n        /* \"accounts/FuzzyIdentityChallenge.sol\":759:768  uint256 i */\n      0x00\n        /* \"accounts/FuzzyIdentityChallenge.sol\":754:930  for (uint256 i = 0; i < 34; i++) {... */\n    tag_24:\n        /* \"accounts/FuzzyIdentityChallenge.sol\":778:780  34 */\n      0x22\n        /* \"accounts/FuzzyIdentityChallenge.sol\":774:775  i */\n      dup2\n        /* \"accounts/FuzzyIdentityChallenge.sol\":774:780  i < 34 */\n      lt\n        /* \"accounts/FuzzyIdentityChallenge.sol\":754:930  for (uint256 i = 0; i < 34; i++) {... */\n      iszero\n      tag_25\n      jumpi\n        /* \"accounts/FuzzyIdentityChallenge.sol\":821:823  id */\n      dup3\n        /* \"accounts/FuzzyIdentityChallenge.sol\":806:823  addr & mask == id */\n      not(0xffffffffffffffffffffffff)\n      and\n        /* \"accounts/FuzzyIdentityChallenge.sol\":813:817  mask */\n      dup3\n        /* \"accounts/FuzzyIdentityChallenge.sol\":806:810  addr */\n      dup6\n        /* \"accounts/FuzzyIdentityChallenge.sol\":806:817  addr & mask */\n      and\n        /* \"accounts/FuzzyIdentityChallenge.sol\":806:823  addr & mask == id */\n      not(0xffffffffffffffffffffffff)\n      and\n      sub\n        /* \"accounts/FuzzyIdentityChallenge.sol\":802:871  if (addr & mask == id) {... */\n      tag_27\n      jumpi\n        /* \"accounts/FuzzyIdentityChallenge.sol\":851:855  true */\n      0x01\n        /* \"accounts/FuzzyIdentityChallenge.sol\":844:855  return true */\n      swap5\n      pop\n      pop\n      pop\n      pop\n      pop\n      jump(tag_23)\n        /* \"accounts/FuzzyIdentityChallenge.sol\":802:871  if (addr & mask == id) {... */\n    tag_27:\n        /* \"accounts/FuzzyIdentityChallenge.sol\":894:895  4 */\n      0x04\n        /* \"accounts/FuzzyIdentityChallenge.sol\":885:895  mask <<= 4 */\n      dup3\n      not(0xffffffffffffffffffffffff)\n      and\n      swap1\n      shl\n      swap2\n      pop\n        /* \"accounts/FuzzyIdentityChallenge.sol\":917:918  4 */\n      0x04\n        /* \"accounts/FuzzyIdentityChallenge.sol\":910:918  id <<= 4 */\n      dup4\n      not(0xffffffffffffffffffffffff)\n      and\n      swap1\n      shl\n      swap3\n      pop\n        /* \"accounts/FuzzyIdentityChallenge.sol\":782:785  i++ */\n      dup1\n      dup1\n      tag_28\n      swap1\n      tag_29\n      jump\t// in\n    tag_28:\n      swap2\n      pop\n      pop\n        /* \"accounts/FuzzyIdentityChallenge.sol\":754:930  for (uint256 i = 0; i < 34; i++) {... */\n      jump(tag_24)\n    tag_25:\n      pop\n        /* \"accounts/FuzzyIdentityChallenge.sol\":949:954  false */\n      0x00\n        /* \"accounts/FuzzyIdentityChallenge.sol\":942:954  return false */\n      swap4\n      pop\n      pop\n      pop\n      pop\n        /* \"accounts/FuzzyIdentityChallenge.sol\":498:962  function isBadCode(address _addr) internal pure returns (bool) {... */\n    tag_23:\n      swap2\n      swap1\n      pop\n      jump\t// out\n        /* \"#utility.yul\":7:97   */\n    tag_30:\n        /* \"#utility.yul\":41:48   */\n      0x00\n        /* \"#utility.yul\":84:89   */\n      dup2\n        /* \"#utility.yul\":77:90   */\n      iszero\n        /* \"#utility.yul\":70:91   */\n      iszero\n        /* \"#utility.yul\":59:91   */\n      swap1\n      pop\n        /* \"#utility.yul\":7:97   */\n      swap2\n      swap1\n      pop\n      jump\t// out\n        /* \"#utility.yul\":103:212   */\n    tag_31:\n        /* \"#utility.yul\":184:205   */\n      tag_43\n        /* \"#utility.yul\":199:204   */\n      dup2\n        /* \"#utility.yul\":184:205   */\n      tag_30\n      jump\t// in\n    tag_43:\n        /* \"#utility.yul\":179:182   */\n      dup3\n        /* \"#utility.yul\":172:206   */\n      mstore\n        /* \"#utility.yul\":103:212   */\n      pop\n      pop\n      jump\t// out\n        /* \"#utility.yul\":218:428   */\n    tag_10:\n        /* \"#utility.yul\":305:309   */\n      0x00\n        /* \"#utility.yul\":343:345   */\n      0x20\n        /* \"#utility.yul\":332:341   */\n      dup3\n        /* \"#utility.yul\":328:346   */\n      add\n        /* \"#utility.yul\":320:346   */\n      swap1\n      pop\n        /* \"#utility.yul\":356:421   */\n      tag_45\n        /* \"#utility.yul\":418:419   */\n      0x00\n        /* \"#utility.yul\":407:416   */\n      dup4\n        /* \"#utility.yul\":403:420   */\n      add\n        /* \"#utility.yul\":394:400   */\n      dup5\n        /* \"#utility.yul\":356:421   */\n      tag_31\n      jump\t// in\n    tag_45:\n        /* \"#utility.yul\":218:428   */\n      swap3\n      swap2\n      pop\n      pop\n      jump\t// out\n        /* \"#utility.yul\":515:632   */\n    tag_33:\n        /* \"#utility.yul\":624:625   */\n      0x00\n        /* \"#utility.yul\":621:622   */\n      dup1\n        /* \"#utility.yul\":614:626   */\n      revert\n        /* \"#utility.yul\":761:838   */\n    tag_35:\n        /* \"#utility.yul\":798:805   */\n      0x00\n        /* \"#utility.yul\":827:832   */\n      dup2\n        /* \"#utility.yul\":816:832   */\n      swap1\n      pop\n        /* \"#utility.yul\":761:838   */\n      swap2\n      swap1\n      pop\n      jump\t// out\n        /* \"#utility.yul\":844:966   */\n    tag_36:\n        /* \"#utility.yul\":917:941   */\n      tag_51\n        /* \"#utility.yul\":935:940   */\n      dup2\n        /* \"#utility.yul\":917:941   */\n      tag_35\n      jump\t// in\n    tag_51:\n        /* \"#utility.yul\":910:915   */\n      dup2\n        /* \"#utility.yul\":907:942   */\n      eq\n        /* \"#utility.yul\":897:960   */\n      tag_52\n      jumpi\n        /* \"#utility.yul\":956:957   */\n      0x00\n        /* \"#utility.yul\":953:954   */\n      dup1\n        /* \"#utility.yul\":946:958   */\n      revert\n        /* \"#utility.yul\":897:960   */\n    tag_52:\n        /* \"#utility.yul\":844:966   */\n      pop\n      jump\t// out\n        /* \"#utility.yul\":972:1115   */\n    tag_37:\n        /* \"#utility.yul\":1029:1034   */\n      0x00\n        /* \"#utility.yul\":1060:1066   */\n      dup2\n        /* \"#utility.yul\":1054:1067   */\n      mload\n        /* \"#utility.yul\":1045:1067   */\n      swap1\n      pop\n        /* \"#utility.yul\":1076:1109   */\n      tag_54\n        /* \"#utility.yul\":1103:1108   */\n      dup2\n        /* \"#utility.yul\":1076:1109   */\n      tag_36\n      jump\t// in\n    tag_54:\n        /* \"#utility.yul\":972:1115   */\n      swap3\n      swap2\n      pop\n      pop\n      jump\t// out\n        /* \"#utility.yul\":1121:1472   */\n    tag_22:\n        /* \"#utility.yul\":1191:1197   */\n      0x00\n        /* \"#utility.yul\":1240:1242   */\n      0x20\n        /* \"#utility.yul\":1228:1237   */\n      dup3\n        /* \"#utility.yul\":1219:1226   */\n      dup5\n        /* \"#utility.yul\":1215:1238   */\n      sub\n        /* \"#utility.yul\":1211:1243   */\n      slt\n        /* \"#utility.yul\":1208:1327   */\n      iszero\n      tag_56\n      jumpi\n        /* \"#utility.yul\":1246:1325   */\n      tag_57\n      tag_33\n      jump\t// in\n    tag_57:\n        /* \"#utility.yul\":1208:1327   */\n    tag_56:\n        /* \"#utility.yul\":1366:1367   */\n      0x00\n        /* \"#utility.yul\":1391:1455   */\n      tag_58\n        /* \"#utility.yul\":1447:1454   */\n      dup5\n        /* \"#utility.yul\":1438:1444   */\n      dup3\n        /* \"#utility.yul\":1427:1436   */\n      dup6\n        /* \"#utility.yul\":1423:1445   */\n      add\n        /* \"#utility.yul\":1391:1455   */\n      tag_37\n      jump\t// in\n    tag_58:\n        /* \"#utility.yul\":1381:1455   */\n      swap2\n      pop\n        /* \"#utility.yul\":1337:1465   */\n      pop\n        /* \"#utility.yul\":1121:1472   */\n      swap3\n      swap2\n      pop\n      pop\n      jump\t// out\n        /* \"#utility.yul\":1478:1658   */\n    tag_38:\n        /* \"#utility.yul\":1526:1603   */\n      0x4e487b7100000000000000000000000000000000000000000000000000000000\n        /* \"#utility.yul\":1523:1524   */\n      0x00\n        /* \"#utility.yul\":1516:1604   */\n      mstore\n        /* \"#utility.yul\":1623:1627   */\n      0x11\n        /* \"#utility.yul\":1620:1621   */\n      0x04\n        /* \"#utility.yul\":1613:1628   */\n      mstore\n        /* \"#utility.yul\":1647:1651   */\n      0x24\n        /* \"#utility.yul\":1644:1645   */\n      0x00\n        /* \"#utility.yul\":1637:1652   */\n      revert\n        /* \"#utility.yul\":1664:1741   */\n    tag_39:\n        /* \"#utility.yul\":1701:1708   */\n      0x00\n        /* \"#utility.yul\":1730:1735   */\n      dup2\n        /* \"#utility.yul\":1719:1735   */\n      swap1\n      pop\n        /* \"#utility.yul\":1664:1741   */\n      swap2\n      swap1\n      pop\n      jump\t// out\n        /* \"#utility.yul\":1747:1980   */\n    tag_29:\n        /* \"#utility.yul\":1786:1789   */\n      0x00\n        /* \"#utility.yul\":1809:1833   */\n      tag_62\n        /* \"#utility.yul\":1827:1832   */\n      dup3\n        /* \"#utility.yul\":1809:1833   */\n      tag_39\n      jump\t// in\n    tag_62:\n        /* \"#utility.yul\":1800:1833   */\n      swap2\n      pop\n        /* \"#utility.yul\":1855:1921   */\n      0xffffffffffffffffffffffffffffffffffffffffffffffffffffffffffffffff\n        /* \"#utility.yul\":1848:1853   */\n      dup3\n        /* \"#utility.yul\":1845:1922   */\n      sub\n        /* \"#utility.yul\":1842:1945   */\n      tag_63\n      jumpi\n        /* \"#utility.yul\":1925:1943   */\n      tag_64\n      tag_38\n      jump\t// in\n    tag_64:\n        /* \"#utility.yul\":1842:1945   */\n    tag_63:\n        /* \"#utility.yul\":1972:1973   */\n      0x01\n        /* \"#utility.yul\":1965:1970   */\n      dup3\n        /* \"#utility.yul\":1961:1974   */\n      add\n        /* \"#utility.yul\":1954:1974   */\n      swap1\n      pop\n        /* \"#utility.yul\":1747:1980   */\n      swap2\n      swap1\n      pop\n      jump\t// out\n\n    auxdata: 0xa2646970667358221220add0b460d09a86f9329572603a3e97a9dda14e7227716c4225f74a2f79ae0ed164736f6c634300080f0033\n}\n",
				"bytecode": {
					"linkReferences": {},
					"object": "608060405234801561001057600080fd5b50610363806100206000396000f3fe608060405234801561001057600080fd5b50600436106100365760003560e01c8063380c7a671461003b578063b2fa1c9e14610045575b600080fd5b610043610063565b005b61004d6100a3565b60405161005a9190610229565b60405180910390f35b61006c336100b4565b61007557600080fd5b61007e3361014e565b61008757600080fd5b60016000806101000a81548160ff021916908315150217905550565b60008054906101000a900460ff1681565b60007f736d6172780000000000000000000000000000000000000000000000000000008273ffffffffffffffffffffffffffffffffffffffff166306fdde036040518163ffffffff1660e01b8152600401602060405180830381865afa158015610122573d6000803e3d6000fd5b505050506040513d601f19601f82011682018060405250810190610146919061027f565b149050919050565b6000808260601b905060006f0badc0de000000000000000000000000905060006f0fffffff000000000000000000000000905060005b602281101561020057826bffffffffffffffffffffffff19168285166bffffffffffffffffffffffff1916036101c1576001945050505050610209565b6004826bffffffffffffffffffffffff1916901b91506004836bffffffffffffffffffffffff1916901b925080806101f8906102e5565b915050610184565b50600093505050505b919050565b60008115159050919050565b6102238161020e565b82525050565b600060208201905061023e600083018461021a565b92915050565b600080fd5b6000819050919050565b61025c81610249565b811461026757600080fd5b50565b60008151905061027981610253565b92915050565b60006020828403121561029557610294610244565b5b60006102a38482850161026a565b91505092915050565b7f4e487b7100000000000000000000000000000000000000000000000000000000600052601160045260246000fd5b6000819050919050565b60006102f0826102db565b91507fffffffffffffffffffffffffffffffffffffffffffffffffffffffffffffffff8203610322576103216102ac565b5b60018201905091905056fea2646970667358221220add0b460d09a86f9329572603a3e97a9dda14e7227716c4225f74a2f79ae0ed164736f6c634300080f0033",
					"opcodes": "PUSH1 0x80 PUSH1 0x40 MSTORE CALLVALUE DUP1 ISZERO PUSH2 0x10 JUMPI PUSH1 0x0 DUP1 REVERT JUMPDEST POP PUSH2 0x363 DUP1 PUSH2 0x20 PUSH1 0x0 CODECOPY PUSH1 0x0 RETURN INVALID PUSH1 0x80 PUSH1 0x40 MSTORE CALLVALUE DUP1 ISZERO PUSH2 0x10 JUMPI PUSH1 0x0 DUP1 REVERT JUMPDEST POP PUSH1 0x4 CALLDATASIZE LT PUSH2 0x36 JUMPI PUSH1 0x0 CALLDATALOAD PUSH1 0xE0 SHR DUP1 PUSH4 0x380C7A67 EQ PUSH2 0x3B JUMPI DUP1 PUSH4 0xB2FA1C9E EQ PUSH2 0x45 JUMPI JUMPDEST PUSH1 0x0 DUP1 REVERT JUMPDEST PUSH2 0x43 PUSH2 0x63 JUMP JUMPDEST STOP JUMPDEST PUSH2 0x4D PUSH2 0xA3 JUMP JUMPDEST PUSH1 0x40 MLOAD PUSH2 0x5A SWAP2 SWAP1 PUSH2 0x229 JUMP JUMPDEST PUSH1 0x40 MLOAD DUP1 SWAP2 SUB SWAP1 RETURN JUMPDEST PUSH2 0x6C CALLER PUSH2 0xB4 JUMP JUMPDEST PUSH2 0x75 JUMPI PUSH1 0x0 DUP1 REVERT JUMPDEST PUSH2 0x7E CALLER PUSH2 0x14E JUMP JUMPDEST PUSH2 0x87 JUMPI PUSH1 0x0 DUP1 REVERT JUMPDEST PUSH1 0x1 PUSH1 0x0 DUP1 PUSH2 0x100 EXP DUP2 SLOAD DUP2 PUSH1 0xFF MUL NOT AND SWAP1 DUP4 ISZERO ISZERO MUL OR SWAP1 SSTORE POP JUMP JUMPDEST PUSH1 0x0 DUP1 SLOAD SWAP1 PUSH2 0x100 EXP SWAP1 DIV PUSH1 0xFF AND DUP2 JUMP JUMPDEST PUSH1 0x0 PUSH32 0x736D617278000000000000000000000000000000000000000000000000000000 DUP3 PUSH20 0xFFFFFFFFFFFFFFFFFFFFFFFFFFFFFFFFFFFFFFFF AND PUSH4 0x6FDDE03 PUSH1 0x40 MLOAD DUP2 PUSH4 0xFFFFFFFF AND PUSH1 0xE0 SHL DUP2 MSTORE PUSH1 0x4 ADD PUSH1 0x20 PUSH1 0x40 MLOAD DUP1 DUP4 SUB DUP2 DUP7 GAS STATICCALL ISZERO DUP1 ISZERO PUSH2 0x122 JUMPI RETURNDATASIZE PUSH1 0x0 DUP1 RETURNDATACOPY RETURNDATASIZE PUSH1 0x0 REVERT JUMPDEST POP POP POP POP PUSH1 0x40 MLOAD RETURNDATASIZE PUSH1 0x1F NOT PUSH1 0x1F DUP3 ADD AND DUP3 ADD DUP1 PUSH1 0x40 MSTORE POP DUP2 ADD SWAP1 PUSH2 0x146 SWAP2 SWAP1 PUSH2 0x27F JUMP JUMPDEST EQ SWAP1 POP SWAP2 SWAP1 POP JUMP JUMPDEST PUSH1 0x0 DUP1 DUP3 PUSH1 0x60 SHL SWAP1 POP PUSH1 0x0 PUSH16 0xBADC0DE000000000000000000000000 SWAP1 POP PUSH1 0x0 PUSH16 0xFFFFFFF000000000000000000000000 SWAP1 POP PUSH1 0x0 JUMPDEST PUSH1 0x22 DUP2 LT ISZERO PUSH2 0x200 JUMPI DUP3 PUSH12 0xFFFFFFFFFFFFFFFFFFFFFFFF NOT AND DUP3 DUP6 AND PUSH12 0xFFFFFFFFFFFFFFFFFFFFFFFF NOT AND SUB PUSH2 0x1C1 JUMPI PUSH1 0x1 SWAP5 POP POP POP POP POP PUSH2 0x209 JUMP JUMPDEST PUSH1 0x4 DUP3 PUSH12 0xFFFFFFFFFFFFFFFFFFFFFFFF NOT AND SWAP1 SHL SWAP2 POP PUSH1 0x4 DUP4 PUSH12 0xFFFFFFFFFFFFFFFFFFFFFFFF NOT AND SWAP1 SHL SWAP3 POP DUP1 DUP1 PUSH2 0x1F8 SWAP1 PUSH2 0x2E5 JUMP JUMPDEST SWAP2 POP POP PUSH2 0x184 JUMP JUMPDEST POP PUSH1 0x0 SWAP4 POP POP POP POP JUMPDEST SWAP2 SWAP1 POP JUMP JUMPDEST PUSH1 0x0 DUP2 ISZERO ISZERO SWAP1 POP SWAP2 SWAP1 POP JUMP JUMPDEST PUSH2 0x223 DUP2 PUSH2 0x20E JUMP JUMPDEST DUP3 MSTORE POP POP JUMP JUMPDEST PUSH1 0x0 PUSH1 0x20 DUP3 ADD SWAP1 POP PUSH2 0x23E PUSH1 0x0 DUP4 ADD DUP5 PUSH2 0x21A JUMP JUMPDEST SWAP3 SWAP2 POP POP JUMP JUMPDEST PUSH1 0x0 DUP1 REVERT JUMPDEST PUSH1 0x0 DUP2 SWAP1 POP SWAP2 SWAP1 POP JUMP JUMPDEST PUSH2 0x25C DUP2 PUSH2 0x249 JUMP JUMPDEST DUP2 EQ PUSH2 0x267 JUMPI PUSH1 0x0 DUP1 REVERT JUMPDEST POP JUMP JUMPDEST PUSH1 0x0 DUP2 MLOAD SWAP1 POP PUSH2 0x279 DUP2 PUSH2 0x253 JUMP JUMPDEST SWAP3 SWAP2 POP POP JUMP JUMPDEST PUSH1 0x0 PUSH1 0x20 DUP3 DUP5 SUB SLT ISZERO PUSH2 0x295 JUMPI PUSH2 0x294 PUSH2 0x244 JUMP JUMPDEST JUMPDEST PUSH1 0x0 PUSH2 0x2A3 DUP5 DUP3 DUP6 ADD PUSH2 0x26A JUMP JUMPDEST SWAP2 POP POP SWAP3 SWAP2 POP POP JUMP JUMPDEST PUSH32 0x4E487B7100000000000000000000000000000000000000000000000000000000 PUSH1 0x0 MSTORE PUSH1 0x11 PUSH1 0x4 MSTORE PUSH1 0x24 PUSH1 0x0 REVERT JUMPDEST PUSH1 0x0 DUP2 SWAP1 POP SWAP2 SWAP1 POP JUMP JUMPDEST PUSH1 0x0 PUSH2 0x2F0 DUP3 PUSH2 0x2DB JUMP JUMPDEST SWAP2 POP PUSH32 0xFFFFFFFFFFFFFFFFFFFFFFFFFFFFFFFFFFFFFFFFFFFFFFFFFFFFFFFFFFFFFFFF DUP3 SUB PUSH2 0x322 JUMPI PUSH2 0x321 PUSH2 0x2AC JUMP JUMPDEST JUMPDEST PUSH1 0x1 DUP3 ADD SWAP1 POP SWAP2 SWAP1 POP JUMP INVALID LOG2 PUSH5 0x6970667358 0x22 SLT KECCAK256 0xAD 0xD0 0xB4 PUSH1 0xD0 SWAP11 DUP7 0xF9 ORIGIN SWAP6 PUSH19 0x603A3E97A9DDA14E7227716C4225F74A2F79AE 0xE 0xD1 PUSH5 0x736F6C6343 STOP ADDMOD 0xF STOP CALLER "
				},
				"gasEstimates": {
					"creation": {
						"codeDepositCost": "173400",
						"executionCost": "220",
						"totalCost": "173620"
					},
					"external": {
						"authenticate()": "infinite",
						"isComplete()": "2468"
					},
					"internal": {
						"isBadCode(address)": "infinite",
						"isSmarx(address)": "infinite"
					}
				},
				"methodIdentifiers": {
					"authenticate()": "380c7a67",
					"isComplete()": "b2fa1c9e"
				}
			},
			"storageLayout": {
				"storage": [
					{
						"astId": 9,
						"contract": "accounts/FuzzyIdentityChallenge.sol:FuzzyIdentityChallenge",
						"label": "isComplete",
						"offset": 0,
						"slot": "0",
						"type": "t_bool"
					}
				],
				"types": {
					"t_bool": {
						"encoding": "inplace",
						"label": "bool",
						"numberOfBytes": "1"
					}
				}
			},
			"userdoc": {
				"kind": "user",
				"methods": {},
				"version": 1
			}
		}
	}
}