{
	"math/FiftyYearsChallenge.sol": {
		"FiftyYearsChallenge": {
			"abi": [
				{
					"inputs": [
						{
							"internalType": "address",
							"name": "player",
							"type": "address"
						}
					],
					"stateMutability": "payable",
					"type": "constructor"
				},
				{
					"inputs": [],
					"name": "isComplete",
					"outputs": [
						{
							"internalType": "bool",
							"name": "",
							"type": "bool"
						}
					],
					"stateMutability": "view",
					"type": "function"
				},
				{
					"inputs": [
						{
							"internalType": "uint256",
							"name": "index",
							"type": "uint256"
						},
						{
							"internalType": "uint256",
							"name": "timestamp",
							"type": "uint256"
						}
					],
					"name": "upsert",
					"outputs": [],
					"stateMutability": "payable",
					"type": "function"
				},
				{
					"inputs": [
						{
							"internalType": "uint256",
							"name": "index",
							"type": "uint256"
						}
					],
					"name": "withdraw",
					"outputs": [],
					"stateMutability": "nonpayable",
					"type": "function"
				}
			],
			"devdoc": {
				"kind": "dev",
				"methods": {},
				"version": 1
			},
			"evm": {
				"assembly": "    /* \"math/FiftyYearsChallenge.sol\":61:1924  contract FiftyYearsChallenge {... */\n  mstore(0x40, 0x80)\n    /* \"math/FiftyYearsChallenge.sol\":258:444  constructor(address player) payable{... */\n  mload(0x40)\n  sub(codesize, bytecodeSize)\n  dup1\n  bytecodeSize\n  dup4\n  codecopy\n  dup2\n  add\n  0x40\n  dup2\n  swap1\n  mstore\n  tag_1\n  swap2\n  tag_2\n  jump\t// in\ntag_1:\n    /* \"math/FiftyYearsChallenge.sol\":312:321  msg.value */\n  callvalue\n    /* \"math/FiftyYearsChallenge.sol\":325:332  1 ether */\n  0x0de0b6b3a7640000\n    /* \"math/FiftyYearsChallenge.sol\":312:332  msg.value == 1 ether */\n  eq\n    /* \"math/FiftyYearsChallenge.sol\":304:333  require(msg.value == 1 ether) */\n  tag_5\n  jumpi\n  0x00\n  dup1\n  revert\ntag_5:\n    /* \"math/FiftyYearsChallenge.sol\":346:351  owner */\n  0x02\n    /* \"math/FiftyYearsChallenge.sol\":346:360  owner = player */\n  dup1\n  sload\n  not(sub(shl(0xa0, 0x01), 0x01))\n  and\n  sub(shl(0xa0, 0x01), 0x01)\n  dup4\n  and\n  or\n  swap1\n  sstore\n    /* \"math/FiftyYearsChallenge.sol\":382:435  Contribution(msg.value, block.timestamp + 18250 days) */\n  0x40\n  dup1\n  mload\n  dup1\n  dup3\n  add\n  swap1\n  swap2\n  mstore\n    /* \"math/FiftyYearsChallenge.sol\":395:404  msg.value */\n  callvalue\n    /* \"math/FiftyYearsChallenge.sol\":382:435  Contribution(msg.value, block.timestamp + 18250 days) */\n  dup2\n  mstore\n  0x00\n  swap1\n  0x20\n  dup2\n  add\n    /* \"math/FiftyYearsChallenge.sol\":406:434  block.timestamp + 18250 days */\n  tag_6\n    /* \"math/FiftyYearsChallenge.sol\":406:421  block.timestamp */\n  timestamp\n    /* \"math/FiftyYearsChallenge.sol\":424:434  18250 days */\n  0x5dfc0f00\n    /* \"math/FiftyYearsChallenge.sol\":406:434  block.timestamp + 18250 days */\n  tag_7\n  jump\t// in\ntag_6:\n    /* \"math/FiftyYearsChallenge.sol\":382:435  Contribution(msg.value, block.timestamp + 18250 days) */\n  swap1\n  mstore\n    /* \"math/FiftyYearsChallenge.sol\":371:436  queue.push(Contribution(msg.value, block.timestamp + 18250 days)) */\n  dup2\n  sload\n  0x01\n  dup2\n  dup2\n  add\n  dup5\n  sstore\n  0x00\n  swap4\n  dup5\n  mstore\n  0x20\n  swap4\n  dup5\n  swap1\n  keccak256\n  dup4\n  mload\n  0x02\n  swap1\n  swap4\n  mul\n  add\n  swap2\n  dup3\n  sstore\n  swap3\n  swap1\n  swap2\n  add\n  mload\n  swap2\n  add\n  sstore\n  pop\n    /* \"math/FiftyYearsChallenge.sol\":61:1924  contract FiftyYearsChallenge {... */\n  jump(tag_10)\n    /* \"#utility.yul\":14:304   */\ntag_2:\n    /* \"#utility.yul\":84:90   */\n  0x00\n    /* \"#utility.yul\":137:139   */\n  0x20\n    /* \"#utility.yul\":125:134   */\n  dup3\n    /* \"#utility.yul\":116:123   */\n  dup5\n    /* \"#utility.yul\":112:135   */\n  sub\n    /* \"#utility.yul\":108:140   */\n  slt\n    /* \"#utility.yul\":105:157   */\n  iszero\n  tag_12\n  jumpi\n    /* \"#utility.yul\":153:154   */\n  0x00\n    /* \"#utility.yul\":150:151   */\n  dup1\n    /* \"#utility.yul\":143:155   */\n  revert\n    /* \"#utility.yul\":105:157   */\ntag_12:\n    /* \"#utility.yul\":179:195   */\n  dup2\n  mload\n  sub(shl(0xa0, 0x01), 0x01)\n    /* \"#utility.yul\":224:255   */\n  dup2\n  and\n    /* \"#utility.yul\":214:256   */\n  dup2\n  eq\n    /* \"#utility.yul\":204:274   */\n  tag_13\n  jumpi\n    /* \"#utility.yul\":270:271   */\n  0x00\n    /* \"#utility.yul\":267:268   */\n  dup1\n    /* \"#utility.yul\":260:272   */\n  revert\n    /* \"#utility.yul\":204:274   */\ntag_13:\n    /* \"#utility.yul\":293:298   */\n  swap4\n    /* \"#utility.yul\":14:304   */\n  swap3\n  pop\n  pop\n  pop\n  jump\t// out\n    /* \"#utility.yul\":309:534   */\ntag_7:\n    /* \"#utility.yul\":349:352   */\n  0x00\n    /* \"#utility.yul\":380:381   */\n  dup3\n    /* \"#utility.yul\":376:382   */\n  not\n    /* \"#utility.yul\":373:374   */\n  dup3\n    /* \"#utility.yul\":370:383   */\n  gt\n    /* \"#utility.yul\":367:503   */\n  iszero\n  tag_15\n  jumpi\n    /* \"#utility.yul\":425:435   */\n  0x4e487b71\n    /* \"#utility.yul\":420:423   */\n  0xe0\n    /* \"#utility.yul\":416:436   */\n  shl\n    /* \"#utility.yul\":413:414   */\n  0x00\n    /* \"#utility.yul\":406:437   */\n  mstore\n    /* \"#utility.yul\":460:464   */\n  0x11\n    /* \"#utility.yul\":457:458   */\n  0x04\n    /* \"#utility.yul\":450:465   */\n  mstore\n    /* \"#utility.yul\":488:492   */\n  0x24\n    /* \"#utility.yul\":485:486   */\n  0x00\n    /* \"#utility.yul\":478:493   */\n  revert\n    /* \"#utility.yul\":367:503   */\ntag_15:\n  pop\n    /* \"#utility.yul\":519:528   */\n  add\n  swap1\n    /* \"#utility.yul\":309:534   */\n  jump\t// out\ntag_10:\n    /* \"math/FiftyYearsChallenge.sol\":61:1924  contract FiftyYearsChallenge {... */\n  dataSize(sub_0)\n  dup1\n  dataOffset(sub_0)\n  0x00\n  codecopy\n  0x00\n  return\nstop\n\nsub_0: assembly {\n        /* \"math/FiftyYearsChallenge.sol\":61:1924  contract FiftyYearsChallenge {... */\n      mstore(0x40, 0x80)\n      jumpi(tag_1, lt(calldatasize, 0x04))\n      shr(0xe0, calldataload(0x00))\n      dup1\n      0x2e1a7d4d\n      eq\n      tag_2\n      jumpi\n      dup1\n      0x3b8f718a\n      eq\n      tag_3\n      jumpi\n      dup1\n      0xb2fa1c9e\n      eq\n      tag_4\n      jumpi\n    tag_1:\n      0x00\n      dup1\n      revert\n        /* \"math/FiftyYearsChallenge.sol\":1315:1921  function withdraw(uint256 index) public {... */\n    tag_2:\n      callvalue\n      dup1\n      iszero\n      tag_5\n      jumpi\n      0x00\n      dup1\n      revert\n    tag_5:\n      pop\n      tag_6\n      tag_7\n      calldatasize\n      0x04\n      tag_8\n      jump\t// in\n    tag_7:\n      tag_9\n      jump\t// in\n    tag_6:\n      stop\n        /* \"math/FiftyYearsChallenge.sol\":561:1307  function upsert(uint256 index, uint256 timestamp) public payable {... */\n    tag_3:\n      tag_6\n      tag_11\n      calldatasize\n      0x04\n      tag_12\n      jump\t// in\n    tag_11:\n      tag_13\n      jump\t// in\n        /* \"math/FiftyYearsChallenge.sol\":452:553  function isComplete() public view returns (bool) {... */\n    tag_4:\n      callvalue\n      dup1\n      iszero\n      tag_14\n      jumpi\n      0x00\n      dup1\n      revert\n    tag_14:\n      pop\n      0x40\n      dup1\n      mload\n        /* \"math/FiftyYearsChallenge.sol\":519:540  address(this).balance */\n      selfbalance\n        /* \"math/FiftyYearsChallenge.sol\":519:545  address(this).balance == 0 */\n      iszero\n        /* \"#utility.yul\":592:633   */\n      dup2\n      mstore\n        /* \"math/FiftyYearsChallenge.sol\":452:553  function isComplete() public view returns (bool) {... */\n      swap1\n      mload\n      swap1\n      dup2\n      swap1\n      sub\n        /* \"#utility.yul\":580:582   */\n      0x20\n        /* \"math/FiftyYearsChallenge.sol\":452:553  function isComplete() public view returns (bool) {... */\n      add\n      swap1\n      return\n        /* \"math/FiftyYearsChallenge.sol\":1315:1921  function withdraw(uint256 index) public {... */\n    tag_9:\n        /* \"math/FiftyYearsChallenge.sol\":1388:1393  owner */\n      and(sub(shl(0xa0, 0x01), 0x01), sload(0x02))\n        /* \"math/FiftyYearsChallenge.sol\":1374:1384  msg.sender */\n      caller\n        /* \"math/FiftyYearsChallenge.sol\":1374:1393  msg.sender == owner */\n      eq\n        /* \"math/FiftyYearsChallenge.sol\":1366:1394  require(msg.sender == owner) */\n      tag_20\n      jumpi\n      0x00\n      dup1\n      revert\n    tag_20:\n        /* \"math/FiftyYearsChallenge.sol\":1432:1437  queue */\n      0x00\n        /* \"math/FiftyYearsChallenge.sol\":1438:1443  index */\n      dup2\n        /* \"math/FiftyYearsChallenge.sol\":1432:1444  queue[index] */\n      dup2\n      sload\n      dup2\n      lt\n      tag_22\n      jumpi\n      tag_22\n      tag_23\n      jump\t// in\n    tag_22:\n      swap1\n      0x00\n      mstore\n      keccak256(0x00, 0x20)\n      swap1\n      0x02\n      mul\n      add\n        /* \"math/FiftyYearsChallenge.sol\":1432:1460  queue[index].unlockTimestamp */\n      0x01\n      add\n      sload\n        /* \"math/FiftyYearsChallenge.sol\":1413:1428  block.timestamp */\n      timestamp\n        /* \"math/FiftyYearsChallenge.sol\":1413:1460  block.timestamp >= queue[index].unlockTimestamp */\n      lt\n      iszero\n        /* \"math/FiftyYearsChallenge.sol\":1405:1461  require(block.timestamp >= queue[index].unlockTimestamp) */\n      tag_25\n      jumpi\n      0x00\n      dup1\n      revert\n    tag_25:\n        /* \"math/FiftyYearsChallenge.sol\":1576:1580  head */\n      sload(0x01)\n        /* \"math/FiftyYearsChallenge.sol\":1531:1544  uint256 total */\n      0x00\n      swap1\n        /* \"math/FiftyYearsChallenge.sol\":1559:1715  for (uint256 i = head; i <= index; i++) {... */\n    tag_26:\n        /* \"math/FiftyYearsChallenge.sol\":1587:1592  index */\n      dup3\n        /* \"math/FiftyYearsChallenge.sol\":1582:1583  i */\n      dup2\n        /* \"math/FiftyYearsChallenge.sol\":1582:1592  i <= index */\n      gt\n        /* \"math/FiftyYearsChallenge.sol\":1559:1715  for (uint256 i = head; i <= index; i++) {... */\n      tag_27\n      jumpi\n        /* \"math/FiftyYearsChallenge.sol\":1623:1628  queue */\n      0x00\n        /* \"math/FiftyYearsChallenge.sol\":1629:1630  i */\n      dup2\n        /* \"math/FiftyYearsChallenge.sol\":1623:1631  queue[i] */\n      dup2\n      sload\n      dup2\n      lt\n      tag_30\n      jumpi\n      tag_30\n      tag_23\n      jump\t// in\n    tag_30:\n      swap1\n      0x00\n      mstore\n      keccak256(0x00, 0x20)\n      swap1\n      0x02\n      mul\n      add\n        /* \"math/FiftyYearsChallenge.sol\":1623:1638  queue[i].amount */\n      0x00\n      add\n      sload\n        /* \"math/FiftyYearsChallenge.sol\":1614:1638  total += queue[i].amount */\n      dup3\n      tag_32\n      swap2\n      swap1\n      tag_33\n      jump\t// in\n    tag_32:\n      swap2\n      pop\n        /* \"math/FiftyYearsChallenge.sol\":1695:1700  queue */\n      0x00\n        /* \"math/FiftyYearsChallenge.sol\":1701:1702  i */\n      dup2\n        /* \"math/FiftyYearsChallenge.sol\":1695:1703  queue[i] */\n      dup2\n      sload\n      dup2\n      lt\n      tag_35\n      jumpi\n      tag_35\n      tag_23\n      jump\t// in\n    tag_35:\n      0x00\n      swap2\n      dup3\n      mstore\n      0x20\n      dup3\n      keccak256\n      0x02\n      swap1\n      swap2\n      mul\n      add\n        /* \"math/FiftyYearsChallenge.sol\":1688:1703  delete queue[i] */\n      dup2\n      dup2\n      sstore\n      0x01\n      add\n      sstore\n        /* \"math/FiftyYearsChallenge.sol\":1594:1597  i++ */\n      dup1\n      tag_37\n      dup2\n      tag_38\n      jump\t// in\n    tag_37:\n      swap2\n      pop\n      pop\n        /* \"math/FiftyYearsChallenge.sol\":1559:1715  for (uint256 i = head; i <= index; i++) {... */\n      jump(tag_26)\n    tag_27:\n      pop\n        /* \"math/FiftyYearsChallenge.sol\":1856:1865  index + 1 */\n      tag_39\n        /* \"math/FiftyYearsChallenge.sol\":1856:1861  index */\n      dup3\n        /* \"math/FiftyYearsChallenge.sol\":1864:1865  1 */\n      0x01\n        /* \"math/FiftyYearsChallenge.sol\":1856:1865  index + 1 */\n      tag_33\n      jump\t// in\n    tag_39:\n        /* \"math/FiftyYearsChallenge.sol\":1849:1853  head */\n      0x01\n        /* \"math/FiftyYearsChallenge.sol\":1849:1865  head = index + 1 */\n      sstore\n        /* \"math/FiftyYearsChallenge.sol\":1878:1913  payable(msg.sender).transfer(total) */\n      mload(0x40)\n        /* \"math/FiftyYearsChallenge.sol\":1886:1896  msg.sender */\n      caller\n      swap1\n        /* \"math/FiftyYearsChallenge.sol\":1878:1913  payable(msg.sender).transfer(total) */\n      dup3\n      iszero\n      0x08fc\n      mul\n      swap1\n        /* \"math/FiftyYearsChallenge.sol\":1907:1912  total */\n      dup4\n      swap1\n        /* \"math/FiftyYearsChallenge.sol\":1878:1913  payable(msg.sender).transfer(total) */\n      0x00\n      dup2\n      dup2\n      dup2\n        /* \"math/FiftyYearsChallenge.sol\":1907:1912  total */\n      dup6\n        /* \"math/FiftyYearsChallenge.sol\":1886:1896  msg.sender */\n      dup9\n        /* \"math/FiftyYearsChallenge.sol\":1878:1913  payable(msg.sender).transfer(total) */\n      dup9\n      call\n      swap4\n      pop\n      pop\n      pop\n      pop\n      iszero\n      dup1\n      iszero\n      tag_41\n      jumpi\n      returndatasize\n      0x00\n      dup1\n      returndatacopy\n      revert(0x00, returndatasize)\n    tag_41:\n      pop\n        /* \"math/FiftyYearsChallenge.sol\":1355:1921  {... */\n      pop\n        /* \"math/FiftyYearsChallenge.sol\":1315:1921  function withdraw(uint256 index) public {... */\n      pop\n      jump\t// out\n        /* \"math/FiftyYearsChallenge.sol\":561:1307  function upsert(uint256 index, uint256 timestamp) public payable {... */\n    tag_13:\n        /* \"math/FiftyYearsChallenge.sol\":659:664  owner */\n      and(sub(shl(0xa0, 0x01), 0x01), sload(0x02))\n        /* \"math/FiftyYearsChallenge.sol\":645:655  msg.sender */\n      caller\n        /* \"math/FiftyYearsChallenge.sol\":645:664  msg.sender == owner */\n      eq\n        /* \"math/FiftyYearsChallenge.sol\":637:665  require(msg.sender == owner) */\n      tag_43\n      jumpi\n      0x00\n      dup1\n      revert\n    tag_43:\n        /* \"math/FiftyYearsChallenge.sol\":678:711  Contribution storage contribution */\n      0x00\n        /* \"math/FiftyYearsChallenge.sol\":714:719  queue */\n      dup1\n        /* \"math/FiftyYearsChallenge.sol\":720:725  index */\n      dup4\n        /* \"math/FiftyYearsChallenge.sol\":714:726  queue[index] */\n      dup2\n      sload\n      dup2\n      lt\n      tag_45\n      jumpi\n      tag_45\n      tag_23\n      jump\t// in\n    tag_45:\n      swap1\n      0x00\n      mstore\n      keccak256(0x00, 0x20)\n      swap1\n      0x02\n      mul\n      add\n        /* \"math/FiftyYearsChallenge.sol\":678:726  Contribution storage contribution = queue[index] */\n      swap1\n      pop\n        /* \"math/FiftyYearsChallenge.sol\":750:754  head */\n      sload(0x01)\n        /* \"math/FiftyYearsChallenge.sol\":741:746  index */\n      dup4\n        /* \"math/FiftyYearsChallenge.sol\":741:754  index >= head */\n      lt\n      iszero\n        /* \"math/FiftyYearsChallenge.sol\":741:778  index >= head && index < queue.length */\n      dup1\n      iszero\n      tag_47\n      jumpi\n      pop\n        /* \"math/FiftyYearsChallenge.sol\":766:771  queue */\n      0x00\n        /* \"math/FiftyYearsChallenge.sol\":766:778  queue.length */\n      sload\n        /* \"math/FiftyYearsChallenge.sol\":758:778  index < queue.length */\n      dup4\n      lt\n        /* \"math/FiftyYearsChallenge.sol\":741:778  index >= head && index < queue.length */\n    tag_47:\n        /* \"math/FiftyYearsChallenge.sol\":737:1300  if (index >= head && index < queue.length) {... */\n      iszero\n      tag_48\n      jumpi\n        /* \"math/FiftyYearsChallenge.sol\":898:907  msg.value */\n      callvalue\n        /* \"math/FiftyYearsChallenge.sol\":875:887  contribution */\n      dup2\n        /* \"math/FiftyYearsChallenge.sol\":875:894  contribution.amount */\n      0x00\n      add\n      0x00\n        /* \"math/FiftyYearsChallenge.sol\":875:907  contribution.amount += msg.value */\n      dup3\n      dup3\n      sload\n      tag_49\n      swap2\n      swap1\n      tag_33\n      jump\t// in\n    tag_49:\n      swap1\n      swap2\n      sstore\n      pop\n        /* \"math/FiftyYearsChallenge.sol\":737:1300  if (index >= head && index < queue.length) {... */\n      tag_41\n      swap1\n      pop\n      jump\n    tag_48:\n        /* \"math/FiftyYearsChallenge.sol\":1097:1102  queue */\n      0x00\n        /* \"math/FiftyYearsChallenge.sol\":1103:1115  queue.length */\n      dup1\n      sload\n        /* \"math/FiftyYearsChallenge.sol\":1103:1119  queue.length - 1 */\n      tag_51\n      swap1\n        /* \"math/FiftyYearsChallenge.sol\":1118:1119  1 */\n      0x01\n      swap1\n        /* \"math/FiftyYearsChallenge.sol\":1103:1119  queue.length - 1 */\n      tag_52\n      jump\t// in\n    tag_51:\n        /* \"math/FiftyYearsChallenge.sol\":1097:1120  queue[queue.length - 1] */\n      dup2\n      sload\n      dup2\n      lt\n      tag_54\n      jumpi\n      tag_54\n      tag_23\n      jump\t// in\n    tag_54:\n      swap1\n      0x00\n      mstore\n      keccak256(0x00, 0x20)\n      swap1\n      0x02\n      mul\n      add\n        /* \"math/FiftyYearsChallenge.sol\":1097:1136  queue[queue.length - 1].unlockTimestamp */\n      0x01\n      add\n      sload\n        /* \"math/FiftyYearsChallenge.sol\":1139:1145  1 days */\n      0x015180\n        /* \"math/FiftyYearsChallenge.sol\":1097:1145  queue[queue.length - 1].unlockTimestamp + 1 days */\n      tag_56\n      swap2\n      swap1\n      tag_33\n      jump\t// in\n    tag_56:\n        /* \"math/FiftyYearsChallenge.sol\":1084:1093  timestamp */\n      dup3\n        /* \"math/FiftyYearsChallenge.sol\":1084:1145  timestamp >= queue[queue.length - 1].unlockTimestamp + 1 days */\n      lt\n      iszero\n        /* \"math/FiftyYearsChallenge.sol\":1076:1146  require(timestamp >= queue[queue.length - 1].unlockTimestamp + 1 days) */\n      tag_57\n      jumpi\n      0x00\n      dup1\n      revert\n    tag_57:\n        /* \"math/FiftyYearsChallenge.sol\":1185:1194  msg.value */\n      callvalue\n        /* \"math/FiftyYearsChallenge.sol\":1163:1194  contribution.amount = msg.value */\n      dup2\n      sstore\n        /* \"math/FiftyYearsChallenge.sol\":1209:1237  contribution.unlockTimestamp */\n      0x01\n      dup1\n      dup3\n      add\n        /* \"math/FiftyYearsChallenge.sol\":1209:1249  contribution.unlockTimestamp = timestamp */\n      swap3\n      dup4\n      sstore\n      0x00\n        /* \"math/FiftyYearsChallenge.sol\":1264:1288  queue.push(contribution) */\n      dup1\n      sload\n      swap2\n      dup3\n      add\n      dup2\n      sstore\n      dup1\n      mstore\n      swap1\n      sload\n      0x290decd9548b62a8d60345a988386fc84ba6bc95484008f6362f93160ef3e563\n      0x02\n      swap1\n      swap3\n      mul\n      swap2\n      dup3\n      add\n      sstore\n      swap1\n      sload\n      0x290decd9548b62a8d60345a988386fc84ba6bc95484008f6362f93160ef3e564\n      swap1\n      swap2\n      add\n      sstore\n      pop\n        /* \"math/FiftyYearsChallenge.sol\":561:1307  function upsert(uint256 index, uint256 timestamp) public payable {... */\n      jump\t// out\n        /* \"#utility.yul\":14:194   */\n    tag_8:\n        /* \"#utility.yul\":73:79   */\n      0x00\n        /* \"#utility.yul\":126:128   */\n      0x20\n        /* \"#utility.yul\":114:123   */\n      dup3\n        /* \"#utility.yul\":105:112   */\n      dup5\n        /* \"#utility.yul\":101:124   */\n      sub\n        /* \"#utility.yul\":97:129   */\n      slt\n        /* \"#utility.yul\":94:146   */\n      iszero\n      tag_63\n      jumpi\n        /* \"#utility.yul\":142:143   */\n      0x00\n        /* \"#utility.yul\":139:140   */\n      dup1\n        /* \"#utility.yul\":132:144   */\n      revert\n        /* \"#utility.yul\":94:146   */\n    tag_63:\n      pop\n        /* \"#utility.yul\":165:188   */\n      calldataload\n      swap2\n        /* \"#utility.yul\":14:194   */\n      swap1\n      pop\n      jump\t// out\n        /* \"#utility.yul\":199:447   */\n    tag_12:\n        /* \"#utility.yul\":267:273   */\n      0x00\n        /* \"#utility.yul\":275:281   */\n      dup1\n        /* \"#utility.yul\":328:330   */\n      0x40\n        /* \"#utility.yul\":316:325   */\n      dup4\n        /* \"#utility.yul\":307:314   */\n      dup6\n        /* \"#utility.yul\":303:326   */\n      sub\n        /* \"#utility.yul\":299:331   */\n      slt\n        /* \"#utility.yul\":296:348   */\n      iszero\n      tag_65\n      jumpi\n        /* \"#utility.yul\":344:345   */\n      0x00\n        /* \"#utility.yul\":341:342   */\n      dup1\n        /* \"#utility.yul\":334:346   */\n      revert\n        /* \"#utility.yul\":296:348   */\n    tag_65:\n      pop\n      pop\n        /* \"#utility.yul\":367:390   */\n      dup1\n      calldataload\n      swap3\n        /* \"#utility.yul\":437:439   */\n      0x20\n        /* \"#utility.yul\":422:440   */\n      swap1\n      swap2\n      add\n        /* \"#utility.yul\":409:441   */\n      calldataload\n      swap2\n      pop\n        /* \"#utility.yul\":199:447   */\n      jump\t// out\n        /* \"#utility.yul\":644:771   */\n    tag_23:\n        /* \"#utility.yul\":705:715   */\n      0x4e487b71\n        /* \"#utility.yul\":700:703   */\n      0xe0\n        /* \"#utility.yul\":696:716   */\n      shl\n        /* \"#utility.yul\":693:694   */\n      0x00\n        /* \"#utility.yul\":686:717   */\n      mstore\n        /* \"#utility.yul\":736:740   */\n      0x32\n        /* \"#utility.yul\":733:734   */\n      0x04\n        /* \"#utility.yul\":726:741   */\n      mstore\n        /* \"#utility.yul\":760:764   */\n      0x24\n        /* \"#utility.yul\":757:758   */\n      0x00\n        /* \"#utility.yul\":750:765   */\n      revert\n        /* \"#utility.yul\":776:903   */\n    tag_60:\n        /* \"#utility.yul\":837:847   */\n      0x4e487b71\n        /* \"#utility.yul\":832:835   */\n      0xe0\n        /* \"#utility.yul\":828:848   */\n      shl\n        /* \"#utility.yul\":825:826   */\n      0x00\n        /* \"#utility.yul\":818:849   */\n      mstore\n        /* \"#utility.yul\":868:872   */\n      0x11\n        /* \"#utility.yul\":865:866   */\n      0x04\n        /* \"#utility.yul\":858:873   */\n      mstore\n        /* \"#utility.yul\":892:896   */\n      0x24\n        /* \"#utility.yul\":889:890   */\n      0x00\n        /* \"#utility.yul\":882:897   */\n      revert\n        /* \"#utility.yul\":908:1036   */\n    tag_33:\n        /* \"#utility.yul\":948:951   */\n      0x00\n        /* \"#utility.yul\":979:980   */\n      dup3\n        /* \"#utility.yul\":975:981   */\n      not\n        /* \"#utility.yul\":972:973   */\n      dup3\n        /* \"#utility.yul\":969:982   */\n      gt\n        /* \"#utility.yul\":966:1005   */\n      iszero\n      tag_71\n      jumpi\n        /* \"#utility.yul\":985:1003   */\n      tag_71\n      tag_60\n      jump\t// in\n    tag_71:\n      pop\n        /* \"#utility.yul\":1021:1030   */\n      add\n      swap1\n        /* \"#utility.yul\":908:1036   */\n      jump\t// out\n        /* \"#utility.yul\":1041:1176   */\n    tag_38:\n        /* \"#utility.yul\":1080:1083   */\n      0x00\n        /* \"#utility.yul\":1101:1118   */\n      0x01\n      dup3\n      add\n        /* \"#utility.yul\":1098:1141   */\n      tag_74\n      jumpi\n        /* \"#utility.yul\":1121:1139   */\n      tag_74\n      tag_60\n      jump\t// in\n    tag_74:\n      pop\n        /* \"#utility.yul\":1168:1169   */\n      0x01\n        /* \"#utility.yul\":1157:1170   */\n      add\n      swap1\n        /* \"#utility.yul\":1041:1176   */\n      jump\t// out\n        /* \"#utility.yul\":1181:1306   */\n    tag_52:\n        /* \"#utility.yul\":1221:1225   */\n      0x00\n        /* \"#utility.yul\":1249:1250   */\n      dup3\n        /* \"#utility.yul\":1246:1247   */\n      dup3\n        /* \"#utility.yul\":1243:1251   */\n      lt\n        /* \"#utility.yul\":1240:1274   */\n      iszero\n      tag_77\n      jumpi\n        /* \"#utility.yul\":1254:1272   */\n      tag_77\n      tag_60\n      jump\t// in\n    tag_77:\n      pop\n        /* \"#utility.yul\":1291:1300   */\n      sub\n      swap1\n        /* \"#utility.yul\":1181:1306   */\n      jump\t// out\n\n    auxdata: 0xa2646970667358221220de1abf861f7bcf77322bc8c257dc18716fffc14690cfb798dff5094b1511fbab64736f6c634300080f0033\n}\n",
				"bytecode": {
					"linkReferences": {},
					"object": "60806040526040516104a93803806104a9833981016040819052610022916100a2565b34670de0b6b3a76400001461003657600080fd5b600280546001600160a01b0319166001600160a01b038316179055604080518082019091523481526000906020810161007342635dfc0f006100d2565b9052815460018181018455600093845260209384902083516002909302019182559290910151910155506100f8565b6000602082840312156100b457600080fd5b81516001600160a01b03811681146100cb57600080fd5b9392505050565b600082198211156100f357634e487b7160e01b600052601160045260246000fd5b500190565b6103a2806101076000396000f3fe6080604052600436106100345760003560e01c80632e1a7d4d146100395780633b8f718a1461005b578063b2fa1c9e1461006e575b600080fd5b34801561004557600080fd5b506100596100543660046102bd565b61008f565b005b6100596100693660046102d6565b610193565b34801561007a57600080fd5b50604080514715815290519081900360200190f35b6002546001600160a01b031633146100a657600080fd5b600081815481106100b9576100b96102f8565b9060005260206000209060020201600101544210156100d757600080fd5b6001546000905b82811161015257600081815481106100f8576100f86102f8565b906000526020600020906002020160000154826101159190610324565b91506000818154811061012a5761012a6102f8565b600091825260208220600290910201818155600101558061014a8161033c565b9150506100de565b5061015e826001610324565b600155604051339082156108fc029083906000818181858888f1935050505015801561018e573d6000803e3d6000fd5b505050565b6002546001600160a01b031633146101aa57600080fd5b60008083815481106101be576101be6102f8565b9060005260206000209060020201905060015483101580156101e1575060005483105b1561020557348160000160008282546101fa9190610324565b9091555061018e9050565b6000805461021590600190610355565b81548110610225576102256102f8565b906000526020600020906002020160010154620151806102459190610324565b82101561025157600080fd5b3481556001808201928355600080549182018155805290547f290decd9548b62a8d60345a988386fc84ba6bc95484008f6362f93160ef3e56360029092029182015590547f290decd9548b62a8d60345a988386fc84ba6bc95484008f6362f93160ef3e5649091015550565b6000602082840312156102cf57600080fd5b5035919050565b600080604083850312156102e957600080fd5b50508035926020909101359150565b634e487b7160e01b600052603260045260246000fd5b634e487b7160e01b600052601160045260246000fd5b600082198211156103375761033761030e565b500190565b60006001820161034e5761034e61030e565b5060010190565b6000828210156103675761036761030e565b50039056fea2646970667358221220de1abf861f7bcf77322bc8c257dc18716fffc14690cfb798dff5094b1511fbab64736f6c634300080f0033",
					"opcodes": "PUSH1 0x80 PUSH1 0x40 MSTORE PUSH1 0x40 MLOAD PUSH2 0x4A9 CODESIZE SUB DUP1 PUSH2 0x4A9 DUP4 CODECOPY DUP2 ADD PUSH1 0x40 DUP2 SWAP1 MSTORE PUSH2 0x22 SWAP2 PUSH2 0xA2 JUMP JUMPDEST CALLVALUE PUSH8 0xDE0B6B3A7640000 EQ PUSH2 0x36 JUMPI PUSH1 0x0 DUP1 REVERT JUMPDEST PUSH1 0x2 DUP1 SLOAD PUSH1 0x1 PUSH1 0x1 PUSH1 0xA0 SHL SUB NOT AND PUSH1 0x1 PUSH1 0x1 PUSH1 0xA0 SHL SUB DUP4 AND OR SWAP1 SSTORE PUSH1 0x40 DUP1 MLOAD DUP1 DUP3 ADD SWAP1 SWAP2 MSTORE CALLVALUE DUP2 MSTORE PUSH1 0x0 SWAP1 PUSH1 0x20 DUP2 ADD PUSH2 0x73 TIMESTAMP PUSH4 0x5DFC0F00 PUSH2 0xD2 JUMP JUMPDEST SWAP1 MSTORE DUP2 SLOAD PUSH1 0x1 DUP2 DUP2 ADD DUP5 SSTORE PUSH1 0x0 SWAP4 DUP5 MSTORE PUSH1 0x20 SWAP4 DUP5 SWAP1 KECCAK256 DUP4 MLOAD PUSH1 0x2 SWAP1 SWAP4 MUL ADD SWAP2 DUP3 SSTORE SWAP3 SWAP1 SWAP2 ADD MLOAD SWAP2 ADD SSTORE POP PUSH2 0xF8 JUMP JUMPDEST PUSH1 0x0 PUSH1 0x20 DUP3 DUP5 SUB SLT ISZERO PUSH2 0xB4 JUMPI PUSH1 0x0 DUP1 REVERT JUMPDEST DUP2 MLOAD PUSH1 0x1 PUSH1 0x1 PUSH1 0xA0 SHL SUB DUP2 AND DUP2 EQ PUSH2 0xCB JUMPI PUSH1 0x0 DUP1 REVERT JUMPDEST SWAP4 SWAP3 POP POP POP JUMP JUMPDEST PUSH1 0x0 DUP3 NOT DUP3 GT ISZERO PUSH2 0xF3 JUMPI PUSH4 0x4E487B71 PUSH1 0xE0 SHL PUSH1 0x0 MSTORE PUSH1 0x11 PUSH1 0x4 MSTORE PUSH1 0x24 PUSH1 0x0 REVERT JUMPDEST POP ADD SWAP1 JUMP JUMPDEST PUSH2 0x3A2 DUP1 PUSH2 0x107 PUSH1 0x0 CODECOPY PUSH1 0x0 RETURN INVALID PUSH1 0x80 PUSH1 0x40 MSTORE PUSH1 0x4 CALLDATASIZE LT PUSH2 0x34 JUMPI PUSH1 0x0 CALLDATALOAD PUSH1 0xE0 SHR DUP1 PUSH4 0x2E1A7D4D EQ PUSH2 0x39 JUMPI DUP1 PUSH4 0x3B8F718A EQ PUSH2 0x5B JUMPI DUP1 PUSH4 0xB2FA1C9E EQ PUSH2 0x6E JUMPI JUMPDEST PUSH1 0x0 DUP1 REVERT JUMPDEST CALLVALUE DUP1 ISZERO PUSH2 0x45 JUMPI PUSH1 0x0 DUP1 REVERT JUMPDEST POP PUSH2 0x59 PUSH2 0x54 CALLDATASIZE PUSH1 0x4 PUSH2 0x2BD JUMP JUMPDEST PUSH2 0x8F JUMP JUMPDEST STOP JUMPDEST PUSH2 0x59 PUSH2 0x69 CALLDATASIZE PUSH1 0x4 PUSH2 0x2D6 JUMP JUMPDEST PUSH2 0x193 JUMP JUMPDEST CALLVALUE DUP1 ISZERO PUSH2 0x7A JUMPI PUSH1 0x0 DUP1 REVERT JUMPDEST POP PUSH1 0x40 DUP1 MLOAD SELFBALANCE ISZERO DUP2 MSTORE SWAP1 MLOAD SWAP1 DUP2 SWAP1 SUB PUSH1 0x20 ADD SWAP1 RETURN JUMPDEST PUSH1 0x2 SLOAD PUSH1 0x1 PUSH1 0x1 PUSH1 0xA0 SHL SUB AND CALLER EQ PUSH2 0xA6 JUMPI PUSH1 0x0 DUP1 REVERT JUMPDEST PUSH1 0x0 DUP2 DUP2 SLOAD DUP2 LT PUSH2 0xB9 JUMPI PUSH2 0xB9 PUSH2 0x2F8 JUMP JUMPDEST SWAP1 PUSH1 0x0 MSTORE PUSH1 0x20 PUSH1 0x0 KECCAK256 SWAP1 PUSH1 0x2 MUL ADD PUSH1 0x1 ADD SLOAD TIMESTAMP LT ISZERO PUSH2 0xD7 JUMPI PUSH1 0x0 DUP1 REVERT JUMPDEST PUSH1 0x1 SLOAD PUSH1 0x0 SWAP1 JUMPDEST DUP3 DUP2 GT PUSH2 0x152 JUMPI PUSH1 0x0 DUP2 DUP2 SLOAD DUP2 LT PUSH2 0xF8 JUMPI PUSH2 0xF8 PUSH2 0x2F8 JUMP JUMPDEST SWAP1 PUSH1 0x0 MSTORE PUSH1 0x20 PUSH1 0x0 KECCAK256 SWAP1 PUSH1 0x2 MUL ADD PUSH1 0x0 ADD SLOAD DUP3 PUSH2 0x115 SWAP2 SWAP1 PUSH2 0x324 JUMP JUMPDEST SWAP2 POP PUSH1 0x0 DUP2 DUP2 SLOAD DUP2 LT PUSH2 0x12A JUMPI PUSH2 0x12A PUSH2 0x2F8 JUMP JUMPDEST PUSH1 0x0 SWAP2 DUP3 MSTORE PUSH1 0x20 DUP3 KECCAK256 PUSH1 0x2 SWAP1 SWAP2 MUL ADD DUP2 DUP2 SSTORE PUSH1 0x1 ADD SSTORE DUP1 PUSH2 0x14A DUP2 PUSH2 0x33C JUMP JUMPDEST SWAP2 POP POP PUSH2 0xDE JUMP JUMPDEST POP PUSH2 0x15E DUP3 PUSH1 0x1 PUSH2 0x324 JUMP JUMPDEST PUSH1 0x1 SSTORE PUSH1 0x40 MLOAD CALLER SWAP1 DUP3 ISZERO PUSH2 0x8FC MUL SWAP1 DUP4 SWAP1 PUSH1 0x0 DUP2 DUP2 DUP2 DUP6 DUP9 DUP9 CALL SWAP4 POP POP POP POP ISZERO DUP1 ISZERO PUSH2 0x18E JUMPI RETURNDATASIZE PUSH1 0x0 DUP1 RETURNDATACOPY RETURNDATASIZE PUSH1 0x0 REVERT JUMPDEST POP POP POP JUMP JUMPDEST PUSH1 0x2 SLOAD PUSH1 0x1 PUSH1 0x1 PUSH1 0xA0 SHL SUB AND CALLER EQ PUSH2 0x1AA JUMPI PUSH1 0x0 DUP1 REVERT JUMPDEST PUSH1 0x0 DUP1 DUP4 DUP2 SLOAD DUP2 LT PUSH2 0x1BE JUMPI PUSH2 0x1BE PUSH2 0x2F8 JUMP JUMPDEST SWAP1 PUSH1 0x0 MSTORE PUSH1 0x20 PUSH1 0x0 KECCAK256 SWAP1 PUSH1 0x2 MUL ADD SWAP1 POP PUSH1 0x1 SLOAD DUP4 LT ISZERO DUP1 ISZERO PUSH2 0x1E1 JUMPI POP PUSH1 0x0 SLOAD DUP4 LT JUMPDEST ISZERO PUSH2 0x205 JUMPI CALLVALUE DUP2 PUSH1 0x0 ADD PUSH1 0x0 DUP3 DUP3 SLOAD PUSH2 0x1FA SWAP2 SWAP1 PUSH2 0x324 JUMP JUMPDEST SWAP1 SWAP2 SSTORE POP PUSH2 0x18E SWAP1 POP JUMP JUMPDEST PUSH1 0x0 DUP1 SLOAD PUSH2 0x215 SWAP1 PUSH1 0x1 SWAP1 PUSH2 0x355 JUMP JUMPDEST DUP2 SLOAD DUP2 LT PUSH2 0x225 JUMPI PUSH2 0x225 PUSH2 0x2F8 JUMP JUMPDEST SWAP1 PUSH1 0x0 MSTORE PUSH1 0x20 PUSH1 0x0 KECCAK256 SWAP1 PUSH1 0x2 MUL ADD PUSH1 0x1 ADD SLOAD PUSH3 0x15180 PUSH2 0x245 SWAP2 SWAP1 PUSH2 0x324 JUMP JUMPDEST DUP3 LT ISZERO PUSH2 0x251 JUMPI PUSH1 0x0 DUP1 REVERT JUMPDEST CALLVALUE DUP2 SSTORE PUSH1 0x1 DUP1 DUP3 ADD SWAP3 DUP4 SSTORE PUSH1 0x0 DUP1 SLOAD SWAP2 DUP3 ADD DUP2 SSTORE DUP1 MSTORE SWAP1 SLOAD PUSH32 0x290DECD9548B62A8D60345A988386FC84BA6BC95484008F6362F93160EF3E563 PUSH1 0x2 SWAP1 SWAP3 MUL SWAP2 DUP3 ADD SSTORE SWAP1 SLOAD PUSH32 0x290DECD9548B62A8D60345A988386FC84BA6BC95484008F6362F93160EF3E564 SWAP1 SWAP2 ADD SSTORE POP JUMP JUMPDEST PUSH1 0x0 PUSH1 0x20 DUP3 DUP5 SUB SLT ISZERO PUSH2 0x2CF JUMPI PUSH1 0x0 DUP1 REVERT JUMPDEST POP CALLDATALOAD SWAP2 SWAP1 POP JUMP JUMPDEST PUSH1 0x0 DUP1 PUSH1 0x40 DUP4 DUP6 SUB SLT ISZERO PUSH2 0x2E9 JUMPI PUSH1 0x0 DUP1 REVERT JUMPDEST POP POP DUP1 CALLDATALOAD SWAP3 PUSH1 0x20 SWAP1 SWAP2 ADD CALLDATALOAD SWAP2 POP JUMP JUMPDEST PUSH4 0x4E487B71 PUSH1 0xE0 SHL PUSH1 0x0 MSTORE PUSH1 0x32 PUSH1 0x4 MSTORE PUSH1 0x24 PUSH1 0x0 REVERT JUMPDEST PUSH4 0x4E487B71 PUSH1 0xE0 SHL PUSH1 0x0 MSTORE PUSH1 0x11 PUSH1 0x4 MSTORE PUSH1 0x24 PUSH1 0x0 REVERT JUMPDEST PUSH1 0x0 DUP3 NOT DUP3 GT ISZERO PUSH2 0x337 JUMPI PUSH2 0x337 PUSH2 0x30E JUMP JUMPDEST POP ADD SWAP1 JUMP JUMPDEST PUSH1 0x0 PUSH1 0x1 DUP3 ADD PUSH2 0x34E JUMPI PUSH2 0x34E PUSH2 0x30E JUMP JUMPDEST POP PUSH1 0x1 ADD SWAP1 JUMP JUMPDEST PUSH1 0x0 DUP3 DUP3 LT ISZERO PUSH2 0x367 JUMPI PUSH2 0x367 PUSH2 0x30E JUMP JUMPDEST POP SUB SWAP1 JUMP INVALID LOG2 PUSH5 0x6970667358 0x22 SLT KECCAK256 0xDE BYTE 0xBF DUP7 0x1F PUSH28 0xCF77322BC8C257DC18716FFFC14690CFB798DFF5094B1511FBAB6473 PUSH16 0x6C634300080F00330000000000000000 "
				},
				"gasEstimates": {
					"creation": {
						"codeDepositCost": "186000",
						"executionCost": "infinite",
						"totalCost": "infinite"
					},
					"external": {
						"isComplete()": "198",
						"upsert(uint256,uint256)": "132281",
						"withdraw(uint256)": "infinite"
					}
				},
				"methodIdentifiers": {
					"isComplete()": "b2fa1c9e",
					"upsert(uint256,uint256)": "3b8f718a",
					"withdraw(uint256)": "2e1a7d4d"
				}
			},
			"storageLayout": {
				"storage": [
					{
						"astId": 10,
						"contract": "math/FiftyYearsChallenge.sol:FiftyYearsChallenge",
						"label": "queue",
						"offset": 0,
						"slot": "0",
						"type": "t_array(t_struct(Contribution)6_storage)dyn_storage"
					},
					{
						"astId": 12,
						"contract": "math/FiftyYearsChallenge.sol:FiftyYearsChallenge",
						"label": "head",
						"offset": 0,
						"slot": "1",
						"type": "t_uint256"
					},
					{
						"astId": 14,
						"contract": "math/FiftyYearsChallenge.sol:FiftyYearsChallenge",
						"label": "owner",
						"offset": 0,
						"slot": "2",
						"type": "t_address"
					}
				],
				"types": {
					"t_address": {
						"encoding": "inplace",
						"label": "address",
						"numberOfBytes": "20"
					},
					"t_array(t_struct(Contribution)6_storage)dyn_storage": {
						"base": "t_struct(Contribution)6_storage",
						"encoding": "dynamic_array",
						"label": "struct FiftyYearsChallenge.Contribution[]",
						"numberOfBytes": "32"
					},
					"t_struct(Contribution)6_storage": {
						"encoding": "inplace",
						"label": "struct FiftyYearsChallenge.Contribution",
						"members": [
							{
								"astId": 3,
								"contract": "math/FiftyYearsChallenge.sol:FiftyYearsChallenge",
								"label": "amount",
								"offset": 0,
								"slot": "0",
								"type": "t_uint256"
							},
							{
								"astId": 5,
								"contract": "math/FiftyYearsChallenge.sol:FiftyYearsChallenge",
								"label": "unlockTimestamp",
								"offset": 0,
								"slot": "1",
								"type": "t_uint256"
							}
						],
						"numberOfBytes": "64"
					},
					"t_uint256": {
						"encoding": "inplace",
						"label": "uint256",
						"numberOfBytes": "32"
					}
				}
			},
			"userdoc": {
				"kind": "user",
				"methods": {},
				"version": 1
			}
		}
	}
}