{
	"math/DonationChallenge.sol": {
		"DonationChallenge": {
			"abi": [
				{
					"inputs": [],
					"stateMutability": "payable",
					"type": "constructor"
				},
				{
					"inputs": [
						{
							"internalType": "uint256",
							"name": "etherAmount",
							"type": "uint256"
						}
					],
					"name": "donate",
					"outputs": [],
					"stateMutability": "payable",
					"type": "function"
				},
				{
					"inputs": [
						{
							"internalType": "uint256",
							"name": "",
							"type": "uint256"
						}
					],
					"name": "donations",
					"outputs": [
						{
							"internalType": "uint256",
							"name": "timestamp",
							"type": "uint256"
						},
						{
							"internalType": "uint256",
							"name": "etherAmount",
							"type": "uint256"
						}
					],
					"stateMutability": "view",
					"type": "function"
				},
				{
					"inputs": [],
					"name": "isComplete",
					"outputs": [
						{
							"internalType": "bool",
							"name": "",
							"type": "bool"
						}
					],
					"stateMutability": "view",
					"type": "function"
				},
				{
					"inputs": [],
					"name": "owner",
					"outputs": [
						{
							"internalType": "address",
							"name": "",
							"type": "address"
						}
					],
					"stateMutability": "view",
					"type": "function"
				},
				{
					"inputs": [],
					"name": "withdraw",
					"outputs": [],
					"stateMutability": "nonpayable",
					"type": "function"
				}
			],
			"devdoc": {
				"kind": "dev",
				"methods": {},
				"version": 1
			},
			"evm": {
				"assembly": "    /* \"math/DonationChallenge.sol\":61:997  contract DonationChallenge {... */\n  mstore(0x40, 0x80)\n    /* \"math/DonationChallenge.sol\":301:308  1 ether */\n  0x0de0b6b3a7640000\n    /* \"math/DonationChallenge.sol\":288:297  msg.value */\n  callvalue\n    /* \"math/DonationChallenge.sol\":288:308  msg.value == 1 ether */\n  eq\n    /* \"math/DonationChallenge.sol\":280:309  require(msg.value == 1 ether) */\n  tag_3\n  jumpi\n  0x00\n  dup1\n  revert\ntag_3:\n    /* \"math/DonationChallenge.sol\":330:340  msg.sender */\n  caller\n    /* \"math/DonationChallenge.sol\":322:327  owner */\n  0x01\n  0x00\n    /* \"math/DonationChallenge.sol\":322:340  owner = msg.sender */\n  0x0100\n  exp\n  dup2\n  sload\n  dup2\n  0xffffffffffffffffffffffffffffffffffffffff\n  mul\n  not\n  and\n  swap1\n  dup4\n  0xffffffffffffffffffffffffffffffffffffffff\n  and\n  mul\n  or\n  swap1\n  sstore\n  pop\n    /* \"math/DonationChallenge.sol\":61:997  contract DonationChallenge {... */\n  dataSize(sub_0)\n  dup1\n  dataOffset(sub_0)\n  0x00\n  codecopy\n  0x00\n  return\nstop\n\nsub_0: assembly {\n        /* \"math/DonationChallenge.sol\":61:997  contract DonationChallenge {... */\n      mstore(0x40, 0x80)\n      jumpi(tag_1, lt(calldatasize, 0x04))\n      shr(0xe0, calldataload(0x00))\n      dup1\n      0x3ccfd60b\n      eq\n      tag_2\n      jumpi\n      dup1\n      0x8da5cb5b\n      eq\n      tag_3\n      jumpi\n      dup1\n      0xb2fa1c9e\n      eq\n      tag_4\n      jumpi\n      dup1\n      0xf14faf6f\n      eq\n      tag_5\n      jumpi\n      dup1\n      0xf8626af8\n      eq\n      tag_6\n      jumpi\n    tag_1:\n      0x00\n      dup1\n      revert\n        /* \"math/DonationChallenge.sol\":848:994  function withdraw() public {... */\n    tag_2:\n      callvalue\n      dup1\n      iszero\n      tag_7\n      jumpi\n      0x00\n      dup1\n      revert\n    tag_7:\n      pop\n      tag_8\n      tag_9\n      jump\t// in\n    tag_8:\n      stop\n        /* \"math/DonationChallenge.sol\":219:239  address public owner */\n    tag_3:\n      callvalue\n      dup1\n      iszero\n      tag_10\n      jumpi\n      0x00\n      dup1\n      revert\n    tag_10:\n      pop\n      tag_11\n      tag_12\n      jump\t// in\n    tag_11:\n      mload(0x40)\n      tag_13\n      swap2\n      swap1\n      tag_14\n      jump\t// in\n    tag_13:\n      mload(0x40)\n      dup1\n      swap2\n      sub\n      swap1\n      return\n        /* \"math/DonationChallenge.sol\":354:455  function isComplete() public view returns (bool) {... */\n    tag_4:\n      callvalue\n      dup1\n      iszero\n      tag_15\n      jumpi\n      0x00\n      dup1\n      revert\n    tag_15:\n      pop\n      tag_16\n      tag_17\n      jump\t// in\n    tag_16:\n      mload(0x40)\n      tag_18\n      swap2\n      swap1\n      tag_19\n      jump\t// in\n    tag_18:\n      mload(0x40)\n      dup1\n      swap2\n      sub\n      swap1\n      return\n        /* \"math/DonationChallenge.sol\":463:840  function donate(uint256 etherAmount) public payable {... */\n    tag_5:\n      tag_20\n      0x04\n      dup1\n      calldatasize\n      sub\n      dup2\n      add\n      swap1\n      tag_21\n      swap2\n      swap1\n      tag_22\n      jump\t// in\n    tag_21:\n      tag_23\n      jump\t// in\n    tag_20:\n      stop\n        /* \"math/DonationChallenge.sol\":183:210  Donation[] public donations */\n    tag_6:\n      callvalue\n      dup1\n      iszero\n      tag_24\n      jumpi\n      0x00\n      dup1\n      revert\n    tag_24:\n      pop\n      tag_25\n      0x04\n      dup1\n      calldatasize\n      sub\n      dup2\n      add\n      swap1\n      tag_26\n      swap2\n      swap1\n      tag_22\n      jump\t// in\n    tag_26:\n      tag_27\n      jump\t// in\n    tag_25:\n      mload(0x40)\n      tag_28\n      swap3\n      swap2\n      swap1\n      tag_29\n      jump\t// in\n    tag_28:\n      mload(0x40)\n      dup1\n      swap2\n      sub\n      swap1\n      return\n        /* \"math/DonationChallenge.sol\":848:994  function withdraw() public {... */\n    tag_9:\n        /* \"math/DonationChallenge.sol\":908:913  owner */\n      0x01\n      0x00\n      swap1\n      sload\n      swap1\n      0x0100\n      exp\n      swap1\n      div\n      0xffffffffffffffffffffffffffffffffffffffff\n      and\n        /* \"math/DonationChallenge.sol\":894:913  msg.sender == owner */\n      0xffffffffffffffffffffffffffffffffffffffff\n      and\n        /* \"math/DonationChallenge.sol\":894:904  msg.sender */\n      caller\n        /* \"math/DonationChallenge.sol\":894:913  msg.sender == owner */\n      0xffffffffffffffffffffffffffffffffffffffff\n      and\n      eq\n        /* \"math/DonationChallenge.sol\":886:914  require(msg.sender == owner) */\n      tag_31\n      jumpi\n      0x00\n      dup1\n      revert\n    tag_31:\n        /* \"math/DonationChallenge.sol\":943:953  msg.sender */\n      caller\n        /* \"math/DonationChallenge.sol\":935:963  payable(msg.sender).transfer */\n      0xffffffffffffffffffffffffffffffffffffffff\n      and\n        /* \"math/DonationChallenge.sol\":935:986  payable(msg.sender).transfer(address(this).balance) */\n      0x08fc\n        /* \"math/DonationChallenge.sol\":964:985  address(this).balance */\n      selfbalance\n        /* \"math/DonationChallenge.sol\":935:986  payable(msg.sender).transfer(address(this).balance) */\n      swap1\n      dup2\n      iszero\n      mul\n      swap1\n      mload(0x40)\n      0x00\n      mload(0x40)\n      dup1\n      dup4\n      sub\n      dup2\n      dup6\n      dup9\n      dup9\n      call\n      swap4\n      pop\n      pop\n      pop\n      pop\n      iszero\n      dup1\n      iszero\n      tag_33\n      jumpi\n      returndatasize\n      0x00\n      dup1\n      returndatacopy\n      revert(0x00, returndatasize)\n    tag_33:\n      pop\n        /* \"math/DonationChallenge.sol\":848:994  function withdraw() public {... */\n      jump\t// out\n        /* \"math/DonationChallenge.sol\":219:239  address public owner */\n    tag_12:\n      0x01\n      0x00\n      swap1\n      sload\n      swap1\n      0x0100\n      exp\n      swap1\n      div\n      0xffffffffffffffffffffffffffffffffffffffff\n      and\n      dup2\n      jump\t// out\n        /* \"math/DonationChallenge.sol\":354:455  function isComplete() public view returns (bool) {... */\n    tag_17:\n        /* \"math/DonationChallenge.sol\":397:401  bool */\n      0x00\n        /* \"math/DonationChallenge.sol\":446:447  0 */\n      dup1\n        /* \"math/DonationChallenge.sol\":421:442  address(this).balance */\n      selfbalance\n        /* \"math/DonationChallenge.sol\":421:447  address(this).balance == 0 */\n      eq\n        /* \"math/DonationChallenge.sol\":414:447  return address(this).balance == 0 */\n      swap1\n      pop\n        /* \"math/DonationChallenge.sol\":354:455  function isComplete() public view returns (bool) {... */\n      swap1\n      jump\t// out\n        /* \"math/DonationChallenge.sol\":463:840  function donate(uint256 etherAmount) public payable {... */\n    tag_23:\n        /* \"math/DonationChallenge.sol\":582:595  uint256 scale */\n      0x00\n        /* \"math/DonationChallenge.sol\":598:614  10**18 * 1 ether */\n      0xc097ce7bc90715b34b9f1000000000\n        /* \"math/DonationChallenge.sol\":582:614  uint256 scale = 10**18 * 1 ether */\n      swap1\n      pop\n        /* \"math/DonationChallenge.sol\":660:665  scale */\n      dup1\n        /* \"math/DonationChallenge.sol\":646:657  etherAmount */\n      dup3\n        /* \"math/DonationChallenge.sol\":646:665  etherAmount / scale */\n      tag_36\n      swap2\n      swap1\n      tag_37\n      jump\t// in\n    tag_36:\n        /* \"math/DonationChallenge.sol\":633:642  msg.value */\n      callvalue\n        /* \"math/DonationChallenge.sol\":633:665  msg.value == etherAmount / scale */\n      eq\n        /* \"math/DonationChallenge.sol\":625:666  require(msg.value == etherAmount / scale) */\n      tag_38\n      jumpi\n      0x00\n      dup1\n      revert\n    tag_38:\n        /* \"math/DonationChallenge.sol\":679:703  Donation memory donation */\n      tag_39\n      tag_40\n      jump\t// in\n    tag_39:\n        /* \"math/DonationChallenge.sol\":735:750  block.timestamp */\n      timestamp\n        /* \"math/DonationChallenge.sol\":714:722  donation */\n      dup2\n        /* \"math/DonationChallenge.sol\":714:732  donation.timestamp */\n      0x00\n      add\n        /* \"math/DonationChallenge.sol\":714:750  donation.timestamp = block.timestamp */\n      dup2\n      dup2\n      mstore\n      pop\n      pop\n        /* \"math/DonationChallenge.sol\":784:795  etherAmount */\n      dup3\n        /* \"math/DonationChallenge.sol\":761:769  donation */\n      dup2\n        /* \"math/DonationChallenge.sol\":761:781  donation.etherAmount */\n      0x20\n      add\n        /* \"math/DonationChallenge.sol\":761:795  donation.etherAmount = etherAmount */\n      dup2\n      dup2\n      mstore\n      pop\n      pop\n        /* \"math/DonationChallenge.sol\":808:817  donations */\n      0x00\n        /* \"math/DonationChallenge.sol\":823:831  donation */\n      dup2\n        /* \"math/DonationChallenge.sol\":808:832  donations.push(donation) */\n      swap1\n      dup1\n      0x01\n      dup2\n      sload\n      add\n      dup1\n      dup3\n      sstore\n      dup1\n      swap2\n      pop\n      pop\n      0x01\n      swap1\n      sub\n      swap1\n      0x00\n      mstore\n      keccak256(0x00, 0x20)\n      swap1\n      0x02\n      mul\n      add\n      0x00\n      swap1\n      swap2\n      swap1\n      swap2\n      swap1\n      swap2\n      pop\n      0x00\n      dup3\n      add\n      mload\n      dup2\n      0x00\n      add\n      sstore\n      0x20\n      dup3\n      add\n      mload\n      dup2\n      0x01\n      add\n      sstore\n      pop\n      pop\n        /* \"math/DonationChallenge.sol\":515:840  {... */\n      pop\n      pop\n        /* \"math/DonationChallenge.sol\":463:840  function donate(uint256 etherAmount) public payable {... */\n      pop\n      jump\t// out\n        /* \"math/DonationChallenge.sol\":183:210  Donation[] public donations */\n    tag_27:\n      0x00\n      dup2\n      dup2\n      sload\n      dup2\n      lt\n      tag_42\n      jumpi\n      0x00\n      dup1\n      revert\n    tag_42:\n      swap1\n      0x00\n      mstore\n      keccak256(0x00, 0x20)\n      swap1\n      0x02\n      mul\n      add\n      0x00\n      swap2\n      pop\n      swap1\n      pop\n      dup1\n      0x00\n      add\n      sload\n      swap1\n      dup1\n      0x01\n      add\n      sload\n      swap1\n      pop\n      dup3\n      jump\t// out\n    tag_40:\n      mload(0x40)\n      dup1\n      0x40\n      add\n      0x40\n      mstore\n      dup1\n      0x00\n      dup2\n      mstore\n      0x20\n      add\n      0x00\n      dup2\n      mstore\n      pop\n      swap1\n      jump\t// out\n        /* \"#utility.yul\":7:133   */\n    tag_44:\n        /* \"#utility.yul\":44:51   */\n      0x00\n        /* \"#utility.yul\":84:126   */\n      0xffffffffffffffffffffffffffffffffffffffff\n        /* \"#utility.yul\":77:82   */\n      dup3\n        /* \"#utility.yul\":73:127   */\n      and\n        /* \"#utility.yul\":62:127   */\n      swap1\n      pop\n        /* \"#utility.yul\":7:133   */\n      swap2\n      swap1\n      pop\n      jump\t// out\n        /* \"#utility.yul\":139:235   */\n    tag_45:\n        /* \"#utility.yul\":176:183   */\n      0x00\n        /* \"#utility.yul\":205:229   */\n      tag_61\n        /* \"#utility.yul\":223:228   */\n      dup3\n        /* \"#utility.yul\":205:229   */\n      tag_44\n      jump\t// in\n    tag_61:\n        /* \"#utility.yul\":194:229   */\n      swap1\n      pop\n        /* \"#utility.yul\":139:235   */\n      swap2\n      swap1\n      pop\n      jump\t// out\n        /* \"#utility.yul\":241:359   */\n    tag_46:\n        /* \"#utility.yul\":328:352   */\n      tag_63\n        /* \"#utility.yul\":346:351   */\n      dup2\n        /* \"#utility.yul\":328:352   */\n      tag_45\n      jump\t// in\n    tag_63:\n        /* \"#utility.yul\":323:326   */\n      dup3\n        /* \"#utility.yul\":316:353   */\n      mstore\n        /* \"#utility.yul\":241:359   */\n      pop\n      pop\n      jump\t// out\n        /* \"#utility.yul\":365:587   */\n    tag_14:\n        /* \"#utility.yul\":458:462   */\n      0x00\n        /* \"#utility.yul\":496:498   */\n      0x20\n        /* \"#utility.yul\":485:494   */\n      dup3\n        /* \"#utility.yul\":481:499   */\n      add\n        /* \"#utility.yul\":473:499   */\n      swap1\n      pop\n        /* \"#utility.yul\":509:580   */\n      tag_65\n        /* \"#utility.yul\":577:578   */\n      0x00\n        /* \"#utility.yul\":566:575   */\n      dup4\n        /* \"#utility.yul\":562:579   */\n      add\n        /* \"#utility.yul\":553:559   */\n      dup5\n        /* \"#utility.yul\":509:580   */\n      tag_46\n      jump\t// in\n    tag_65:\n        /* \"#utility.yul\":365:587   */\n      swap3\n      swap2\n      pop\n      pop\n      jump\t// out\n        /* \"#utility.yul\":593:683   */\n    tag_47:\n        /* \"#utility.yul\":627:634   */\n      0x00\n        /* \"#utility.yul\":670:675   */\n      dup2\n        /* \"#utility.yul\":663:676   */\n      iszero\n        /* \"#utility.yul\":656:677   */\n      iszero\n        /* \"#utility.yul\":645:677   */\n      swap1\n      pop\n        /* \"#utility.yul\":593:683   */\n      swap2\n      swap1\n      pop\n      jump\t// out\n        /* \"#utility.yul\":689:798   */\n    tag_48:\n        /* \"#utility.yul\":770:791   */\n      tag_68\n        /* \"#utility.yul\":785:790   */\n      dup2\n        /* \"#utility.yul\":770:791   */\n      tag_47\n      jump\t// in\n    tag_68:\n        /* \"#utility.yul\":765:768   */\n      dup3\n        /* \"#utility.yul\":758:792   */\n      mstore\n        /* \"#utility.yul\":689:798   */\n      pop\n      pop\n      jump\t// out\n        /* \"#utility.yul\":804:1014   */\n    tag_19:\n        /* \"#utility.yul\":891:895   */\n      0x00\n        /* \"#utility.yul\":929:931   */\n      0x20\n        /* \"#utility.yul\":918:927   */\n      dup3\n        /* \"#utility.yul\":914:932   */\n      add\n        /* \"#utility.yul\":906:932   */\n      swap1\n      pop\n        /* \"#utility.yul\":942:1007   */\n      tag_70\n        /* \"#utility.yul\":1004:1005   */\n      0x00\n        /* \"#utility.yul\":993:1002   */\n      dup4\n        /* \"#utility.yul\":989:1006   */\n      add\n        /* \"#utility.yul\":980:986   */\n      dup5\n        /* \"#utility.yul\":942:1007   */\n      tag_48\n      jump\t// in\n    tag_70:\n        /* \"#utility.yul\":804:1014   */\n      swap3\n      swap2\n      pop\n      pop\n      jump\t// out\n        /* \"#utility.yul\":1101:1218   */\n    tag_50:\n        /* \"#utility.yul\":1210:1211   */\n      0x00\n        /* \"#utility.yul\":1207:1208   */\n      dup1\n        /* \"#utility.yul\":1200:1212   */\n      revert\n        /* \"#utility.yul\":1347:1424   */\n    tag_52:\n        /* \"#utility.yul\":1384:1391   */\n      0x00\n        /* \"#utility.yul\":1413:1418   */\n      dup2\n        /* \"#utility.yul\":1402:1418   */\n      swap1\n      pop\n        /* \"#utility.yul\":1347:1424   */\n      swap2\n      swap1\n      pop\n      jump\t// out\n        /* \"#utility.yul\":1430:1552   */\n    tag_53:\n        /* \"#utility.yul\":1503:1527   */\n      tag_76\n        /* \"#utility.yul\":1521:1526   */\n      dup2\n        /* \"#utility.yul\":1503:1527   */\n      tag_52\n      jump\t// in\n    tag_76:\n        /* \"#utility.yul\":1496:1501   */\n      dup2\n        /* \"#utility.yul\":1493:1528   */\n      eq\n        /* \"#utility.yul\":1483:1546   */\n      tag_77\n      jumpi\n        /* \"#utility.yul\":1542:1543   */\n      0x00\n        /* \"#utility.yul\":1539:1540   */\n      dup1\n        /* \"#utility.yul\":1532:1544   */\n      revert\n        /* \"#utility.yul\":1483:1546   */\n    tag_77:\n        /* \"#utility.yul\":1430:1552   */\n      pop\n      jump\t// out\n        /* \"#utility.yul\":1558:1697   */\n    tag_54:\n        /* \"#utility.yul\":1604:1609   */\n      0x00\n        /* \"#utility.yul\":1642:1648   */\n      dup2\n        /* \"#utility.yul\":1629:1649   */\n      calldataload\n        /* \"#utility.yul\":1620:1649   */\n      swap1\n      pop\n        /* \"#utility.yul\":1658:1691   */\n      tag_79\n        /* \"#utility.yul\":1685:1690   */\n      dup2\n        /* \"#utility.yul\":1658:1691   */\n      tag_53\n      jump\t// in\n    tag_79:\n        /* \"#utility.yul\":1558:1697   */\n      swap3\n      swap2\n      pop\n      pop\n      jump\t// out\n        /* \"#utility.yul\":1703:2032   */\n    tag_22:\n        /* \"#utility.yul\":1762:1768   */\n      0x00\n        /* \"#utility.yul\":1811:1813   */\n      0x20\n        /* \"#utility.yul\":1799:1808   */\n      dup3\n        /* \"#utility.yul\":1790:1797   */\n      dup5\n        /* \"#utility.yul\":1786:1809   */\n      sub\n        /* \"#utility.yul\":1782:1814   */\n      slt\n        /* \"#utility.yul\":1779:1898   */\n      iszero\n      tag_81\n      jumpi\n        /* \"#utility.yul\":1817:1896   */\n      tag_82\n      tag_50\n      jump\t// in\n    tag_82:\n        /* \"#utility.yul\":1779:1898   */\n    tag_81:\n        /* \"#utility.yul\":1937:1938   */\n      0x00\n        /* \"#utility.yul\":1962:2015   */\n      tag_83\n        /* \"#utility.yul\":2007:2014   */\n      dup5\n        /* \"#utility.yul\":1998:2004   */\n      dup3\n        /* \"#utility.yul\":1987:1996   */\n      dup6\n        /* \"#utility.yul\":1983:2005   */\n      add\n        /* \"#utility.yul\":1962:2015   */\n      tag_54\n      jump\t// in\n    tag_83:\n        /* \"#utility.yul\":1952:2015   */\n      swap2\n      pop\n        /* \"#utility.yul\":1908:2025   */\n      pop\n        /* \"#utility.yul\":1703:2032   */\n      swap3\n      swap2\n      pop\n      pop\n      jump\t// out\n        /* \"#utility.yul\":2038:2156   */\n    tag_55:\n        /* \"#utility.yul\":2125:2149   */\n      tag_85\n        /* \"#utility.yul\":2143:2148   */\n      dup2\n        /* \"#utility.yul\":2125:2149   */\n      tag_52\n      jump\t// in\n    tag_85:\n        /* \"#utility.yul\":2120:2123   */\n      dup3\n        /* \"#utility.yul\":2113:2150   */\n      mstore\n        /* \"#utility.yul\":2038:2156   */\n      pop\n      pop\n      jump\t// out\n        /* \"#utility.yul\":2162:2494   */\n    tag_29:\n        /* \"#utility.yul\":2283:2287   */\n      0x00\n        /* \"#utility.yul\":2321:2323   */\n      0x40\n        /* \"#utility.yul\":2310:2319   */\n      dup3\n        /* \"#utility.yul\":2306:2324   */\n      add\n        /* \"#utility.yul\":2298:2324   */\n      swap1\n      pop\n        /* \"#utility.yul\":2334:2405   */\n      tag_87\n        /* \"#utility.yul\":2402:2403   */\n      0x00\n        /* \"#utility.yul\":2391:2400   */\n      dup4\n        /* \"#utility.yul\":2387:2404   */\n      add\n        /* \"#utility.yul\":2378:2384   */\n      dup6\n        /* \"#utility.yul\":2334:2405   */\n      tag_55\n      jump\t// in\n    tag_87:\n        /* \"#utility.yul\":2415:2487   */\n      tag_88\n        /* \"#utility.yul\":2483:2485   */\n      0x20\n        /* \"#utility.yul\":2472:2481   */\n      dup4\n        /* \"#utility.yul\":2468:2486   */\n      add\n        /* \"#utility.yul\":2459:2465   */\n      dup5\n        /* \"#utility.yul\":2415:2487   */\n      tag_55\n      jump\t// in\n    tag_88:\n        /* \"#utility.yul\":2162:2494   */\n      swap4\n      swap3\n      pop\n      pop\n      pop\n      jump\t// out\n        /* \"#utility.yul\":2500:2680   */\n    tag_56:\n        /* \"#utility.yul\":2548:2625   */\n      0x4e487b7100000000000000000000000000000000000000000000000000000000\n        /* \"#utility.yul\":2545:2546   */\n      0x00\n        /* \"#utility.yul\":2538:2626   */\n      mstore\n        /* \"#utility.yul\":2645:2649   */\n      0x12\n        /* \"#utility.yul\":2642:2643   */\n      0x04\n        /* \"#utility.yul\":2635:2650   */\n      mstore\n        /* \"#utility.yul\":2669:2673   */\n      0x24\n        /* \"#utility.yul\":2666:2667   */\n      0x00\n        /* \"#utility.yul\":2659:2674   */\n      revert\n        /* \"#utility.yul\":2872:3057   */\n    tag_37:\n        /* \"#utility.yul\":2912:2913   */\n      0x00\n        /* \"#utility.yul\":2929:2949   */\n      tag_92\n        /* \"#utility.yul\":2947:2948   */\n      dup3\n        /* \"#utility.yul\":2929:2949   */\n      tag_52\n      jump\t// in\n    tag_92:\n        /* \"#utility.yul\":2924:2949   */\n      swap2\n      pop\n        /* \"#utility.yul\":2963:2983   */\n      tag_93\n        /* \"#utility.yul\":2981:2982   */\n      dup4\n        /* \"#utility.yul\":2963:2983   */\n      tag_52\n      jump\t// in\n    tag_93:\n        /* \"#utility.yul\":2958:2983   */\n      swap3\n      pop\n        /* \"#utility.yul\":3002:3003   */\n      dup3\n        /* \"#utility.yul\":2992:3027   */\n      tag_94\n      jumpi\n        /* \"#utility.yul\":3007:3025   */\n      tag_95\n      tag_56\n      jump\t// in\n    tag_95:\n        /* \"#utility.yul\":2992:3027   */\n    tag_94:\n        /* \"#utility.yul\":3049:3050   */\n      dup3\n        /* \"#utility.yul\":3046:3047   */\n      dup3\n        /* \"#utility.yul\":3042:3051   */\n      div\n        /* \"#utility.yul\":3037:3051   */\n      swap1\n      pop\n        /* \"#utility.yul\":2872:3057   */\n      swap3\n      swap2\n      pop\n      pop\n      jump\t// out\n\n    auxdata: 0xa2646970667358221220b068338d8b36b5937a4125e10b91071f287e300cf9ab5d5892d0ec9129fede6364736f6c634300080f0033\n}\n",
				"bytecode": {
					"linkReferences": {},
					"object": "6080604052670de0b6b3a7640000341461001857600080fd5b33600160006101000a81548173ffffffffffffffffffffffffffffffffffffffff021916908373ffffffffffffffffffffffffffffffffffffffff16021790555061048d806100686000396000f3fe60806040526004361061004a5760003560e01c80633ccfd60b1461004f5780638da5cb5b14610066578063b2fa1c9e14610091578063f14faf6f146100bc578063f8626af8146100d8575b600080fd5b34801561005b57600080fd5b50610064610116565b005b34801561007257600080fd5b5061007b6101b9565b6040516100889190610306565b60405180910390f35b34801561009d57600080fd5b506100a66101df565b6040516100b3919061033c565b60405180910390f35b6100d660048036038101906100d19190610392565b6101e9565b005b3480156100e457600080fd5b506100ff60048036038101906100fa9190610392565b610277565b60405161010d9291906103ce565b60405180910390f35b600160009054906101000a900473ffffffffffffffffffffffffffffffffffffffff1673ffffffffffffffffffffffffffffffffffffffff163373ffffffffffffffffffffffffffffffffffffffff161461017057600080fd5b3373ffffffffffffffffffffffffffffffffffffffff166108fc479081150290604051600060405180830381858888f193505050501580156101b6573d6000803e3d6000fd5b50565b600160009054906101000a900473ffffffffffffffffffffffffffffffffffffffff1681565b6000804714905090565b60006ec097ce7bc90715b34b9f1000000000905080826102099190610426565b341461021457600080fd5b61021c6102ab565b4281600001818152505082816020018181525050600081908060018154018082558091505060019003906000526020600020906002020160009091909190915060008201518160000155602082015181600101555050505050565b6000818154811061028757600080fd5b90600052602060002090600202016000915090508060000154908060010154905082565b604051806040016040528060008152602001600081525090565b600073ffffffffffffffffffffffffffffffffffffffff82169050919050565b60006102f0826102c5565b9050919050565b610300816102e5565b82525050565b600060208201905061031b60008301846102f7565b92915050565b60008115159050919050565b61033681610321565b82525050565b6000602082019050610351600083018461032d565b92915050565b600080fd5b6000819050919050565b61036f8161035c565b811461037a57600080fd5b50565b60008135905061038c81610366565b92915050565b6000602082840312156103a8576103a7610357565b5b60006103b68482850161037d565b91505092915050565b6103c88161035c565b82525050565b60006040820190506103e360008301856103bf565b6103f060208301846103bf565b9392505050565b7f4e487b7100000000000000000000000000000000000000000000000000000000600052601260045260246000fd5b60006104318261035c565b915061043c8361035c565b92508261044c5761044b6103f7565b5b82820490509291505056fea2646970667358221220b068338d8b36b5937a4125e10b91071f287e300cf9ab5d5892d0ec9129fede6364736f6c634300080f0033",
					"opcodes": "PUSH1 0x80 PUSH1 0x40 MSTORE PUSH8 0xDE0B6B3A7640000 CALLVALUE EQ PUSH2 0x18 JUMPI PUSH1 0x0 DUP1 REVERT JUMPDEST CALLER PUSH1 0x1 PUSH1 0x0 PUSH2 0x100 EXP DUP2 SLOAD DUP2 PUSH20 0xFFFFFFFFFFFFFFFFFFFFFFFFFFFFFFFFFFFFFFFF MUL NOT AND SWAP1 DUP4 PUSH20 0xFFFFFFFFFFFFFFFFFFFFFFFFFFFFFFFFFFFFFFFF AND MUL OR SWAP1 SSTORE POP PUSH2 0x48D DUP1 PUSH2 0x68 PUSH1 0x0 CODECOPY PUSH1 0x0 RETURN INVALID PUSH1 0x80 PUSH1 0x40 MSTORE PUSH1 0x4 CALLDATASIZE LT PUSH2 0x4A JUMPI PUSH1 0x0 CALLDATALOAD PUSH1 0xE0 SHR DUP1 PUSH4 0x3CCFD60B EQ PUSH2 0x4F JUMPI DUP1 PUSH4 0x8DA5CB5B EQ PUSH2 0x66 JUMPI DUP1 PUSH4 0xB2FA1C9E EQ PUSH2 0x91 JUMPI DUP1 PUSH4 0xF14FAF6F EQ PUSH2 0xBC JUMPI DUP1 PUSH4 0xF8626AF8 EQ PUSH2 0xD8 JUMPI JUMPDEST PUSH1 0x0 DUP1 REVERT JUMPDEST CALLVALUE DUP1 ISZERO PUSH2 0x5B JUMPI PUSH1 0x0 DUP1 REVERT JUMPDEST POP PUSH2 0x64 PUSH2 0x116 JUMP JUMPDEST STOP JUMPDEST CALLVALUE DUP1 ISZERO PUSH2 0x72 JUMPI PUSH1 0x0 DUP1 REVERT JUMPDEST POP PUSH2 0x7B PUSH2 0x1B9 JUMP JUMPDEST PUSH1 0x40 MLOAD PUSH2 0x88 SWAP2 SWAP1 PUSH2 0x306 JUMP JUMPDEST PUSH1 0x40 MLOAD DUP1 SWAP2 SUB SWAP1 RETURN JUMPDEST CALLVALUE DUP1 ISZERO PUSH2 0x9D JUMPI PUSH1 0x0 DUP1 REVERT JUMPDEST POP PUSH2 0xA6 PUSH2 0x1DF JUMP JUMPDEST PUSH1 0x40 MLOAD PUSH2 0xB3 SWAP2 SWAP1 PUSH2 0x33C JUMP JUMPDEST PUSH1 0x40 MLOAD DUP1 SWAP2 SUB SWAP1 RETURN JUMPDEST PUSH2 0xD6 PUSH1 0x4 DUP1 CALLDATASIZE SUB DUP2 ADD SWAP1 PUSH2 0xD1 SWAP2 SWAP1 PUSH2 0x392 JUMP JUMPDEST PUSH2 0x1E9 JUMP JUMPDEST STOP JUMPDEST CALLVALUE DUP1 ISZERO PUSH2 0xE4 JUMPI PUSH1 0x0 DUP1 REVERT JUMPDEST POP PUSH2 0xFF PUSH1 0x4 DUP1 CALLDATASIZE SUB DUP2 ADD SWAP1 PUSH2 0xFA SWAP2 SWAP1 PUSH2 0x392 JUMP JUMPDEST PUSH2 0x277 JUMP JUMPDEST PUSH1 0x40 MLOAD PUSH2 0x10D SWAP3 SWAP2 SWAP1 PUSH2 0x3CE JUMP JUMPDEST PUSH1 0x40 MLOAD DUP1 SWAP2 SUB SWAP1 RETURN JUMPDEST PUSH1 0x1 PUSH1 0x0 SWAP1 SLOAD SWAP1 PUSH2 0x100 EXP SWAP1 DIV PUSH20 0xFFFFFFFFFFFFFFFFFFFFFFFFFFFFFFFFFFFFFFFF AND PUSH20 0xFFFFFFFFFFFFFFFFFFFFFFFFFFFFFFFFFFFFFFFF AND CALLER PUSH20 0xFFFFFFFFFFFFFFFFFFFFFFFFFFFFFFFFFFFFFFFF AND EQ PUSH2 0x170 JUMPI PUSH1 0x0 DUP1 REVERT JUMPDEST CALLER PUSH20 0xFFFFFFFFFFFFFFFFFFFFFFFFFFFFFFFFFFFFFFFF AND PUSH2 0x8FC SELFBALANCE SWAP1 DUP2 ISZERO MUL SWAP1 PUSH1 0x40 MLOAD PUSH1 0x0 PUSH1 0x40 MLOAD DUP1 DUP4 SUB DUP2 DUP6 DUP9 DUP9 CALL SWAP4 POP POP POP POP ISZERO DUP1 ISZERO PUSH2 0x1B6 JUMPI RETURNDATASIZE PUSH1 0x0 DUP1 RETURNDATACOPY RETURNDATASIZE PUSH1 0x0 REVERT JUMPDEST POP JUMP JUMPDEST PUSH1 0x1 PUSH1 0x0 SWAP1 SLOAD SWAP1 PUSH2 0x100 EXP SWAP1 DIV PUSH20 0xFFFFFFFFFFFFFFFFFFFFFFFFFFFFFFFFFFFFFFFF AND DUP2 JUMP JUMPDEST PUSH1 0x0 DUP1 SELFBALANCE EQ SWAP1 POP SWAP1 JUMP JUMPDEST PUSH1 0x0 PUSH15 0xC097CE7BC90715B34B9F1000000000 SWAP1 POP DUP1 DUP3 PUSH2 0x209 SWAP2 SWAP1 PUSH2 0x426 JUMP JUMPDEST CALLVALUE EQ PUSH2 0x214 JUMPI PUSH1 0x0 DUP1 REVERT JUMPDEST PUSH2 0x21C PUSH2 0x2AB JUMP JUMPDEST TIMESTAMP DUP2 PUSH1 0x0 ADD DUP2 DUP2 MSTORE POP POP DUP3 DUP2 PUSH1 0x20 ADD DUP2 DUP2 MSTORE POP POP PUSH1 0x0 DUP2 SWAP1 DUP1 PUSH1 0x1 DUP2 SLOAD ADD DUP1 DUP3 SSTORE DUP1 SWAP2 POP POP PUSH1 0x1 SWAP1 SUB SWAP1 PUSH1 0x0 MSTORE PUSH1 0x20 PUSH1 0x0 KECCAK256 SWAP1 PUSH1 0x2 MUL ADD PUSH1 0x0 SWAP1 SWAP2 SWAP1 SWAP2 SWAP1 SWAP2 POP PUSH1 0x0 DUP3 ADD MLOAD DUP2 PUSH1 0x0 ADD SSTORE PUSH1 0x20 DUP3 ADD MLOAD DUP2 PUSH1 0x1 ADD SSTORE POP POP POP POP POP JUMP JUMPDEST PUSH1 0x0 DUP2 DUP2 SLOAD DUP2 LT PUSH2 0x287 JUMPI PUSH1 0x0 DUP1 REVERT JUMPDEST SWAP1 PUSH1 0x0 MSTORE PUSH1 0x20 PUSH1 0x0 KECCAK256 SWAP1 PUSH1 0x2 MUL ADD PUSH1 0x0 SWAP2 POP SWAP1 POP DUP1 PUSH1 0x0 ADD SLOAD SWAP1 DUP1 PUSH1 0x1 ADD SLOAD SWAP1 POP DUP3 JUMP JUMPDEST PUSH1 0x40 MLOAD DUP1 PUSH1 0x40 ADD PUSH1 0x40 MSTORE DUP1 PUSH1 0x0 DUP2 MSTORE PUSH1 0x20 ADD PUSH1 0x0 DUP2 MSTORE POP SWAP1 JUMP JUMPDEST PUSH1 0x0 PUSH20 0xFFFFFFFFFFFFFFFFFFFFFFFFFFFFFFFFFFFFFFFF DUP3 AND SWAP1 POP SWAP2 SWAP1 POP JUMP JUMPDEST PUSH1 0x0 PUSH2 0x2F0 DUP3 PUSH2 0x2C5 JUMP JUMPDEST SWAP1 POP SWAP2 SWAP1 POP JUMP JUMPDEST PUSH2 0x300 DUP2 PUSH2 0x2E5 JUMP JUMPDEST DUP3 MSTORE POP POP JUMP JUMPDEST PUSH1 0x0 PUSH1 0x20 DUP3 ADD SWAP1 POP PUSH2 0x31B PUSH1 0x0 DUP4 ADD DUP5 PUSH2 0x2F7 JUMP JUMPDEST SWAP3 SWAP2 POP POP JUMP JUMPDEST PUSH1 0x0 DUP2 ISZERO ISZERO SWAP1 POP SWAP2 SWAP1 POP JUMP JUMPDEST PUSH2 0x336 DUP2 PUSH2 0x321 JUMP JUMPDEST DUP3 MSTORE POP POP JUMP JUMPDEST PUSH1 0x0 PUSH1 0x20 DUP3 ADD SWAP1 POP PUSH2 0x351 PUSH1 0x0 DUP4 ADD DUP5 PUSH2 0x32D JUMP JUMPDEST SWAP3 SWAP2 POP POP JUMP JUMPDEST PUSH1 0x0 DUP1 REVERT JUMPDEST PUSH1 0x0 DUP2 SWAP1 POP SWAP2 SWAP1 POP JUMP JUMPDEST PUSH2 0x36F DUP2 PUSH2 0x35C JUMP JUMPDEST DUP2 EQ PUSH2 0x37A JUMPI PUSH1 0x0 DUP1 REVERT JUMPDEST POP JUMP JUMPDEST PUSH1 0x0 DUP2 CALLDATALOAD SWAP1 POP PUSH2 0x38C DUP2 PUSH2 0x366 JUMP JUMPDEST SWAP3 SWAP2 POP POP JUMP JUMPDEST PUSH1 0x0 PUSH1 0x20 DUP3 DUP5 SUB SLT ISZERO PUSH2 0x3A8 JUMPI PUSH2 0x3A7 PUSH2 0x357 JUMP JUMPDEST JUMPDEST PUSH1 0x0 PUSH2 0x3B6 DUP5 DUP3 DUP6 ADD PUSH2 0x37D JUMP JUMPDEST SWAP2 POP POP SWAP3 SWAP2 POP POP JUMP JUMPDEST PUSH2 0x3C8 DUP2 PUSH2 0x35C JUMP JUMPDEST DUP3 MSTORE POP POP JUMP JUMPDEST PUSH1 0x0 PUSH1 0x40 DUP3 ADD SWAP1 POP PUSH2 0x3E3 PUSH1 0x0 DUP4 ADD DUP6 PUSH2 0x3BF JUMP JUMPDEST PUSH2 0x3F0 PUSH1 0x20 DUP4 ADD DUP5 PUSH2 0x3BF JUMP JUMPDEST SWAP4 SWAP3 POP POP POP JUMP JUMPDEST PUSH32 0x4E487B7100000000000000000000000000000000000000000000000000000000 PUSH1 0x0 MSTORE PUSH1 0x12 PUSH1 0x4 MSTORE PUSH1 0x24 PUSH1 0x0 REVERT JUMPDEST PUSH1 0x0 PUSH2 0x431 DUP3 PUSH2 0x35C JUMP JUMPDEST SWAP2 POP PUSH2 0x43C DUP4 PUSH2 0x35C JUMP JUMPDEST SWAP3 POP DUP3 PUSH2 0x44C JUMPI PUSH2 0x44B PUSH2 0x3F7 JUMP JUMPDEST JUMPDEST DUP3 DUP3 DIV SWAP1 POP SWAP3 SWAP2 POP POP JUMP INVALID LOG2 PUSH5 0x6970667358 0x22 SLT KECCAK256 0xB0 PUSH9 0x338D8B36B5937A4125 0xE1 SIGNEXTEND SWAP2 SMOD 0x1F 0x28 PUSH31 0x300CF9AB5D5892D0EC9129FEDE6364736F6C634300080F0033000000000000 "
				},
				"gasEstimates": {
					"creation": {
						"codeDepositCost": "233000",
						"executionCost": "24539",
						"totalCost": "257539"
					},
					"external": {
						"donate(uint256)": "infinite",
						"donations(uint256)": "infinite",
						"isComplete()": "373",
						"owner()": "2514",
						"withdraw()": "infinite"
					}
				},
				"methodIdentifiers": {
					"donate(uint256)": "f14faf6f",
					"donations(uint256)": "f8626af8",
					"isComplete()": "b2fa1c9e",
					"owner()": "8da5cb5b",
					"withdraw()": "3ccfd60b"
				}
			},
			"storageLayout": {
				"storage": [
					{
						"astId": 10,
						"contract": "math/DonationChallenge.sol:DonationChallenge",
						"label": "donations",
						"offset": 0,
						"slot": "0",
						"type": "t_array(t_struct(Donation)6_storage)dyn_storage"
					},
					{
						"astId": 12,
						"contract": "math/DonationChallenge.sol:DonationChallenge",
						"label": "owner",
						"offset": 0,
						"slot": "1",
						"type": "t_address"
					}
				],
				"types": {
					"t_address": {
						"encoding": "inplace",
						"label": "address",
						"numberOfBytes": "20"
					},
					"t_array(t_struct(Donation)6_storage)dyn_storage": {
						"base": "t_struct(Donation)6_storage",
						"encoding": "dynamic_array",
						"label": "struct DonationChallenge.Donation[]",
						"numberOfBytes": "32"
					},
					"t_struct(Donation)6_storage": {
						"encoding": "inplace",
						"label": "struct DonationChallenge.Donation",
						"members": [
							{
								"astId": 3,
								"contract": "math/DonationChallenge.sol:DonationChallenge",
								"label": "timestamp",
								"offset": 0,
								"slot": "0",
								"type": "t_uint256"
							},
							{
								"astId": 5,
								"contract": "math/DonationChallenge.sol:DonationChallenge",
								"label": "etherAmount",
								"offset": 0,
								"slot": "1",
								"type": "t_uint256"
							}
						],
						"numberOfBytes": "64"
					},
					"t_uint256": {
						"encoding": "inplace",
						"label": "uint256",
						"numberOfBytes": "32"
					}
				}
			},
			"userdoc": {
				"kind": "user",
				"methods": {},
				"version": 1
			}
		}
	}
}