{
	"math/MappingChallenge.sol": {
		"MappingChallenge": {
			"abi": [
				{
					"constant": false,
					"inputs": [
						{
							"name": "key",
							"type": "uint256"
						},
						{
							"name": "value",
							"type": "uint256"
						}
					],
					"name": "set",
					"outputs": [],
					"payable": false,
					"stateMutability": "nonpayable",
					"type": "function"
				},
				{
					"constant": true,
					"inputs": [
						{
							"name": "key",
							"type": "uint256"
						}
					],
					"name": "get",
					"outputs": [
						{
							"name": "",
							"type": "uint256"
						}
					],
					"payable": false,
					"stateMutability": "view",
					"type": "function"
				},
				{
					"constant": true,
					"inputs": [],
					"name": "isComplete",
					"outputs": [
						{
							"name": "",
							"type": "bool"
						}
					],
					"payable": false,
					"stateMutability": "view",
					"type": "function"
				}
			],
			"devdoc": {
				"methods": {}
			},
			"evm": {
				"assembly": "    /* \"math/MappingChallenge.sol\":28:431  contract MappingChallenge {\r... */\n  mstore(0x40, 0x80)\n  callvalue\n    /* \"--CODEGEN--\":8:17   */\n  dup1\n    /* \"--CODEGEN--\":5:7   */\n  iszero\n  tag_1\n  jumpi\n    /* \"--CODEGEN--\":30:31   */\n  0x0\n    /* \"--CODEGEN--\":27:28   */\n  dup1\n    /* \"--CODEGEN--\":20:32   */\n  revert\n    /* \"--CODEGEN--\":5:7   */\ntag_1:\n    /* \"math/MappingChallenge.sol\":28:431  contract MappingChallenge {\r... */\n  pop\n  dataSize(sub_0)\n  dup1\n  dataOffset(sub_0)\n  0x0\n  codecopy\n  0x0\n  return\nstop\n\nsub_0: assembly {\n        /* \"math/MappingChallenge.sol\":28:431  contract MappingChallenge {\r... */\n      mstore(0x40, 0x80)\n      jumpi(tag_1, lt(calldatasize, 0x4))\n      calldataload(0x0)\n      0x100000000000000000000000000000000000000000000000000000000\n      swap1\n      div\n      0xffffffff\n      and\n      dup1\n      0x1ab06ee5\n      eq\n      tag_2\n      jumpi\n      dup1\n      0x9507d39a\n      eq\n      tag_3\n      jumpi\n      dup1\n      0xb2fa1c9e\n      eq\n      tag_4\n      jumpi\n    tag_1:\n      0x0\n      dup1\n      revert\n        /* \"math/MappingChallenge.sol\":122:330  function set(uint256 key, uint256 value) public {\r... */\n    tag_2:\n      callvalue\n        /* \"--CODEGEN--\":8:17   */\n      dup1\n        /* \"--CODEGEN--\":5:7   */\n      iszero\n      tag_5\n      jumpi\n        /* \"--CODEGEN--\":30:31   */\n      0x0\n        /* \"--CODEGEN--\":27:28   */\n      dup1\n        /* \"--CODEGEN--\":20:32   */\n      revert\n        /* \"--CODEGEN--\":5:7   */\n    tag_5:\n        /* \"math/MappingChallenge.sol\":122:330  function set(uint256 key, uint256 value) public {\r... */\n      pop\n      tag_6\n      0x4\n      dup1\n      calldatasize\n      sub\n      dup2\n      add\n      swap1\n      dup1\n      dup1\n      calldataload\n      swap1\n      0x20\n      add\n      swap1\n      swap3\n      swap2\n      swap1\n      dup1\n      calldataload\n      swap1\n      0x20\n      add\n      swap1\n      swap3\n      swap2\n      swap1\n      pop\n      pop\n      pop\n      jump(tag_7)\n    tag_6:\n      stop\n        /* \"math/MappingChallenge.sol\":338:428  function get(uint256 key) public view returns (uint256) {\r... */\n    tag_3:\n      callvalue\n        /* \"--CODEGEN--\":8:17   */\n      dup1\n        /* \"--CODEGEN--\":5:7   */\n      iszero\n      tag_8\n      jumpi\n        /* \"--CODEGEN--\":30:31   */\n      0x0\n        /* \"--CODEGEN--\":27:28   */\n      dup1\n        /* \"--CODEGEN--\":20:32   */\n      revert\n        /* \"--CODEGEN--\":5:7   */\n    tag_8:\n        /* \"math/MappingChallenge.sol\":338:428  function get(uint256 key) public view returns (uint256) {\r... */\n      pop\n      tag_9\n      0x4\n      dup1\n      calldatasize\n      sub\n      dup2\n      add\n      swap1\n      dup1\n      dup1\n      calldataload\n      swap1\n      0x20\n      add\n      swap1\n      swap3\n      swap2\n      swap1\n      pop\n      pop\n      pop\n      jump(tag_10)\n    tag_9:\n      mload(0x40)\n      dup1\n      dup3\n      dup2\n      mstore\n      0x20\n      add\n      swap2\n      pop\n      pop\n      mload(0x40)\n      dup1\n      swap2\n      sub\n      swap1\n      return\n        /* \"math/MappingChallenge.sol\":61:83  bool public isComplete */\n    tag_4:\n      callvalue\n        /* \"--CODEGEN--\":8:17   */\n      dup1\n        /* \"--CODEGEN--\":5:7   */\n      iszero\n      tag_11\n      jumpi\n        /* \"--CODEGEN--\":30:31   */\n      0x0\n        /* \"--CODEGEN--\":27:28   */\n      dup1\n        /* \"--CODEGEN--\":20:32   */\n      revert\n        /* \"--CODEGEN--\":5:7   */\n    tag_11:\n        /* \"math/MappingChallenge.sol\":61:83  bool public isComplete */\n      pop\n      tag_12\n      jump(tag_13)\n    tag_12:\n      mload(0x40)\n      dup1\n      dup3\n      iszero\n      iszero\n      iszero\n      iszero\n      dup2\n      mstore\n      0x20\n      add\n      swap2\n      pop\n      pop\n      mload(0x40)\n      dup1\n      swap2\n      sub\n      swap1\n      return\n        /* \"math/MappingChallenge.sol\":122:330  function set(uint256 key, uint256 value) public {\r... */\n    tag_7:\n        /* \"math/MappingChallenge.sol\":242:245  key */\n      dup2\n        /* \"math/MappingChallenge.sol\":228:231  map */\n      0x1\n        /* \"math/MappingChallenge.sol\":228:238  map.length */\n      dup1\n      sload\n      swap1\n      pop\n        /* \"math/MappingChallenge.sol\":228:245  map.length <= key */\n      gt\n      iszero\n        /* \"math/MappingChallenge.sol\":224:294  if (map.length <= key) {\r... */\n      iszero\n      tag_15\n      jumpi\n        /* \"math/MappingChallenge.sol\":281:282  1 */\n      0x1\n        /* \"math/MappingChallenge.sol\":275:278  key */\n      dup3\n        /* \"math/MappingChallenge.sol\":275:282  key + 1 */\n      add\n        /* \"math/MappingChallenge.sol\":262:265  map */\n      0x1\n        /* \"math/MappingChallenge.sol\":262:282  map.length = key + 1 */\n      dup2\n      tag_16\n      swap2\n      swap1\n      jump\t// in(tag_17)\n    tag_16:\n      pop\n        /* \"math/MappingChallenge.sol\":224:294  if (map.length <= key) {\r... */\n    tag_15:\n        /* \"math/MappingChallenge.sol\":317:322  value */\n      dup1\n        /* \"math/MappingChallenge.sol\":306:309  map */\n      0x1\n        /* \"math/MappingChallenge.sol\":310:313  key */\n      dup4\n        /* \"math/MappingChallenge.sol\":306:314  map[key] */\n      dup2\n      sload\n      dup2\n      lt\n      iszero\n      iszero\n      tag_18\n      jumpi\n      invalid\n    tag_18:\n      swap1\n      0x0\n      mstore\n      keccak256(0x0, 0x20)\n      add\n        /* \"math/MappingChallenge.sol\":306:322  map[key] = value */\n      dup2\n      swap1\n      sstore\n      pop\n        /* \"math/MappingChallenge.sol\":122:330  function set(uint256 key, uint256 value) public {\r... */\n      pop\n      pop\n      jump\t// out\n        /* \"math/MappingChallenge.sol\":338:428  function get(uint256 key) public view returns (uint256) {\r... */\n    tag_10:\n        /* \"math/MappingChallenge.sol\":385:392  uint256 */\n      0x0\n        /* \"math/MappingChallenge.sol\":412:415  map */\n      0x1\n        /* \"math/MappingChallenge.sol\":416:419  key */\n      dup3\n        /* \"math/MappingChallenge.sol\":412:420  map[key] */\n      dup2\n      sload\n      dup2\n      lt\n      iszero\n      iszero\n      tag_21\n      jumpi\n      invalid\n    tag_21:\n      swap1\n      0x0\n      mstore\n      keccak256(0x0, 0x20)\n      add\n      sload\n        /* \"math/MappingChallenge.sol\":405:420  return map[key] */\n      swap1\n      pop\n        /* \"math/MappingChallenge.sol\":338:428  function get(uint256 key) public view returns (uint256) {\r... */\n      swap2\n      swap1\n      pop\n      jump\t// out\n        /* \"math/MappingChallenge.sol\":61:83  bool public isComplete */\n    tag_13:\n      0x0\n      dup1\n      swap1\n      sload\n      swap1\n      0x100\n      exp\n      swap1\n      div\n      0xff\n      and\n      dup2\n      jump\t// out\n        /* \"math/MappingChallenge.sol\":28:431  contract MappingChallenge {\r... */\n    tag_17:\n      dup2\n      sload\n      dup2\n      dup4\n      sstore\n      dup2\n      dup2\n      gt\n      iszero\n      tag_23\n      jumpi\n      dup2\n      dup4\n      0x0\n      mstore\n      keccak256(0x0, 0x20)\n      swap2\n      dup3\n      add\n      swap2\n      add\n      tag_24\n      swap2\n      swap1\n      jump\t// in(tag_25)\n    tag_24:\n    tag_23:\n      pop\n      pop\n      pop\n      jump\t// out\n    tag_25:\n      tag_26\n      swap2\n      swap1\n    tag_27:\n      dup1\n      dup3\n      gt\n      iszero\n      tag_28\n      jumpi\n      0x0\n      dup2\n      0x0\n      swap1\n      sstore\n      pop\n      0x1\n      add\n      jump(tag_27)\n    tag_28:\n      pop\n      swap1\n      jump\n    tag_26:\n      swap1\n      jump\t// out\n\n    auxdata: 0xa165627a7a7230582042a4af21e5aa5c17fdfeb9c6286c8c014ccf07bf4e1a0cf6d2bb0736187d61400029\n}\n",
				"bytecode": {
					"linkReferences": {},
					"object": "608060405234801561001057600080fd5b506101f8806100206000396000f300608060405260043610610057576000357c0100000000000000000000000000000000000000000000000000000000900463ffffffff1680631ab06ee51461005c5780639507d39a14610093578063b2fa1c9e146100d4575b600080fd5b34801561006857600080fd5b506100916004803603810190808035906020019092919080359060200190929190505050610103565b005b34801561009f57600080fd5b506100be60048036038101908080359060200190929190505050610146565b6040518082815260200191505060405180910390f35b3480156100e057600080fd5b506100e9610169565b604051808215151515815260200191505060405180910390f35b816001805490501115156101245760018201600181610122919061017b565b505b8060018381548110151561013457fe5b90600052602060002001819055505050565b600060018281548110151561015757fe5b90600052602060002001549050919050565b6000809054906101000a900460ff1681565b8154818355818111156101a2578183600052602060002091820191016101a191906101a7565b5b505050565b6101c991905b808211156101c55760008160009055506001016101ad565b5090565b905600a165627a7a7230582042a4af21e5aa5c17fdfeb9c6286c8c014ccf07bf4e1a0cf6d2bb0736187d61400029",
					"opcodes": "PUSH1 0x80 PUSH1 0x40 MSTORE CALLVALUE DUP1 ISZERO PUSH2 0x10 JUMPI PUSH1 0x0 DUP1 REVERT JUMPDEST POP PUSH2 0x1F8 DUP1 PUSH2 0x20 PUSH1 0x0 CODECOPY PUSH1 0x0 RETURN STOP PUSH1 0x80 PUSH1 0x40 MSTORE PUSH1 0x4 CALLDATASIZE LT PUSH2 0x57 JUMPI PUSH1 0x0 CALLDATALOAD PUSH29 0x100000000000000000000000000000000000000000000000000000000 SWAP1 DIV PUSH4 0xFFFFFFFF AND DUP1 PUSH4 0x1AB06EE5 EQ PUSH2 0x5C JUMPI DUP1 PUSH4 0x9507D39A EQ PUSH2 0x93 JUMPI DUP1 PUSH4 0xB2FA1C9E EQ PUSH2 0xD4 JUMPI JUMPDEST PUSH1 0x0 DUP1 REVERT JUMPDEST CALLVALUE DUP1 ISZERO PUSH2 0x68 JUMPI PUSH1 0x0 DUP1 REVERT JUMPDEST POP PUSH2 0x91 PUSH1 0x4 DUP1 CALLDATASIZE SUB DUP2 ADD SWAP1 DUP1 DUP1 CALLDATALOAD SWAP1 PUSH1 0x20 ADD SWAP1 SWAP3 SWAP2 SWAP1 DUP1 CALLDATALOAD SWAP1 PUSH1 0x20 ADD SWAP1 SWAP3 SWAP2 SWAP1 POP POP POP PUSH2 0x103 JUMP JUMPDEST STOP JUMPDEST CALLVALUE DUP1 ISZERO PUSH2 0x9F JUMPI PUSH1 0x0 DUP1 REVERT JUMPDEST POP PUSH2 0xBE PUSH1 0x4 DUP1 CALLDATASIZE SUB DUP2 ADD SWAP1 DUP1 DUP1 CALLDATALOAD SWAP1 PUSH1 0x20 ADD SWAP1 SWAP3 SWAP2 SWAP1 POP POP POP PUSH2 0x146 JUMP JUMPDEST PUSH1 0x40 MLOAD DUP1 DUP3 DUP2 MSTORE PUSH1 0x20 ADD SWAP2 POP POP PUSH1 0x40 MLOAD DUP1 SWAP2 SUB SWAP1 RETURN JUMPDEST CALLVALUE DUP1 ISZERO PUSH2 0xE0 JUMPI PUSH1 0x0 DUP1 REVERT JUMPDEST POP PUSH2 0xE9 PUSH2 0x169 JUMP JUMPDEST PUSH1 0x40 MLOAD DUP1 DUP3 ISZERO ISZERO ISZERO ISZERO DUP2 MSTORE PUSH1 0x20 ADD SWAP2 POP POP PUSH1 0x40 MLOAD DUP1 SWAP2 SUB SWAP1 RETURN JUMPDEST DUP2 PUSH1 0x1 DUP1 SLOAD SWAP1 POP GT ISZERO ISZERO PUSH2 0x124 JUMPI PUSH1 0x1 DUP3 ADD PUSH1 0x1 DUP2 PUSH2 0x122 SWAP2 SWAP1 PUSH2 0x17B JUMP JUMPDEST POP JUMPDEST DUP1 PUSH1 0x1 DUP4 DUP2 SLOAD DUP2 LT ISZERO ISZERO PUSH2 0x134 JUMPI INVALID JUMPDEST SWAP1 PUSH1 0x0 MSTORE PUSH1 0x20 PUSH1 0x0 KECCAK256 ADD DUP2 SWAP1 SSTORE POP POP POP JUMP JUMPDEST PUSH1 0x0 PUSH1 0x1 DUP3 DUP2 SLOAD DUP2 LT ISZERO ISZERO PUSH2 0x157 JUMPI INVALID JUMPDEST SWAP1 PUSH1 0x0 MSTORE PUSH1 0x20 PUSH1 0x0 KECCAK256 ADD SLOAD SWAP1 POP SWAP2 SWAP1 POP JUMP JUMPDEST PUSH1 0x0 DUP1 SWAP1 SLOAD SWAP1 PUSH2 0x100 EXP SWAP1 DIV PUSH1 0xFF AND DUP2 JUMP JUMPDEST DUP2 SLOAD DUP2 DUP4 SSTORE DUP2 DUP2 GT ISZERO PUSH2 0x1A2 JUMPI DUP2 DUP4 PUSH1 0x0 MSTORE PUSH1 0x20 PUSH1 0x0 KECCAK256 SWAP2 DUP3 ADD SWAP2 ADD PUSH2 0x1A1 SWAP2 SWAP1 PUSH2 0x1A7 JUMP JUMPDEST JUMPDEST POP POP POP JUMP JUMPDEST PUSH2 0x1C9 SWAP2 SWAP1 JUMPDEST DUP1 DUP3 GT ISZERO PUSH2 0x1C5 JUMPI PUSH1 0x0 DUP2 PUSH1 0x0 SWAP1 SSTORE POP PUSH1 0x1 ADD PUSH2 0x1AD JUMP JUMPDEST POP SWAP1 JUMP JUMPDEST SWAP1 JUMP STOP LOG1 PUSH6 0x627A7A723058 KECCAK256 TIMESTAMP LOG4 0xaf 0x21 0xe5 0xaa 0x5c OR REVERT INVALID 0xb9 0xc6 0x28 PUSH13 0x8C014CCF07BF4E1A0CF6D2BB07 CALLDATASIZE XOR PUSH30 0x614000290000000000000000000000000000000000000000000000000000 "
				},
				"gasEstimates": {
					"creation": {
						"codeDepositCost": "100800",
						"executionCost": "147",
						"totalCost": "100947"
					},
					"external": {
						"get(uint256)": "771",
						"isComplete()": "486",
						"set(uint256,uint256)": "infinite"
					}
				},
				"methodIdentifiers": {
					"get(uint256)": "9507d39a",
					"isComplete()": "b2fa1c9e",
					"set(uint256,uint256)": "1ab06ee5"
				}
			},
			"userdoc": {
				"methods": {}
			}
		}
	}
}