{
	"math/TokenSaleChallenge.sol": {
		"TokenSaleChallenge": {
			"abi": [
				{
					"constant": true,
					"inputs": [
						{
							"name": "",
							"type": "address"
						}
					],
					"name": "balanceOf",
					"outputs": [
						{
							"name": "",
							"type": "uint256"
						}
					],
					"payable": false,
					"stateMutability": "view",
					"type": "function"
				},
				{
					"constant": true,
					"inputs": [],
					"name": "isComplete",
					"outputs": [
						{
							"name": "",
							"type": "bool"
						}
					],
					"payable": false,
					"stateMutability": "view",
					"type": "function"
				},
				{
					"constant": false,
					"inputs": [
						{
							"name": "numTokens",
							"type": "uint256"
						}
					],
					"name": "buy",
					"outputs": [],
					"payable": true,
					"stateMutability": "payable",
					"type": "function"
				},
				{
					"constant": false,
					"inputs": [
						{
							"name": "numTokens",
							"type": "uint256"
						}
					],
					"name": "sell",
					"outputs": [],
					"payable": false,
					"stateMutability": "nonpayable",
					"type": "function"
				},
				{
					"inputs": [
						{
							"name": "_player",
							"type": "address"
						}
					],
					"payable": true,
					"stateMutability": "payable",
					"type": "constructor"
				}
			],
			"devdoc": {
				"methods": {}
			},
			"evm": {
				"assembly": "    /* \"math/TokenSaleChallenge.sol\":28:776  contract TokenSaleChallenge {\r... */\n  mstore(0x40, 0x80)\n    /* \"math/TokenSaleChallenge.sol\":165:273  function TokenSaleChallenge(address _player) public payable {\r... */\n  mload(0x40)\n  0x20\n  dup1\n  bytecodeSize\n  dup4\n  codecopy\n  dup2\n  add\n  dup1\n  0x40\n  mstore\n  dup2\n  add\n  swap1\n  dup1\n  dup1\n  mload\n  swap1\n  0x20\n  add\n  swap1\n  swap3\n  swap2\n  swap1\n  pop\n  pop\n  pop\n    /* \"math/TokenSaleChallenge.sol\":257:264  1 ether */\n  0xde0b6b3a7640000\n    /* \"math/TokenSaleChallenge.sol\":244:253  msg.value */\n  callvalue\n    /* \"math/TokenSaleChallenge.sol\":244:264  msg.value == 1 ether */\n  eq\n    /* \"math/TokenSaleChallenge.sol\":236:265  require(msg.value == 1 ether) */\n  iszero\n  iszero\n  tag_3\n  jumpi\n  0x0\n  dup1\n  revert\ntag_3:\n    /* \"math/TokenSaleChallenge.sol\":165:273  function TokenSaleChallenge(address _player) public payable {\r... */\n  pop\n    /* \"math/TokenSaleChallenge.sol\":28:776  contract TokenSaleChallenge {\r... */\n  dataSize(sub_0)\n  dup1\n  dataOffset(sub_0)\n  0x0\n  codecopy\n  0x0\n  return\nstop\n\nsub_0: assembly {\n        /* \"math/TokenSaleChallenge.sol\":28:776  contract TokenSaleChallenge {\r... */\n      mstore(0x40, 0x80)\n      jumpi(tag_1, lt(calldatasize, 0x4))\n      calldataload(0x0)\n      0x100000000000000000000000000000000000000000000000000000000\n      swap1\n      div\n      0xffffffff\n      and\n      dup1\n      0x70a08231\n      eq\n      tag_2\n      jumpi\n      dup1\n      0xb2fa1c9e\n      eq\n      tag_3\n      jumpi\n      dup1\n      0xd96a094a\n      eq\n      tag_4\n      jumpi\n      dup1\n      0xe4849b32\n      eq\n      tag_5\n      jumpi\n    tag_1:\n      0x0\n      dup1\n      revert\n        /* \"math/TokenSaleChallenge.sol\":63:107  mapping(address => uint256) public balanceOf */\n    tag_2:\n      callvalue\n        /* \"--CODEGEN--\":8:17   */\n      dup1\n        /* \"--CODEGEN--\":5:7   */\n      iszero\n      tag_6\n      jumpi\n        /* \"--CODEGEN--\":30:31   */\n      0x0\n        /* \"--CODEGEN--\":27:28   */\n      dup1\n        /* \"--CODEGEN--\":20:32   */\n      revert\n        /* \"--CODEGEN--\":5:7   */\n    tag_6:\n        /* \"math/TokenSaleChallenge.sol\":63:107  mapping(address => uint256) public balanceOf */\n      pop\n      tag_7\n      0x4\n      dup1\n      calldatasize\n      sub\n      dup2\n      add\n      swap1\n      dup1\n      dup1\n      calldataload\n      0xffffffffffffffffffffffffffffffffffffffff\n      and\n      swap1\n      0x20\n      add\n      swap1\n      swap3\n      swap2\n      swap1\n      pop\n      pop\n      pop\n      jump(tag_8)\n    tag_7:\n      mload(0x40)\n      dup1\n      dup3\n      dup2\n      mstore\n      0x20\n      add\n      swap2\n      pop\n      pop\n      mload(0x40)\n      dup1\n      swap2\n      sub\n      swap1\n      return\n        /* \"math/TokenSaleChallenge.sol\":281:387  function isComplete() public view returns (bool) {\r... */\n    tag_3:\n      callvalue\n        /* \"--CODEGEN--\":8:17   */\n      dup1\n        /* \"--CODEGEN--\":5:7   */\n      iszero\n      tag_9\n      jumpi\n        /* \"--CODEGEN--\":30:31   */\n      0x0\n        /* \"--CODEGEN--\":27:28   */\n      dup1\n        /* \"--CODEGEN--\":20:32   */\n      revert\n        /* \"--CODEGEN--\":5:7   */\n    tag_9:\n        /* \"math/TokenSaleChallenge.sol\":281:387  function isComplete() public view returns (bool) {\r... */\n      pop\n      tag_10\n      jump(tag_11)\n    tag_10:\n      mload(0x40)\n      dup1\n      dup3\n      iszero\n      iszero\n      iszero\n      iszero\n      dup2\n      mstore\n      0x20\n      add\n      swap2\n      pop\n      pop\n      mload(0x40)\n      dup1\n      swap2\n      sub\n      swap1\n      return\n        /* \"math/TokenSaleChallenge.sol\":395:557  function buy(uint256 numTokens) public payable {\r... */\n    tag_4:\n      tag_12\n      0x4\n      dup1\n      calldatasize\n      sub\n      dup2\n      add\n      swap1\n      dup1\n      dup1\n      calldataload\n      swap1\n      0x20\n      add\n      swap1\n      swap3\n      swap2\n      swap1\n      pop\n      pop\n      pop\n      jump(tag_13)\n    tag_12:\n      stop\n        /* \"math/TokenSaleChallenge.sol\":565:773  function sell(uint256 numTokens) public {\r... */\n    tag_5:\n      callvalue\n        /* \"--CODEGEN--\":8:17   */\n      dup1\n        /* \"--CODEGEN--\":5:7   */\n      iszero\n      tag_14\n      jumpi\n        /* \"--CODEGEN--\":30:31   */\n      0x0\n        /* \"--CODEGEN--\":27:28   */\n      dup1\n        /* \"--CODEGEN--\":20:32   */\n      revert\n        /* \"--CODEGEN--\":5:7   */\n    tag_14:\n        /* \"math/TokenSaleChallenge.sol\":565:773  function sell(uint256 numTokens) public {\r... */\n      pop\n      tag_15\n      0x4\n      dup1\n      calldatasize\n      sub\n      dup2\n      add\n      swap1\n      dup1\n      dup1\n      calldataload\n      swap1\n      0x20\n      add\n      swap1\n      swap3\n      swap2\n      swap1\n      pop\n      pop\n      pop\n      jump(tag_16)\n    tag_15:\n      stop\n        /* \"math/TokenSaleChallenge.sol\":63:107  mapping(address => uint256) public balanceOf */\n    tag_8:\n      mstore(0x20, 0x0)\n      dup1\n      0x0\n      mstore\n      keccak256(0x0, 0x40)\n      0x0\n      swap2\n      pop\n      swap1\n      pop\n      sload\n      dup2\n      jump\t// out\n        /* \"math/TokenSaleChallenge.sol\":281:387  function isComplete() public view returns (bool) {\r... */\n    tag_11:\n        /* \"math/TokenSaleChallenge.sol\":324:328  bool */\n      0x0\n        /* \"math/TokenSaleChallenge.sol\":372:379  1 ether */\n      0xde0b6b3a7640000\n        /* \"math/TokenSaleChallenge.sol\":356:360  this */\n      address\n        /* \"math/TokenSaleChallenge.sol\":348:369  address(this).balance */\n      0xffffffffffffffffffffffffffffffffffffffff\n      and\n      balance\n        /* \"math/TokenSaleChallenge.sol\":348:379  address(this).balance < 1 ether */\n      lt\n        /* \"math/TokenSaleChallenge.sol\":341:379  return address(this).balance < 1 ether */\n      swap1\n      pop\n        /* \"math/TokenSaleChallenge.sol\":281:387  function isComplete() public view returns (bool) {\r... */\n      swap1\n      jump\t// out\n        /* \"math/TokenSaleChallenge.sol\":395:557  function buy(uint256 numTokens) public payable {\r... */\n    tag_13:\n        /* \"math/TokenSaleChallenge.sol\":149:156  1 ether */\n      0xde0b6b3a7640000\n        /* \"math/TokenSaleChallenge.sol\":474:483  numTokens */\n      dup2\n        /* \"math/TokenSaleChallenge.sol\":474:501  numTokens * PRICE_PER_TOKEN */\n      mul\n        /* \"math/TokenSaleChallenge.sol\":461:470  msg.value */\n      callvalue\n        /* \"math/TokenSaleChallenge.sol\":461:501  msg.value == numTokens * PRICE_PER_TOKEN */\n      eq\n        /* \"math/TokenSaleChallenge.sol\":453:502  require(msg.value == numTokens * PRICE_PER_TOKEN) */\n      iszero\n      iszero\n      tag_19\n      jumpi\n      0x0\n      dup1\n      revert\n    tag_19:\n        /* \"math/TokenSaleChallenge.sol\":540:549  numTokens */\n      dup1\n        /* \"math/TokenSaleChallenge.sol\":515:524  balanceOf */\n      0x0\n        /* \"math/TokenSaleChallenge.sol\":515:536  balanceOf[msg.sender] */\n      dup1\n        /* \"math/TokenSaleChallenge.sol\":525:535  msg.sender */\n      caller\n        /* \"math/TokenSaleChallenge.sol\":515:536  balanceOf[msg.sender] */\n      0xffffffffffffffffffffffffffffffffffffffff\n      and\n      0xffffffffffffffffffffffffffffffffffffffff\n      and\n      dup2\n      mstore\n      0x20\n      add\n      swap1\n      dup2\n      mstore\n      0x20\n      add\n      0x0\n      keccak256\n      0x0\n        /* \"math/TokenSaleChallenge.sol\":515:549  balanceOf[msg.sender] += numTokens */\n      dup3\n      dup3\n      sload\n      add\n      swap3\n      pop\n      pop\n      dup2\n      swap1\n      sstore\n      pop\n        /* \"math/TokenSaleChallenge.sol\":395:557  function buy(uint256 numTokens) public payable {\r... */\n      pop\n      jump\t// out\n        /* \"math/TokenSaleChallenge.sol\":565:773  function sell(uint256 numTokens) public {\r... */\n    tag_16:\n        /* \"math/TokenSaleChallenge.sol\":649:658  numTokens */\n      dup1\n        /* \"math/TokenSaleChallenge.sol\":624:633  balanceOf */\n      0x0\n        /* \"math/TokenSaleChallenge.sol\":624:645  balanceOf[msg.sender] */\n      dup1\n        /* \"math/TokenSaleChallenge.sol\":634:644  msg.sender */\n      caller\n        /* \"math/TokenSaleChallenge.sol\":624:645  balanceOf[msg.sender] */\n      0xffffffffffffffffffffffffffffffffffffffff\n      and\n      0xffffffffffffffffffffffffffffffffffffffff\n      and\n      dup2\n      mstore\n      0x20\n      add\n      swap1\n      dup2\n      mstore\n      0x20\n      add\n      0x0\n      keccak256\n      sload\n        /* \"math/TokenSaleChallenge.sol\":624:658  balanceOf[msg.sender] >= numTokens */\n      lt\n      iszero\n        /* \"math/TokenSaleChallenge.sol\":616:659  require(balanceOf[msg.sender] >= numTokens) */\n      iszero\n      iszero\n      tag_21\n      jumpi\n      0x0\n      dup1\n      revert\n    tag_21:\n        /* \"math/TokenSaleChallenge.sol\":697:706  numTokens */\n      dup1\n        /* \"math/TokenSaleChallenge.sol\":672:681  balanceOf */\n      0x0\n        /* \"math/TokenSaleChallenge.sol\":672:693  balanceOf[msg.sender] */\n      dup1\n        /* \"math/TokenSaleChallenge.sol\":682:692  msg.sender */\n      caller\n        /* \"math/TokenSaleChallenge.sol\":672:693  balanceOf[msg.sender] */\n      0xffffffffffffffffffffffffffffffffffffffff\n      and\n      0xffffffffffffffffffffffffffffffffffffffff\n      and\n      dup2\n      mstore\n      0x20\n      add\n      swap1\n      dup2\n      mstore\n      0x20\n      add\n      0x0\n      keccak256\n      0x0\n        /* \"math/TokenSaleChallenge.sol\":672:706  balanceOf[msg.sender] -= numTokens */\n      dup3\n      dup3\n      sload\n      sub\n      swap3\n      pop\n      pop\n      dup2\n      swap1\n      sstore\n      pop\n        /* \"math/TokenSaleChallenge.sol\":717:727  msg.sender */\n      caller\n        /* \"math/TokenSaleChallenge.sol\":717:736  msg.sender.transfer */\n      0xffffffffffffffffffffffffffffffffffffffff\n      and\n        /* \"math/TokenSaleChallenge.sol\":717:765  msg.sender.transfer(numTokens * PRICE_PER_TOKEN) */\n      0x8fc\n        /* \"math/TokenSaleChallenge.sol\":149:156  1 ether */\n      0xde0b6b3a7640000\n        /* \"math/TokenSaleChallenge.sol\":737:746  numTokens */\n      dup4\n        /* \"math/TokenSaleChallenge.sol\":737:764  numTokens * PRICE_PER_TOKEN */\n      mul\n        /* \"math/TokenSaleChallenge.sol\":717:765  msg.sender.transfer(numTokens * PRICE_PER_TOKEN) */\n      swap1\n      dup2\n      iszero\n      mul\n      swap1\n      mload(0x40)\n      0x0\n      mload(0x40)\n      dup1\n      dup4\n      sub\n      dup2\n      dup6\n      dup9\n      dup9\n      call\n      swap4\n      pop\n      pop\n      pop\n      pop\n      iszero\n        /* \"--CODEGEN--\":8:17   */\n      dup1\n        /* \"--CODEGEN--\":5:7   */\n      iszero\n      tag_22\n      jumpi\n        /* \"--CODEGEN--\":45:61   */\n      returndatasize\n        /* \"--CODEGEN--\":42:43   */\n      0x0\n        /* \"--CODEGEN--\":39:40   */\n      dup1\n        /* \"--CODEGEN--\":24:62   */\n      returndatacopy\n        /* \"--CODEGEN--\":77:93   */\n      returndatasize\n        /* \"--CODEGEN--\":74:75   */\n      0x0\n        /* \"--CODEGEN--\":67:94   */\n      revert\n        /* \"--CODEGEN--\":5:7   */\n    tag_22:\n        /* \"math/TokenSaleChallenge.sol\":717:765  msg.sender.transfer(numTokens * PRICE_PER_TOKEN) */\n      pop\n        /* \"math/TokenSaleChallenge.sol\":565:773  function sell(uint256 numTokens) public {\r... */\n      pop\n      jump\t// out\n\n    auxdata: 0xa165627a7a72305820c0202364d2828cc4f27f4ecfcc946cba3e4c40d50152a33520deace310b1b5750029\n}\n",
				"bytecode": {
					"linkReferences": {},
					"object": "608060405260405160208061034783398101806040528101908080519060200190929190505050670de0b6b3a76400003414151561003c57600080fd5b506102fb8061004c6000396000f300608060405260043610610062576000357c0100000000000000000000000000000000000000000000000000000000900463ffffffff16806370a0823114610067578063b2fa1c9e146100be578063d96a094a146100ed578063e4849b321461010d575b600080fd5b34801561007357600080fd5b506100a8600480360381019080803573ffffffffffffffffffffffffffffffffffffffff16906020019092919050505061013a565b6040518082815260200191505060405180910390f35b3480156100ca57600080fd5b506100d3610152565b604051808215151515815260200191505060405180910390f35b61010b6004803603810190808035906020019092919050505061017b565b005b34801561011957600080fd5b50610138600480360381019080803590602001909291905050506101e2565b005b60006020528060005260406000206000915090505481565b6000670de0b6b3a76400003073ffffffffffffffffffffffffffffffffffffffff163110905090565b670de0b6b3a764000081023414151561019357600080fd5b806000803373ffffffffffffffffffffffffffffffffffffffff1673ffffffffffffffffffffffffffffffffffffffff1681526020019081526020016000206000828254019250508190555050565b806000803373ffffffffffffffffffffffffffffffffffffffff1673ffffffffffffffffffffffffffffffffffffffff168152602001908152602001600020541015151561022f57600080fd5b806000803373ffffffffffffffffffffffffffffffffffffffff1673ffffffffffffffffffffffffffffffffffffffff168152602001908152602001600020600082825403925050819055503373ffffffffffffffffffffffffffffffffffffffff166108fc670de0b6b3a764000083029081150290604051600060405180830381858888f193505050501580156102cb573d6000803e3d6000fd5b50505600a165627a7a72305820c0202364d2828cc4f27f4ecfcc946cba3e4c40d50152a33520deace310b1b5750029",
					"opcodes": "PUSH1 0x80 PUSH1 0x40 MSTORE PUSH1 0x40 MLOAD PUSH1 0x20 DUP1 PUSH2 0x347 DUP4 CODECOPY DUP2 ADD DUP1 PUSH1 0x40 MSTORE DUP2 ADD SWAP1 DUP1 DUP1 MLOAD SWAP1 PUSH1 0x20 ADD SWAP1 SWAP3 SWAP2 SWAP1 POP POP POP PUSH8 0xDE0B6B3A7640000 CALLVALUE EQ ISZERO ISZERO PUSH2 0x3C JUMPI PUSH1 0x0 DUP1 REVERT JUMPDEST POP PUSH2 0x2FB DUP1 PUSH2 0x4C PUSH1 0x0 CODECOPY PUSH1 0x0 RETURN STOP PUSH1 0x80 PUSH1 0x40 MSTORE PUSH1 0x4 CALLDATASIZE LT PUSH2 0x62 JUMPI PUSH1 0x0 CALLDATALOAD PUSH29 0x100000000000000000000000000000000000000000000000000000000 SWAP1 DIV PUSH4 0xFFFFFFFF AND DUP1 PUSH4 0x70A08231 EQ PUSH2 0x67 JUMPI DUP1 PUSH4 0xB2FA1C9E EQ PUSH2 0xBE JUMPI DUP1 PUSH4 0xD96A094A EQ PUSH2 0xED JUMPI DUP1 PUSH4 0xE4849B32 EQ PUSH2 0x10D JUMPI JUMPDEST PUSH1 0x0 DUP1 REVERT JUMPDEST CALLVALUE DUP1 ISZERO PUSH2 0x73 JUMPI PUSH1 0x0 DUP1 REVERT JUMPDEST POP PUSH2 0xA8 PUSH1 0x4 DUP1 CALLDATASIZE SUB DUP2 ADD SWAP1 DUP1 DUP1 CALLDATALOAD PUSH20 0xFFFFFFFFFFFFFFFFFFFFFFFFFFFFFFFFFFFFFFFF AND SWAP1 PUSH1 0x20 ADD SWAP1 SWAP3 SWAP2 SWAP1 POP POP POP PUSH2 0x13A JUMP JUMPDEST PUSH1 0x40 MLOAD DUP1 DUP3 DUP2 MSTORE PUSH1 0x20 ADD SWAP2 POP POP PUSH1 0x40 MLOAD DUP1 SWAP2 SUB SWAP1 RETURN JUMPDEST CALLVALUE DUP1 ISZERO PUSH2 0xCA JUMPI PUSH1 0x0 DUP1 REVERT JUMPDEST POP PUSH2 0xD3 PUSH2 0x152 JUMP JUMPDEST PUSH1 0x40 MLOAD DUP1 DUP3 ISZERO ISZERO ISZERO ISZERO DUP2 MSTORE PUSH1 0x20 ADD SWAP2 POP POP PUSH1 0x40 MLOAD DUP1 SWAP2 SUB SWAP1 RETURN JUMPDEST PUSH2 0x10B PUSH1 0x4 DUP1 CALLDATASIZE SUB DUP2 ADD SWAP1 DUP1 DUP1 CALLDATALOAD SWAP1 PUSH1 0x20 ADD SWAP1 SWAP3 SWAP2 SWAP1 POP POP POP PUSH2 0x17B JUMP JUMPDEST STOP JUMPDEST CALLVALUE DUP1 ISZERO PUSH2 0x119 JUMPI PUSH1 0x0 DUP1 REVERT JUMPDEST POP PUSH2 0x138 PUSH1 0x4 DUP1 CALLDATASIZE SUB DUP2 ADD SWAP1 DUP1 DUP1 CALLDATALOAD SWAP1 PUSH1 0x20 ADD SWAP1 SWAP3 SWAP2 SWAP1 POP POP POP PUSH2 0x1E2 JUMP JUMPDEST STOP JUMPDEST PUSH1 0x0 PUSH1 0x20 MSTORE DUP1 PUSH1 0x0 MSTORE PUSH1 0x40 PUSH1 0x0 KECCAK256 PUSH1 0x0 SWAP2 POP SWAP1 POP SLOAD DUP2 JUMP JUMPDEST PUSH1 0x0 PUSH8 0xDE0B6B3A7640000 ADDRESS PUSH20 0xFFFFFFFFFFFFFFFFFFFFFFFFFFFFFFFFFFFFFFFF AND BALANCE LT SWAP1 POP SWAP1 JUMP JUMPDEST PUSH8 0xDE0B6B3A7640000 DUP2 MUL CALLVALUE EQ ISZERO ISZERO PUSH2 0x193 JUMPI PUSH1 0x0 DUP1 REVERT JUMPDEST DUP1 PUSH1 0x0 DUP1 CALLER PUSH20 0xFFFFFFFFFFFFFFFFFFFFFFFFFFFFFFFFFFFFFFFF AND PUSH20 0xFFFFFFFFFFFFFFFFFFFFFFFFFFFFFFFFFFFFFFFF AND DUP2 MSTORE PUSH1 0x20 ADD SWAP1 DUP2 MSTORE PUSH1 0x20 ADD PUSH1 0x0 KECCAK256 PUSH1 0x0 DUP3 DUP3 SLOAD ADD SWAP3 POP POP DUP2 SWAP1 SSTORE POP POP JUMP JUMPDEST DUP1 PUSH1 0x0 DUP1 CALLER PUSH20 0xFFFFFFFFFFFFFFFFFFFFFFFFFFFFFFFFFFFFFFFF AND PUSH20 0xFFFFFFFFFFFFFFFFFFFFFFFFFFFFFFFFFFFFFFFF AND DUP2 MSTORE PUSH1 0x20 ADD SWAP1 DUP2 MSTORE PUSH1 0x20 ADD PUSH1 0x0 KECCAK256 SLOAD LT ISZERO ISZERO ISZERO PUSH2 0x22F JUMPI PUSH1 0x0 DUP1 REVERT JUMPDEST DUP1 PUSH1 0x0 DUP1 CALLER PUSH20 0xFFFFFFFFFFFFFFFFFFFFFFFFFFFFFFFFFFFFFFFF AND PUSH20 0xFFFFFFFFFFFFFFFFFFFFFFFFFFFFFFFFFFFFFFFF AND DUP2 MSTORE PUSH1 0x20 ADD SWAP1 DUP2 MSTORE PUSH1 0x20 ADD PUSH1 0x0 KECCAK256 PUSH1 0x0 DUP3 DUP3 SLOAD SUB SWAP3 POP POP DUP2 SWAP1 SSTORE POP CALLER PUSH20 0xFFFFFFFFFFFFFFFFFFFFFFFFFFFFFFFFFFFFFFFF AND PUSH2 0x8FC PUSH8 0xDE0B6B3A7640000 DUP4 MUL SWAP1 DUP2 ISZERO MUL SWAP1 PUSH1 0x40 MLOAD PUSH1 0x0 PUSH1 0x40 MLOAD DUP1 DUP4 SUB DUP2 DUP6 DUP9 DUP9 CALL SWAP4 POP POP POP POP ISZERO DUP1 ISZERO PUSH2 0x2CB JUMPI RETURNDATASIZE PUSH1 0x0 DUP1 RETURNDATACOPY RETURNDATASIZE PUSH1 0x0 REVERT JUMPDEST POP POP JUMP STOP LOG1 PUSH6 0x627A7A723058 KECCAK256 0xc0 KECCAK256 0x23 PUSH5 0xD2828CC4F2 PUSH32 0x4ECFCC946CBA3E4C40D50152A33520DEACE310B1B57500290000000000000000 "
				},
				"gasEstimates": {
					"creation": {
						"codeDepositCost": "152600",
						"executionCost": "286",
						"totalCost": "152886"
					},
					"external": {
						"balanceOf(address)": "532",
						"buy(uint256)": "20569",
						"isComplete()": "647",
						"sell(uint256)": "infinite"
					}
				},
				"methodIdentifiers": {
					"balanceOf(address)": "70a08231",
					"buy(uint256)": "d96a094a",
					"isComplete()": "b2fa1c9e",
					"sell(uint256)": "e4849b32"
				}
			},
			"userdoc": {
				"methods": {}
			}
		}
	}
}