{
	"math/FiftyYearsChallenge.sol": {
		"FiftyYearsChallenge": {
			"abi": [
				{
					"inputs": [
						{
							"internalType": "address",
							"name": "player",
							"type": "address"
						}
					],
					"stateMutability": "payable",
					"type": "constructor"
				},
				{
					"inputs": [],
					"name": "isComplete",
					"outputs": [
						{
							"internalType": "bool",
							"name": "",
							"type": "bool"
						}
					],
					"stateMutability": "view",
					"type": "function"
				},
				{
					"inputs": [
						{
							"internalType": "uint256",
							"name": "index",
							"type": "uint256"
						},
						{
							"internalType": "uint256",
							"name": "timestamp",
							"type": "uint256"
						}
					],
					"name": "upsert",
					"outputs": [],
					"stateMutability": "payable",
					"type": "function"
				},
				{
					"inputs": [
						{
							"internalType": "uint256",
							"name": "index",
							"type": "uint256"
						}
					],
					"name": "withdraw",
					"outputs": [],
					"stateMutability": "nonpayable",
					"type": "function"
				}
			],
			"devdoc": {
				"kind": "dev",
				"methods": {},
				"version": 1
			},
			"evm": {
				"assembly": "    /* \"math/FiftyYearsChallenge.sol\":61:1924  contract FiftyYearsChallenge {... */\n  mstore(0x40, 0x80)\n    /* \"math/FiftyYearsChallenge.sol\":258:444  constructor(address player) payable{... */\n  mload(0x40)\n  sub(codesize, bytecodeSize)\n  dup1\n  bytecodeSize\n  dup4\n  codecopy\n  dup2\n  dup2\n  add\n  0x40\n  mstore\n  dup2\n  add\n  swap1\n  tag_1\n  swap2\n  swap1\n  tag_2\n  jump\t// in\ntag_1:\n    /* \"math/FiftyYearsChallenge.sol\":325:332  1 ether */\n  0x0de0b6b3a7640000\n    /* \"math/FiftyYearsChallenge.sol\":312:321  msg.value */\n  callvalue\n    /* \"math/FiftyYearsChallenge.sol\":312:332  msg.value == 1 ether */\n  eq\n    /* \"math/FiftyYearsChallenge.sol\":304:333  require(msg.value == 1 ether) */\n  tag_5\n  jumpi\n  0x00\n  dup1\n  revert\ntag_5:\n    /* \"math/FiftyYearsChallenge.sol\":354:360  player */\n  dup1\n    /* \"math/FiftyYearsChallenge.sol\":346:351  owner */\n  0x02\n  0x00\n    /* \"math/FiftyYearsChallenge.sol\":346:360  owner = player */\n  0x0100\n  exp\n  dup2\n  sload\n  dup2\n  0xffffffffffffffffffffffffffffffffffffffff\n  mul\n  not\n  and\n  swap1\n  dup4\n  0xffffffffffffffffffffffffffffffffffffffff\n  and\n  mul\n  or\n  swap1\n  sstore\n  pop\n    /* \"math/FiftyYearsChallenge.sol\":371:376  queue */\n  0x00\n    /* \"math/FiftyYearsChallenge.sol\":382:435  Contribution(msg.value, block.timestamp + 18250 days) */\n  mload(0x40)\n  dup1\n  0x40\n  add\n  0x40\n  mstore\n  dup1\n    /* \"math/FiftyYearsChallenge.sol\":395:404  msg.value */\n  callvalue\n    /* \"math/FiftyYearsChallenge.sol\":382:435  Contribution(msg.value, block.timestamp + 18250 days) */\n  dup2\n  mstore\n  0x20\n  add\n    /* \"math/FiftyYearsChallenge.sol\":424:434  18250 days */\n  0x5dfc0f00\n    /* \"math/FiftyYearsChallenge.sol\":406:421  block.timestamp */\n  timestamp\n    /* \"math/FiftyYearsChallenge.sol\":406:434  block.timestamp + 18250 days */\n  tag_6\n  swap2\n  swap1\n  tag_7\n  jump\t// in\ntag_6:\n    /* \"math/FiftyYearsChallenge.sol\":382:435  Contribution(msg.value, block.timestamp + 18250 days) */\n  dup2\n  mstore\n  pop\n    /* \"math/FiftyYearsChallenge.sol\":371:436  queue.push(Contribution(msg.value, block.timestamp + 18250 days)) */\n  swap1\n  dup1\n  0x01\n  dup2\n  sload\n  add\n  dup1\n  dup3\n  sstore\n  dup1\n  swap2\n  pop\n  pop\n  0x01\n  swap1\n  sub\n  swap1\n  0x00\n  mstore\n  keccak256(0x00, 0x20)\n  swap1\n  0x02\n  mul\n  add\n  0x00\n  swap1\n  swap2\n  swap1\n  swap2\n  swap1\n  swap2\n  pop\n  0x00\n  dup3\n  add\n  mload\n  dup2\n  0x00\n  add\n  sstore\n  0x20\n  dup3\n  add\n  mload\n  dup2\n  0x01\n  add\n  sstore\n  pop\n  pop\n    /* \"math/FiftyYearsChallenge.sol\":258:444  constructor(address player) payable{... */\n  pop\n    /* \"math/FiftyYearsChallenge.sol\":61:1924  contract FiftyYearsChallenge {... */\n  jump(tag_9)\n    /* \"#utility.yul\":88:205   */\ntag_11:\n    /* \"#utility.yul\":197:198   */\n  0x00\n    /* \"#utility.yul\":194:195   */\n  dup1\n    /* \"#utility.yul\":187:199   */\n  revert\n    /* \"#utility.yul\":334:460   */\ntag_13:\n    /* \"#utility.yul\":371:378   */\n  0x00\n    /* \"#utility.yul\":411:453   */\n  0xffffffffffffffffffffffffffffffffffffffff\n    /* \"#utility.yul\":404:409   */\n  dup3\n    /* \"#utility.yul\":400:454   */\n  and\n    /* \"#utility.yul\":389:454   */\n  swap1\n  pop\n    /* \"#utility.yul\":334:460   */\n  swap2\n  swap1\n  pop\n  jump\t// out\n    /* \"#utility.yul\":466:562   */\ntag_14:\n    /* \"#utility.yul\":503:510   */\n  0x00\n    /* \"#utility.yul\":532:556   */\n  tag_25\n    /* \"#utility.yul\":550:555   */\n  dup3\n    /* \"#utility.yul\":532:556   */\n  tag_13\n  jump\t// in\ntag_25:\n    /* \"#utility.yul\":521:556   */\n  swap1\n  pop\n    /* \"#utility.yul\":466:562   */\n  swap2\n  swap1\n  pop\n  jump\t// out\n    /* \"#utility.yul\":568:690   */\ntag_15:\n    /* \"#utility.yul\":641:665   */\n  tag_27\n    /* \"#utility.yul\":659:664   */\n  dup2\n    /* \"#utility.yul\":641:665   */\n  tag_14\n  jump\t// in\ntag_27:\n    /* \"#utility.yul\":634:639   */\n  dup2\n    /* \"#utility.yul\":631:666   */\n  eq\n    /* \"#utility.yul\":621:684   */\n  tag_28\n  jumpi\n    /* \"#utility.yul\":680:681   */\n  0x00\n    /* \"#utility.yul\":677:678   */\n  dup1\n    /* \"#utility.yul\":670:682   */\n  revert\n    /* \"#utility.yul\":621:684   */\ntag_28:\n    /* \"#utility.yul\":568:690   */\n  pop\n  jump\t// out\n    /* \"#utility.yul\":696:839   */\ntag_16:\n    /* \"#utility.yul\":753:758   */\n  0x00\n    /* \"#utility.yul\":784:790   */\n  dup2\n    /* \"#utility.yul\":778:791   */\n  mload\n    /* \"#utility.yul\":769:791   */\n  swap1\n  pop\n    /* \"#utility.yul\":800:833   */\n  tag_30\n    /* \"#utility.yul\":827:832   */\n  dup2\n    /* \"#utility.yul\":800:833   */\n  tag_15\n  jump\t// in\ntag_30:\n    /* \"#utility.yul\":696:839   */\n  swap3\n  swap2\n  pop\n  pop\n  jump\t// out\n    /* \"#utility.yul\":845:1196   */\ntag_2:\n    /* \"#utility.yul\":915:921   */\n  0x00\n    /* \"#utility.yul\":964:966   */\n  0x20\n    /* \"#utility.yul\":952:961   */\n  dup3\n    /* \"#utility.yul\":943:950   */\n  dup5\n    /* \"#utility.yul\":939:962   */\n  sub\n    /* \"#utility.yul\":935:967   */\n  slt\n    /* \"#utility.yul\":932:1051   */\n  iszero\n  tag_32\n  jumpi\n    /* \"#utility.yul\":970:1049   */\n  tag_33\n  tag_11\n  jump\t// in\ntag_33:\n    /* \"#utility.yul\":932:1051   */\ntag_32:\n    /* \"#utility.yul\":1090:1091   */\n  0x00\n    /* \"#utility.yul\":1115:1179   */\n  tag_34\n    /* \"#utility.yul\":1171:1178   */\n  dup5\n    /* \"#utility.yul\":1162:1168   */\n  dup3\n    /* \"#utility.yul\":1151:1160   */\n  dup6\n    /* \"#utility.yul\":1147:1169   */\n  add\n    /* \"#utility.yul\":1115:1179   */\n  tag_16\n  jump\t// in\ntag_34:\n    /* \"#utility.yul\":1105:1179   */\n  swap2\n  pop\n    /* \"#utility.yul\":1061:1189   */\n  pop\n    /* \"#utility.yul\":845:1196   */\n  swap3\n  swap2\n  pop\n  pop\n  jump\t// out\n    /* \"#utility.yul\":1202:1279   */\ntag_17:\n    /* \"#utility.yul\":1239:1246   */\n  0x00\n    /* \"#utility.yul\":1268:1273   */\n  dup2\n    /* \"#utility.yul\":1257:1273   */\n  swap1\n  pop\n    /* \"#utility.yul\":1202:1279   */\n  swap2\n  swap1\n  pop\n  jump\t// out\n    /* \"#utility.yul\":1285:1465   */\ntag_18:\n    /* \"#utility.yul\":1333:1410   */\n  0x4e487b7100000000000000000000000000000000000000000000000000000000\n    /* \"#utility.yul\":1330:1331   */\n  0x00\n    /* \"#utility.yul\":1323:1411   */\n  mstore\n    /* \"#utility.yul\":1430:1434   */\n  0x11\n    /* \"#utility.yul\":1427:1428   */\n  0x04\n    /* \"#utility.yul\":1420:1435   */\n  mstore\n    /* \"#utility.yul\":1454:1458   */\n  0x24\n    /* \"#utility.yul\":1451:1452   */\n  0x00\n    /* \"#utility.yul\":1444:1459   */\n  revert\n    /* \"#utility.yul\":1471:1776   */\ntag_7:\n    /* \"#utility.yul\":1511:1514   */\n  0x00\n    /* \"#utility.yul\":1530:1550   */\n  tag_38\n    /* \"#utility.yul\":1548:1549   */\n  dup3\n    /* \"#utility.yul\":1530:1550   */\n  tag_17\n  jump\t// in\ntag_38:\n    /* \"#utility.yul\":1525:1550   */\n  swap2\n  pop\n    /* \"#utility.yul\":1564:1584   */\n  tag_39\n    /* \"#utility.yul\":1582:1583   */\n  dup4\n    /* \"#utility.yul\":1564:1584   */\n  tag_17\n  jump\t// in\ntag_39:\n    /* \"#utility.yul\":1559:1584   */\n  swap3\n  pop\n    /* \"#utility.yul\":1718:1719   */\n  dup3\n    /* \"#utility.yul\":1650:1716   */\n  0xffffffffffffffffffffffffffffffffffffffffffffffffffffffffffffffff\n    /* \"#utility.yul\":1646:1720   */\n  sub\n    /* \"#utility.yul\":1643:1644   */\n  dup3\n    /* \"#utility.yul\":1640:1721   */\n  gt\n    /* \"#utility.yul\":1637:1744   */\n  iszero\n  tag_40\n  jumpi\n    /* \"#utility.yul\":1724:1742   */\n  tag_41\n  tag_18\n  jump\t// in\ntag_41:\n    /* \"#utility.yul\":1637:1744   */\ntag_40:\n    /* \"#utility.yul\":1768:1769   */\n  dup3\n    /* \"#utility.yul\":1765:1766   */\n  dup3\n    /* \"#utility.yul\":1761:1770   */\n  add\n    /* \"#utility.yul\":1754:1770   */\n  swap1\n  pop\n    /* \"#utility.yul\":1471:1776   */\n  swap3\n  swap2\n  pop\n  pop\n  jump\t// out\n    /* \"math/FiftyYearsChallenge.sol\":61:1924  contract FiftyYearsChallenge {... */\ntag_9:\n  dataSize(sub_0)\n  dup1\n  dataOffset(sub_0)\n  0x00\n  codecopy\n  0x00\n  return\nstop\n\nsub_0: assembly {\n        /* \"math/FiftyYearsChallenge.sol\":61:1924  contract FiftyYearsChallenge {... */\n      mstore(0x40, 0x80)\n      jumpi(tag_1, lt(calldatasize, 0x04))\n      shr(0xe0, calldataload(0x00))\n      dup1\n      0x2e1a7d4d\n      eq\n      tag_2\n      jumpi\n      dup1\n      0x3b8f718a\n      eq\n      tag_3\n      jumpi\n      dup1\n      0xb2fa1c9e\n      eq\n      tag_4\n      jumpi\n    tag_1:\n      0x00\n      dup1\n      revert\n        /* \"math/FiftyYearsChallenge.sol\":1315:1921  function withdraw(uint256 index) public {... */\n    tag_2:\n      callvalue\n      dup1\n      iszero\n      tag_5\n      jumpi\n      0x00\n      dup1\n      revert\n    tag_5:\n      pop\n      tag_6\n      0x04\n      dup1\n      calldatasize\n      sub\n      dup2\n      add\n      swap1\n      tag_7\n      swap2\n      swap1\n      tag_8\n      jump\t// in\n    tag_7:\n      tag_9\n      jump\t// in\n    tag_6:\n      stop\n        /* \"math/FiftyYearsChallenge.sol\":561:1307  function upsert(uint256 index, uint256 timestamp) public payable {... */\n    tag_3:\n      tag_10\n      0x04\n      dup1\n      calldatasize\n      sub\n      dup2\n      add\n      swap1\n      tag_11\n      swap2\n      swap1\n      tag_12\n      jump\t// in\n    tag_11:\n      tag_13\n      jump\t// in\n    tag_10:\n      stop\n        /* \"math/FiftyYearsChallenge.sol\":452:553  function isComplete() public view returns (bool) {... */\n    tag_4:\n      callvalue\n      dup1\n      iszero\n      tag_14\n      jumpi\n      0x00\n      dup1\n      revert\n    tag_14:\n      pop\n      tag_15\n      tag_16\n      jump\t// in\n    tag_15:\n      mload(0x40)\n      tag_17\n      swap2\n      swap1\n      tag_18\n      jump\t// in\n    tag_17:\n      mload(0x40)\n      dup1\n      swap2\n      sub\n      swap1\n      return\n        /* \"math/FiftyYearsChallenge.sol\":1315:1921  function withdraw(uint256 index) public {... */\n    tag_9:\n        /* \"math/FiftyYearsChallenge.sol\":1388:1393  owner */\n      0x02\n      0x00\n      swap1\n      sload\n      swap1\n      0x0100\n      exp\n      swap1\n      div\n      0xffffffffffffffffffffffffffffffffffffffff\n      and\n        /* \"math/FiftyYearsChallenge.sol\":1374:1393  msg.sender == owner */\n      0xffffffffffffffffffffffffffffffffffffffff\n      and\n        /* \"math/FiftyYearsChallenge.sol\":1374:1384  msg.sender */\n      caller\n        /* \"math/FiftyYearsChallenge.sol\":1374:1393  msg.sender == owner */\n      0xffffffffffffffffffffffffffffffffffffffff\n      and\n      eq\n        /* \"math/FiftyYearsChallenge.sol\":1366:1394  require(msg.sender == owner) */\n      tag_20\n      jumpi\n      0x00\n      dup1\n      revert\n    tag_20:\n        /* \"math/FiftyYearsChallenge.sol\":1432:1437  queue */\n      0x00\n        /* \"math/FiftyYearsChallenge.sol\":1438:1443  index */\n      dup2\n        /* \"math/FiftyYearsChallenge.sol\":1432:1444  queue[index] */\n      dup2\n      sload\n      dup2\n      lt\n      tag_21\n      jumpi\n      tag_22\n      tag_23\n      jump\t// in\n    tag_22:\n    tag_21:\n      swap1\n      0x00\n      mstore\n      keccak256(0x00, 0x20)\n      swap1\n      0x02\n      mul\n      add\n        /* \"math/FiftyYearsChallenge.sol\":1432:1460  queue[index].unlockTimestamp */\n      0x01\n      add\n      sload\n        /* \"math/FiftyYearsChallenge.sol\":1413:1428  block.timestamp */\n      timestamp\n        /* \"math/FiftyYearsChallenge.sol\":1413:1460  block.timestamp >= queue[index].unlockTimestamp */\n      lt\n      iszero\n        /* \"math/FiftyYearsChallenge.sol\":1405:1461  require(block.timestamp >= queue[index].unlockTimestamp) */\n      tag_25\n      jumpi\n      0x00\n      dup1\n      revert\n    tag_25:\n        /* \"math/FiftyYearsChallenge.sol\":1531:1544  uint256 total */\n      0x00\n        /* \"math/FiftyYearsChallenge.sol\":1564:1573  uint256 i */\n      dup1\n        /* \"math/FiftyYearsChallenge.sol\":1576:1580  head */\n      sload(0x01)\n        /* \"math/FiftyYearsChallenge.sol\":1564:1580  uint256 i = head */\n      swap1\n      pop\n        /* \"math/FiftyYearsChallenge.sol\":1559:1715  for (uint256 i = head; i <= index; i++) {... */\n    tag_26:\n        /* \"math/FiftyYearsChallenge.sol\":1587:1592  index */\n      dup3\n        /* \"math/FiftyYearsChallenge.sol\":1582:1583  i */\n      dup2\n        /* \"math/FiftyYearsChallenge.sol\":1582:1592  i <= index */\n      gt\n        /* \"math/FiftyYearsChallenge.sol\":1559:1715  for (uint256 i = head; i <= index; i++) {... */\n      tag_27\n      jumpi\n        /* \"math/FiftyYearsChallenge.sol\":1623:1628  queue */\n      0x00\n        /* \"math/FiftyYearsChallenge.sol\":1629:1630  i */\n      dup2\n        /* \"math/FiftyYearsChallenge.sol\":1623:1631  queue[i] */\n      dup2\n      sload\n      dup2\n      lt\n      tag_29\n      jumpi\n      tag_30\n      tag_23\n      jump\t// in\n    tag_30:\n    tag_29:\n      swap1\n      0x00\n      mstore\n      keccak256(0x00, 0x20)\n      swap1\n      0x02\n      mul\n      add\n        /* \"math/FiftyYearsChallenge.sol\":1623:1638  queue[i].amount */\n      0x00\n      add\n      sload\n        /* \"math/FiftyYearsChallenge.sol\":1614:1638  total += queue[i].amount */\n      dup3\n      tag_32\n      swap2\n      swap1\n      tag_33\n      jump\t// in\n    tag_32:\n      swap2\n      pop\n        /* \"math/FiftyYearsChallenge.sol\":1695:1700  queue */\n      0x00\n        /* \"math/FiftyYearsChallenge.sol\":1701:1702  i */\n      dup2\n        /* \"math/FiftyYearsChallenge.sol\":1695:1703  queue[i] */\n      dup2\n      sload\n      dup2\n      lt\n      tag_34\n      jumpi\n      tag_35\n      tag_23\n      jump\t// in\n    tag_35:\n    tag_34:\n      swap1\n      0x00\n      mstore\n      keccak256(0x00, 0x20)\n      swap1\n      0x02\n      mul\n      add\n      0x00\n        /* \"math/FiftyYearsChallenge.sol\":1688:1703  delete queue[i] */\n      dup1\n      dup3\n      add\n      0x00\n      swap1\n      sstore\n      0x01\n      dup3\n      add\n      0x00\n      swap1\n      sstore\n      pop\n      pop\n        /* \"math/FiftyYearsChallenge.sol\":1594:1597  i++ */\n      dup1\n      dup1\n      tag_37\n      swap1\n      tag_38\n      jump\t// in\n    tag_37:\n      swap2\n      pop\n      pop\n        /* \"math/FiftyYearsChallenge.sol\":1559:1715  for (uint256 i = head; i <= index; i++) {... */\n      jump(tag_26)\n    tag_27:\n      pop\n        /* \"math/FiftyYearsChallenge.sol\":1864:1865  1 */\n      0x01\n        /* \"math/FiftyYearsChallenge.sol\":1856:1861  index */\n      dup3\n        /* \"math/FiftyYearsChallenge.sol\":1856:1865  index + 1 */\n      tag_39\n      swap2\n      swap1\n      tag_33\n      jump\t// in\n    tag_39:\n        /* \"math/FiftyYearsChallenge.sol\":1849:1853  head */\n      0x01\n        /* \"math/FiftyYearsChallenge.sol\":1849:1865  head = index + 1 */\n      dup2\n      swap1\n      sstore\n      pop\n        /* \"math/FiftyYearsChallenge.sol\":1886:1896  msg.sender */\n      caller\n        /* \"math/FiftyYearsChallenge.sol\":1878:1906  payable(msg.sender).transfer */\n      0xffffffffffffffffffffffffffffffffffffffff\n      and\n        /* \"math/FiftyYearsChallenge.sol\":1878:1913  payable(msg.sender).transfer(total) */\n      0x08fc\n        /* \"math/FiftyYearsChallenge.sol\":1907:1912  total */\n      dup3\n        /* \"math/FiftyYearsChallenge.sol\":1878:1913  payable(msg.sender).transfer(total) */\n      swap1\n      dup2\n      iszero\n      mul\n      swap1\n      mload(0x40)\n      0x00\n      mload(0x40)\n      dup1\n      dup4\n      sub\n      dup2\n      dup6\n      dup9\n      dup9\n      call\n      swap4\n      pop\n      pop\n      pop\n      pop\n      iszero\n      dup1\n      iszero\n      tag_41\n      jumpi\n      returndatasize\n      0x00\n      dup1\n      returndatacopy\n      revert(0x00, returndatasize)\n    tag_41:\n      pop\n        /* \"math/FiftyYearsChallenge.sol\":1355:1921  {... */\n      pop\n        /* \"math/FiftyYearsChallenge.sol\":1315:1921  function withdraw(uint256 index) public {... */\n      pop\n      jump\t// out\n        /* \"math/FiftyYearsChallenge.sol\":561:1307  function upsert(uint256 index, uint256 timestamp) public payable {... */\n    tag_13:\n        /* \"math/FiftyYearsChallenge.sol\":659:664  owner */\n      0x02\n      0x00\n      swap1\n      sload\n      swap1\n      0x0100\n      exp\n      swap1\n      div\n      0xffffffffffffffffffffffffffffffffffffffff\n      and\n        /* \"math/FiftyYearsChallenge.sol\":645:664  msg.sender == owner */\n      0xffffffffffffffffffffffffffffffffffffffff\n      and\n        /* \"math/FiftyYearsChallenge.sol\":645:655  msg.sender */\n      caller\n        /* \"math/FiftyYearsChallenge.sol\":645:664  msg.sender == owner */\n      0xffffffffffffffffffffffffffffffffffffffff\n      and\n      eq\n        /* \"math/FiftyYearsChallenge.sol\":637:665  require(msg.sender == owner) */\n      tag_43\n      jumpi\n      0x00\n      dup1\n      revert\n    tag_43:\n        /* \"math/FiftyYearsChallenge.sol\":678:711  Contribution storage contribution */\n      0x00\n        /* \"math/FiftyYearsChallenge.sol\":714:719  queue */\n      dup1\n        /* \"math/FiftyYearsChallenge.sol\":720:725  index */\n      dup4\n        /* \"math/FiftyYearsChallenge.sol\":714:726  queue[index] */\n      dup2\n      sload\n      dup2\n      lt\n      tag_44\n      jumpi\n      tag_45\n      tag_23\n      jump\t// in\n    tag_45:\n    tag_44:\n      swap1\n      0x00\n      mstore\n      keccak256(0x00, 0x20)\n      swap1\n      0x02\n      mul\n      add\n        /* \"math/FiftyYearsChallenge.sol\":678:726  Contribution storage contribution = queue[index] */\n      swap1\n      pop\n        /* \"math/FiftyYearsChallenge.sol\":750:754  head */\n      sload(0x01)\n        /* \"math/FiftyYearsChallenge.sol\":741:746  index */\n      dup4\n        /* \"math/FiftyYearsChallenge.sol\":741:754  index >= head */\n      lt\n      iszero\n        /* \"math/FiftyYearsChallenge.sol\":741:778  index >= head && index < queue.length */\n      dup1\n      iszero\n      tag_47\n      jumpi\n      pop\n        /* \"math/FiftyYearsChallenge.sol\":766:771  queue */\n      0x00\n        /* \"math/FiftyYearsChallenge.sol\":766:778  queue.length */\n      dup1\n      sload\n      swap1\n      pop\n        /* \"math/FiftyYearsChallenge.sol\":758:763  index */\n      dup4\n        /* \"math/FiftyYearsChallenge.sol\":758:778  index < queue.length */\n      lt\n        /* \"math/FiftyYearsChallenge.sol\":741:778  index >= head && index < queue.length */\n    tag_47:\n        /* \"math/FiftyYearsChallenge.sol\":737:1300  if (index >= head && index < queue.length) {... */\n      iszero\n      tag_48\n      jumpi\n        /* \"math/FiftyYearsChallenge.sol\":898:907  msg.value */\n      callvalue\n        /* \"math/FiftyYearsChallenge.sol\":875:887  contribution */\n      dup2\n        /* \"math/FiftyYearsChallenge.sol\":875:894  contribution.amount */\n      0x00\n      add\n      0x00\n        /* \"math/FiftyYearsChallenge.sol\":875:907  contribution.amount += msg.value */\n      dup3\n      dup3\n      sload\n      tag_49\n      swap2\n      swap1\n      tag_33\n      jump\t// in\n    tag_49:\n      swap3\n      pop\n      pop\n      dup2\n      swap1\n      sstore\n      pop\n        /* \"math/FiftyYearsChallenge.sol\":737:1300  if (index >= head && index < queue.length) {... */\n      jump(tag_50)\n    tag_48:\n        /* \"math/FiftyYearsChallenge.sol\":1139:1145  1 days */\n      0x015180\n        /* \"math/FiftyYearsChallenge.sol\":1097:1102  queue */\n      0x00\n        /* \"math/FiftyYearsChallenge.sol\":1118:1119  1 */\n      0x01\n        /* \"math/FiftyYearsChallenge.sol\":1103:1108  queue */\n      0x00\n        /* \"math/FiftyYearsChallenge.sol\":1103:1115  queue.length */\n      dup1\n      sload\n      swap1\n      pop\n        /* \"math/FiftyYearsChallenge.sol\":1103:1119  queue.length - 1 */\n      tag_51\n      swap2\n      swap1\n      tag_52\n      jump\t// in\n    tag_51:\n        /* \"math/FiftyYearsChallenge.sol\":1097:1120  queue[queue.length - 1] */\n      dup2\n      sload\n      dup2\n      lt\n      tag_53\n      jumpi\n      tag_54\n      tag_23\n      jump\t// in\n    tag_54:\n    tag_53:\n      swap1\n      0x00\n      mstore\n      keccak256(0x00, 0x20)\n      swap1\n      0x02\n      mul\n      add\n        /* \"math/FiftyYearsChallenge.sol\":1097:1136  queue[queue.length - 1].unlockTimestamp */\n      0x01\n      add\n      sload\n        /* \"math/FiftyYearsChallenge.sol\":1097:1145  queue[queue.length - 1].unlockTimestamp + 1 days */\n      tag_56\n      swap2\n      swap1\n      tag_33\n      jump\t// in\n    tag_56:\n        /* \"math/FiftyYearsChallenge.sol\":1084:1093  timestamp */\n      dup3\n        /* \"math/FiftyYearsChallenge.sol\":1084:1145  timestamp >= queue[queue.length - 1].unlockTimestamp + 1 days */\n      lt\n      iszero\n        /* \"math/FiftyYearsChallenge.sol\":1076:1146  require(timestamp >= queue[queue.length - 1].unlockTimestamp + 1 days) */\n      tag_57\n      jumpi\n      0x00\n      dup1\n      revert\n    tag_57:\n        /* \"math/FiftyYearsChallenge.sol\":1185:1194  msg.value */\n      callvalue\n        /* \"math/FiftyYearsChallenge.sol\":1163:1175  contribution */\n      dup2\n        /* \"math/FiftyYearsChallenge.sol\":1163:1182  contribution.amount */\n      0x00\n      add\n        /* \"math/FiftyYearsChallenge.sol\":1163:1194  contribution.amount = msg.value */\n      dup2\n      swap1\n      sstore\n      pop\n        /* \"math/FiftyYearsChallenge.sol\":1240:1249  timestamp */\n      dup2\n        /* \"math/FiftyYearsChallenge.sol\":1209:1221  contribution */\n      dup2\n        /* \"math/FiftyYearsChallenge.sol\":1209:1237  contribution.unlockTimestamp */\n      0x01\n      add\n        /* \"math/FiftyYearsChallenge.sol\":1209:1249  contribution.unlockTimestamp = timestamp */\n      dup2\n      swap1\n      sstore\n      pop\n        /* \"math/FiftyYearsChallenge.sol\":1264:1269  queue */\n      0x00\n        /* \"math/FiftyYearsChallenge.sol\":1275:1287  contribution */\n      dup2\n        /* \"math/FiftyYearsChallenge.sol\":1264:1288  queue.push(contribution) */\n      swap1\n      dup1\n      0x01\n      dup2\n      sload\n      add\n      dup1\n      dup3\n      sstore\n      dup1\n      swap2\n      pop\n      pop\n      0x01\n      swap1\n      sub\n      swap1\n      0x00\n      mstore\n      keccak256(0x00, 0x20)\n      swap1\n      0x02\n      mul\n      add\n      0x00\n      swap1\n      swap2\n      swap1\n      swap2\n      swap1\n      swap2\n      pop\n      0x00\n      dup3\n      add\n      sload\n      dup2\n      0x00\n      add\n      sstore\n      0x01\n      dup3\n      add\n      sload\n      dup2\n      0x01\n      add\n      sstore\n      pop\n      pop\n        /* \"math/FiftyYearsChallenge.sol\":737:1300  if (index >= head && index < queue.length) {... */\n    tag_50:\n        /* \"math/FiftyYearsChallenge.sol\":626:1307  {... */\n      pop\n        /* \"math/FiftyYearsChallenge.sol\":561:1307  function upsert(uint256 index, uint256 timestamp) public payable {... */\n      pop\n      pop\n      jump\t// out\n        /* \"math/FiftyYearsChallenge.sol\":452:553  function isComplete() public view returns (bool) {... */\n    tag_16:\n        /* \"math/FiftyYearsChallenge.sol\":495:499  bool */\n      0x00\n        /* \"math/FiftyYearsChallenge.sol\":544:545  0 */\n      dup1\n        /* \"math/FiftyYearsChallenge.sol\":519:540  address(this).balance */\n      selfbalance\n        /* \"math/FiftyYearsChallenge.sol\":519:545  address(this).balance == 0 */\n      eq\n        /* \"math/FiftyYearsChallenge.sol\":512:545  return address(this).balance == 0 */\n      swap1\n      pop\n        /* \"math/FiftyYearsChallenge.sol\":452:553  function isComplete() public view returns (bool) {... */\n      swap1\n      jump\t// out\n        /* \"#utility.yul\":88:205   */\n    tag_61:\n        /* \"#utility.yul\":197:198   */\n      0x00\n        /* \"#utility.yul\":194:195   */\n      dup1\n        /* \"#utility.yul\":187:199   */\n      revert\n        /* \"#utility.yul\":334:411   */\n    tag_63:\n        /* \"#utility.yul\":371:378   */\n      0x00\n        /* \"#utility.yul\":400:405   */\n      dup2\n        /* \"#utility.yul\":389:405   */\n      swap1\n      pop\n        /* \"#utility.yul\":334:411   */\n      swap2\n      swap1\n      pop\n      jump\t// out\n        /* \"#utility.yul\":417:539   */\n    tag_64:\n        /* \"#utility.yul\":490:514   */\n      tag_75\n        /* \"#utility.yul\":508:513   */\n      dup2\n        /* \"#utility.yul\":490:514   */\n      tag_63\n      jump\t// in\n    tag_75:\n        /* \"#utility.yul\":483:488   */\n      dup2\n        /* \"#utility.yul\":480:515   */\n      eq\n        /* \"#utility.yul\":470:533   */\n      tag_76\n      jumpi\n        /* \"#utility.yul\":529:530   */\n      0x00\n        /* \"#utility.yul\":526:527   */\n      dup1\n        /* \"#utility.yul\":519:531   */\n      revert\n        /* \"#utility.yul\":470:533   */\n    tag_76:\n        /* \"#utility.yul\":417:539   */\n      pop\n      jump\t// out\n        /* \"#utility.yul\":545:684   */\n    tag_65:\n        /* \"#utility.yul\":591:596   */\n      0x00\n        /* \"#utility.yul\":629:635   */\n      dup2\n        /* \"#utility.yul\":616:636   */\n      calldataload\n        /* \"#utility.yul\":607:636   */\n      swap1\n      pop\n        /* \"#utility.yul\":645:678   */\n      tag_78\n        /* \"#utility.yul\":672:677   */\n      dup2\n        /* \"#utility.yul\":645:678   */\n      tag_64\n      jump\t// in\n    tag_78:\n        /* \"#utility.yul\":545:684   */\n      swap3\n      swap2\n      pop\n      pop\n      jump\t// out\n        /* \"#utility.yul\":690:1019   */\n    tag_8:\n        /* \"#utility.yul\":749:755   */\n      0x00\n        /* \"#utility.yul\":798:800   */\n      0x20\n        /* \"#utility.yul\":786:795   */\n      dup3\n        /* \"#utility.yul\":777:784   */\n      dup5\n        /* \"#utility.yul\":773:796   */\n      sub\n        /* \"#utility.yul\":769:801   */\n      slt\n        /* \"#utility.yul\":766:885   */\n      iszero\n      tag_80\n      jumpi\n        /* \"#utility.yul\":804:883   */\n      tag_81\n      tag_61\n      jump\t// in\n    tag_81:\n        /* \"#utility.yul\":766:885   */\n    tag_80:\n        /* \"#utility.yul\":924:925   */\n      0x00\n        /* \"#utility.yul\":949:1002   */\n      tag_82\n        /* \"#utility.yul\":994:1001   */\n      dup5\n        /* \"#utility.yul\":985:991   */\n      dup3\n        /* \"#utility.yul\":974:983   */\n      dup6\n        /* \"#utility.yul\":970:992   */\n      add\n        /* \"#utility.yul\":949:1002   */\n      tag_65\n      jump\t// in\n    tag_82:\n        /* \"#utility.yul\":939:1002   */\n      swap2\n      pop\n        /* \"#utility.yul\":895:1012   */\n      pop\n        /* \"#utility.yul\":690:1019   */\n      swap3\n      swap2\n      pop\n      pop\n      jump\t// out\n        /* \"#utility.yul\":1025:1499   */\n    tag_12:\n        /* \"#utility.yul\":1093:1099   */\n      0x00\n        /* \"#utility.yul\":1101:1107   */\n      dup1\n        /* \"#utility.yul\":1150:1152   */\n      0x40\n        /* \"#utility.yul\":1138:1147   */\n      dup4\n        /* \"#utility.yul\":1129:1136   */\n      dup6\n        /* \"#utility.yul\":1125:1148   */\n      sub\n        /* \"#utility.yul\":1121:1153   */\n      slt\n        /* \"#utility.yul\":1118:1237   */\n      iszero\n      tag_84\n      jumpi\n        /* \"#utility.yul\":1156:1235   */\n      tag_85\n      tag_61\n      jump\t// in\n    tag_85:\n        /* \"#utility.yul\":1118:1237   */\n    tag_84:\n        /* \"#utility.yul\":1276:1277   */\n      0x00\n        /* \"#utility.yul\":1301:1354   */\n      tag_86\n        /* \"#utility.yul\":1346:1353   */\n      dup6\n        /* \"#utility.yul\":1337:1343   */\n      dup3\n        /* \"#utility.yul\":1326:1335   */\n      dup7\n        /* \"#utility.yul\":1322:1344   */\n      add\n        /* \"#utility.yul\":1301:1354   */\n      tag_65\n      jump\t// in\n    tag_86:\n        /* \"#utility.yul\":1291:1354   */\n      swap3\n      pop\n        /* \"#utility.yul\":1247:1364   */\n      pop\n        /* \"#utility.yul\":1403:1405   */\n      0x20\n        /* \"#utility.yul\":1429:1482   */\n      tag_87\n        /* \"#utility.yul\":1474:1481   */\n      dup6\n        /* \"#utility.yul\":1465:1471   */\n      dup3\n        /* \"#utility.yul\":1454:1463   */\n      dup7\n        /* \"#utility.yul\":1450:1472   */\n      add\n        /* \"#utility.yul\":1429:1482   */\n      tag_65\n      jump\t// in\n    tag_87:\n        /* \"#utility.yul\":1419:1482   */\n      swap2\n      pop\n        /* \"#utility.yul\":1374:1492   */\n      pop\n        /* \"#utility.yul\":1025:1499   */\n      swap3\n      pop\n      swap3\n      swap1\n      pop\n      jump\t// out\n        /* \"#utility.yul\":1505:1595   */\n    tag_66:\n        /* \"#utility.yul\":1539:1546   */\n      0x00\n        /* \"#utility.yul\":1582:1587   */\n      dup2\n        /* \"#utility.yul\":1575:1588   */\n      iszero\n        /* \"#utility.yul\":1568:1589   */\n      iszero\n        /* \"#utility.yul\":1557:1589   */\n      swap1\n      pop\n        /* \"#utility.yul\":1505:1595   */\n      swap2\n      swap1\n      pop\n      jump\t// out\n        /* \"#utility.yul\":1601:1710   */\n    tag_67:\n        /* \"#utility.yul\":1682:1703   */\n      tag_90\n        /* \"#utility.yul\":1697:1702   */\n      dup2\n        /* \"#utility.yul\":1682:1703   */\n      tag_66\n      jump\t// in\n    tag_90:\n        /* \"#utility.yul\":1677:1680   */\n      dup3\n        /* \"#utility.yul\":1670:1704   */\n      mstore\n        /* \"#utility.yul\":1601:1710   */\n      pop\n      pop\n      jump\t// out\n        /* \"#utility.yul\":1716:1926   */\n    tag_18:\n        /* \"#utility.yul\":1803:1807   */\n      0x00\n        /* \"#utility.yul\":1841:1843   */\n      0x20\n        /* \"#utility.yul\":1830:1839   */\n      dup3\n        /* \"#utility.yul\":1826:1844   */\n      add\n        /* \"#utility.yul\":1818:1844   */\n      swap1\n      pop\n        /* \"#utility.yul\":1854:1919   */\n      tag_92\n        /* \"#utility.yul\":1916:1917   */\n      0x00\n        /* \"#utility.yul\":1905:1914   */\n      dup4\n        /* \"#utility.yul\":1901:1918   */\n      add\n        /* \"#utility.yul\":1892:1898   */\n      dup5\n        /* \"#utility.yul\":1854:1919   */\n      tag_67\n      jump\t// in\n    tag_92:\n        /* \"#utility.yul\":1716:1926   */\n      swap3\n      swap2\n      pop\n      pop\n      jump\t// out\n        /* \"#utility.yul\":1932:2112   */\n    tag_23:\n        /* \"#utility.yul\":1980:2057   */\n      0x4e487b7100000000000000000000000000000000000000000000000000000000\n        /* \"#utility.yul\":1977:1978   */\n      0x00\n        /* \"#utility.yul\":1970:2058   */\n      mstore\n        /* \"#utility.yul\":2077:2081   */\n      0x32\n        /* \"#utility.yul\":2074:2075   */\n      0x04\n        /* \"#utility.yul\":2067:2082   */\n      mstore\n        /* \"#utility.yul\":2101:2105   */\n      0x24\n        /* \"#utility.yul\":2098:2099   */\n      0x00\n        /* \"#utility.yul\":2091:2106   */\n      revert\n        /* \"#utility.yul\":2118:2298   */\n    tag_68:\n        /* \"#utility.yul\":2166:2243   */\n      0x4e487b7100000000000000000000000000000000000000000000000000000000\n        /* \"#utility.yul\":2163:2164   */\n      0x00\n        /* \"#utility.yul\":2156:2244   */\n      mstore\n        /* \"#utility.yul\":2263:2267   */\n      0x11\n        /* \"#utility.yul\":2260:2261   */\n      0x04\n        /* \"#utility.yul\":2253:2268   */\n      mstore\n        /* \"#utility.yul\":2287:2291   */\n      0x24\n        /* \"#utility.yul\":2284:2285   */\n      0x00\n        /* \"#utility.yul\":2277:2292   */\n      revert\n        /* \"#utility.yul\":2304:2609   */\n    tag_33:\n        /* \"#utility.yul\":2344:2347   */\n      0x00\n        /* \"#utility.yul\":2363:2383   */\n      tag_96\n        /* \"#utility.yul\":2381:2382   */\n      dup3\n        /* \"#utility.yul\":2363:2383   */\n      tag_63\n      jump\t// in\n    tag_96:\n        /* \"#utility.yul\":2358:2383   */\n      swap2\n      pop\n        /* \"#utility.yul\":2397:2417   */\n      tag_97\n        /* \"#utility.yul\":2415:2416   */\n      dup4\n        /* \"#utility.yul\":2397:2417   */\n      tag_63\n      jump\t// in\n    tag_97:\n        /* \"#utility.yul\":2392:2417   */\n      swap3\n      pop\n        /* \"#utility.yul\":2551:2552   */\n      dup3\n        /* \"#utility.yul\":2483:2549   */\n      0xffffffffffffffffffffffffffffffffffffffffffffffffffffffffffffffff\n        /* \"#utility.yul\":2479:2553   */\n      sub\n        /* \"#utility.yul\":2476:2477   */\n      dup3\n        /* \"#utility.yul\":2473:2554   */\n      gt\n        /* \"#utility.yul\":2470:2577   */\n      iszero\n      tag_98\n      jumpi\n        /* \"#utility.yul\":2557:2575   */\n      tag_99\n      tag_68\n      jump\t// in\n    tag_99:\n        /* \"#utility.yul\":2470:2577   */\n    tag_98:\n        /* \"#utility.yul\":2601:2602   */\n      dup3\n        /* \"#utility.yul\":2598:2599   */\n      dup3\n        /* \"#utility.yul\":2594:2603   */\n      add\n        /* \"#utility.yul\":2587:2603   */\n      swap1\n      pop\n        /* \"#utility.yul\":2304:2609   */\n      swap3\n      swap2\n      pop\n      pop\n      jump\t// out\n        /* \"#utility.yul\":2615:2848   */\n    tag_38:\n        /* \"#utility.yul\":2654:2657   */\n      0x00\n        /* \"#utility.yul\":2677:2701   */\n      tag_101\n        /* \"#utility.yul\":2695:2700   */\n      dup3\n        /* \"#utility.yul\":2677:2701   */\n      tag_63\n      jump\t// in\n    tag_101:\n        /* \"#utility.yul\":2668:2701   */\n      swap2\n      pop\n        /* \"#utility.yul\":2723:2789   */\n      0xffffffffffffffffffffffffffffffffffffffffffffffffffffffffffffffff\n        /* \"#utility.yul\":2716:2721   */\n      dup3\n        /* \"#utility.yul\":2713:2790   */\n      sub\n        /* \"#utility.yul\":2710:2813   */\n      tag_102\n      jumpi\n        /* \"#utility.yul\":2793:2811   */\n      tag_103\n      tag_68\n      jump\t// in\n    tag_103:\n        /* \"#utility.yul\":2710:2813   */\n    tag_102:\n        /* \"#utility.yul\":2840:2841   */\n      0x01\n        /* \"#utility.yul\":2833:2838   */\n      dup3\n        /* \"#utility.yul\":2829:2842   */\n      add\n        /* \"#utility.yul\":2822:2842   */\n      swap1\n      pop\n        /* \"#utility.yul\":2615:2848   */\n      swap2\n      swap1\n      pop\n      jump\t// out\n        /* \"#utility.yul\":2854:3045   */\n    tag_52:\n        /* \"#utility.yul\":2894:2898   */\n      0x00\n        /* \"#utility.yul\":2914:2934   */\n      tag_105\n        /* \"#utility.yul\":2932:2933   */\n      dup3\n        /* \"#utility.yul\":2914:2934   */\n      tag_63\n      jump\t// in\n    tag_105:\n        /* \"#utility.yul\":2909:2934   */\n      swap2\n      pop\n        /* \"#utility.yul\":2948:2968   */\n      tag_106\n        /* \"#utility.yul\":2966:2967   */\n      dup4\n        /* \"#utility.yul\":2948:2968   */\n      tag_63\n      jump\t// in\n    tag_106:\n        /* \"#utility.yul\":2943:2968   */\n      swap3\n      pop\n        /* \"#utility.yul\":2987:2988   */\n      dup3\n        /* \"#utility.yul\":2984:2985   */\n      dup3\n        /* \"#utility.yul\":2981:2989   */\n      lt\n        /* \"#utility.yul\":2978:3012   */\n      iszero\n      tag_107\n      jumpi\n        /* \"#utility.yul\":2992:3010   */\n      tag_108\n      tag_68\n      jump\t// in\n    tag_108:\n        /* \"#utility.yul\":2978:3012   */\n    tag_107:\n        /* \"#utility.yul\":3037:3038   */\n      dup3\n        /* \"#utility.yul\":3034:3035   */\n      dup3\n        /* \"#utility.yul\":3030:3039   */\n      sub\n        /* \"#utility.yul\":3022:3039   */\n      swap1\n      pop\n        /* \"#utility.yul\":2854:3045   */\n      swap3\n      swap2\n      pop\n      pop\n      jump\t// out\n\n    auxdata: 0xa2646970667358221220a58c38c7a714a65d00899f40836f4e0877472334786f7fe7c73eb55c621a5f1664736f6c634300080f0033\n}\n",
				"bytecode": {
					"linkReferences": {},
					"object": "60806040526040516107e53803806107e583398181016040528101906100259190610148565b670de0b6b3a7640000341461003957600080fd5b80600260006101000a81548173ffffffffffffffffffffffffffffffffffffffff021916908373ffffffffffffffffffffffffffffffffffffffff16021790555060006040518060400160405280348152602001635dfc0f004261009d91906101ae565b81525090806001815401808255809150506001900390600052602060002090600202016000909190919091506000820151816000015560208201518160010155505050610204565b600080fd5b600073ffffffffffffffffffffffffffffffffffffffff82169050919050565b6000610115826100ea565b9050919050565b6101258161010a565b811461013057600080fd5b50565b6000815190506101428161011c565b92915050565b60006020828403121561015e5761015d6100e5565b5b600061016c84828501610133565b91505092915050565b6000819050919050565b7f4e487b7100000000000000000000000000000000000000000000000000000000600052601160045260246000fd5b60006101b982610175565b91506101c483610175565b9250827fffffffffffffffffffffffffffffffffffffffffffffffffffffffffffffffff038211156101f9576101f861017f565b5b828201905092915050565b6105d2806102136000396000f3fe6080604052600436106100345760003560e01c80632e1a7d4d146100395780633b8f718a14610062578063b2fa1c9e1461007e575b600080fd5b34801561004557600080fd5b50610060600480360381019061005b91906103c9565b6100a9565b005b61007c600480360381019061007791906103f6565b61021f565b005b34801561008a57600080fd5b50610093610384565b6040516100a09190610451565b60405180910390f35b600260009054906101000a900473ffffffffffffffffffffffffffffffffffffffff1673ffffffffffffffffffffffffffffffffffffffff163373ffffffffffffffffffffffffffffffffffffffff161461010357600080fd5b600081815481106101175761011661046c565b5b90600052602060002090600202016001015442101561013557600080fd5b60008060015490505b8281116101c057600081815481106101595761015861046c565b5b9060005260206000209060020201600001548261017691906104ca565b91506000818154811061018c5761018b61046c565b5b90600052602060002090600202016000808201600090556001820160009055505080806101b890610520565b91505061013e565b506001826101ce91906104ca565b6001819055503373ffffffffffffffffffffffffffffffffffffffff166108fc829081150290604051600060405180830381858888f1935050505015801561021a573d6000803e3d6000fd5b505050565b600260009054906101000a900473ffffffffffffffffffffffffffffffffffffffff1673ffffffffffffffffffffffffffffffffffffffff163373ffffffffffffffffffffffffffffffffffffffff161461027957600080fd5b600080838154811061028e5761028d61046c565b5b9060005260206000209060020201905060015483101580156102b4575060008054905083105b156102d957348160000160008282546102cd91906104ca565b9250508190555061037f565b62015180600060016000805490506102f19190610568565b815481106103025761030161046c565b5b90600052602060002090600202016001015461031e91906104ca565b82101561032a57600080fd5b3481600001819055508181600101819055506000819080600181540180825580915050600190039060005260206000209060020201600090919091909150600082015481600001556001820154816001015550505b505050565b6000804714905090565b600080fd5b6000819050919050565b6103a681610393565b81146103b157600080fd5b50565b6000813590506103c38161039d565b92915050565b6000602082840312156103df576103de61038e565b5b60006103ed848285016103b4565b91505092915050565b6000806040838503121561040d5761040c61038e565b5b600061041b858286016103b4565b925050602061042c858286016103b4565b9150509250929050565b60008115159050919050565b61044b81610436565b82525050565b60006020820190506104666000830184610442565b92915050565b7f4e487b7100000000000000000000000000000000000000000000000000000000600052603260045260246000fd5b7f4e487b7100000000000000000000000000000000000000000000000000000000600052601160045260246000fd5b60006104d582610393565b91506104e083610393565b9250827fffffffffffffffffffffffffffffffffffffffffffffffffffffffffffffffff038211156105155761051461049b565b5b828201905092915050565b600061052b82610393565b91507fffffffffffffffffffffffffffffffffffffffffffffffffffffffffffffffff820361055d5761055c61049b565b5b600182019050919050565b600061057382610393565b915061057e83610393565b9250828210156105915761059061049b565b5b82820390509291505056fea2646970667358221220a58c38c7a714a65d00899f40836f4e0877472334786f7fe7c73eb55c621a5f1664736f6c634300080f0033",
					"opcodes": "PUSH1 0x80 PUSH1 0x40 MSTORE PUSH1 0x40 MLOAD PUSH2 0x7E5 CODESIZE SUB DUP1 PUSH2 0x7E5 DUP4 CODECOPY DUP2 DUP2 ADD PUSH1 0x40 MSTORE DUP2 ADD SWAP1 PUSH2 0x25 SWAP2 SWAP1 PUSH2 0x148 JUMP JUMPDEST PUSH8 0xDE0B6B3A7640000 CALLVALUE EQ PUSH2 0x39 JUMPI PUSH1 0x0 DUP1 REVERT JUMPDEST DUP1 PUSH1 0x2 PUSH1 0x0 PUSH2 0x100 EXP DUP2 SLOAD DUP2 PUSH20 0xFFFFFFFFFFFFFFFFFFFFFFFFFFFFFFFFFFFFFFFF MUL NOT AND SWAP1 DUP4 PUSH20 0xFFFFFFFFFFFFFFFFFFFFFFFFFFFFFFFFFFFFFFFF AND MUL OR SWAP1 SSTORE POP PUSH1 0x0 PUSH1 0x40 MLOAD DUP1 PUSH1 0x40 ADD PUSH1 0x40 MSTORE DUP1 CALLVALUE DUP2 MSTORE PUSH1 0x20 ADD PUSH4 0x5DFC0F00 TIMESTAMP PUSH2 0x9D SWAP2 SWAP1 PUSH2 0x1AE JUMP JUMPDEST DUP2 MSTORE POP SWAP1 DUP1 PUSH1 0x1 DUP2 SLOAD ADD DUP1 DUP3 SSTORE DUP1 SWAP2 POP POP PUSH1 0x1 SWAP1 SUB SWAP1 PUSH1 0x0 MSTORE PUSH1 0x20 PUSH1 0x0 KECCAK256 SWAP1 PUSH1 0x2 MUL ADD PUSH1 0x0 SWAP1 SWAP2 SWAP1 SWAP2 SWAP1 SWAP2 POP PUSH1 0x0 DUP3 ADD MLOAD DUP2 PUSH1 0x0 ADD SSTORE PUSH1 0x20 DUP3 ADD MLOAD DUP2 PUSH1 0x1 ADD SSTORE POP POP POP PUSH2 0x204 JUMP JUMPDEST PUSH1 0x0 DUP1 REVERT JUMPDEST PUSH1 0x0 PUSH20 0xFFFFFFFFFFFFFFFFFFFFFFFFFFFFFFFFFFFFFFFF DUP3 AND SWAP1 POP SWAP2 SWAP1 POP JUMP JUMPDEST PUSH1 0x0 PUSH2 0x115 DUP3 PUSH2 0xEA JUMP JUMPDEST SWAP1 POP SWAP2 SWAP1 POP JUMP JUMPDEST PUSH2 0x125 DUP2 PUSH2 0x10A JUMP JUMPDEST DUP2 EQ PUSH2 0x130 JUMPI PUSH1 0x0 DUP1 REVERT JUMPDEST POP JUMP JUMPDEST PUSH1 0x0 DUP2 MLOAD SWAP1 POP PUSH2 0x142 DUP2 PUSH2 0x11C JUMP JUMPDEST SWAP3 SWAP2 POP POP JUMP JUMPDEST PUSH1 0x0 PUSH1 0x20 DUP3 DUP5 SUB SLT ISZERO PUSH2 0x15E JUMPI PUSH2 0x15D PUSH2 0xE5 JUMP JUMPDEST JUMPDEST PUSH1 0x0 PUSH2 0x16C DUP5 DUP3 DUP6 ADD PUSH2 0x133 JUMP JUMPDEST SWAP2 POP POP SWAP3 SWAP2 POP POP JUMP JUMPDEST PUSH1 0x0 DUP2 SWAP1 POP SWAP2 SWAP1 POP JUMP JUMPDEST PUSH32 0x4E487B7100000000000000000000000000000000000000000000000000000000 PUSH1 0x0 MSTORE PUSH1 0x11 PUSH1 0x4 MSTORE PUSH1 0x24 PUSH1 0x0 REVERT JUMPDEST PUSH1 0x0 PUSH2 0x1B9 DUP3 PUSH2 0x175 JUMP JUMPDEST SWAP2 POP PUSH2 0x1C4 DUP4 PUSH2 0x175 JUMP JUMPDEST SWAP3 POP DUP3 PUSH32 0xFFFFFFFFFFFFFFFFFFFFFFFFFFFFFFFFFFFFFFFFFFFFFFFFFFFFFFFFFFFFFFFF SUB DUP3 GT ISZERO PUSH2 0x1F9 JUMPI PUSH2 0x1F8 PUSH2 0x17F JUMP JUMPDEST JUMPDEST DUP3 DUP3 ADD SWAP1 POP SWAP3 SWAP2 POP POP JUMP JUMPDEST PUSH2 0x5D2 DUP1 PUSH2 0x213 PUSH1 0x0 CODECOPY PUSH1 0x0 RETURN INVALID PUSH1 0x80 PUSH1 0x40 MSTORE PUSH1 0x4 CALLDATASIZE LT PUSH2 0x34 JUMPI PUSH1 0x0 CALLDATALOAD PUSH1 0xE0 SHR DUP1 PUSH4 0x2E1A7D4D EQ PUSH2 0x39 JUMPI DUP1 PUSH4 0x3B8F718A EQ PUSH2 0x62 JUMPI DUP1 PUSH4 0xB2FA1C9E EQ PUSH2 0x7E JUMPI JUMPDEST PUSH1 0x0 DUP1 REVERT JUMPDEST CALLVALUE DUP1 ISZERO PUSH2 0x45 JUMPI PUSH1 0x0 DUP1 REVERT JUMPDEST POP PUSH2 0x60 PUSH1 0x4 DUP1 CALLDATASIZE SUB DUP2 ADD SWAP1 PUSH2 0x5B SWAP2 SWAP1 PUSH2 0x3C9 JUMP JUMPDEST PUSH2 0xA9 JUMP JUMPDEST STOP JUMPDEST PUSH2 0x7C PUSH1 0x4 DUP1 CALLDATASIZE SUB DUP2 ADD SWAP1 PUSH2 0x77 SWAP2 SWAP1 PUSH2 0x3F6 JUMP JUMPDEST PUSH2 0x21F JUMP JUMPDEST STOP JUMPDEST CALLVALUE DUP1 ISZERO PUSH2 0x8A JUMPI PUSH1 0x0 DUP1 REVERT JUMPDEST POP PUSH2 0x93 PUSH2 0x384 JUMP JUMPDEST PUSH1 0x40 MLOAD PUSH2 0xA0 SWAP2 SWAP1 PUSH2 0x451 JUMP JUMPDEST PUSH1 0x40 MLOAD DUP1 SWAP2 SUB SWAP1 RETURN JUMPDEST PUSH1 0x2 PUSH1 0x0 SWAP1 SLOAD SWAP1 PUSH2 0x100 EXP SWAP1 DIV PUSH20 0xFFFFFFFFFFFFFFFFFFFFFFFFFFFFFFFFFFFFFFFF AND PUSH20 0xFFFFFFFFFFFFFFFFFFFFFFFFFFFFFFFFFFFFFFFF AND CALLER PUSH20 0xFFFFFFFFFFFFFFFFFFFFFFFFFFFFFFFFFFFFFFFF AND EQ PUSH2 0x103 JUMPI PUSH1 0x0 DUP1 REVERT JUMPDEST PUSH1 0x0 DUP2 DUP2 SLOAD DUP2 LT PUSH2 0x117 JUMPI PUSH2 0x116 PUSH2 0x46C JUMP JUMPDEST JUMPDEST SWAP1 PUSH1 0x0 MSTORE PUSH1 0x20 PUSH1 0x0 KECCAK256 SWAP1 PUSH1 0x2 MUL ADD PUSH1 0x1 ADD SLOAD TIMESTAMP LT ISZERO PUSH2 0x135 JUMPI PUSH1 0x0 DUP1 REVERT JUMPDEST PUSH1 0x0 DUP1 PUSH1 0x1 SLOAD SWAP1 POP JUMPDEST DUP3 DUP2 GT PUSH2 0x1C0 JUMPI PUSH1 0x0 DUP2 DUP2 SLOAD DUP2 LT PUSH2 0x159 JUMPI PUSH2 0x158 PUSH2 0x46C JUMP JUMPDEST JUMPDEST SWAP1 PUSH1 0x0 MSTORE PUSH1 0x20 PUSH1 0x0 KECCAK256 SWAP1 PUSH1 0x2 MUL ADD PUSH1 0x0 ADD SLOAD DUP3 PUSH2 0x176 SWAP2 SWAP1 PUSH2 0x4CA JUMP JUMPDEST SWAP2 POP PUSH1 0x0 DUP2 DUP2 SLOAD DUP2 LT PUSH2 0x18C JUMPI PUSH2 0x18B PUSH2 0x46C JUMP JUMPDEST JUMPDEST SWAP1 PUSH1 0x0 MSTORE PUSH1 0x20 PUSH1 0x0 KECCAK256 SWAP1 PUSH1 0x2 MUL ADD PUSH1 0x0 DUP1 DUP3 ADD PUSH1 0x0 SWAP1 SSTORE PUSH1 0x1 DUP3 ADD PUSH1 0x0 SWAP1 SSTORE POP POP DUP1 DUP1 PUSH2 0x1B8 SWAP1 PUSH2 0x520 JUMP JUMPDEST SWAP2 POP POP PUSH2 0x13E JUMP JUMPDEST POP PUSH1 0x1 DUP3 PUSH2 0x1CE SWAP2 SWAP1 PUSH2 0x4CA JUMP JUMPDEST PUSH1 0x1 DUP2 SWAP1 SSTORE POP CALLER PUSH20 0xFFFFFFFFFFFFFFFFFFFFFFFFFFFFFFFFFFFFFFFF AND PUSH2 0x8FC DUP3 SWAP1 DUP2 ISZERO MUL SWAP1 PUSH1 0x40 MLOAD PUSH1 0x0 PUSH1 0x40 MLOAD DUP1 DUP4 SUB DUP2 DUP6 DUP9 DUP9 CALL SWAP4 POP POP POP POP ISZERO DUP1 ISZERO PUSH2 0x21A JUMPI RETURNDATASIZE PUSH1 0x0 DUP1 RETURNDATACOPY RETURNDATASIZE PUSH1 0x0 REVERT JUMPDEST POP POP POP JUMP JUMPDEST PUSH1 0x2 PUSH1 0x0 SWAP1 SLOAD SWAP1 PUSH2 0x100 EXP SWAP1 DIV PUSH20 0xFFFFFFFFFFFFFFFFFFFFFFFFFFFFFFFFFFFFFFFF AND PUSH20 0xFFFFFFFFFFFFFFFFFFFFFFFFFFFFFFFFFFFFFFFF AND CALLER PUSH20 0xFFFFFFFFFFFFFFFFFFFFFFFFFFFFFFFFFFFFFFFF AND EQ PUSH2 0x279 JUMPI PUSH1 0x0 DUP1 REVERT JUMPDEST PUSH1 0x0 DUP1 DUP4 DUP2 SLOAD DUP2 LT PUSH2 0x28E JUMPI PUSH2 0x28D PUSH2 0x46C JUMP JUMPDEST JUMPDEST SWAP1 PUSH1 0x0 MSTORE PUSH1 0x20 PUSH1 0x0 KECCAK256 SWAP1 PUSH1 0x2 MUL ADD SWAP1 POP PUSH1 0x1 SLOAD DUP4 LT ISZERO DUP1 ISZERO PUSH2 0x2B4 JUMPI POP PUSH1 0x0 DUP1 SLOAD SWAP1 POP DUP4 LT JUMPDEST ISZERO PUSH2 0x2D9 JUMPI CALLVALUE DUP2 PUSH1 0x0 ADD PUSH1 0x0 DUP3 DUP3 SLOAD PUSH2 0x2CD SWAP2 SWAP1 PUSH2 0x4CA JUMP JUMPDEST SWAP3 POP POP DUP2 SWAP1 SSTORE POP PUSH2 0x37F JUMP JUMPDEST PUSH3 0x15180 PUSH1 0x0 PUSH1 0x1 PUSH1 0x0 DUP1 SLOAD SWAP1 POP PUSH2 0x2F1 SWAP2 SWAP1 PUSH2 0x568 JUMP JUMPDEST DUP2 SLOAD DUP2 LT PUSH2 0x302 JUMPI PUSH2 0x301 PUSH2 0x46C JUMP JUMPDEST JUMPDEST SWAP1 PUSH1 0x0 MSTORE PUSH1 0x20 PUSH1 0x0 KECCAK256 SWAP1 PUSH1 0x2 MUL ADD PUSH1 0x1 ADD SLOAD PUSH2 0x31E SWAP2 SWAP1 PUSH2 0x4CA JUMP JUMPDEST DUP3 LT ISZERO PUSH2 0x32A JUMPI PUSH1 0x0 DUP1 REVERT JUMPDEST CALLVALUE DUP2 PUSH1 0x0 ADD DUP2 SWAP1 SSTORE POP DUP2 DUP2 PUSH1 0x1 ADD DUP2 SWAP1 SSTORE POP PUSH1 0x0 DUP2 SWAP1 DUP1 PUSH1 0x1 DUP2 SLOAD ADD DUP1 DUP3 SSTORE DUP1 SWAP2 POP POP PUSH1 0x1 SWAP1 SUB SWAP1 PUSH1 0x0 MSTORE PUSH1 0x20 PUSH1 0x0 KECCAK256 SWAP1 PUSH1 0x2 MUL ADD PUSH1 0x0 SWAP1 SWAP2 SWAP1 SWAP2 SWAP1 SWAP2 POP PUSH1 0x0 DUP3 ADD SLOAD DUP2 PUSH1 0x0 ADD SSTORE PUSH1 0x1 DUP3 ADD SLOAD DUP2 PUSH1 0x1 ADD SSTORE POP POP JUMPDEST POP POP POP JUMP JUMPDEST PUSH1 0x0 DUP1 SELFBALANCE EQ SWAP1 POP SWAP1 JUMP JUMPDEST PUSH1 0x0 DUP1 REVERT JUMPDEST PUSH1 0x0 DUP2 SWAP1 POP SWAP2 SWAP1 POP JUMP JUMPDEST PUSH2 0x3A6 DUP2 PUSH2 0x393 JUMP JUMPDEST DUP2 EQ PUSH2 0x3B1 JUMPI PUSH1 0x0 DUP1 REVERT JUMPDEST POP JUMP JUMPDEST PUSH1 0x0 DUP2 CALLDATALOAD SWAP1 POP PUSH2 0x3C3 DUP2 PUSH2 0x39D JUMP JUMPDEST SWAP3 SWAP2 POP POP JUMP JUMPDEST PUSH1 0x0 PUSH1 0x20 DUP3 DUP5 SUB SLT ISZERO PUSH2 0x3DF JUMPI PUSH2 0x3DE PUSH2 0x38E JUMP JUMPDEST JUMPDEST PUSH1 0x0 PUSH2 0x3ED DUP5 DUP3 DUP6 ADD PUSH2 0x3B4 JUMP JUMPDEST SWAP2 POP POP SWAP3 SWAP2 POP POP JUMP JUMPDEST PUSH1 0x0 DUP1 PUSH1 0x40 DUP4 DUP6 SUB SLT ISZERO PUSH2 0x40D JUMPI PUSH2 0x40C PUSH2 0x38E JUMP JUMPDEST JUMPDEST PUSH1 0x0 PUSH2 0x41B DUP6 DUP3 DUP7 ADD PUSH2 0x3B4 JUMP JUMPDEST SWAP3 POP POP PUSH1 0x20 PUSH2 0x42C DUP6 DUP3 DUP7 ADD PUSH2 0x3B4 JUMP JUMPDEST SWAP2 POP POP SWAP3 POP SWAP3 SWAP1 POP JUMP JUMPDEST PUSH1 0x0 DUP2 ISZERO ISZERO SWAP1 POP SWAP2 SWAP1 POP JUMP JUMPDEST PUSH2 0x44B DUP2 PUSH2 0x436 JUMP JUMPDEST DUP3 MSTORE POP POP JUMP JUMPDEST PUSH1 0x0 PUSH1 0x20 DUP3 ADD SWAP1 POP PUSH2 0x466 PUSH1 0x0 DUP4 ADD DUP5 PUSH2 0x442 JUMP JUMPDEST SWAP3 SWAP2 POP POP JUMP JUMPDEST PUSH32 0x4E487B7100000000000000000000000000000000000000000000000000000000 PUSH1 0x0 MSTORE PUSH1 0x32 PUSH1 0x4 MSTORE PUSH1 0x24 PUSH1 0x0 REVERT JUMPDEST PUSH32 0x4E487B7100000000000000000000000000000000000000000000000000000000 PUSH1 0x0 MSTORE PUSH1 0x11 PUSH1 0x4 MSTORE PUSH1 0x24 PUSH1 0x0 REVERT JUMPDEST PUSH1 0x0 PUSH2 0x4D5 DUP3 PUSH2 0x393 JUMP JUMPDEST SWAP2 POP PUSH2 0x4E0 DUP4 PUSH2 0x393 JUMP JUMPDEST SWAP3 POP DUP3 PUSH32 0xFFFFFFFFFFFFFFFFFFFFFFFFFFFFFFFFFFFFFFFFFFFFFFFFFFFFFFFFFFFFFFFF SUB DUP3 GT ISZERO PUSH2 0x515 JUMPI PUSH2 0x514 PUSH2 0x49B JUMP JUMPDEST JUMPDEST DUP3 DUP3 ADD SWAP1 POP SWAP3 SWAP2 POP POP JUMP JUMPDEST PUSH1 0x0 PUSH2 0x52B DUP3 PUSH2 0x393 JUMP JUMPDEST SWAP2 POP PUSH32 0xFFFFFFFFFFFFFFFFFFFFFFFFFFFFFFFFFFFFFFFFFFFFFFFFFFFFFFFFFFFFFFFF DUP3 SUB PUSH2 0x55D JUMPI PUSH2 0x55C PUSH2 0x49B JUMP JUMPDEST JUMPDEST PUSH1 0x1 DUP3 ADD SWAP1 POP SWAP2 SWAP1 POP JUMP JUMPDEST PUSH1 0x0 PUSH2 0x573 DUP3 PUSH2 0x393 JUMP JUMPDEST SWAP2 POP PUSH2 0x57E DUP4 PUSH2 0x393 JUMP JUMPDEST SWAP3 POP DUP3 DUP3 LT ISZERO PUSH2 0x591 JUMPI PUSH2 0x590 PUSH2 0x49B JUMP JUMPDEST JUMPDEST DUP3 DUP3 SUB SWAP1 POP SWAP3 SWAP2 POP POP JUMP INVALID LOG2 PUSH5 0x6970667358 0x22 SLT KECCAK256 0xA5 DUP13 CODESIZE 0xC7 0xA7 EQ 0xA6 0x5D STOP DUP10 SWAP16 BLOCKHASH DUP4 PUSH16 0x4E0877472334786F7FE7C73EB55C621A 0x5F AND PUSH5 0x736F6C6343 STOP ADDMOD 0xF STOP CALLER "
				},
				"gasEstimates": {
					"creation": {
						"codeDepositCost": "298000",
						"executionCost": "infinite",
						"totalCost": "infinite"
					},
					"external": {
						"isComplete()": "373",
						"upsert(uint256,uint256)": "infinite",
						"withdraw(uint256)": "infinite"
					}
				},
				"methodIdentifiers": {
					"isComplete()": "b2fa1c9e",
					"upsert(uint256,uint256)": "3b8f718a",
					"withdraw(uint256)": "2e1a7d4d"
				}
			},
			"storageLayout": {
				"storage": [
					{
						"astId": 10,
						"contract": "math/FiftyYearsChallenge.sol:FiftyYearsChallenge",
						"label": "queue",
						"offset": 0,
						"slot": "0",
						"type": "t_array(t_struct(Contribution)6_storage)dyn_storage"
					},
					{
						"astId": 12,
						"contract": "math/FiftyYearsChallenge.sol:FiftyYearsChallenge",
						"label": "head",
						"offset": 0,
						"slot": "1",
						"type": "t_uint256"
					},
					{
						"astId": 14,
						"contract": "math/FiftyYearsChallenge.sol:FiftyYearsChallenge",
						"label": "owner",
						"offset": 0,
						"slot": "2",
						"type": "t_address"
					}
				],
				"types": {
					"t_address": {
						"encoding": "inplace",
						"label": "address",
						"numberOfBytes": "20"
					},
					"t_array(t_struct(Contribution)6_storage)dyn_storage": {
						"base": "t_struct(Contribution)6_storage",
						"encoding": "dynamic_array",
						"label": "struct FiftyYearsChallenge.Contribution[]",
						"numberOfBytes": "32"
					},
					"t_struct(Contribution)6_storage": {
						"encoding": "inplace",
						"label": "struct FiftyYearsChallenge.Contribution",
						"members": [
							{
								"astId": 3,
								"contract": "math/FiftyYearsChallenge.sol:FiftyYearsChallenge",
								"label": "amount",
								"offset": 0,
								"slot": "0",
								"type": "t_uint256"
							},
							{
								"astId": 5,
								"contract": "math/FiftyYearsChallenge.sol:FiftyYearsChallenge",
								"label": "unlockTimestamp",
								"offset": 0,
								"slot": "1",
								"type": "t_uint256"
							}
						],
						"numberOfBytes": "64"
					},
					"t_uint256": {
						"encoding": "inplace",
						"label": "uint256",
						"numberOfBytes": "32"
					}
				}
			},
			"userdoc": {
				"kind": "user",
				"methods": {},
				"version": 1
			}
		}
	}
}