{
	"lotteries/PredictTheFutureChallenge.sol": {
		"PredictTheFutureChallenge": {
			"abi": [
				{
					"inputs": [],
					"stateMutability": "payable",
					"type": "constructor"
				},
				{
					"inputs": [],
					"name": "isComplete",
					"outputs": [
						{
							"internalType": "bool",
							"name": "",
							"type": "bool"
						}
					],
					"stateMutability": "view",
					"type": "function"
				},
				{
					"inputs": [
						{
							"internalType": "uint8",
							"name": "n",
							"type": "uint8"
						}
					],
					"name": "lockInGuess",
					"outputs": [],
					"stateMutability": "payable",
					"type": "function"
				},
				{
					"inputs": [],
					"name": "settle",
					"outputs": [],
					"stateMutability": "nonpayable",
					"type": "function"
				}
			],
			"devdoc": {
				"kind": "dev",
				"methods": {},
				"version": 1
			},
			"evm": {
				"assembly": "    /* \"lotteries/PredictTheFutureChallenge.sol\":61:1019  contract PredictTheFutureChallenge {... */\n  mstore(0x40, 0x80)\n    /* \"lotteries/PredictTheFutureChallenge.sol\":233:240  1 ether */\n  0x0de0b6b3a7640000\n    /* \"lotteries/PredictTheFutureChallenge.sol\":220:229  msg.value */\n  callvalue\n    /* \"lotteries/PredictTheFutureChallenge.sol\":220:240  msg.value == 1 ether */\n  eq\n    /* \"lotteries/PredictTheFutureChallenge.sol\":212:241  require(msg.value == 1 ether) */\n  tag_3\n  jumpi\n  0x00\n  dup1\n  revert\ntag_3:\n    /* \"lotteries/PredictTheFutureChallenge.sol\":61:1019  contract PredictTheFutureChallenge {... */\n  dataSize(sub_0)\n  dup1\n  dataOffset(sub_0)\n  0x00\n  codecopy\n  0x00\n  return\nstop\n\nsub_0: assembly {\n        /* \"lotteries/PredictTheFutureChallenge.sol\":61:1019  contract PredictTheFutureChallenge {... */\n      mstore(0x40, 0x80)\n      jumpi(tag_1, lt(calldatasize, 0x04))\n      shr(0xe0, calldataload(0x00))\n      dup1\n      0x11da60b4\n      eq\n      tag_2\n      jumpi\n      dup1\n      0x2c0e0054\n      eq\n      tag_3\n      jumpi\n      dup1\n      0xb2fa1c9e\n      eq\n      tag_4\n      jumpi\n    tag_1:\n      0x00\n      dup1\n      revert\n        /* \"lotteries/PredictTheFutureChallenge.sol\":614:1016  function settle() public {... */\n    tag_2:\n      callvalue\n      dup1\n      iszero\n      tag_5\n      jumpi\n      0x00\n      dup1\n      revert\n    tag_5:\n      pop\n      tag_6\n      tag_7\n      jump\t// in\n    tag_6:\n      stop\n        /* \"lotteries/PredictTheFutureChallenge.sol\":366:606  function lockInGuess(uint8 n) public payable {... */\n    tag_3:\n      tag_8\n      0x04\n      dup1\n      calldatasize\n      sub\n      dup2\n      add\n      swap1\n      tag_9\n      swap2\n      swap1\n      tag_10\n      jump\t// in\n    tag_9:\n      tag_11\n      jump\t// in\n    tag_8:\n      stop\n        /* \"lotteries/PredictTheFutureChallenge.sol\":257:358  function isComplete() public view returns (bool) {... */\n    tag_4:\n      callvalue\n      dup1\n      iszero\n      tag_12\n      jumpi\n      0x00\n      dup1\n      revert\n    tag_12:\n      pop\n      tag_13\n      tag_14\n      jump\t// in\n    tag_13:\n      mload(0x40)\n      tag_15\n      swap2\n      swap1\n      tag_16\n      jump\t// in\n    tag_15:\n      mload(0x40)\n      dup1\n      swap2\n      sub\n      swap1\n      return\n        /* \"lotteries/PredictTheFutureChallenge.sol\":614:1016  function settle() public {... */\n    tag_7:\n        /* \"lotteries/PredictTheFutureChallenge.sol\":672:679  guesser */\n      0x00\n      dup1\n      sload\n      swap1\n      0x0100\n      exp\n      swap1\n      div\n      0xffffffffffffffffffffffffffffffffffffffff\n      and\n        /* \"lotteries/PredictTheFutureChallenge.sol\":658:679  msg.sender == guesser */\n      0xffffffffffffffffffffffffffffffffffffffff\n      and\n        /* \"lotteries/PredictTheFutureChallenge.sol\":658:668  msg.sender */\n      caller\n        /* \"lotteries/PredictTheFutureChallenge.sol\":658:679  msg.sender == guesser */\n      0xffffffffffffffffffffffffffffffffffffffff\n      and\n      eq\n        /* \"lotteries/PredictTheFutureChallenge.sol\":650:680  require(msg.sender == guesser) */\n      tag_18\n      jumpi\n      0x00\n      dup1\n      revert\n    tag_18:\n        /* \"lotteries/PredictTheFutureChallenge.sol\":714:735  settlementBlockNumber */\n      sload(0x01)\n        /* \"lotteries/PredictTheFutureChallenge.sol\":699:711  block.number */\n      number\n        /* \"lotteries/PredictTheFutureChallenge.sol\":699:735  block.number > settlementBlockNumber */\n      gt\n        /* \"lotteries/PredictTheFutureChallenge.sol\":691:736  require(block.number > settlementBlockNumber) */\n      tag_19\n      jumpi\n      0x00\n      dup1\n      revert\n    tag_19:\n        /* \"lotteries/PredictTheFutureChallenge.sol\":749:761  uint8 answer */\n      0x00\n        /* \"lotteries/PredictTheFutureChallenge.sol\":876:878  10 */\n      0x0a\n        /* \"lotteries/PredictTheFutureChallenge.sol\":840:841  1 */\n      0x01\n        /* \"lotteries/PredictTheFutureChallenge.sol\":825:837  block.number */\n      number\n        /* \"lotteries/PredictTheFutureChallenge.sol\":825:841  block.number - 1 */\n      tag_20\n      swap2\n      swap1\n      tag_21\n      jump\t// in\n    tag_20:\n        /* \"lotteries/PredictTheFutureChallenge.sol\":815:842  blockhash(block.number - 1) */\n      blockhash\n        /* \"lotteries/PredictTheFutureChallenge.sol\":844:859  block.timestamp */\n      timestamp\n        /* \"lotteries/PredictTheFutureChallenge.sol\":798:860  abi.encodePacked(blockhash(block.number - 1), block.timestamp) */\n      add(0x20, mload(0x40))\n      tag_22\n      swap3\n      swap2\n      swap1\n      tag_23\n      jump\t// in\n    tag_22:\n      mload(0x40)\n      0x20\n      dup2\n      dup4\n      sub\n      sub\n      dup2\n      mstore\n      swap1\n      0x40\n      mstore\n        /* \"lotteries/PredictTheFutureChallenge.sol\":788:861  keccak256(abi.encodePacked(blockhash(block.number - 1), block.timestamp)) */\n      dup1\n      mload\n      swap1\n      0x20\n      add\n      keccak256\n        /* \"lotteries/PredictTheFutureChallenge.sol\":770:872  uint256(... */\n      0x00\n      shr\n        /* \"lotteries/PredictTheFutureChallenge.sol\":764:878  uint8(uint256(... */\n      tag_24\n      swap2\n      swap1\n      tag_25\n      jump\t// in\n    tag_24:\n        /* \"lotteries/PredictTheFutureChallenge.sol\":749:878  uint8 answer = uint8(uint256(... */\n      swap1\n      pop\n        /* \"lotteries/PredictTheFutureChallenge.sol\":909:912  0x0 */\n      0x00\n        /* \"lotteries/PredictTheFutureChallenge.sol\":891:898  guesser */\n      dup1\n      0x00\n        /* \"lotteries/PredictTheFutureChallenge.sol\":891:913  guesser = address(0x0) */\n      0x0100\n      exp\n      dup2\n      sload\n      dup2\n      0xffffffffffffffffffffffffffffffffffffffff\n      mul\n      not\n      and\n      swap1\n      dup4\n      0xffffffffffffffffffffffffffffffffffffffff\n      and\n      mul\n      or\n      swap1\n      sstore\n      pop\n        /* \"lotteries/PredictTheFutureChallenge.sol\":937:943  answer */\n      dup1\n        /* \"lotteries/PredictTheFutureChallenge.sol\":928:943  guess == answer */\n      0xff\n      and\n        /* \"lotteries/PredictTheFutureChallenge.sol\":928:933  guess */\n      0x00\n      0x14\n      swap1\n      sload\n      swap1\n      0x0100\n      exp\n      swap1\n      div\n      0xff\n      and\n        /* \"lotteries/PredictTheFutureChallenge.sol\":928:943  guess == answer */\n      0xff\n      and\n      sub\n        /* \"lotteries/PredictTheFutureChallenge.sol\":924:1009  if (guess == answer) {... */\n      tag_26\n      jumpi\n        /* \"lotteries/PredictTheFutureChallenge.sol\":968:978  msg.sender */\n      caller\n        /* \"lotteries/PredictTheFutureChallenge.sol\":960:988  payable(msg.sender).transfer */\n      0xffffffffffffffffffffffffffffffffffffffff\n      and\n        /* \"lotteries/PredictTheFutureChallenge.sol\":960:997  payable(msg.sender).transfer(2 ether) */\n      0x08fc\n        /* \"lotteries/PredictTheFutureChallenge.sol\":989:996  2 ether */\n      0x1bc16d674ec80000\n        /* \"lotteries/PredictTheFutureChallenge.sol\":960:997  payable(msg.sender).transfer(2 ether) */\n      swap1\n      dup2\n      iszero\n      mul\n      swap1\n      mload(0x40)\n      0x00\n      mload(0x40)\n      dup1\n      dup4\n      sub\n      dup2\n      dup6\n      dup9\n      dup9\n      call\n      swap4\n      pop\n      pop\n      pop\n      pop\n      iszero\n      dup1\n      iszero\n      tag_28\n      jumpi\n      returndatasize\n      0x00\n      dup1\n      returndatacopy\n      revert(0x00, returndatasize)\n    tag_28:\n      pop\n        /* \"lotteries/PredictTheFutureChallenge.sol\":924:1009  if (guess == answer) {... */\n    tag_26:\n        /* \"lotteries/PredictTheFutureChallenge.sol\":639:1016  {... */\n      pop\n        /* \"lotteries/PredictTheFutureChallenge.sol\":614:1016  function settle() public {... */\n      jump\t// out\n        /* \"lotteries/PredictTheFutureChallenge.sol\":366:606  function lockInGuess(uint8 n) public payable {... */\n    tag_11:\n        /* \"lotteries/PredictTheFutureChallenge.sol\":449:452  0x0 */\n      0x00\n        /* \"lotteries/PredictTheFutureChallenge.sol\":430:453  guesser == address(0x0) */\n      0xffffffffffffffffffffffffffffffffffffffff\n      and\n        /* \"lotteries/PredictTheFutureChallenge.sol\":430:437  guesser */\n      0x00\n      dup1\n      sload\n      swap1\n      0x0100\n      exp\n      swap1\n      div\n      0xffffffffffffffffffffffffffffffffffffffff\n      and\n        /* \"lotteries/PredictTheFutureChallenge.sol\":430:453  guesser == address(0x0) */\n      0xffffffffffffffffffffffffffffffffffffffff\n      and\n      eq\n        /* \"lotteries/PredictTheFutureChallenge.sol\":422:454  require(guesser == address(0x0)) */\n      tag_30\n      jumpi\n      0x00\n      dup1\n      revert\n    tag_30:\n        /* \"lotteries/PredictTheFutureChallenge.sol\":486:493  1 ether */\n      0x0de0b6b3a7640000\n        /* \"lotteries/PredictTheFutureChallenge.sol\":473:482  msg.value */\n      callvalue\n        /* \"lotteries/PredictTheFutureChallenge.sol\":473:493  msg.value == 1 ether */\n      eq\n        /* \"lotteries/PredictTheFutureChallenge.sol\":465:494  require(msg.value == 1 ether) */\n      tag_31\n      jumpi\n      0x00\n      dup1\n      revert\n    tag_31:\n        /* \"lotteries/PredictTheFutureChallenge.sol\":517:527  msg.sender */\n      caller\n        /* \"lotteries/PredictTheFutureChallenge.sol\":507:514  guesser */\n      0x00\n      dup1\n        /* \"lotteries/PredictTheFutureChallenge.sol\":507:527  guesser = msg.sender */\n      0x0100\n      exp\n      dup2\n      sload\n      dup2\n      0xffffffffffffffffffffffffffffffffffffffff\n      mul\n      not\n      and\n      swap1\n      dup4\n      0xffffffffffffffffffffffffffffffffffffffff\n      and\n      mul\n      or\n      swap1\n      sstore\n      pop\n        /* \"lotteries/PredictTheFutureChallenge.sol\":546:547  n */\n      dup1\n        /* \"lotteries/PredictTheFutureChallenge.sol\":538:543  guess */\n      0x00\n      0x14\n        /* \"lotteries/PredictTheFutureChallenge.sol\":538:547  guess = n */\n      0x0100\n      exp\n      dup2\n      sload\n      dup2\n      0xff\n      mul\n      not\n      and\n      swap1\n      dup4\n      0xff\n      and\n      mul\n      or\n      swap1\n      sstore\n      pop\n        /* \"lotteries/PredictTheFutureChallenge.sol\":597:598  1 */\n      0x01\n        /* \"lotteries/PredictTheFutureChallenge.sol\":582:594  block.number */\n      number\n        /* \"lotteries/PredictTheFutureChallenge.sol\":582:598  block.number + 1 */\n      tag_32\n      swap2\n      swap1\n      tag_33\n      jump\t// in\n    tag_32:\n        /* \"lotteries/PredictTheFutureChallenge.sol\":558:579  settlementBlockNumber */\n      0x01\n        /* \"lotteries/PredictTheFutureChallenge.sol\":558:598  settlementBlockNumber = block.number + 1 */\n      dup2\n      swap1\n      sstore\n      pop\n        /* \"lotteries/PredictTheFutureChallenge.sol\":366:606  function lockInGuess(uint8 n) public payable {... */\n      pop\n      jump\t// out\n        /* \"lotteries/PredictTheFutureChallenge.sol\":257:358  function isComplete() public view returns (bool) {... */\n    tag_14:\n        /* \"lotteries/PredictTheFutureChallenge.sol\":300:304  bool */\n      0x00\n        /* \"lotteries/PredictTheFutureChallenge.sol\":349:350  0 */\n      dup1\n        /* \"lotteries/PredictTheFutureChallenge.sol\":324:345  address(this).balance */\n      selfbalance\n        /* \"lotteries/PredictTheFutureChallenge.sol\":324:350  address(this).balance == 0 */\n      eq\n        /* \"lotteries/PredictTheFutureChallenge.sol\":317:350  return address(this).balance == 0 */\n      swap1\n      pop\n        /* \"lotteries/PredictTheFutureChallenge.sol\":257:358  function isComplete() public view returns (bool) {... */\n      swap1\n      jump\t// out\n        /* \"#utility.yul\":88:205   */\n    tag_36:\n        /* \"#utility.yul\":197:198   */\n      0x00\n        /* \"#utility.yul\":194:195   */\n      dup1\n        /* \"#utility.yul\":187:199   */\n      revert\n        /* \"#utility.yul\":334:420   */\n    tag_38:\n        /* \"#utility.yul\":369:376   */\n      0x00\n        /* \"#utility.yul\":409:413   */\n      0xff\n        /* \"#utility.yul\":402:407   */\n      dup3\n        /* \"#utility.yul\":398:414   */\n      and\n        /* \"#utility.yul\":387:414   */\n      swap1\n      pop\n        /* \"#utility.yul\":334:420   */\n      swap2\n      swap1\n      pop\n      jump\t// out\n        /* \"#utility.yul\":426:544   */\n    tag_39:\n        /* \"#utility.yul\":497:519   */\n      tag_57\n        /* \"#utility.yul\":513:518   */\n      dup2\n        /* \"#utility.yul\":497:519   */\n      tag_38\n      jump\t// in\n    tag_57:\n        /* \"#utility.yul\":490:495   */\n      dup2\n        /* \"#utility.yul\":487:520   */\n      eq\n        /* \"#utility.yul\":477:538   */\n      tag_58\n      jumpi\n        /* \"#utility.yul\":534:535   */\n      0x00\n        /* \"#utility.yul\":531:532   */\n      dup1\n        /* \"#utility.yul\":524:536   */\n      revert\n        /* \"#utility.yul\":477:538   */\n    tag_58:\n        /* \"#utility.yul\":426:544   */\n      pop\n      jump\t// out\n        /* \"#utility.yul\":550:685   */\n    tag_40:\n        /* \"#utility.yul\":594:599   */\n      0x00\n        /* \"#utility.yul\":632:638   */\n      dup2\n        /* \"#utility.yul\":619:639   */\n      calldataload\n        /* \"#utility.yul\":610:639   */\n      swap1\n      pop\n        /* \"#utility.yul\":648:679   */\n      tag_60\n        /* \"#utility.yul\":673:678   */\n      dup2\n        /* \"#utility.yul\":648:679   */\n      tag_39\n      jump\t// in\n    tag_60:\n        /* \"#utility.yul\":550:685   */\n      swap3\n      swap2\n      pop\n      pop\n      jump\t// out\n        /* \"#utility.yul\":691:1016   */\n    tag_10:\n        /* \"#utility.yul\":748:754   */\n      0x00\n        /* \"#utility.yul\":797:799   */\n      0x20\n        /* \"#utility.yul\":785:794   */\n      dup3\n        /* \"#utility.yul\":776:783   */\n      dup5\n        /* \"#utility.yul\":772:795   */\n      sub\n        /* \"#utility.yul\":768:800   */\n      slt\n        /* \"#utility.yul\":765:884   */\n      iszero\n      tag_62\n      jumpi\n        /* \"#utility.yul\":803:882   */\n      tag_63\n      tag_36\n      jump\t// in\n    tag_63:\n        /* \"#utility.yul\":765:884   */\n    tag_62:\n        /* \"#utility.yul\":923:924   */\n      0x00\n        /* \"#utility.yul\":948:999   */\n      tag_64\n        /* \"#utility.yul\":991:998   */\n      dup5\n        /* \"#utility.yul\":982:988   */\n      dup3\n        /* \"#utility.yul\":971:980   */\n      dup6\n        /* \"#utility.yul\":967:989   */\n      add\n        /* \"#utility.yul\":948:999   */\n      tag_40\n      jump\t// in\n    tag_64:\n        /* \"#utility.yul\":938:999   */\n      swap2\n      pop\n        /* \"#utility.yul\":894:1009   */\n      pop\n        /* \"#utility.yul\":691:1016   */\n      swap3\n      swap2\n      pop\n      pop\n      jump\t// out\n        /* \"#utility.yul\":1022:1112   */\n    tag_41:\n        /* \"#utility.yul\":1056:1063   */\n      0x00\n        /* \"#utility.yul\":1099:1104   */\n      dup2\n        /* \"#utility.yul\":1092:1105   */\n      iszero\n        /* \"#utility.yul\":1085:1106   */\n      iszero\n        /* \"#utility.yul\":1074:1106   */\n      swap1\n      pop\n        /* \"#utility.yul\":1022:1112   */\n      swap2\n      swap1\n      pop\n      jump\t// out\n        /* \"#utility.yul\":1118:1227   */\n    tag_42:\n        /* \"#utility.yul\":1199:1220   */\n      tag_67\n        /* \"#utility.yul\":1214:1219   */\n      dup2\n        /* \"#utility.yul\":1199:1220   */\n      tag_41\n      jump\t// in\n    tag_67:\n        /* \"#utility.yul\":1194:1197   */\n      dup3\n        /* \"#utility.yul\":1187:1221   */\n      mstore\n        /* \"#utility.yul\":1118:1227   */\n      pop\n      pop\n      jump\t// out\n        /* \"#utility.yul\":1233:1443   */\n    tag_16:\n        /* \"#utility.yul\":1320:1324   */\n      0x00\n        /* \"#utility.yul\":1358:1360   */\n      0x20\n        /* \"#utility.yul\":1347:1356   */\n      dup3\n        /* \"#utility.yul\":1343:1361   */\n      add\n        /* \"#utility.yul\":1335:1361   */\n      swap1\n      pop\n        /* \"#utility.yul\":1371:1436   */\n      tag_69\n        /* \"#utility.yul\":1433:1434   */\n      0x00\n        /* \"#utility.yul\":1422:1431   */\n      dup4\n        /* \"#utility.yul\":1418:1435   */\n      add\n        /* \"#utility.yul\":1409:1415   */\n      dup5\n        /* \"#utility.yul\":1371:1436   */\n      tag_42\n      jump\t// in\n    tag_69:\n        /* \"#utility.yul\":1233:1443   */\n      swap3\n      swap2\n      pop\n      pop\n      jump\t// out\n        /* \"#utility.yul\":1449:1526   */\n    tag_43:\n        /* \"#utility.yul\":1486:1493   */\n      0x00\n        /* \"#utility.yul\":1515:1520   */\n      dup2\n        /* \"#utility.yul\":1504:1520   */\n      swap1\n      pop\n        /* \"#utility.yul\":1449:1526   */\n      swap2\n      swap1\n      pop\n      jump\t// out\n        /* \"#utility.yul\":1532:1712   */\n    tag_44:\n        /* \"#utility.yul\":1580:1657   */\n      0x4e487b7100000000000000000000000000000000000000000000000000000000\n        /* \"#utility.yul\":1577:1578   */\n      0x00\n        /* \"#utility.yul\":1570:1658   */\n      mstore\n        /* \"#utility.yul\":1677:1681   */\n      0x11\n        /* \"#utility.yul\":1674:1675   */\n      0x04\n        /* \"#utility.yul\":1667:1682   */\n      mstore\n        /* \"#utility.yul\":1701:1705   */\n      0x24\n        /* \"#utility.yul\":1698:1699   */\n      0x00\n        /* \"#utility.yul\":1691:1706   */\n      revert\n        /* \"#utility.yul\":1718:1909   */\n    tag_21:\n        /* \"#utility.yul\":1758:1762   */\n      0x00\n        /* \"#utility.yul\":1778:1798   */\n      tag_73\n        /* \"#utility.yul\":1796:1797   */\n      dup3\n        /* \"#utility.yul\":1778:1798   */\n      tag_43\n      jump\t// in\n    tag_73:\n        /* \"#utility.yul\":1773:1798   */\n      swap2\n      pop\n        /* \"#utility.yul\":1812:1832   */\n      tag_74\n        /* \"#utility.yul\":1830:1831   */\n      dup4\n        /* \"#utility.yul\":1812:1832   */\n      tag_43\n      jump\t// in\n    tag_74:\n        /* \"#utility.yul\":1807:1832   */\n      swap3\n      pop\n        /* \"#utility.yul\":1851:1852   */\n      dup3\n        /* \"#utility.yul\":1848:1849   */\n      dup3\n        /* \"#utility.yul\":1845:1853   */\n      lt\n        /* \"#utility.yul\":1842:1876   */\n      iszero\n      tag_75\n      jumpi\n        /* \"#utility.yul\":1856:1874   */\n      tag_76\n      tag_44\n      jump\t// in\n    tag_76:\n        /* \"#utility.yul\":1842:1876   */\n    tag_75:\n        /* \"#utility.yul\":1901:1902   */\n      dup3\n        /* \"#utility.yul\":1898:1899   */\n      dup3\n        /* \"#utility.yul\":1894:1903   */\n      sub\n        /* \"#utility.yul\":1886:1903   */\n      swap1\n      pop\n        /* \"#utility.yul\":1718:1909   */\n      swap3\n      swap2\n      pop\n      pop\n      jump\t// out\n        /* \"#utility.yul\":1915:1992   */\n    tag_45:\n        /* \"#utility.yul\":1952:1959   */\n      0x00\n        /* \"#utility.yul\":1981:1986   */\n      dup2\n        /* \"#utility.yul\":1970:1986   */\n      swap1\n      pop\n        /* \"#utility.yul\":1915:1992   */\n      swap2\n      swap1\n      pop\n      jump\t// out\n        /* \"#utility.yul\":1998:2077   */\n    tag_46:\n        /* \"#utility.yul\":2037:2044   */\n      0x00\n        /* \"#utility.yul\":2066:2071   */\n      dup2\n        /* \"#utility.yul\":2055:2071   */\n      swap1\n      pop\n        /* \"#utility.yul\":1998:2077   */\n      swap2\n      swap1\n      pop\n      jump\t// out\n        /* \"#utility.yul\":2083:2240   */\n    tag_47:\n        /* \"#utility.yul\":2188:2233   */\n      tag_80\n        /* \"#utility.yul\":2208:2232   */\n      tag_81\n        /* \"#utility.yul\":2226:2231   */\n      dup3\n        /* \"#utility.yul\":2208:2232   */\n      tag_45\n      jump\t// in\n    tag_81:\n        /* \"#utility.yul\":2188:2233   */\n      tag_46\n      jump\t// in\n    tag_80:\n        /* \"#utility.yul\":2183:2186   */\n      dup3\n        /* \"#utility.yul\":2176:2234   */\n      mstore\n        /* \"#utility.yul\":2083:2240   */\n      pop\n      pop\n      jump\t// out\n        /* \"#utility.yul\":2246:2325   */\n    tag_48:\n        /* \"#utility.yul\":2285:2292   */\n      0x00\n        /* \"#utility.yul\":2314:2319   */\n      dup2\n        /* \"#utility.yul\":2303:2319   */\n      swap1\n      pop\n        /* \"#utility.yul\":2246:2325   */\n      swap2\n      swap1\n      pop\n      jump\t// out\n        /* \"#utility.yul\":2331:2488   */\n    tag_49:\n        /* \"#utility.yul\":2436:2481   */\n      tag_84\n        /* \"#utility.yul\":2456:2480   */\n      tag_85\n        /* \"#utility.yul\":2474:2479   */\n      dup3\n        /* \"#utility.yul\":2456:2480   */\n      tag_43\n      jump\t// in\n    tag_85:\n        /* \"#utility.yul\":2436:2481   */\n      tag_48\n      jump\t// in\n    tag_84:\n        /* \"#utility.yul\":2431:2434   */\n      dup3\n        /* \"#utility.yul\":2424:2482   */\n      mstore\n        /* \"#utility.yul\":2331:2488   */\n      pop\n      pop\n      jump\t// out\n        /* \"#utility.yul\":2494:2891   */\n    tag_23:\n        /* \"#utility.yul\":2634:2637   */\n      0x00\n        /* \"#utility.yul\":2649:2724   */\n      tag_87\n        /* \"#utility.yul\":2720:2723   */\n      dup3\n        /* \"#utility.yul\":2711:2717   */\n      dup6\n        /* \"#utility.yul\":2649:2724   */\n      tag_47\n      jump\t// in\n    tag_87:\n        /* \"#utility.yul\":2749:2751   */\n      0x20\n        /* \"#utility.yul\":2744:2747   */\n      dup3\n        /* \"#utility.yul\":2740:2752   */\n      add\n        /* \"#utility.yul\":2733:2752   */\n      swap2\n      pop\n        /* \"#utility.yul\":2762:2837   */\n      tag_88\n        /* \"#utility.yul\":2833:2836   */\n      dup3\n        /* \"#utility.yul\":2824:2830   */\n      dup5\n        /* \"#utility.yul\":2762:2837   */\n      tag_49\n      jump\t// in\n    tag_88:\n        /* \"#utility.yul\":2862:2864   */\n      0x20\n        /* \"#utility.yul\":2857:2860   */\n      dup3\n        /* \"#utility.yul\":2853:2865   */\n      add\n        /* \"#utility.yul\":2846:2865   */\n      swap2\n      pop\n        /* \"#utility.yul\":2882:2885   */\n      dup2\n        /* \"#utility.yul\":2875:2885   */\n      swap1\n      pop\n        /* \"#utility.yul\":2494:2891   */\n      swap4\n      swap3\n      pop\n      pop\n      pop\n      jump\t// out\n        /* \"#utility.yul\":2897:3077   */\n    tag_50:\n        /* \"#utility.yul\":2945:3022   */\n      0x4e487b7100000000000000000000000000000000000000000000000000000000\n        /* \"#utility.yul\":2942:2943   */\n      0x00\n        /* \"#utility.yul\":2935:3023   */\n      mstore\n        /* \"#utility.yul\":3042:3046   */\n      0x12\n        /* \"#utility.yul\":3039:3040   */\n      0x04\n        /* \"#utility.yul\":3032:3047   */\n      mstore\n        /* \"#utility.yul\":3066:3070   */\n      0x24\n        /* \"#utility.yul\":3063:3064   */\n      0x00\n        /* \"#utility.yul\":3056:3071   */\n      revert\n        /* \"#utility.yul\":3083:3253   */\n    tag_25:\n        /* \"#utility.yul\":3113:3114   */\n      0x00\n        /* \"#utility.yul\":3130:3148   */\n      tag_91\n        /* \"#utility.yul\":3146:3147   */\n      dup3\n        /* \"#utility.yul\":3130:3148   */\n      tag_38\n      jump\t// in\n    tag_91:\n        /* \"#utility.yul\":3125:3148   */\n      swap2\n      pop\n        /* \"#utility.yul\":3162:3180   */\n      tag_92\n        /* \"#utility.yul\":3178:3179   */\n      dup4\n        /* \"#utility.yul\":3162:3180   */\n      tag_38\n      jump\t// in\n    tag_92:\n        /* \"#utility.yul\":3157:3180   */\n      swap3\n      pop\n        /* \"#utility.yul\":3199:3200   */\n      dup3\n        /* \"#utility.yul\":3189:3224   */\n      tag_93\n      jumpi\n        /* \"#utility.yul\":3204:3222   */\n      tag_94\n      tag_50\n      jump\t// in\n    tag_94:\n        /* \"#utility.yul\":3189:3224   */\n    tag_93:\n        /* \"#utility.yul\":3245:3246   */\n      dup3\n        /* \"#utility.yul\":3242:3243   */\n      dup3\n        /* \"#utility.yul\":3238:3247   */\n      mod\n        /* \"#utility.yul\":3233:3247   */\n      swap1\n      pop\n        /* \"#utility.yul\":3083:3253   */\n      swap3\n      swap2\n      pop\n      pop\n      jump\t// out\n        /* \"#utility.yul\":3259:3564   */\n    tag_33:\n        /* \"#utility.yul\":3299:3302   */\n      0x00\n        /* \"#utility.yul\":3318:3338   */\n      tag_96\n        /* \"#utility.yul\":3336:3337   */\n      dup3\n        /* \"#utility.yul\":3318:3338   */\n      tag_43\n      jump\t// in\n    tag_96:\n        /* \"#utility.yul\":3313:3338   */\n      swap2\n      pop\n        /* \"#utility.yul\":3352:3372   */\n      tag_97\n        /* \"#utility.yul\":3370:3371   */\n      dup4\n        /* \"#utility.yul\":3352:3372   */\n      tag_43\n      jump\t// in\n    tag_97:\n        /* \"#utility.yul\":3347:3372   */\n      swap3\n      pop\n        /* \"#utility.yul\":3506:3507   */\n      dup3\n        /* \"#utility.yul\":3438:3504   */\n      0xffffffffffffffffffffffffffffffffffffffffffffffffffffffffffffffff\n        /* \"#utility.yul\":3434:3508   */\n      sub\n        /* \"#utility.yul\":3431:3432   */\n      dup3\n        /* \"#utility.yul\":3428:3509   */\n      gt\n        /* \"#utility.yul\":3425:3532   */\n      iszero\n      tag_98\n      jumpi\n        /* \"#utility.yul\":3512:3530   */\n      tag_99\n      tag_44\n      jump\t// in\n    tag_99:\n        /* \"#utility.yul\":3425:3532   */\n    tag_98:\n        /* \"#utility.yul\":3556:3557   */\n      dup3\n        /* \"#utility.yul\":3553:3554   */\n      dup3\n        /* \"#utility.yul\":3549:3558   */\n      add\n        /* \"#utility.yul\":3542:3558   */\n      swap1\n      pop\n        /* \"#utility.yul\":3259:3564   */\n      swap3\n      swap2\n      pop\n      pop\n      jump\t// out\n\n    auxdata: 0xa26469706673582212209dc4d33024255c5e1fc8b3457cefd9e0c4f103040b6381f6dfb33a2def45793964736f6c634300080f0033\n}\n",
				"bytecode": {
					"linkReferences": {},
					"object": "6080604052670de0b6b3a7640000341461001857600080fd5b610550806100276000396000f3fe6080604052600436106100345760003560e01c806311da60b4146100395780632c0e005414610050578063b2fa1c9e1461006c575b600080fd5b34801561004557600080fd5b5061004e610097565b005b61006a6004803603810190610065919061031c565b6101f6565b005b34801561007857600080fd5b506100816102d4565b60405161008e9190610364565b60405180910390f35b60008054906101000a900473ffffffffffffffffffffffffffffffffffffffff1673ffffffffffffffffffffffffffffffffffffffff163373ffffffffffffffffffffffffffffffffffffffff16146100ef57600080fd5b60015443116100fd57600080fd5b6000600a60014361010e91906103b8565b4042604051602001610121929190610438565b6040516020818303038152906040528051906020012060001c6101449190610493565b905060008060006101000a81548173ffffffffffffffffffffffffffffffffffffffff021916908373ffffffffffffffffffffffffffffffffffffffff1602179055508060ff16600060149054906101000a900460ff1660ff16036101f3573373ffffffffffffffffffffffffffffffffffffffff166108fc671bc16d674ec800009081150290604051600060405180830381858888f193505050501580156101f1573d6000803e3d6000fd5b505b50565b600073ffffffffffffffffffffffffffffffffffffffff1660008054906101000a900473ffffffffffffffffffffffffffffffffffffffff1673ffffffffffffffffffffffffffffffffffffffff161461024f57600080fd5b670de0b6b3a7640000341461026357600080fd5b336000806101000a81548173ffffffffffffffffffffffffffffffffffffffff021916908373ffffffffffffffffffffffffffffffffffffffff16021790555080600060146101000a81548160ff021916908360ff1602179055506001436102cb91906104c4565b60018190555050565b6000804714905090565b600080fd5b600060ff82169050919050565b6102f9816102e3565b811461030457600080fd5b50565b600081359050610316816102f0565b92915050565b600060208284031215610332576103316102de565b5b600061034084828501610307565b91505092915050565b60008115159050919050565b61035e81610349565b82525050565b60006020820190506103796000830184610355565b92915050565b6000819050919050565b7f4e487b7100000000000000000000000000000000000000000000000000000000600052601160045260246000fd5b60006103c38261037f565b91506103ce8361037f565b9250828210156103e1576103e0610389565b5b828203905092915050565b6000819050919050565b6000819050919050565b61041161040c826103ec565b6103f6565b82525050565b6000819050919050565b61043261042d8261037f565b610417565b82525050565b60006104448285610400565b6020820191506104548284610421565b6020820191508190509392505050565b7f4e487b7100000000000000000000000000000000000000000000000000000000600052601260045260246000fd5b600061049e826102e3565b91506104a9836102e3565b9250826104b9576104b8610464565b5b828206905092915050565b60006104cf8261037f565b91506104da8361037f565b9250827fffffffffffffffffffffffffffffffffffffffffffffffffffffffffffffffff0382111561050f5761050e610389565b5b82820190509291505056fea26469706673582212209dc4d33024255c5e1fc8b3457cefd9e0c4f103040b6381f6dfb33a2def45793964736f6c634300080f0033",
					"opcodes": "PUSH1 0x80 PUSH1 0x40 MSTORE PUSH8 0xDE0B6B3A7640000 CALLVALUE EQ PUSH2 0x18 JUMPI PUSH1 0x0 DUP1 REVERT JUMPDEST PUSH2 0x550 DUP1 PUSH2 0x27 PUSH1 0x0 CODECOPY PUSH1 0x0 RETURN INVALID PUSH1 0x80 PUSH1 0x40 MSTORE PUSH1 0x4 CALLDATASIZE LT PUSH2 0x34 JUMPI PUSH1 0x0 CALLDATALOAD PUSH1 0xE0 SHR DUP1 PUSH4 0x11DA60B4 EQ PUSH2 0x39 JUMPI DUP1 PUSH4 0x2C0E0054 EQ PUSH2 0x50 JUMPI DUP1 PUSH4 0xB2FA1C9E EQ PUSH2 0x6C JUMPI JUMPDEST PUSH1 0x0 DUP1 REVERT JUMPDEST CALLVALUE DUP1 ISZERO PUSH2 0x45 JUMPI PUSH1 0x0 DUP1 REVERT JUMPDEST POP PUSH2 0x4E PUSH2 0x97 JUMP JUMPDEST STOP JUMPDEST PUSH2 0x6A PUSH1 0x4 DUP1 CALLDATASIZE SUB DUP2 ADD SWAP1 PUSH2 0x65 SWAP2 SWAP1 PUSH2 0x31C JUMP JUMPDEST PUSH2 0x1F6 JUMP JUMPDEST STOP JUMPDEST CALLVALUE DUP1 ISZERO PUSH2 0x78 JUMPI PUSH1 0x0 DUP1 REVERT JUMPDEST POP PUSH2 0x81 PUSH2 0x2D4 JUMP JUMPDEST PUSH1 0x40 MLOAD PUSH2 0x8E SWAP2 SWAP1 PUSH2 0x364 JUMP JUMPDEST PUSH1 0x40 MLOAD DUP1 SWAP2 SUB SWAP1 RETURN JUMPDEST PUSH1 0x0 DUP1 SLOAD SWAP1 PUSH2 0x100 EXP SWAP1 DIV PUSH20 0xFFFFFFFFFFFFFFFFFFFFFFFFFFFFFFFFFFFFFFFF AND PUSH20 0xFFFFFFFFFFFFFFFFFFFFFFFFFFFFFFFFFFFFFFFF AND CALLER PUSH20 0xFFFFFFFFFFFFFFFFFFFFFFFFFFFFFFFFFFFFFFFF AND EQ PUSH2 0xEF JUMPI PUSH1 0x0 DUP1 REVERT JUMPDEST PUSH1 0x1 SLOAD NUMBER GT PUSH2 0xFD JUMPI PUSH1 0x0 DUP1 REVERT JUMPDEST PUSH1 0x0 PUSH1 0xA PUSH1 0x1 NUMBER PUSH2 0x10E SWAP2 SWAP1 PUSH2 0x3B8 JUMP JUMPDEST BLOCKHASH TIMESTAMP PUSH1 0x40 MLOAD PUSH1 0x20 ADD PUSH2 0x121 SWAP3 SWAP2 SWAP1 PUSH2 0x438 JUMP JUMPDEST PUSH1 0x40 MLOAD PUSH1 0x20 DUP2 DUP4 SUB SUB DUP2 MSTORE SWAP1 PUSH1 0x40 MSTORE DUP1 MLOAD SWAP1 PUSH1 0x20 ADD KECCAK256 PUSH1 0x0 SHR PUSH2 0x144 SWAP2 SWAP1 PUSH2 0x493 JUMP JUMPDEST SWAP1 POP PUSH1 0x0 DUP1 PUSH1 0x0 PUSH2 0x100 EXP DUP2 SLOAD DUP2 PUSH20 0xFFFFFFFFFFFFFFFFFFFFFFFFFFFFFFFFFFFFFFFF MUL NOT AND SWAP1 DUP4 PUSH20 0xFFFFFFFFFFFFFFFFFFFFFFFFFFFFFFFFFFFFFFFF AND MUL OR SWAP1 SSTORE POP DUP1 PUSH1 0xFF AND PUSH1 0x0 PUSH1 0x14 SWAP1 SLOAD SWAP1 PUSH2 0x100 EXP SWAP1 DIV PUSH1 0xFF AND PUSH1 0xFF AND SUB PUSH2 0x1F3 JUMPI CALLER PUSH20 0xFFFFFFFFFFFFFFFFFFFFFFFFFFFFFFFFFFFFFFFF AND PUSH2 0x8FC PUSH8 0x1BC16D674EC80000 SWAP1 DUP2 ISZERO MUL SWAP1 PUSH1 0x40 MLOAD PUSH1 0x0 PUSH1 0x40 MLOAD DUP1 DUP4 SUB DUP2 DUP6 DUP9 DUP9 CALL SWAP4 POP POP POP POP ISZERO DUP1 ISZERO PUSH2 0x1F1 JUMPI RETURNDATASIZE PUSH1 0x0 DUP1 RETURNDATACOPY RETURNDATASIZE PUSH1 0x0 REVERT JUMPDEST POP JUMPDEST POP JUMP JUMPDEST PUSH1 0x0 PUSH20 0xFFFFFFFFFFFFFFFFFFFFFFFFFFFFFFFFFFFFFFFF AND PUSH1 0x0 DUP1 SLOAD SWAP1 PUSH2 0x100 EXP SWAP1 DIV PUSH20 0xFFFFFFFFFFFFFFFFFFFFFFFFFFFFFFFFFFFFFFFF AND PUSH20 0xFFFFFFFFFFFFFFFFFFFFFFFFFFFFFFFFFFFFFFFF AND EQ PUSH2 0x24F JUMPI PUSH1 0x0 DUP1 REVERT JUMPDEST PUSH8 0xDE0B6B3A7640000 CALLVALUE EQ PUSH2 0x263 JUMPI PUSH1 0x0 DUP1 REVERT JUMPDEST CALLER PUSH1 0x0 DUP1 PUSH2 0x100 EXP DUP2 SLOAD DUP2 PUSH20 0xFFFFFFFFFFFFFFFFFFFFFFFFFFFFFFFFFFFFFFFF MUL NOT AND SWAP1 DUP4 PUSH20 0xFFFFFFFFFFFFFFFFFFFFFFFFFFFFFFFFFFFFFFFF AND MUL OR SWAP1 SSTORE POP DUP1 PUSH1 0x0 PUSH1 0x14 PUSH2 0x100 EXP DUP2 SLOAD DUP2 PUSH1 0xFF MUL NOT AND SWAP1 DUP4 PUSH1 0xFF AND MUL OR SWAP1 SSTORE POP PUSH1 0x1 NUMBER PUSH2 0x2CB SWAP2 SWAP1 PUSH2 0x4C4 JUMP JUMPDEST PUSH1 0x1 DUP2 SWAP1 SSTORE POP POP JUMP JUMPDEST PUSH1 0x0 DUP1 SELFBALANCE EQ SWAP1 POP SWAP1 JUMP JUMPDEST PUSH1 0x0 DUP1 REVERT JUMPDEST PUSH1 0x0 PUSH1 0xFF DUP3 AND SWAP1 POP SWAP2 SWAP1 POP JUMP JUMPDEST PUSH2 0x2F9 DUP2 PUSH2 0x2E3 JUMP JUMPDEST DUP2 EQ PUSH2 0x304 JUMPI PUSH1 0x0 DUP1 REVERT JUMPDEST POP JUMP JUMPDEST PUSH1 0x0 DUP2 CALLDATALOAD SWAP1 POP PUSH2 0x316 DUP2 PUSH2 0x2F0 JUMP JUMPDEST SWAP3 SWAP2 POP POP JUMP JUMPDEST PUSH1 0x0 PUSH1 0x20 DUP3 DUP5 SUB SLT ISZERO PUSH2 0x332 JUMPI PUSH2 0x331 PUSH2 0x2DE JUMP JUMPDEST JUMPDEST PUSH1 0x0 PUSH2 0x340 DUP5 DUP3 DUP6 ADD PUSH2 0x307 JUMP JUMPDEST SWAP2 POP POP SWAP3 SWAP2 POP POP JUMP JUMPDEST PUSH1 0x0 DUP2 ISZERO ISZERO SWAP1 POP SWAP2 SWAP1 POP JUMP JUMPDEST PUSH2 0x35E DUP2 PUSH2 0x349 JUMP JUMPDEST DUP3 MSTORE POP POP JUMP JUMPDEST PUSH1 0x0 PUSH1 0x20 DUP3 ADD SWAP1 POP PUSH2 0x379 PUSH1 0x0 DUP4 ADD DUP5 PUSH2 0x355 JUMP JUMPDEST SWAP3 SWAP2 POP POP JUMP JUMPDEST PUSH1 0x0 DUP2 SWAP1 POP SWAP2 SWAP1 POP JUMP JUMPDEST PUSH32 0x4E487B7100000000000000000000000000000000000000000000000000000000 PUSH1 0x0 MSTORE PUSH1 0x11 PUSH1 0x4 MSTORE PUSH1 0x24 PUSH1 0x0 REVERT JUMPDEST PUSH1 0x0 PUSH2 0x3C3 DUP3 PUSH2 0x37F JUMP JUMPDEST SWAP2 POP PUSH2 0x3CE DUP4 PUSH2 0x37F JUMP JUMPDEST SWAP3 POP DUP3 DUP3 LT ISZERO PUSH2 0x3E1 JUMPI PUSH2 0x3E0 PUSH2 0x389 JUMP JUMPDEST JUMPDEST DUP3 DUP3 SUB SWAP1 POP SWAP3 SWAP2 POP POP JUMP JUMPDEST PUSH1 0x0 DUP2 SWAP1 POP SWAP2 SWAP1 POP JUMP JUMPDEST PUSH1 0x0 DUP2 SWAP1 POP SWAP2 SWAP1 POP JUMP JUMPDEST PUSH2 0x411 PUSH2 0x40C DUP3 PUSH2 0x3EC JUMP JUMPDEST PUSH2 0x3F6 JUMP JUMPDEST DUP3 MSTORE POP POP JUMP JUMPDEST PUSH1 0x0 DUP2 SWAP1 POP SWAP2 SWAP1 POP JUMP JUMPDEST PUSH2 0x432 PUSH2 0x42D DUP3 PUSH2 0x37F JUMP JUMPDEST PUSH2 0x417 JUMP JUMPDEST DUP3 MSTORE POP POP JUMP JUMPDEST PUSH1 0x0 PUSH2 0x444 DUP3 DUP6 PUSH2 0x400 JUMP JUMPDEST PUSH1 0x20 DUP3 ADD SWAP2 POP PUSH2 0x454 DUP3 DUP5 PUSH2 0x421 JUMP JUMPDEST PUSH1 0x20 DUP3 ADD SWAP2 POP DUP2 SWAP1 POP SWAP4 SWAP3 POP POP POP JUMP JUMPDEST PUSH32 0x4E487B7100000000000000000000000000000000000000000000000000000000 PUSH1 0x0 MSTORE PUSH1 0x12 PUSH1 0x4 MSTORE PUSH1 0x24 PUSH1 0x0 REVERT JUMPDEST PUSH1 0x0 PUSH2 0x49E DUP3 PUSH2 0x2E3 JUMP JUMPDEST SWAP2 POP PUSH2 0x4A9 DUP4 PUSH2 0x2E3 JUMP JUMPDEST SWAP3 POP DUP3 PUSH2 0x4B9 JUMPI PUSH2 0x4B8 PUSH2 0x464 JUMP JUMPDEST JUMPDEST DUP3 DUP3 MOD SWAP1 POP SWAP3 SWAP2 POP POP JUMP JUMPDEST PUSH1 0x0 PUSH2 0x4CF DUP3 PUSH2 0x37F JUMP JUMPDEST SWAP2 POP PUSH2 0x4DA DUP4 PUSH2 0x37F JUMP JUMPDEST SWAP3 POP DUP3 PUSH32 0xFFFFFFFFFFFFFFFFFFFFFFFFFFFFFFFFFFFFFFFFFFFFFFFFFFFFFFFFFFFFFFFF SUB DUP3 GT ISZERO PUSH2 0x50F JUMPI PUSH2 0x50E PUSH2 0x389 JUMP JUMPDEST JUMPDEST DUP3 DUP3 ADD SWAP1 POP SWAP3 SWAP2 POP POP JUMP INVALID LOG2 PUSH5 0x6970667358 0x22 SLT KECCAK256 SWAP14 0xC4 0xD3 ADDRESS 0x24 0x25 0x5C 0x5E 0x1F 0xC8 0xB3 GASLIMIT PUSH29 0xEFD9E0C4F103040B6381F6DFB33A2DEF45793964736F6C634300080F00 CALLER "
				},
				"gasEstimates": {
					"creation": {
						"codeDepositCost": "272000",
						"executionCost": "310",
						"totalCost": "272310"
					},
					"external": {
						"isComplete()": "373",
						"lockInGuess(uint8)": "infinite",
						"settle()": "infinite"
					}
				},
				"methodIdentifiers": {
					"isComplete()": "b2fa1c9e",
					"lockInGuess(uint8)": "2c0e0054",
					"settle()": "11da60b4"
				}
			},
			"storageLayout": {
				"storage": [
					{
						"astId": 3,
						"contract": "lotteries/PredictTheFutureChallenge.sol:PredictTheFutureChallenge",
						"label": "guesser",
						"offset": 0,
						"slot": "0",
						"type": "t_address"
					},
					{
						"astId": 5,
						"contract": "lotteries/PredictTheFutureChallenge.sol:PredictTheFutureChallenge",
						"label": "guess",
						"offset": 20,
						"slot": "0",
						"type": "t_uint8"
					},
					{
						"astId": 7,
						"contract": "lotteries/PredictTheFutureChallenge.sol:PredictTheFutureChallenge",
						"label": "settlementBlockNumber",
						"offset": 0,
						"slot": "1",
						"type": "t_uint256"
					}
				],
				"types": {
					"t_address": {
						"encoding": "inplace",
						"label": "address",
						"numberOfBytes": "20"
					},
					"t_uint256": {
						"encoding": "inplace",
						"label": "uint256",
						"numberOfBytes": "32"
					},
					"t_uint8": {
						"encoding": "inplace",
						"label": "uint8",
						"numberOfBytes": "1"
					}
				}
			},
			"userdoc": {
				"kind": "user",
				"methods": {},
				"version": 1
			}
		}
	}
}