{
	"lotteries/GuessTheNewNumberChallenge.sol": {
		"GuessTheNewNumberChallenge": {
			"abi": [
				{
					"inputs": [],
					"stateMutability": "payable",
					"type": "constructor"
				},
				{
					"inputs": [
						{
							"internalType": "uint8",
							"name": "n",
							"type": "uint8"
						}
					],
					"name": "guess",
					"outputs": [],
					"stateMutability": "payable",
					"type": "function"
				},
				{
					"inputs": [],
					"name": "isComplete",
					"outputs": [
						{
							"internalType": "bool",
							"name": "",
							"type": "bool"
						}
					],
					"stateMutability": "view",
					"type": "function"
				}
			],
			"devdoc": {
				"kind": "dev",
				"methods": {},
				"version": 1
			},
			"evm": {
				"assembly": "    /* \"lotteries/GuessTheNewNumberChallenge.sol\":61:617  contract GuessTheNewNumberChallenge {... */\n  mstore(0x40, 0x80)\n    /* \"lotteries/GuessTheNewNumberChallenge.sol\":143:152  msg.value */\n  callvalue\n    /* \"lotteries/GuessTheNewNumberChallenge.sol\":156:163  1 ether */\n  0x0de0b6b3a7640000\n    /* \"lotteries/GuessTheNewNumberChallenge.sol\":143:163  msg.value == 1 ether */\n  eq\n    /* \"lotteries/GuessTheNewNumberChallenge.sol\":135:164  require(msg.value == 1 ether) */\n  tag_3\n  jumpi\n  0x00\n  dup1\n  revert\ntag_3:\n    /* \"lotteries/GuessTheNewNumberChallenge.sol\":61:617  contract GuessTheNewNumberChallenge {... */\n  dataSize(sub_0)\n  dup1\n  dataOffset(sub_0)\n  0x00\n  codecopy\n  0x00\n  return\nstop\n\nsub_0: assembly {\n        /* \"lotteries/GuessTheNewNumberChallenge.sol\":61:617  contract GuessTheNewNumberChallenge {... */\n      mstore(0x40, 0x80)\n      jumpi(tag_1, lt(calldatasize, 0x04))\n      shr(0xe0, calldataload(0x00))\n      dup1\n      0x4ba4c16b\n      eq\n      tag_2\n      jumpi\n      dup1\n      0xb2fa1c9e\n      eq\n      tag_3\n      jumpi\n    tag_1:\n      0x00\n      dup1\n      revert\n        /* \"lotteries/GuessTheNewNumberChallenge.sol\":289:614  function guess(uint8 n) public payable {... */\n    tag_2:\n      tag_4\n      tag_5\n      calldatasize\n      0x04\n      tag_6\n      jump\t// in\n    tag_5:\n      tag_7\n      jump\t// in\n    tag_4:\n      stop\n        /* \"lotteries/GuessTheNewNumberChallenge.sol\":180:281  function isComplete() public view returns (bool) {... */\n    tag_3:\n      callvalue\n      dup1\n      iszero\n      tag_8\n      jumpi\n      0x00\n      dup1\n      revert\n    tag_8:\n      pop\n      0x40\n      dup1\n      mload\n        /* \"lotteries/GuessTheNewNumberChallenge.sol\":247:268  address(this).balance */\n      selfbalance\n        /* \"lotteries/GuessTheNewNumberChallenge.sol\":247:273  address(this).balance == 0 */\n      iszero\n        /* \"#utility.yul\":428:469   */\n      dup2\n      mstore\n        /* \"lotteries/GuessTheNewNumberChallenge.sol\":180:281  function isComplete() public view returns (bool) {... */\n      swap1\n      mload\n      swap1\n      dup2\n      swap1\n      sub\n        /* \"#utility.yul\":416:418   */\n      0x20\n        /* \"lotteries/GuessTheNewNumberChallenge.sol\":180:281  function isComplete() public view returns (bool) {... */\n      add\n      swap1\n      return\n        /* \"lotteries/GuessTheNewNumberChallenge.sol\":289:614  function guess(uint8 n) public payable {... */\n    tag_7:\n        /* \"lotteries/GuessTheNewNumberChallenge.sol\":347:356  msg.value */\n      callvalue\n        /* \"lotteries/GuessTheNewNumberChallenge.sol\":360:367  1 ether */\n      0x0de0b6b3a7640000\n        /* \"lotteries/GuessTheNewNumberChallenge.sol\":347:367  msg.value == 1 ether */\n      eq\n        /* \"lotteries/GuessTheNewNumberChallenge.sol\":339:368  require(msg.value == 1 ether) */\n      tag_14\n      jumpi\n      0x00\n      dup1\n      revert\n    tag_14:\n        /* \"lotteries/GuessTheNewNumberChallenge.sol\":389:401  uint8 answer */\n      0x00\n        /* \"lotteries/GuessTheNewNumberChallenge.sol\":465:481  block.number - 1 */\n      tag_15\n        /* \"lotteries/GuessTheNewNumberChallenge.sol\":480:481  1 */\n      0x01\n        /* \"lotteries/GuessTheNewNumberChallenge.sol\":465:477  block.number */\n      number\n        /* \"lotteries/GuessTheNewNumberChallenge.sol\":465:481  block.number - 1 */\n      tag_16\n      jump\t// in\n    tag_15:\n        /* \"lotteries/GuessTheNewNumberChallenge.sol\":438:500  abi.encodePacked(blockhash(block.number - 1), block.timestamp) */\n      0x40\n      dup1\n      mload\n        /* \"lotteries/GuessTheNewNumberChallenge.sol\":455:482  blockhash(block.number - 1) */\n      swap2\n      blockhash\n        /* \"lotteries/GuessTheNewNumberChallenge.sol\":438:500  abi.encodePacked(blockhash(block.number - 1), block.timestamp) */\n      0x20\n      dup4\n      add\n        /* \"#utility.yul\":864:883   */\n      mstore\n        /* \"lotteries/GuessTheNewNumberChallenge.sol\":484:499  block.timestamp */\n      timestamp\n        /* \"#utility.yul\":899:911   */\n      swap1\n      dup3\n      add\n        /* \"#utility.yul\":892:920   */\n      mstore\n        /* \"#utility.yul\":936:948   */\n      0x60\n      add\n        /* \"lotteries/GuessTheNewNumberChallenge.sol\":438:500  abi.encodePacked(blockhash(block.number - 1), block.timestamp) */\n      mload(0x40)\n      0x20\n      dup2\n      dup4\n      sub\n      sub\n      dup2\n      mstore\n      swap1\n      0x40\n      mstore\n        /* \"lotteries/GuessTheNewNumberChallenge.sol\":428:501  keccak256(abi.encodePacked(blockhash(block.number - 1), block.timestamp)) */\n      dup1\n      mload\n      swap1\n      0x20\n      add\n      keccak256\n        /* \"lotteries/GuessTheNewNumberChallenge.sol\":410:512  uint256(... */\n      0x00\n      shr\n        /* \"lotteries/GuessTheNewNumberChallenge.sol\":389:513  uint8 answer = uint8(uint256(... */\n      swap1\n      pop\n        /* \"lotteries/GuessTheNewNumberChallenge.sol\":535:541  answer */\n      dup1\n        /* \"lotteries/GuessTheNewNumberChallenge.sol\":530:541  n == answer */\n      0xff\n      and\n        /* \"lotteries/GuessTheNewNumberChallenge.sol\":530:531  n */\n      dup3\n        /* \"lotteries/GuessTheNewNumberChallenge.sol\":530:541  n == answer */\n      0xff\n      and\n      sub\n        /* \"lotteries/GuessTheNewNumberChallenge.sol\":526:607  if (n == answer) {... */\n      tag_19\n      jumpi\n        /* \"lotteries/GuessTheNewNumberChallenge.sol\":558:595  payable(msg.sender).transfer(2 ether) */\n      mload(0x40)\n        /* \"lotteries/GuessTheNewNumberChallenge.sol\":566:576  msg.sender */\n      caller\n      swap1\n        /* \"lotteries/GuessTheNewNumberChallenge.sol\":558:595  payable(msg.sender).transfer(2 ether) */\n      0x00\n      swap1\n        /* \"lotteries/GuessTheNewNumberChallenge.sol\":587:594  2 ether */\n      0x1bc16d674ec80000\n      swap1\n        /* \"lotteries/GuessTheNewNumberChallenge.sol\":558:595  payable(msg.sender).transfer(2 ether) */\n      dup3\n      dup2\n      dup2\n      dup2\n        /* \"lotteries/GuessTheNewNumberChallenge.sol\":587:594  2 ether */\n      dup6\n        /* \"lotteries/GuessTheNewNumberChallenge.sol\":566:576  msg.sender */\n      dup9\n        /* \"lotteries/GuessTheNewNumberChallenge.sol\":558:595  payable(msg.sender).transfer(2 ether) */\n      dup4\n      call\n      swap4\n      pop\n      pop\n      pop\n      pop\n      iszero\n      dup1\n      iszero\n      tag_21\n      jumpi\n      returndatasize\n      0x00\n      dup1\n      returndatacopy\n      revert(0x00, returndatasize)\n    tag_21:\n      pop\n        /* \"lotteries/GuessTheNewNumberChallenge.sol\":526:607  if (n == answer) {... */\n    tag_19:\n        /* \"lotteries/GuessTheNewNumberChallenge.sol\":328:614  {... */\n      pop\n        /* \"lotteries/GuessTheNewNumberChallenge.sol\":289:614  function guess(uint8 n) public payable {... */\n      pop\n      jump\t// out\n        /* \"#utility.yul\":14:283   */\n    tag_6:\n        /* \"#utility.yul\":71:77   */\n      0x00\n        /* \"#utility.yul\":124:126   */\n      0x20\n        /* \"#utility.yul\":112:121   */\n      dup3\n        /* \"#utility.yul\":103:110   */\n      dup5\n        /* \"#utility.yul\":99:122   */\n      sub\n        /* \"#utility.yul\":95:127   */\n      slt\n        /* \"#utility.yul\":92:144   */\n      iszero\n      tag_25\n      jumpi\n        /* \"#utility.yul\":140:141   */\n      0x00\n        /* \"#utility.yul\":137:138   */\n      dup1\n        /* \"#utility.yul\":130:142   */\n      revert\n        /* \"#utility.yul\":92:144   */\n    tag_25:\n        /* \"#utility.yul\":179:188   */\n      dup2\n        /* \"#utility.yul\":166:189   */\n      calldataload\n        /* \"#utility.yul\":229:233   */\n      0xff\n        /* \"#utility.yul\":222:227   */\n      dup2\n        /* \"#utility.yul\":218:234   */\n      and\n        /* \"#utility.yul\":211:216   */\n      dup2\n        /* \"#utility.yul\":208:235   */\n      eq\n        /* \"#utility.yul\":198:253   */\n      tag_26\n      jumpi\n        /* \"#utility.yul\":249:250   */\n      0x00\n        /* \"#utility.yul\":246:247   */\n      dup1\n        /* \"#utility.yul\":239:251   */\n      revert\n        /* \"#utility.yul\":198:253   */\n    tag_26:\n        /* \"#utility.yul\":272:277   */\n      swap4\n        /* \"#utility.yul\":14:283   */\n      swap3\n      pop\n      pop\n      pop\n      jump\t// out\n        /* \"#utility.yul\":480:702   */\n    tag_16:\n        /* \"#utility.yul\":520:524   */\n      0x00\n        /* \"#utility.yul\":548:549   */\n      dup3\n        /* \"#utility.yul\":545:546   */\n      dup3\n        /* \"#utility.yul\":542:550   */\n      lt\n        /* \"#utility.yul\":539:670   */\n      iszero\n      tag_29\n      jumpi\n        /* \"#utility.yul\":592:602   */\n      0x4e487b71\n        /* \"#utility.yul\":587:590   */\n      0xe0\n        /* \"#utility.yul\":583:603   */\n      shl\n        /* \"#utility.yul\":580:581   */\n      0x00\n        /* \"#utility.yul\":573:604   */\n      mstore\n        /* \"#utility.yul\":627:631   */\n      0x11\n        /* \"#utility.yul\":624:625   */\n      0x04\n        /* \"#utility.yul\":617:632   */\n      mstore\n        /* \"#utility.yul\":655:659   */\n      0x24\n        /* \"#utility.yul\":652:653   */\n      0x00\n        /* \"#utility.yul\":645:660   */\n      revert\n        /* \"#utility.yul\":539:670   */\n    tag_29:\n      pop\n        /* \"#utility.yul\":687:696   */\n      sub\n      swap1\n        /* \"#utility.yul\":480:702   */\n      jump\t// out\n\n    auxdata: 0xa2646970667358221220c7e0bdcf2e2703ad7990d4b2def750c956cc7b26b33031d321f6c2734a72a45d64736f6c634300080f0033\n}\n",
				"bytecode": {
					"linkReferences": {},
					"object": "608060405234670de0b6b3a76400001461001857600080fd5b61017b806100276000396000f3fe6080604052600436106100295760003560e01c80634ba4c16b1461002e578063b2fa1c9e14610043575b600080fd5b61004161003c3660046100f6565b610064565b005b34801561004f57600080fd5b50604080514715815290519081900360200190f35b34670de0b6b3a76400001461007857600080fd5b6000610085600143610120565b604080519140602083015242908201526060016040516020818303038152906040528051906020012060001c90508060ff168260ff16036100f2576040513390600090671bc16d674ec800009082818181858883f193505050501580156100f0573d6000803e3d6000fd5b505b5050565b60006020828403121561010857600080fd5b813560ff8116811461011957600080fd5b9392505050565b60008282101561014057634e487b7160e01b600052601160045260246000fd5b50039056fea2646970667358221220c7e0bdcf2e2703ad7990d4b2def750c956cc7b26b33031d321f6c2734a72a45d64736f6c634300080f0033",
					"opcodes": "PUSH1 0x80 PUSH1 0x40 MSTORE CALLVALUE PUSH8 0xDE0B6B3A7640000 EQ PUSH2 0x18 JUMPI PUSH1 0x0 DUP1 REVERT JUMPDEST PUSH2 0x17B DUP1 PUSH2 0x27 PUSH1 0x0 CODECOPY PUSH1 0x0 RETURN INVALID PUSH1 0x80 PUSH1 0x40 MSTORE PUSH1 0x4 CALLDATASIZE LT PUSH2 0x29 JUMPI PUSH1 0x0 CALLDATALOAD PUSH1 0xE0 SHR DUP1 PUSH4 0x4BA4C16B EQ PUSH2 0x2E JUMPI DUP1 PUSH4 0xB2FA1C9E EQ PUSH2 0x43 JUMPI JUMPDEST PUSH1 0x0 DUP1 REVERT JUMPDEST PUSH2 0x41 PUSH2 0x3C CALLDATASIZE PUSH1 0x4 PUSH2 0xF6 JUMP JUMPDEST PUSH2 0x64 JUMP JUMPDEST STOP JUMPDEST CALLVALUE DUP1 ISZERO PUSH2 0x4F JUMPI PUSH1 0x0 DUP1 REVERT JUMPDEST POP PUSH1 0x40 DUP1 MLOAD SELFBALANCE ISZERO DUP2 MSTORE SWAP1 MLOAD SWAP1 DUP2 SWAP1 SUB PUSH1 0x20 ADD SWAP1 RETURN JUMPDEST CALLVALUE PUSH8 0xDE0B6B3A7640000 EQ PUSH2 0x78 JUMPI PUSH1 0x0 DUP1 REVERT JUMPDEST PUSH1 0x0 PUSH2 0x85 PUSH1 0x1 NUMBER PUSH2 0x120 JUMP JUMPDEST PUSH1 0x40 DUP1 MLOAD SWAP2 BLOCKHASH PUSH1 0x20 DUP4 ADD MSTORE TIMESTAMP SWAP1 DUP3 ADD MSTORE PUSH1 0x60 ADD PUSH1 0x40 MLOAD PUSH1 0x20 DUP2 DUP4 SUB SUB DUP2 MSTORE SWAP1 PUSH1 0x40 MSTORE DUP1 MLOAD SWAP1 PUSH1 0x20 ADD KECCAK256 PUSH1 0x0 SHR SWAP1 POP DUP1 PUSH1 0xFF AND DUP3 PUSH1 0xFF AND SUB PUSH2 0xF2 JUMPI PUSH1 0x40 MLOAD CALLER SWAP1 PUSH1 0x0 SWAP1 PUSH8 0x1BC16D674EC80000 SWAP1 DUP3 DUP2 DUP2 DUP2 DUP6 DUP9 DUP4 CALL SWAP4 POP POP POP POP ISZERO DUP1 ISZERO PUSH2 0xF0 JUMPI RETURNDATASIZE PUSH1 0x0 DUP1 RETURNDATACOPY RETURNDATASIZE PUSH1 0x0 REVERT JUMPDEST POP JUMPDEST POP POP JUMP JUMPDEST PUSH1 0x0 PUSH1 0x20 DUP3 DUP5 SUB SLT ISZERO PUSH2 0x108 JUMPI PUSH1 0x0 DUP1 REVERT JUMPDEST DUP2 CALLDATALOAD PUSH1 0xFF DUP2 AND DUP2 EQ PUSH2 0x119 JUMPI PUSH1 0x0 DUP1 REVERT JUMPDEST SWAP4 SWAP3 POP POP POP JUMP JUMPDEST PUSH1 0x0 DUP3 DUP3 LT ISZERO PUSH2 0x140 JUMPI PUSH4 0x4E487B71 PUSH1 0xE0 SHL PUSH1 0x0 MSTORE PUSH1 0x11 PUSH1 0x4 MSTORE PUSH1 0x24 PUSH1 0x0 REVERT JUMPDEST POP SUB SWAP1 JUMP INVALID LOG2 PUSH5 0x6970667358 0x22 SLT KECCAK256 0xC7 0xE0 0xBD 0xCF 0x2E 0x27 SUB 0xAD PUSH26 0x90D4B2DEF750C956CC7B26B33031D321F6C2734A72A45D64736F PUSH13 0x634300080F0033000000000000 "
				},
				"gasEstimates": {
					"creation": {
						"codeDepositCost": "75800",
						"executionCost": "121",
						"totalCost": "75921"
					},
					"external": {
						"guess(uint8)": "infinite",
						"isComplete()": "176"
					}
				},
				"methodIdentifiers": {
					"guess(uint8)": "4ba4c16b",
					"isComplete()": "b2fa1c9e"
				}
			},
			"storageLayout": {
				"storage": [],
				"types": null
			},
			"userdoc": {
				"kind": "user",
				"methods": {},
				"version": 1
			}
		}
	}
}