{
	"lotteries/PredictTheFutureChallenge.sol": {
		"PredictTheFutureChallenge": {
			"abi": [
				{
					"inputs": [],
					"stateMutability": "payable",
					"type": "constructor"
				},
				{
					"inputs": [],
					"name": "isComplete",
					"outputs": [
						{
							"internalType": "bool",
							"name": "",
							"type": "bool"
						}
					],
					"stateMutability": "view",
					"type": "function"
				},
				{
					"inputs": [
						{
							"internalType": "uint8",
							"name": "n",
							"type": "uint8"
						}
					],
					"name": "lockInGuess",
					"outputs": [],
					"stateMutability": "payable",
					"type": "function"
				},
				{
					"inputs": [],
					"name": "settle",
					"outputs": [],
					"stateMutability": "nonpayable",
					"type": "function"
				}
			],
			"devdoc": {
				"kind": "dev",
				"methods": {},
				"version": 1
			},
			"evm": {
				"assembly": "    /* \"lotteries/PredictTheFutureChallenge.sol\":61:1019  contract PredictTheFutureChallenge {... */\n  mstore(0x40, 0x80)\n    /* \"lotteries/PredictTheFutureChallenge.sol\":220:229  msg.value */\n  callvalue\n    /* \"lotteries/PredictTheFutureChallenge.sol\":233:240  1 ether */\n  0x0de0b6b3a7640000\n    /* \"lotteries/PredictTheFutureChallenge.sol\":220:240  msg.value == 1 ether */\n  eq\n    /* \"lotteries/PredictTheFutureChallenge.sol\":212:241  require(msg.value == 1 ether) */\n  tag_3\n  jumpi\n  0x00\n  dup1\n  revert\ntag_3:\n    /* \"lotteries/PredictTheFutureChallenge.sol\":61:1019  contract PredictTheFutureChallenge {... */\n  dataSize(sub_0)\n  dup1\n  dataOffset(sub_0)\n  0x00\n  codecopy\n  0x00\n  return\nstop\n\nsub_0: assembly {\n        /* \"lotteries/PredictTheFutureChallenge.sol\":61:1019  contract PredictTheFutureChallenge {... */\n      mstore(0x40, 0x80)\n      jumpi(tag_1, lt(calldatasize, 0x04))\n      shr(0xe0, calldataload(0x00))\n      dup1\n      0x11da60b4\n      eq\n      tag_2\n      jumpi\n      dup1\n      0x2c0e0054\n      eq\n      tag_3\n      jumpi\n      dup1\n      0xb2fa1c9e\n      eq\n      tag_4\n      jumpi\n    tag_1:\n      0x00\n      dup1\n      revert\n        /* \"lotteries/PredictTheFutureChallenge.sol\":614:1016  function settle() public {... */\n    tag_2:\n      callvalue\n      dup1\n      iszero\n      tag_5\n      jumpi\n      0x00\n      dup1\n      revert\n    tag_5:\n      pop\n      tag_6\n      tag_7\n      jump\t// in\n    tag_6:\n      stop\n        /* \"lotteries/PredictTheFutureChallenge.sol\":366:606  function lockInGuess(uint8 n) public payable {... */\n    tag_3:\n      tag_6\n      tag_9\n      calldatasize\n      0x04\n      tag_10\n      jump\t// in\n    tag_9:\n      tag_11\n      jump\t// in\n        /* \"lotteries/PredictTheFutureChallenge.sol\":257:358  function isComplete() public view returns (bool) {... */\n    tag_4:\n      callvalue\n      dup1\n      iszero\n      tag_12\n      jumpi\n      0x00\n      dup1\n      revert\n    tag_12:\n      pop\n      0x40\n      dup1\n      mload\n        /* \"lotteries/PredictTheFutureChallenge.sol\":324:345  address(this).balance */\n      selfbalance\n        /* \"lotteries/PredictTheFutureChallenge.sol\":324:350  address(this).balance == 0 */\n      iszero\n        /* \"#utility.yul\":428:469   */\n      dup2\n      mstore\n        /* \"lotteries/PredictTheFutureChallenge.sol\":257:358  function isComplete() public view returns (bool) {... */\n      swap1\n      mload\n      swap1\n      dup2\n      swap1\n      sub\n        /* \"#utility.yul\":416:418   */\n      0x20\n        /* \"lotteries/PredictTheFutureChallenge.sol\":257:358  function isComplete() public view returns (bool) {... */\n      add\n      swap1\n      return\n        /* \"lotteries/PredictTheFutureChallenge.sol\":614:1016  function settle() public {... */\n    tag_7:\n        /* \"lotteries/PredictTheFutureChallenge.sol\":672:679  guesser */\n      and(sub(shl(0xa0, 0x01), 0x01), sload(0x00))\n        /* \"lotteries/PredictTheFutureChallenge.sol\":658:668  msg.sender */\n      caller\n        /* \"lotteries/PredictTheFutureChallenge.sol\":658:679  msg.sender == guesser */\n      eq\n        /* \"lotteries/PredictTheFutureChallenge.sol\":650:680  require(msg.sender == guesser) */\n      tag_18\n      jumpi\n      0x00\n      dup1\n      revert\n    tag_18:\n        /* \"lotteries/PredictTheFutureChallenge.sol\":714:735  settlementBlockNumber */\n      sload(0x01)\n        /* \"lotteries/PredictTheFutureChallenge.sol\":699:711  block.number */\n      number\n        /* \"lotteries/PredictTheFutureChallenge.sol\":699:735  block.number > settlementBlockNumber */\n      gt\n        /* \"lotteries/PredictTheFutureChallenge.sol\":691:736  require(block.number > settlementBlockNumber) */\n      tag_19\n      jumpi\n      0x00\n      dup1\n      revert\n    tag_19:\n        /* \"lotteries/PredictTheFutureChallenge.sol\":749:761  uint8 answer */\n      0x00\n        /* \"lotteries/PredictTheFutureChallenge.sol\":876:878  10 */\n      0x0a\n        /* \"lotteries/PredictTheFutureChallenge.sol\":825:841  block.number - 1 */\n      tag_20\n        /* \"lotteries/PredictTheFutureChallenge.sol\":840:841  1 */\n      0x01\n        /* \"lotteries/PredictTheFutureChallenge.sol\":825:837  block.number */\n      number\n        /* \"lotteries/PredictTheFutureChallenge.sol\":825:841  block.number - 1 */\n      tag_21\n      jump\t// in\n    tag_20:\n        /* \"lotteries/PredictTheFutureChallenge.sol\":798:860  abi.encodePacked(blockhash(block.number - 1), block.timestamp) */\n      0x40\n      dup1\n      mload\n        /* \"lotteries/PredictTheFutureChallenge.sol\":815:842  blockhash(block.number - 1) */\n      swap2\n      blockhash\n        /* \"lotteries/PredictTheFutureChallenge.sol\":798:860  abi.encodePacked(blockhash(block.number - 1), block.timestamp) */\n      0x20\n      dup4\n      add\n        /* \"#utility.yul\":899:918   */\n      mstore\n        /* \"lotteries/PredictTheFutureChallenge.sol\":844:859  block.timestamp */\n      timestamp\n        /* \"#utility.yul\":934:946   */\n      swap1\n      dup3\n      add\n        /* \"#utility.yul\":927:955   */\n      mstore\n        /* \"#utility.yul\":971:983   */\n      0x60\n      add\n        /* \"lotteries/PredictTheFutureChallenge.sol\":798:860  abi.encodePacked(blockhash(block.number - 1), block.timestamp) */\n      mload(0x40)\n      0x20\n      dup2\n      dup4\n      sub\n      sub\n      dup2\n      mstore\n      swap1\n      0x40\n      mstore\n        /* \"lotteries/PredictTheFutureChallenge.sol\":788:861  keccak256(abi.encodePacked(blockhash(block.number - 1), block.timestamp)) */\n      dup1\n      mload\n      swap1\n      0x20\n      add\n      keccak256\n        /* \"lotteries/PredictTheFutureChallenge.sol\":770:872  uint256(... */\n      0x00\n      shr\n        /* \"lotteries/PredictTheFutureChallenge.sol\":764:878  uint8(uint256(... */\n      tag_24\n      swap2\n      swap1\n      tag_25\n      jump\t// in\n    tag_24:\n        /* \"lotteries/PredictTheFutureChallenge.sol\":909:912  0x0 */\n      0x00\n        /* \"lotteries/PredictTheFutureChallenge.sol\":891:913  guesser = address(0x0) */\n      dup1\n      sload\n      not(sub(shl(0xa0, 0x01), 0x01))\n      and\n      swap1\n      dup2\n      swap1\n      sstore\n        /* \"lotteries/PredictTheFutureChallenge.sol\":749:878  uint8 answer = uint8(uint256(... */\n      swap1\n      swap2\n      pop\n        /* \"lotteries/PredictTheFutureChallenge.sol\":928:943  guess == answer */\n      0xff\n      dup1\n      dup4\n      and\n      shl(0xa0, 0x01)\n        /* \"lotteries/PredictTheFutureChallenge.sol\":928:933  guess */\n      swap1\n      swap3\n      div\n      and\n        /* \"lotteries/PredictTheFutureChallenge.sol\":928:943  guess == answer */\n      sub\n        /* \"lotteries/PredictTheFutureChallenge.sol\":924:1009  if (guess == answer) {... */\n      tag_26\n      jumpi\n        /* \"lotteries/PredictTheFutureChallenge.sol\":960:997  payable(msg.sender).transfer(2 ether) */\n      mload(0x40)\n        /* \"lotteries/PredictTheFutureChallenge.sol\":968:978  msg.sender */\n      caller\n      swap1\n        /* \"lotteries/PredictTheFutureChallenge.sol\":960:997  payable(msg.sender).transfer(2 ether) */\n      0x00\n      swap1\n        /* \"lotteries/PredictTheFutureChallenge.sol\":989:996  2 ether */\n      0x1bc16d674ec80000\n      swap1\n        /* \"lotteries/PredictTheFutureChallenge.sol\":960:997  payable(msg.sender).transfer(2 ether) */\n      dup3\n      dup2\n      dup2\n      dup2\n        /* \"lotteries/PredictTheFutureChallenge.sol\":989:996  2 ether */\n      dup6\n        /* \"lotteries/PredictTheFutureChallenge.sol\":968:978  msg.sender */\n      dup9\n        /* \"lotteries/PredictTheFutureChallenge.sol\":960:997  payable(msg.sender).transfer(2 ether) */\n      dup4\n      call\n      swap4\n      pop\n      pop\n      pop\n      pop\n      iszero\n      dup1\n      iszero\n      tag_28\n      jumpi\n      returndatasize\n      0x00\n      dup1\n      returndatacopy\n      revert(0x00, returndatasize)\n    tag_28:\n      pop\n        /* \"lotteries/PredictTheFutureChallenge.sol\":924:1009  if (guess == answer) {... */\n    tag_26:\n        /* \"lotteries/PredictTheFutureChallenge.sol\":639:1016  {... */\n      pop\n        /* \"lotteries/PredictTheFutureChallenge.sol\":614:1016  function settle() public {... */\n      jump\t// out\n        /* \"lotteries/PredictTheFutureChallenge.sol\":366:606  function lockInGuess(uint8 n) public payable {... */\n    tag_11:\n        /* \"lotteries/PredictTheFutureChallenge.sol\":449:452  0x0 */\n      0x00\n        /* \"lotteries/PredictTheFutureChallenge.sol\":430:437  guesser */\n      sload\n      sub(shl(0xa0, 0x01), 0x01)\n      and\n        /* \"lotteries/PredictTheFutureChallenge.sol\":430:453  guesser == address(0x0) */\n      iszero\n        /* \"lotteries/PredictTheFutureChallenge.sol\":422:454  require(guesser == address(0x0)) */\n      tag_30\n      jumpi\n      0x00\n      dup1\n      revert\n    tag_30:\n        /* \"lotteries/PredictTheFutureChallenge.sol\":473:482  msg.value */\n      callvalue\n        /* \"lotteries/PredictTheFutureChallenge.sol\":486:493  1 ether */\n      0x0de0b6b3a7640000\n        /* \"lotteries/PredictTheFutureChallenge.sol\":473:493  msg.value == 1 ether */\n      eq\n        /* \"lotteries/PredictTheFutureChallenge.sol\":465:494  require(msg.value == 1 ether) */\n      tag_31\n      jumpi\n      0x00\n      dup1\n      revert\n    tag_31:\n        /* \"lotteries/PredictTheFutureChallenge.sol\":507:514  guesser */\n      0x00\n        /* \"lotteries/PredictTheFutureChallenge.sol\":507:527  guesser = msg.sender */\n      dup1\n      sload\n      not(sub(shl(0xa8, 0x01), 0x01))\n        /* \"lotteries/PredictTheFutureChallenge.sol\":538:547  guess = n */\n      and\n        /* \"lotteries/PredictTheFutureChallenge.sol\":517:527  msg.sender */\n      caller\n      not(shl(0xa0, 0xff))\n        /* \"lotteries/PredictTheFutureChallenge.sol\":538:547  guess = n */\n      and\n      or\n      shl(0xa0, 0x01)\n      0xff\n      dup5\n      and\n      mul\n      or\n      swap1\n      sstore\n        /* \"lotteries/PredictTheFutureChallenge.sol\":582:598  block.number + 1 */\n      tag_32\n        /* \"lotteries/PredictTheFutureChallenge.sol\":582:594  block.number */\n      number\n      0x01\n        /* \"lotteries/PredictTheFutureChallenge.sol\":582:598  block.number + 1 */\n      tag_33\n      jump\t// in\n    tag_32:\n        /* \"lotteries/PredictTheFutureChallenge.sol\":558:579  settlementBlockNumber */\n      0x01\n        /* \"lotteries/PredictTheFutureChallenge.sol\":558:598  settlementBlockNumber = block.number + 1 */\n      sstore\n      pop\n        /* \"lotteries/PredictTheFutureChallenge.sol\":366:606  function lockInGuess(uint8 n) public payable {... */\n      jump\t// out\n        /* \"#utility.yul\":14:283   */\n    tag_10:\n        /* \"#utility.yul\":71:77   */\n      0x00\n        /* \"#utility.yul\":124:126   */\n      0x20\n        /* \"#utility.yul\":112:121   */\n      dup3\n        /* \"#utility.yul\":103:110   */\n      dup5\n        /* \"#utility.yul\":99:122   */\n      sub\n        /* \"#utility.yul\":95:127   */\n      slt\n        /* \"#utility.yul\":92:144   */\n      iszero\n      tag_38\n      jumpi\n        /* \"#utility.yul\":140:141   */\n      0x00\n        /* \"#utility.yul\":137:138   */\n      dup1\n        /* \"#utility.yul\":130:142   */\n      revert\n        /* \"#utility.yul\":92:144   */\n    tag_38:\n        /* \"#utility.yul\":179:188   */\n      dup2\n        /* \"#utility.yul\":166:189   */\n      calldataload\n        /* \"#utility.yul\":229:233   */\n      0xff\n        /* \"#utility.yul\":222:227   */\n      dup2\n        /* \"#utility.yul\":218:234   */\n      and\n        /* \"#utility.yul\":211:216   */\n      dup2\n        /* \"#utility.yul\":208:235   */\n      eq\n        /* \"#utility.yul\":198:253   */\n      tag_39\n      jumpi\n        /* \"#utility.yul\":249:250   */\n      0x00\n        /* \"#utility.yul\":246:247   */\n      dup1\n        /* \"#utility.yul\":239:251   */\n      revert\n        /* \"#utility.yul\":198:253   */\n    tag_39:\n        /* \"#utility.yul\":272:277   */\n      swap4\n        /* \"#utility.yul\":14:283   */\n      swap3\n      pop\n      pop\n      pop\n      jump\t// out\n        /* \"#utility.yul\":480:607   */\n    tag_35:\n        /* \"#utility.yul\":541:551   */\n      0x4e487b71\n        /* \"#utility.yul\":536:539   */\n      0xe0\n        /* \"#utility.yul\":532:552   */\n      shl\n        /* \"#utility.yul\":529:530   */\n      0x00\n        /* \"#utility.yul\":522:553   */\n      mstore\n        /* \"#utility.yul\":572:576   */\n      0x11\n        /* \"#utility.yul\":569:570   */\n      0x04\n        /* \"#utility.yul\":562:577   */\n      mstore\n        /* \"#utility.yul\":596:600   */\n      0x24\n        /* \"#utility.yul\":593:594   */\n      0x00\n        /* \"#utility.yul\":586:601   */\n      revert\n        /* \"#utility.yul\":612:737   */\n    tag_21:\n        /* \"#utility.yul\":652:656   */\n      0x00\n        /* \"#utility.yul\":680:681   */\n      dup3\n        /* \"#utility.yul\":677:678   */\n      dup3\n        /* \"#utility.yul\":674:682   */\n      lt\n        /* \"#utility.yul\":671:705   */\n      iszero\n      tag_44\n      jumpi\n        /* \"#utility.yul\":685:703   */\n      tag_44\n      tag_35\n      jump\t// in\n    tag_44:\n      pop\n        /* \"#utility.yul\":722:731   */\n      sub\n      swap1\n        /* \"#utility.yul\":612:737   */\n      jump\t// out\n        /* \"#utility.yul\":994:1248   */\n    tag_25:\n        /* \"#utility.yul\":1024:1025   */\n      0x00\n        /* \"#utility.yul\":1058:1062   */\n      0xff\n        /* \"#utility.yul\":1055:1056   */\n      dup4\n        /* \"#utility.yul\":1051:1063   */\n      and\n        /* \"#utility.yul\":1082:1085   */\n      dup1\n        /* \"#utility.yul\":1072:1206   */\n      tag_47\n      jumpi\n        /* \"#utility.yul\":1128:1138   */\n      0x4e487b71\n        /* \"#utility.yul\":1123:1126   */\n      0xe0\n        /* \"#utility.yul\":1119:1139   */\n      shl\n        /* \"#utility.yul\":1116:1117   */\n      0x00\n        /* \"#utility.yul\":1109:1140   */\n      mstore\n        /* \"#utility.yul\":1163:1167   */\n      0x12\n        /* \"#utility.yul\":1160:1161   */\n      0x04\n        /* \"#utility.yul\":1153:1168   */\n      mstore\n        /* \"#utility.yul\":1191:1195   */\n      0x24\n        /* \"#utility.yul\":1188:1189   */\n      0x00\n        /* \"#utility.yul\":1181:1196   */\n      revert\n        /* \"#utility.yul\":1072:1206   */\n    tag_47:\n        /* \"#utility.yul\":1238:1241   */\n      dup1\n        /* \"#utility.yul\":1231:1235   */\n      0xff\n        /* \"#utility.yul\":1228:1229   */\n      dup5\n        /* \"#utility.yul\":1224:1236   */\n      and\n        /* \"#utility.yul\":1220:1242   */\n      mod\n        /* \"#utility.yul\":1215:1242   */\n      swap2\n      pop\n      pop\n        /* \"#utility.yul\":994:1248   */\n      swap3\n      swap2\n      pop\n      pop\n      jump\t// out\n        /* \"#utility.yul\":1253:1381   */\n    tag_33:\n        /* \"#utility.yul\":1293:1296   */\n      0x00\n        /* \"#utility.yul\":1324:1325   */\n      dup3\n        /* \"#utility.yul\":1320:1326   */\n      not\n        /* \"#utility.yul\":1317:1318   */\n      dup3\n        /* \"#utility.yul\":1314:1327   */\n      gt\n        /* \"#utility.yul\":1311:1350   */\n      iszero\n      tag_50\n      jumpi\n        /* \"#utility.yul\":1330:1348   */\n      tag_50\n      tag_35\n      jump\t// in\n    tag_50:\n      pop\n        /* \"#utility.yul\":1366:1375   */\n      add\n      swap1\n        /* \"#utility.yul\":1253:1381   */\n      jump\t// out\n\n    auxdata: 0xa2646970667358221220377e62c337ce676344f8dc1301e5516e20fc001516bc6c80de6fdcf44e15165564736f6c634300080f0033\n}\n",
				"bytecode": {
					"linkReferences": {},
					"object": "608060405234670de0b6b3a76400001461001857600080fd5b61027f806100276000396000f3fe6080604052600436106100345760003560e01c806311da60b4146100395780632c0e005414610050578063b2fa1c9e14610063575b600080fd5b34801561004557600080fd5b5061004e610084565b005b61004e61005e3660046101aa565b61014b565b34801561006f57600080fd5b50604080514715815290519081900360200190f35b6000546001600160a01b0316331461009b57600080fd5b60015443116100a957600080fd5b6000600a6100b86001436101ea565b604080519140602083015242908201526060016040516020818303038152906040528051906020012060001c6100ee9190610201565b600080546001600160a01b0319169081905590915060ff808316600160a01b9092041603610148576040513390600090671bc16d674ec800009082818181858883f19350505050158015610146573d6000803e3d6000fd5b505b50565b6000546001600160a01b03161561016157600080fd5b34670de0b6b3a76400001461017557600080fd5b600080546001600160a81b0319163360ff60a01b191617600160a01b60ff8416021790556101a4436001610231565b60015550565b6000602082840312156101bc57600080fd5b813560ff811681146101cd57600080fd5b9392505050565b634e487b7160e01b600052601160045260246000fd5b6000828210156101fc576101fc6101d4565b500390565b600060ff83168061022257634e487b7160e01b600052601260045260246000fd5b8060ff84160691505092915050565b60008219821115610244576102446101d4565b50019056fea2646970667358221220377e62c337ce676344f8dc1301e5516e20fc001516bc6c80de6fdcf44e15165564736f6c634300080f0033",
					"opcodes": "PUSH1 0x80 PUSH1 0x40 MSTORE CALLVALUE PUSH8 0xDE0B6B3A7640000 EQ PUSH2 0x18 JUMPI PUSH1 0x0 DUP1 REVERT JUMPDEST PUSH2 0x27F DUP1 PUSH2 0x27 PUSH1 0x0 CODECOPY PUSH1 0x0 RETURN INVALID PUSH1 0x80 PUSH1 0x40 MSTORE PUSH1 0x4 CALLDATASIZE LT PUSH2 0x34 JUMPI PUSH1 0x0 CALLDATALOAD PUSH1 0xE0 SHR DUP1 PUSH4 0x11DA60B4 EQ PUSH2 0x39 JUMPI DUP1 PUSH4 0x2C0E0054 EQ PUSH2 0x50 JUMPI DUP1 PUSH4 0xB2FA1C9E EQ PUSH2 0x63 JUMPI JUMPDEST PUSH1 0x0 DUP1 REVERT JUMPDEST CALLVALUE DUP1 ISZERO PUSH2 0x45 JUMPI PUSH1 0x0 DUP1 REVERT JUMPDEST POP PUSH2 0x4E PUSH2 0x84 JUMP JUMPDEST STOP JUMPDEST PUSH2 0x4E PUSH2 0x5E CALLDATASIZE PUSH1 0x4 PUSH2 0x1AA JUMP JUMPDEST PUSH2 0x14B JUMP JUMPDEST CALLVALUE DUP1 ISZERO PUSH2 0x6F JUMPI PUSH1 0x0 DUP1 REVERT JUMPDEST POP PUSH1 0x40 DUP1 MLOAD SELFBALANCE ISZERO DUP2 MSTORE SWAP1 MLOAD SWAP1 DUP2 SWAP1 SUB PUSH1 0x20 ADD SWAP1 RETURN JUMPDEST PUSH1 0x0 SLOAD PUSH1 0x1 PUSH1 0x1 PUSH1 0xA0 SHL SUB AND CALLER EQ PUSH2 0x9B JUMPI PUSH1 0x0 DUP1 REVERT JUMPDEST PUSH1 0x1 SLOAD NUMBER GT PUSH2 0xA9 JUMPI PUSH1 0x0 DUP1 REVERT JUMPDEST PUSH1 0x0 PUSH1 0xA PUSH2 0xB8 PUSH1 0x1 NUMBER PUSH2 0x1EA JUMP JUMPDEST PUSH1 0x40 DUP1 MLOAD SWAP2 BLOCKHASH PUSH1 0x20 DUP4 ADD MSTORE TIMESTAMP SWAP1 DUP3 ADD MSTORE PUSH1 0x60 ADD PUSH1 0x40 MLOAD PUSH1 0x20 DUP2 DUP4 SUB SUB DUP2 MSTORE SWAP1 PUSH1 0x40 MSTORE DUP1 MLOAD SWAP1 PUSH1 0x20 ADD KECCAK256 PUSH1 0x0 SHR PUSH2 0xEE SWAP2 SWAP1 PUSH2 0x201 JUMP JUMPDEST PUSH1 0x0 DUP1 SLOAD PUSH1 0x1 PUSH1 0x1 PUSH1 0xA0 SHL SUB NOT AND SWAP1 DUP2 SWAP1 SSTORE SWAP1 SWAP2 POP PUSH1 0xFF DUP1 DUP4 AND PUSH1 0x1 PUSH1 0xA0 SHL SWAP1 SWAP3 DIV AND SUB PUSH2 0x148 JUMPI PUSH1 0x40 MLOAD CALLER SWAP1 PUSH1 0x0 SWAP1 PUSH8 0x1BC16D674EC80000 SWAP1 DUP3 DUP2 DUP2 DUP2 DUP6 DUP9 DUP4 CALL SWAP4 POP POP POP POP ISZERO DUP1 ISZERO PUSH2 0x146 JUMPI RETURNDATASIZE PUSH1 0x0 DUP1 RETURNDATACOPY RETURNDATASIZE PUSH1 0x0 REVERT JUMPDEST POP JUMPDEST POP JUMP JUMPDEST PUSH1 0x0 SLOAD PUSH1 0x1 PUSH1 0x1 PUSH1 0xA0 SHL SUB AND ISZERO PUSH2 0x161 JUMPI PUSH1 0x0 DUP1 REVERT JUMPDEST CALLVALUE PUSH8 0xDE0B6B3A7640000 EQ PUSH2 0x175 JUMPI PUSH1 0x0 DUP1 REVERT JUMPDEST PUSH1 0x0 DUP1 SLOAD PUSH1 0x1 PUSH1 0x1 PUSH1 0xA8 SHL SUB NOT AND CALLER PUSH1 0xFF PUSH1 0xA0 SHL NOT AND OR PUSH1 0x1 PUSH1 0xA0 SHL PUSH1 0xFF DUP5 AND MUL OR SWAP1 SSTORE PUSH2 0x1A4 NUMBER PUSH1 0x1 PUSH2 0x231 JUMP JUMPDEST PUSH1 0x1 SSTORE POP JUMP JUMPDEST PUSH1 0x0 PUSH1 0x20 DUP3 DUP5 SUB SLT ISZERO PUSH2 0x1BC JUMPI PUSH1 0x0 DUP1 REVERT JUMPDEST DUP2 CALLDATALOAD PUSH1 0xFF DUP2 AND DUP2 EQ PUSH2 0x1CD JUMPI PUSH1 0x0 DUP1 REVERT JUMPDEST SWAP4 SWAP3 POP POP POP JUMP JUMPDEST PUSH4 0x4E487B71 PUSH1 0xE0 SHL PUSH1 0x0 MSTORE PUSH1 0x11 PUSH1 0x4 MSTORE PUSH1 0x24 PUSH1 0x0 REVERT JUMPDEST PUSH1 0x0 DUP3 DUP3 LT ISZERO PUSH2 0x1FC JUMPI PUSH2 0x1FC PUSH2 0x1D4 JUMP JUMPDEST POP SUB SWAP1 JUMP JUMPDEST PUSH1 0x0 PUSH1 0xFF DUP4 AND DUP1 PUSH2 0x222 JUMPI PUSH4 0x4E487B71 PUSH1 0xE0 SHL PUSH1 0x0 MSTORE PUSH1 0x12 PUSH1 0x4 MSTORE PUSH1 0x24 PUSH1 0x0 REVERT JUMPDEST DUP1 PUSH1 0xFF DUP5 AND MOD SWAP2 POP POP SWAP3 SWAP2 POP POP JUMP JUMPDEST PUSH1 0x0 DUP3 NOT DUP3 GT ISZERO PUSH2 0x244 JUMPI PUSH2 0x244 PUSH2 0x1D4 JUMP JUMPDEST POP ADD SWAP1 JUMP INVALID LOG2 PUSH5 0x6970667358 0x22 SLT KECCAK256 CALLDATACOPY PUSH31 0x62C337CE676344F8DC1301E5516E20FC001516BC6C80DE6FDCF44E15165564 PUSH20 0x6F6C634300080F00330000000000000000000000 "
				},
				"gasEstimates": {
					"creation": {
						"codeDepositCost": "127800",
						"executionCost": "169",
						"totalCost": "127969"
					},
					"external": {
						"isComplete()": "198",
						"lockInGuess(uint8)": "48841",
						"settle()": "infinite"
					}
				},
				"methodIdentifiers": {
					"isComplete()": "b2fa1c9e",
					"lockInGuess(uint8)": "2c0e0054",
					"settle()": "11da60b4"
				}
			},
			"storageLayout": {
				"storage": [
					{
						"astId": 3,
						"contract": "lotteries/PredictTheFutureChallenge.sol:PredictTheFutureChallenge",
						"label": "guesser",
						"offset": 0,
						"slot": "0",
						"type": "t_address"
					},
					{
						"astId": 5,
						"contract": "lotteries/PredictTheFutureChallenge.sol:PredictTheFutureChallenge",
						"label": "guess",
						"offset": 20,
						"slot": "0",
						"type": "t_uint8"
					},
					{
						"astId": 7,
						"contract": "lotteries/PredictTheFutureChallenge.sol:PredictTheFutureChallenge",
						"label": "settlementBlockNumber",
						"offset": 0,
						"slot": "1",
						"type": "t_uint256"
					}
				],
				"types": {
					"t_address": {
						"encoding": "inplace",
						"label": "address",
						"numberOfBytes": "20"
					},
					"t_uint256": {
						"encoding": "inplace",
						"label": "uint256",
						"numberOfBytes": "32"
					},
					"t_uint8": {
						"encoding": "inplace",
						"label": "uint8",
						"numberOfBytes": "1"
					}
				}
			},
			"userdoc": {
				"kind": "user",
				"methods": {},
				"version": 1
			}
		}
	}
}