{
	"data": {
		"bytecode": {
			"linkReferences": {},
			"object": "608060405234801561001057600080fd5b506101ae806100206000396000f3fe608060405234801561001057600080fd5b50600436106100415760003560e01c806321aa061514610046578063380c7a6714610050578063b2fa1c9e1461005a575b600080fd5b61004e610078565b005b6100586100ba565b005b61006261012f565b60405161006f919061015d565b60405180910390f35b336000806101000a81548173ffffffffffffffffffffffffffffffffffffffff021916908373ffffffffffffffffffffffffffffffffffffffff160217905550565b60008054906101000a900473ffffffffffffffffffffffffffffffffffffffff1673ffffffffffffffffffffffffffffffffffffffff163373ffffffffffffffffffffffffffffffffffffffff161461011257600080fd5b6001600060146101000a81548160ff021916908315150217905550565b600060149054906101000a900460ff1681565b60008115159050919050565b61015781610142565b82525050565b6000602082019050610172600083018461014e565b9291505056fea2646970667358221220393372412fb5c4d505dd70b7fa52a8277c194e5baae5d141e67d01a3dd9a463664736f6c634300080f0033",
			"opcodes": "PUSH1 0x80 PUSH1 0x40 MSTORE CALLVALUE DUP1 ISZERO PUSH2 0x10 JUMPI PUSH1 0x0 DUP1 REVERT JUMPDEST POP PUSH2 0x1AE DUP1 PUSH2 0x20 PUSH1 0x0 CODECOPY PUSH1 0x0 RETURN INVALID PUSH1 0x80 PUSH1 0x40 MSTORE CALLVALUE DUP1 ISZERO PUSH2 0x10 JUMPI PUSH1 0x0 DUP1 REVERT JUMPDEST POP PUSH1 0x4 CALLDATASIZE LT PUSH2 0x41 JUMPI PUSH1 0x0 CALLDATALOAD PUSH1 0xE0 SHR DUP1 PUSH4 0x21AA0615 EQ PUSH2 0x46 JUMPI DUP1 PUSH4 0x380C7A67 EQ PUSH2 0x50 JUMPI DUP1 PUSH4 0xB2FA1C9E EQ PUSH2 0x5A JUMPI JUMPDEST PUSH1 0x0 DUP1 REVERT JUMPDEST PUSH2 0x4E PUSH2 0x78 JUMP JUMPDEST STOP JUMPDEST PUSH2 0x58 PUSH2 0xBA JUMP JUMPDEST STOP JUMPDEST PUSH2 0x62 PUSH2 0x12F JUMP JUMPDEST PUSH1 0x40 MLOAD PUSH2 0x6F SWAP2 SWAP1 PUSH2 0x15D JUMP JUMPDEST PUSH1 0x40 MLOAD DUP1 SWAP2 SUB SWAP1 RETURN JUMPDEST CALLER PUSH1 0x0 DUP1 PUSH2 0x100 EXP DUP2 SLOAD DUP2 PUSH20 0xFFFFFFFFFFFFFFFFFFFFFFFFFFFFFFFFFFFFFFFF MUL NOT AND SWAP1 DUP4 PUSH20 0xFFFFFFFFFFFFFFFFFFFFFFFFFFFFFFFFFFFFFFFF AND MUL OR SWAP1 SSTORE POP JUMP JUMPDEST PUSH1 0x0 DUP1 SLOAD SWAP1 PUSH2 0x100 EXP SWAP1 DIV PUSH20 0xFFFFFFFFFFFFFFFFFFFFFFFFFFFFFFFFFFFFFFFF AND PUSH20 0xFFFFFFFFFFFFFFFFFFFFFFFFFFFFFFFFFFFFFFFF AND CALLER PUSH20 0xFFFFFFFFFFFFFFFFFFFFFFFFFFFFFFFFFFFFFFFF AND EQ PUSH2 0x112 JUMPI PUSH1 0x0 DUP1 REVERT JUMPDEST PUSH1 0x1 PUSH1 0x0 PUSH1 0x14 PUSH2 0x100 EXP DUP2 SLOAD DUP2 PUSH1 0xFF MUL NOT AND SWAP1 DUP4 ISZERO ISZERO MUL OR SWAP1 SSTORE POP JUMP JUMPDEST PUSH1 0x0 PUSH1 0x14 SWAP1 SLOAD SWAP1 PUSH2 0x100 EXP SWAP1 DIV PUSH1 0xFF AND DUP2 JUMP JUMPDEST PUSH1 0x0 DUP2 ISZERO ISZERO SWAP1 POP SWAP2 SWAP1 POP JUMP JUMPDEST PUSH2 0x157 DUP2 PUSH2 0x142 JUMP JUMPDEST DUP3 MSTORE POP POP JUMP JUMPDEST PUSH1 0x0 PUSH1 0x20 DUP3 ADD SWAP1 POP PUSH2 0x172 PUSH1 0x0 DUP4 ADD DUP5 PUSH2 0x14E JUMP JUMPDEST SWAP3 SWAP2 POP POP JUMP INVALID LOG2 PUSH5 0x6970667358 0x22 SLT KECCAK256 CODECOPY CALLER PUSH19 0x412FB5C4D505DD70B7FA52A8277C194E5BAAE5 0xD1 COINBASE 0xE6 PUSH30 0x1A3DD9A463664736F6C634300080F003300000000000000000000000000 "
		},
		"gasEstimates": {
			"creation": {
				"codeDepositCost": "86000",
				"executionCost": "135",
				"totalCost": "86135"
			},
			"external": {
				"AssumeOwmershipChallenge()": "24388",
				"authenticate()": "26628",
				"isComplete()": "2543"
			}
		},
		"methodIdentifiers": {
			"AssumeOwmershipChallenge()": "21aa0615",
			"authenticate()": "380c7a67",
			"isComplete()": "b2fa1c9e"
		}
	},
	"abi": [
		{
			"inputs": [],
			"name": "AssumeOwmershipChallenge",
			"outputs": [],
			"stateMutability": "nonpayable",
			"type": "function"
		},
		{
			"inputs": [],
			"name": "authenticate",
			"outputs": [],
			"stateMutability": "nonpayable",
			"type": "function"
		},
		{
			"inputs": [],
			"name": "isComplete",
			"outputs": [
				{
					"internalType": "bool",
					"name": "",
					"type": "bool"
				}
			],
			"stateMutability": "view",
			"type": "function"
		}
	]
}