{
	"warmup/CallMeChallenge.sol": {
		"CallMeChallenge": {
			"abi": [
				{
					"inputs": [],
					"name": "callme",
					"outputs": [],
					"stateMutability": "nonpayable",
					"type": "function"
				},
				{
					"inputs": [],
					"name": "isComplete",
					"outputs": [
						{
							"internalType": "bool",
							"name": "",
							"type": "bool"
						}
					],
					"stateMutability": "view",
					"type": "function"
				}
			],
			"devdoc": {
				"kind": "dev",
				"methods": {},
				"version": 1
			},
			"evm": {
				"assembly": "    /* \"warmup/CallMeChallenge.sol\":61:196  contract CallMeChallenge {... */\n  mstore(0x40, 0x80)\n    /* \"warmup/CallMeChallenge.sol\":118:123  false */\n  0x00\n    /* \"warmup/CallMeChallenge.sol\":93:123  bool public isComplete = false */\n  dup1\n  sload\n  not(0xff)\n  and\n  swap1\n  sstore\n    /* \"warmup/CallMeChallenge.sol\":61:196  contract CallMeChallenge {... */\n  callvalue\n  dup1\n  iszero\n  tag_1\n  jumpi\n  0x00\n  dup1\n  revert\ntag_1:\n  pop\n  dataSize(sub_0)\n  dup1\n  dataOffset(sub_0)\n  0x00\n  codecopy\n  0x00\n  return\nstop\n\nsub_0: assembly {\n        /* \"warmup/CallMeChallenge.sol\":61:196  contract CallMeChallenge {... */\n      mstore(0x40, 0x80)\n      callvalue\n      dup1\n      iszero\n      tag_1\n      jumpi\n      0x00\n      dup1\n      revert\n    tag_1:\n      pop\n      jumpi(tag_2, lt(calldatasize, 0x04))\n      shr(0xe0, calldataload(0x00))\n      dup1\n      0xa3c8e393\n      eq\n      tag_3\n      jumpi\n      dup1\n      0xb2fa1c9e\n      eq\n      tag_4\n      jumpi\n    tag_2:\n      0x00\n      dup1\n      revert\n        /* \"warmup/CallMeChallenge.sol\":132:193  function callme() public {... */\n    tag_3:\n      tag_5\n        /* \"warmup/CallMeChallenge.sol\":168:178  isComplete */\n      0x00\n        /* \"warmup/CallMeChallenge.sol\":168:185  isComplete = true */\n      dup1\n      sload\n      not(0xff)\n      and\n        /* \"warmup/CallMeChallenge.sol\":181:185  true */\n      0x01\n        /* \"warmup/CallMeChallenge.sol\":168:185  isComplete = true */\n      or\n      swap1\n      sstore\n        /* \"warmup/CallMeChallenge.sol\":132:193  function callme() public {... */\n      jump\n    tag_5:\n      stop\n        /* \"warmup/CallMeChallenge.sol\":93:123  bool public isComplete = false */\n    tag_4:\n      sload(0x00)\n      tag_7\n      swap1\n      0xff\n      and\n      dup2\n      jump\n    tag_7:\n      mload(0x40)\n        /* \"#utility.yul\":179:193   */\n      swap1\n      iszero\n        /* \"#utility.yul\":172:194   */\n      iszero\n        /* \"#utility.yul\":154:195   */\n      dup2\n      mstore\n        /* \"#utility.yul\":142:144   */\n      0x20\n        /* \"#utility.yul\":127:145   */\n      add\n        /* \"warmup/CallMeChallenge.sol\":93:123  bool public isComplete = false */\n      mload(0x40)\n      dup1\n      swap2\n      sub\n      swap1\n      return\n\n    auxdata: 0xa26469706673582212203f03628f0943b29850fda41f8311058af0c37e2d247d71f120b09c1155b055bd64736f6c634300080f0033\n}\n",
				"bytecode": {
					"linkReferences": {},
					"object": "60806040526000805460ff19169055348015601957600080fd5b5060a0806100286000396000f3fe6080604052348015600f57600080fd5b506004361060325760003560e01c8063a3c8e393146037578063b2fa1c9e14604a575b600080fd5b60486000805460ff19166001179055565b005b60005460569060ff1681565b604051901515815260200160405180910390f3fea26469706673582212203f03628f0943b29850fda41f8311058af0c37e2d247d71f120b09c1155b055bd64736f6c634300080f0033",
					"opcodes": "PUSH1 0x80 PUSH1 0x40 MSTORE PUSH1 0x0 DUP1 SLOAD PUSH1 0xFF NOT AND SWAP1 SSTORE CALLVALUE DUP1 ISZERO PUSH1 0x19 JUMPI PUSH1 0x0 DUP1 REVERT JUMPDEST POP PUSH1 0xA0 DUP1 PUSH2 0x28 PUSH1 0x0 CODECOPY PUSH1 0x0 RETURN INVALID PUSH1 0x80 PUSH1 0x40 MSTORE CALLVALUE DUP1 ISZERO PUSH1 0xF JUMPI PUSH1 0x0 DUP1 REVERT JUMPDEST POP PUSH1 0x4 CALLDATASIZE LT PUSH1 0x32 JUMPI PUSH1 0x0 CALLDATALOAD PUSH1 0xE0 SHR DUP1 PUSH4 0xA3C8E393 EQ PUSH1 0x37 JUMPI DUP1 PUSH4 0xB2FA1C9E EQ PUSH1 0x4A JUMPI JUMPDEST PUSH1 0x0 DUP1 REVERT JUMPDEST PUSH1 0x48 PUSH1 0x0 DUP1 SLOAD PUSH1 0xFF NOT AND PUSH1 0x1 OR SWAP1 SSTORE JUMP JUMPDEST STOP JUMPDEST PUSH1 0x0 SLOAD PUSH1 0x56 SWAP1 PUSH1 0xFF AND DUP2 JUMP JUMPDEST PUSH1 0x40 MLOAD SWAP1 ISZERO ISZERO DUP2 MSTORE PUSH1 0x20 ADD PUSH1 0x40 MLOAD DUP1 SWAP2 SUB SWAP1 RETURN INVALID LOG2 PUSH5 0x6970667358 0x22 SLT KECCAK256 EXTCODEHASH SUB PUSH3 0x8F0943 0xB2 SWAP9 POP REVERT LOG4 0x1F DUP4 GT SDIV DUP11 CREATE 0xC3 PUSH31 0x2D247D71F120B09C1155B055BD64736F6C634300080F003300000000000000 "
				},
				"gasEstimates": {
					"creation": {
						"codeDepositCost": "32000",
						"executionCost": "24299",
						"totalCost": "56299"
					},
					"external": {
						"callme()": "24334",
						"isComplete()": "2298"
					}
				},
				"methodIdentifiers": {
					"callme()": "a3c8e393",
					"isComplete()": "b2fa1c9e"
				}
			},
			"storageLayout": {
				"storage": [
					{
						"astId": 4,
						"contract": "warmup/CallMeChallenge.sol:CallMeChallenge",
						"label": "isComplete",
						"offset": 0,
						"slot": "0",
						"type": "t_bool"
					}
				],
				"types": {
					"t_bool": {
						"encoding": "inplace",
						"label": "bool",
						"numberOfBytes": "1"
					}
				}
			},
			"userdoc": {
				"kind": "user",
				"methods": {},
				"version": 1
			}
		}
	}
}